:020000040800F2
:1000000000C0012075060008CF060008D1060008D0
:10001000D3060008D5060008D70600080000000037
:10002000000000000000000000000000D9060008E9
:10003000DB06000800000000DD060008E1060008FD
:10004000CD060008CD060008CD060008CD06000844
:10005000CD060008CD060008CD060008CD06000834
:10006000CD060008CD060008CD060008CD06000824
:10007000CD060008CD060008CD060008CD06000814
:10008000CD060008CD060008CD060008CD06000804
:10009000CD060008CD060008CD060008CD060008F4
:1000A000CD060008CD060008CD060008CD060008E4
:1000B000CD060008CD060008CD060008CD060008D4
:1000C000CD060008CD060008CD060008CD060008C4
:1000D000CD060008CD060008CD060008F907000887
:1000E000CD060008CD060008CD060008CD060008A4
:1000F000CD060008CD060008CD060008CD06000894
:10010000CD060008CD060008CD060008CD06000883
:10011000CD060008CD060008CD060008CD06000873
:10012000CD060008CD060008CD060008CD06000863
:10013000CD060008CD060008CD060008CD06000853
:10014000CD060008CD060008CD060008CD06000843
:10015000CD060008CD060008CD060008CD06000833
:10016000CD060008CD060008CD060008CD06000823
:10017000CD060008CD060008CD060008CD06000813
:08018000CD060008CD060008C1
:1001880010B5054C237833B9044810B10448AFF3CF
:1001980000800121217010BD4004002000000000F3
:1001A800140F000808B5064B1BB106480649AFF303
:1001B80000800648016811B1054B03B1984708BD96
:1001C80000000000140F0008440400204004002030
:1001D80000000000014600200246034600F03AB83D
:1001E80038B5084D084C641BA41006D005EB8405EF
:1001F80055F8043D9847013CFAD1BDE8384000F075
:100208008BBE00BF340F0008380F000870B50D4DC5
:100218000D4E761BB61006D0002455F8043B013469
:100228009847A642F9D1094D094E761B00F06EFE9B
:10023800B61006D0002455F8043B01349847A6426E
:10024800F9D170BD2C0F00082C0F00082C0F0008E6
:10025800340F00082DE9F041274C2568D5F84841AE
:1002680084B00646002C41D060681F281DDD234855
:1002780010B94FF0FF301FE04FF4C870039102929D
:100288000193AFF300800399029A019B044600286A
:10029800EFD0D5F84801002784E88100C5F8484127
:1002A8003846C4F88871C4F88C7146B9831C01308B
:1002B80044F823106060002004B0BDE8F081D4F851
:1002C80088C1012504EB800885404CEA050C022E04
:1002D8004746C8F88820C4F888C1C8F80831E5D16D
:1002E800D4F88C311D43C4F88C51DFE705F5A674AA
:1002F800C5F84841B8E700BF0C0F0008000000002F
:1003080090F8413090F84020013303F03F039A42BF
:1003180006D090F84120815480F841300120704780
:100328000020704790F8402090F841309A420CD055
:1003380090F84030C35C0B7090F84030013303F004
:100348003F0380F84030012070470020704790F844
:10035800413080F8403070470820704708B500F0F9
:1003680083FBF320BDE8084000F0A0BB10B5FFF701
:10037800F3FF044606E00221204600F005FC0828A9
:1003880004D10834582CF6D9002010BD012010BD26
:1003980003689B002DE9F04103600368164F03F1E1
:1003A800006303F580430446904603600E4600252B
:1003B80010E0206856F8041B00F0C8FB082811D18B
:1003C80023681A6856F8043C9A420ED1236804330D
:1003D8002360013545450BD02368BB42E9D900208D
:1003E800BDE8F0810120BDE8F0810220BDE8F08180
:1003F8000020BDE8F08100BFFBFF0F0810B5FFF734
:10040800ABFF044600F04CFBE40840F6FF732041C4
:1004180053FA04F4031B584240EB030010BD07B520
:100428000823009302230193FFF796FF0090009B97
:100438000122DB0812FA03F3C3F58053019300F09D
:1004480021FB0198002100F06BFB00F05FFB0828FE
:100458000CBF012002200EBD80EA0120082310F401
:10046800004F4FEA40001CBF80F4805080F021000C
:10047800013B80B2F3D1704773B5724B724D0024C3
:1004880028461C6000F012FC6A684FF47A73B2FBCD
:10049800F3F26E4B013A5A606D4AF02182F823104C
:1004A80007229C601A6000F02DFA00F0DFF901289D
:1004B80040F0AB80FFF752FFFFF7A0FF08B1FFF74E
:1004C800AEFF6448FFF752FF042000F0E1F900F0A6
:1004D800A5F901380528FDD801A353F820F000BF7D
:1004E800D70400087D05000801050008DD040008A0
:1004F800DD0400080D06000803210020FFF7ACFF0B
:10050800054600F08BF9044621462846FFF7A4FF6C
:100518002306514C2360064600F080F9054629461B
:100528003046FFF799FF236843EA054525600646EC
:1005380000F074F9054629463046FFF78DFF236819
:1005480043EA05252560064600F068F90546294670
:100558003046FFF781FF23681D432560064600F0FB
:100568005DF9040200F05AF9A4B20443A4B2B442FB
:1005780046D1A9E702210020FFF76EFF054600F0EB
:100588004DF9044621462846FFF766FF240605462E
:10059800009400F043F9044621462846FFF75CFF23
:1005A800009B43EA04440546009400F037F90446EA
:1005B80021462846FFF750FF009B43EA04240546DE
:1005C800009400F02BF9044621462846FFF744FF23
:1005D800009B1C430546009400F020F9040200F03B
:1005E8001DF9A4B20443A4B2AC4209D11A4B02A823
:1005F8001B68694640F8043D0122FFF7C9FE63E71E
:10060800052062E7042000F043F9124C134B2268DE
:100618001340B3F1005F12D100F04AF9104B114AB0
:100628001B681360104A1360236883F308884FF02F
:100638000060084900F00EFA0B4B1B689847002031
:100648007CBD00BF600400206C04002010E000E0C6
:1006580000ED00E0004000085C0400200000FE2FD0
:10066800044000086404002068040020002103E01E
:100678000E4B5B58435004310D480E4B42189A42BA
:10068800F6D30D4A02E0002342F8043B0B4B9A4292
:10069800F9D30B48016841F47001016000F024F8B7
:1006A800FFF7B4FDFFF7E8FE70470000380F0008B9
:1006B800000000204004002040040020C004002066
:1006C80088ED00E0FEE77047FEE7FEE7FEE7FEE79D
:1006D8007047704770470000024B1A6801321A6071
:1006E800704700BF600400203A4B1A6842F00102CC
:1006F8001A6000229A60196821F0847121F480310F
:10070800196035495960196882B021F4802119604F
:10071800DA60009201921A6842F480321A601A680C
:1007280002F400320192009A01320092019A1AB939
:10073800009AB2F5A06FF2D1264B1B6813F4003370
:1007480018BF01230193019B012B2ED1214B1A6C59
:1007580042F080521A64214A116841F480411160C4
:100768009A689A609A6842F400429A609A6842F4D9
:10077800A0529A601A4A5A601A6842F080721A6047
:100788001968144A8901FBD5164B40F205711960A6
:10079800936823F003039360936843F00203936024
:1007A800936803F00C03082BFAD10A4B9A6822F4D9
:1007B80000029A600C4AC3F884201A6842F08062EA
:1007C8001A601A681201FCD5084B4FF000629A6053
:1007D80002B070470038024010300024007000401A
:1007E80008544007003C0240C05F002000ED00E0D4
:1007F80008B5084840F2255100F05BFB40B10548B8
:1008080000F034FBC1B20448BDE80840FFF778BDEA
:1008180008BD00BF004800407C04002007B505481B
:100828000DF10701FFF77EFD0028F8D09DF80700BD
:100838000EBD00BF7C04002037B50A4C2368C518DC
:1008480002E02368AB4209D207480DF10701FFF720
:1008580069FD0028F5D09DF8070001E04FF6FF700C
:1008680000B23EBD600400207C04002010B540F6B4
:10087800B830FFF7E1FF0128044604D10348FFF729
:1008880066FD204610BD002010BD00BF7C0400207E
:1008980010B504460548402100F005FB0028F9D0B2
:1008A80002482146BDE8104000F0DCBA004800408C
:1008B8001FB5134C01A800F0C3FA204601A900F0A7
:1008C800AFFA0021204600F0C1FA27238DF80C303A
:1008D8000F238DF80D308DF80E3003A801238DF805
:1008E8000F3000F083F82046002240F2277100F014
:1008F800C1FA204640F22551002200F0BBFA1FBD84
:100908000048004070B502208AB0364D012100F041
:1009180013FA01214FF4802000F01AFA002402266D
:100928004FF40063284605A905938DF818608DF8E3
:1009380019608DF81B608DF81A4000F05BF94FF4D0
:100948008063284605A905938DF818608DF819600D
:100958008DF81A408DF81B4000F04CF928460B2101
:10096800072200F08CF907220A21284600F087F9AF
:10097800A5F5DE3507A800F063FA284607A900F0B8
:100988004FFA194BADF80840019328460C2301A9EA
:10099800ADF80E30ADF80A40ADF80C40ADF8104097
:1009A80000F0E2F90121284600F050FA27238DF8DB
:1009B800243001260F2309A88DF825308DF826301C
:1009C8008DF8276000F012F82846224640F2277179
:1009D80000F050FA284640F22551324600F04AFA13
:1009E8000AB070BD0004024020A10700C37810B50A
:1009F800FBB1164B4278DB688478DB43C3F30223F0
:100A0800C3F10401C9B212FA01F10F221A41C9B2A5
:100A180022400A430E4B01781201CB18D2B283F858
:100A2800002303780122590903F01F0312FA03F384
:100A380007E003780122590903F01F0312FA03F3B0
:100A48002031034A42F8213010BD00BF00ED00E01C
:100A580000E100E021F0604121F07F01014B0843F3
:100A68009860704700ED00E0044B1A69002A04DA28
:100A7800034A5A6002F188325A607047003C0240CB
:100A880023016745044B5A69D20704D5034A9A6083
:100A980002F144329A607047003C02403B2A190830
:100AA800014B188880B27047163C0240014BD86051
:100AB800704700BF003C02400B4BDA68D0030DD4EE
:100AC800DA68D1060CD4DA6812F0EF0F0AD1DB68C5
:100AD80013F0020F0CBF0820072070470120704751
:100AE8000520704706207047003C024007B50823E0
:100AF8008DF80730FFF7E0FF8DF807009DF8073005
:100B0800012BF7D09DF807000EBD0000034B1A78A3
:100B180042F002021A70FFF7E9BF00BF143C02401E
:100B280038B504460D46FFF7E1FF08280AD1064B01
:100B38001A8825B192B222EA04041C8038BD1443F5
:100B4800A4B21C8038BD00BF163C024070B50446F4
:100B58000E46FFF7CBFF082813D10A4D2B6923F463
:100B680040732B612B6943F400732B612B6943F0AD
:100B780001032B612660FFF7B9FF2B6923F00103FE
:100B88002B6170BD003C024070B5044641B101299B
:100B980008D0022914BF4FF440764FF4007603E0E2
:100BA8000E4601E04FF48076FFF7A0FF08281ED11B
:100BB8000F4D2B6923F440732B612B691E432E6163
:100BC8002B6923F0F8032B612B6943F002031C43C4
:100BD8002C612B6943F480332B61FFF787FF2B6966
:100BE80023F002032B612B6923F0F8032B6170BDFE
:100BF800003C02402DE9F0470023D1F800801A4656
:100C08004FF0010C03270CFA02F404EA0805A54288
:100C18002FD1066817FA03F4E443264006600E79DC
:100C2800D0F8009006FA03FA013EF6B24AEA09093A
:100C3800012EC0F8009014D8866891F805902640D7
:100C48008660866809FA03F949EA060686604668F6
:100C580026EA050545608D7946689540ADB235436D
:100C68004560C5682C40C460CC79C5689C402C435D
:100C7800C46001320233102AC5D1BDE8F08701F003
:100C88000703C908083130B59B0050F821500F24DC
:100C98009C4025EA040440F8214050F8214012FA0B
:100CA80003F3234340F8213030BD000010B51E4B3C
:100CB8009A6802F00C02042A03D0082A03D01B4BBE
:100CC80018E01B4B16E059685A6811F4800F5968F0
:100CD80014BF174B154B02F03F02B3FBF2F3124A55
:100CE8005268C2F30142C1F3881101324B435200EA
:100CF800B3FBF2F30C4903608B680E4A0468C3F334
:100D08000313D35C34FA03F343608C68C4F382247E
:100D1800145D33FA04F484608968C1F34231525C8B
:100D2800D340C36010BD00BF003802400024F40067
:100D380000127A0030040020044B1A6B09B11043EA
:100D480001E022EA00001863704700BF0038024043
:100D5800044B1A6C09B1104301E022EA0000186440
:100D6800704700BF0038024030B5038ACA889BB27A
:100D780023F440530D461343038283890989AA88C3
:100D880023F4B0530A43698923F00C031B040A4374
:100D98001B0C92B213438381838AAA899BB223F4E2
:100DA8004073134385B0838204466846FFF77EFF8D
:100DB8001A4B9C4203D003F580639C4201D1039BEC
:100DC80000E0029BA28912B2002A4FF019012A689A
:100DD80001FB03F101DA520000E092006423B1FB49
:100DE800F2F1B1FBF3F21201100903FB1011A08913
:100DF80000B2002806DAC9003231B1FBF3F303F080
:100E0800070305E009013231B1FBF3F303F00F03E7
:100E18001A4392B2228105B030BD00BF00100140D4
:100E28000B88028A10B54C8823438C88C9882343D1
:100E380092B20B4322F470629BB21343038210BD3B
:100E48000023038043808380C3807047838919B15E
:100E58009BB243F4005303E023F400531B041B0C20
:100E680083817047C905C90D818070478088C00596
:100E7800C00D7047C1F3421310B501F01F010124E2
:100E880014FA01F1A34201D10C3004E0022B01D184
:100E9800103000E0143003680AB1194301E023EA76
:100EA8000101016010BD038819420CBF0020012018
:100EB8007047012210B501F01F03C1F342149A4094
:100EC800012C01D1838903E0022C0CBF038A838A99
:100ED8009BB21340028892B243B1090A012313FA64
:100EE80001F111420CBF0020012010BD184610BDB1
:100EF800024B13B10248FFF76DB9704700000000BC
:100F0800E90100080800002043000000F8B500BF10
:100F1800F8BC08BC9E467047F8B500BFF8BC08BCD2
:040F28009E4670472A
:080F2C00F90E0008AD010008F8
:040F34008901000827
:100F3800080000200000000000000000F40200206B
:100F48005C030020C4030020000000000000000033
:100F58000000000000000000000000000000000089
:100F6800000000000000000000000000100F000852
:100F78000000000000000000000000000000000069
:100F88000000000000000000000000000000000059
:100F98000000000000000000000000000000000049
:100FA8000000000000000000000000000000000039
:100FB8000000000000000000000000000000000029
:100FC8000000000000000000000000000000000019
:100FD8000000000000000000000000000000000009
:100FE80001000000000000000E33CDAB34126DE6A6
:100FF800ECDE05000B00000000000000000000000F
:1010080000000000000000000000000000000000D8
:1010180000000000000000000000000000000000C8
:1010280000000000000000000000000000000000B8
:1010380000000000000000000000000000000000A8
:101368000000000001020304010203040607080943
:040000050800067574
:00000001FF
