:100000000C94DE080C94FB080C94FB080C94FB0881
:100010000C94FB080C94FB080C94FB080C94FB0854
:100020000C94FB080C94FB080C94FB080C94912690
:100030000C94FB080C94FB080C94FB080C94FB0834
:100040000C94910E0C94FB080C94FB080C94FB0888
:100050000C941B280C9443280C94FB080C94FB086C
:100060000C94FB080C94FB080C94FB080C94FB0804
:1000700053442063617264204F4B00756E6B6E6F4A
:10008000776E206572726F7200696E697420657296
:10009000726F72006E6F742064657465637465645A
:1000A000210053442063617264004C585220447212
:1000B000756D73205600536F6E696320506F7469BD
:1000C0006F6E7300010221000000000008090100AA
:1000D0000000000003041E000000000031323E005A
:1000E00000000000051E064338393A00464E4A001B
:1000F000958F8900070821350000000052531486AF
:10010000000000002223240000000000CBC5D10025
:10011000000000000F10113700000000252BBF80E9
:1001200000000000161A17181B1C1D1973B3799BC9
:10013000ADB9A1A70A0B3209312D3000585E6C66AB
:10014000D7EDF30001022100000000000A0B0200BD
:100150000000000003041E000000000033343F00D4
:1001600000000000051E064338393A00474F4B0097
:1001700096908A0007082135000000005455158725
:10018000000000002223240000000000CCC6D200A2
:10019000000000000F10113700000000262CC08165
:1001A00000000000161A17181B1C1D1974B47A9C45
:1001B000AEBAA2A80A0B3209312D3000595F6D6723
:1001C000D8EDF40001022100000000000C0D030036
:1001D0000000000003041E0000000000353640004F
:1001E00000000000051E064338393A0048504C0014
:1001F00097918B000708213500000000565716889C
:10020000000000002223240000000000CDC7D3001E
:10021000000000000F10113700000000272DC182E0
:1002200000000000161A17181B1C1D1975B57B9DC0
:10023000AFBBA3A90A0B3209312D30005A606E689A
:10024000D9EDF50001020C0D210000000E0F1B1C62
:100250000400000003040E1E000000003738444173
:1002600000000000051E064338393A0049514D0090
:1002700098928C00000000000000000000000000C8
:10028000000000002223240000000000CEC8D4009B
:10029000000000000F10113700000000282EC2835C
:1002A00000000000161A17181B1C1D1976B67C9E3C
:1002B000B0BCA4AA0A0B3209312D30005B636F6910
:1002C000DAEDF60001022100000000001011060026
:1002D0000000000003040E1E00000000393A4542F1
:1002E0000000000038393A000000000099938D00AA
:1002F0000000000012131415212100001D1E1F20F4
:10030000171800002223240000000000CFC9D500E8
:10031000000000000F10113700000000292FC384D7
:1003200000000000161A17181B1C1D1977B77D9FB7
:10033000B1BDA5AB0A0B3209312D30005C64706A87
:10034000DBEDF7000102210000000000121307009E
:1003500000000000031F201E000000003B3C3D4346
:100360000000000038393A00000000009A948E0026
:100370000000000012131415212100002122232463
:10038000191A00002223240000000000D0CAD60061
:10039000000000000F101137000000002A30C48553
:1003A00000000000161A17181B1C1D1978B87EA033
:1003B000B2BEA6AC0A0B3209312D30005D65716BFF
:1003C000DCEDF8000102210000000000121307001C
:1003D00000000000031F201E000000003B3C3D43C6
:1003E0000000000038393A00000000009A948E00A6
:1003F00000000000121314152121000021222324E3
:10040000191A00002223240000000000D0CAD600E0
:10041000000000000F101137000000002A30C485D2
:1004200000000000161A17181B1C1D1978B87EA0B2
:10043000B2BEA6AC0A0B3209312D30005D65716B7E
:10044000DCEDFE002F483B3C3D420000F2FDF9FA96
:10045000FBFC0000000000000000000000000000A5
:10046000000000000000000000000000000000008C
:10047000000000000000000000000000000000007C
:10048000000000000000000000000000000000006C
:10049000000000000000000000000000000000005C
:1004A000000000000000000000000000000000004C
:1004B000000000000000000000000000000000003C
:1004C000000000000000000000000000000000002C
:1004D000000000000000000000000000000000001C
:1004E000000000000000000000000000000000000C
:1004F00000000000000000000000000000000000FC
:1005000000000000000000000000000000000000EB
:1005100000000000000000000000000000000000DB
:1005200000000000000000000000000000000000CB
:1005300000000000000000000000000000000000BB
:1005400000000000000000000000000000000000AB
:10055000000000000000000000000000000000009B
:10056000000000000000000000000000000000008B
:10057000000000000000000000000000000000007B
:10058000000000000000000000000000000000006B
:10059000000000000000000000000000000000005B
:1005A000000000000000000000000000000000004B
:1005B000000000000000000000000000000000003B
:1005C000000000004127283200000000EADDDE7252
:1005D000000000000000000000000000000000001B
:1005E000000000000000000000000000000000000B
:1005F00000000000000000000000000000000000FB
:1006000000000000000000000000000000000000EA
:1006100000000000000000000000000000000000DA
:1006200000000000000000000000000000000000CA
:1006300000000000000000000000000000000000BA
:1006400000000000292A2B433F403F40E0E2E10048
:10065000E6E8E7E9000000000000000000000000FC
:10066000000000000000000000000000000000008A
:10067000000000000000000000000000000000007A
:10068000000000000000000000000000000000006A
:10069000000000000000000000000000000000005A
:1006A000000000000000000000000000000000004A
:1006B000000000000000000000000000000000003A
:1006C000000000002D2E282700000000E3E4DEDDFE
:1006D000000000000000000000000000000000001A
:1006E000000000000000000000000000000000000A
:1006F00000000000000000000000000000000000FA
:1007000000000000000000000000000000000000E9
:1007100000000000000000000000000000000000D9
:1007200000000000000000000000000000000000C9
:1007300000000000000000000000000000000000B9
:10074000000000003334000000000000EBEC00006B
:100750000000000000000000000000000000000099
:100760000000000000000000000000000000000089
:100770000000000000000000000000000000000079
:100780000000000000000000000000000000000069
:100790000000000000000000000000000000000059
:1007A0000000000000000000000000000000000049
:1007B0000000000000000000000000000000000039
:1007C000000000003E3D000000000000E5FB0000CE
:1007D0000000000000000000000000000000000019
:1007E0000000000000000000000000000000000009
:1007F00000000000000000000000000000000000F9
:1008000000000000000000000000000000000000E8
:1008100000000000000000000000000000000000D8
:1008200000000000000000000000000000000000C8
:1008300000000000000000000000000000000000B8
:10084000000000004445474600000000EEEFF1F0D4
:100850000000000000000000000000000000000098
:100860000000000000000000000000000000000088
:100870000000000000000000000000000000000078
:100880000000000000000000000000000000000068
:100890000000000000000000000000000000000058
:1008A0000000000000000000000000000000000048
:1008B0000000000000000000000000000000000038
:1008C0000000000002000000747267006E74650092
:1008D000050000006F666600380000003136000039
:1008E00033320000363400000E000000536E7000FA
:1008F0004F666600436C6B00436B320054696B00BB
:100900004B696B0052696D0044727000486174005D
:10091000436C70004B693200536E6100546F6D0080
:10092000537032000F000000703100007032000080
:100930007033000070340000703500007036000025
:10094000703700007038000072320000723300000F
:1009500072340000723500007236000072370000F9
:1009600072380000070000006F66660076310000F4
:1009700076320000763300007634000076350000D1
:10098000763600000800000073696E00747269001A
:100990007375700073646E0073717200726E640020
:1009A0007875700078646E000E0000004F6E650070
:1009B000312F3100312F3200312F3300312F3400ED
:1009C000312F3600312F380031320000313600002F
:1009D0003234000033320000343800003634000076
:1009E000313238000C0000006F666600342F310091
:1009F000322F3100312F3100312F3200312F3300AF
:100A0000312F3400312F3600312F380031320000C1
:100A100031360000333200000600000053696E00DA
:100A20005472690053617700526563004E6F69002C
:100A300043796D000600000000000053743100008F
:100A40000000537432000000004C31000000000030
:100A5000523100000000004C320000000000523211
:100A6000000000000007000000000000004C5000E3
:100A7000000000000048500000000000004250004C
:100A8000000000000055425000000000004E6F744E
:100A9000000000000050656B00000000004F66661B
:100AA000000000000000000000636F610066696ED6
:100AB000006174740064656300656732006D6F6483
:100AC00000616D74006672710064727600766F6CFE
:100AD0000070616E006E6F6900727074006D6978ED
:100AE0000072657300747970006631000066320030
:100AF000006731000067320000776176006473742C
:100B000000736E6300727467006F666600766F69CB
:100B100000736C700064310000643200006571671E
:100B20000065716600726F6C006D7270006E7465A6
:100B30000070726200737470006C656E0062706D9C
:100B400000636820006F757400737200006E787423
:100B5000006D6F640076656C0066657400666C7786
:100B600000716E740074726B0076616C007368754E
:100B700000737300007800000079000000666C7854
:100B8000006D69640000000000000000000000002B
:100B900000000000004F7363696C6C61746F720039
:100BA000000000000056656C6F636974792045474A
:100BB00000000000004D6F64204547000000000069
:100BC00000000000005069746368204D6F642E00BF
:100BD0000000000000464D00000000000000000082
:100BE0000000000000566F6963650000000000000F
:100BF00000000000004E6F697365000000000000F7
:100C000000000000004E6F6973652F4F7363000092
:100C1000000000000046696C74657200000000006E
:100C200000000000004D6F642E204F736300000031
:100C300000000000004C464F0000000000000000D3
:100C400000000000005472616E7369656E740000EC
:100C500000000000004551000000000000000000FE
:100C600000000000005061747465726E00000000A6
:100C70000000000000536F756E640000000000006B
:100C800000000000005374657000000000000000C8
:100C9000000000000045756B6C69640000000000F6
:100CA0000000000000476C6F62616C0000000000F3
:100CB000000000000056656C6F63697479000000E5
:100CC0000000000000506172616D65746572000083
:100CD000000000000053657175656E636572000069
:100CE000000000000047656E657261746F7200005D
:100CF00000000000004D49444900000000000000D1
:100D000000000000000000000000000000000000E3
:100D10000000000000436F61727365000000000076
:100D2000000000000046696E650000000000000041
:100D3000000000000041747461636B00000000005B
:100D400000000000004465636179000000000000BD
:100D50000000000000416D6F756E7400000000001F
:100D600000000000004672657175656E63790000D1
:100D700000000000004F76657264726976650000BD
:100D80000000000000566F6C756D650000000000EB
:100D9000000000000050616E6E696E670000000088
:100DA00000000000004D6978000000000000000015
:100DB000000000000052657065617420436F756E1D
:100DC00074000000005265736F6E616E6365000011
:100DD0000000000000547970650000000000000071
:100DE00000000000004761696E0000000000000084
:100DF000000000000057617665666F726D000000AC
:100E00000000000000446573742E20506172616D13
:100E10002E00000000436C6F636B2053796E6300FB
:100E20000000000000526574726967676572000017
:100E300000000000004F666673657400000000004B
:100E40000000000000446573742E20566F696365CE
:100E50000000000000536C6F70650000000000008F
:100E60000000000000446563617920436C6F736586
:100E700064000000004465636179204F70656E0076
:100E80000000000000526F6C6C205261746500001D
:100E900000000000004D6F7270680000000000004C
:100EA00000000000004E6F746500000000000000AC
:100EB000000000000050726F626162696C697479B1
:100EC00000000000004E756D6265720000000000B9
:100ED00000000000004C656E6774680000000000B0
:100EE00000000000005374657073000000000000F3
:100EF000000000000054656D706F000000000000ED
:100F00000000000000417564696F204F7574000097
:100F100000000000004D494449204368616E6E6541
:100F20006C0000000053616D706C65205261746547
:100F300000000000004E6578742050617474657282
:100F40006E00000000506861736500000000000042
:100F500000000000004D6F6465000000000000000C
:100F60000000000000566F6C756D65206D6F642E7B
:100F70000000000000466574636800000000000087
:100F80000000000000466F6C6C6F770000000000EE
:100F900000000000005175616E7469736174696FBF
:100FA0006E000000004175746F6D2E2054726163F5
:100FB0006B000000004175746F6D2E2044657374E2
:100FC0002E000000004175746F6D2E2056616C7507
:100FD000650000000053687566666C6500000000DF
:100FE000000000000053637265656E736176657280
:100FF00000000000005820506F736974696F6E0024
:1010000000000000005920506F736974696F6E0012
:101010000000000000466C75780000000000000031
:10102000000000000056656C6F6369747900000071
:1010300000000000000000000101010201020302A3
:101040000304020404030406040507050508050655
:101050000906070A06080B06090C07060E080A0D02
:10106000020B0809060F090C10090D110A06120AD5
:1010700006130A0E140A0E080B06060B05150B0FB5
:10108000160B10170B11180B12190B131A0B141B3C
:1010900002151C02161D021715010F150C0F0A0C64
:1010A00008080C061E0D0E1F0D06200E18210F1924
:1010B0002C103222101A23101B24101C250E1D2464
:1010C000111E26121F2706212806202906220D0E92
:1010D0000B2A0E232B01250A0108090907161310F4
:1010E0000713050A13262D14272E15282F1529302E
:1010F000152A16152B31152C32152D33122E000002
:101100000034162F351630361631081606371725D7
:10111000537461727465640053616D706C65207501
:10112000706C6F616400656E64006F6B0053616D7D
:10113000706C65730053657474696E6773004D6FEE
:101140007270684B6974004B697420202020005035
:1011500061747465726E004C6F61643A006F6B006D
:1011600053657474696E6773004D6F7270684B6974
:1011700074005061747465726E20004B6974202095
:1011800020202000536176653A004C6F6164696EDF
:1011900067207061747465726E00536176696E6762
:1011A000207061747465726E00456D7074792020D2
:1011B0002000456D707479202020000011241FBE8E
:1011C000CFEFD0E1DEBFCDBF12E0A0E0B1E0EEEBAB
:1011D000F9E902C005900D92A431B107D9F71EE0DC
:1011E000A4E1B2E001C01D92A03BB107E1F70E946B
:1011F000982B0C94DD4C0C948E2B1F93182F87701A
:1012000010930201882331F4812F86958695869567
:10121000885E01C0805F61E00E94A02A0E94AE3F0C
:10122000482F40648FEB612F0E941E0F1F9108957D
:10123000809102018F3F09F44CC0982F977039F4C8
:1012400087FD895F859585958595885E05C068E0F1
:101250000E942749892F805F60E00E94A02A809128
:101260001902813051F4E0911702F0E0EE0FFF1FF8
:10127000EE55F74F8091180280838FEF8093020123
:101280008FEB60E040E00E941E0F809119028130D8
:1012900039F5109219029091170297FD03C080EB67
:1012A000692F05C0692F60586D3530F486EB409189
:1012B00018020E941E0F0AC0E92FF0E0EE0FFF1F78
:1012C000EE55F74F892F60810E947B3A0E94D335FB
:1012D0000895809302018FEB60E040E00E941E0FB2
:1012E00008958091020108950E94180980910101DA
:1012F0008E3F29F08FEF8093010180E0089581E017
:10130000089520912A0230912B022A5D3F4F30939D
:101310001C0220931B0280930101089520912A0250
:1013200030912B0280911B0290911C02821793072F
:1013300048F48091010187FD05C00E94FD088EEFF1
:101340008093010108959091790481E092FD80E0FD
:10135000089590911A02662349F021E030E002C01E
:10136000220F331F8A95E2F7292B09C021E030E0D4
:1013700002C0220F331F8A95E2F72095292320937C
:101380001A0280913302882329F080911A028095F5
:101390000E942229089580911A0280950E94222994
:1013A00081E08093330208950F931F93182F0E94BA
:1013B000A309882309F45AC020914702277030E01E
:1013C0002130310561F12230310524F42115310538
:1013D00049F09BC02230310529F02530310509F054
:1013E00094C01DC000911602010F812F805F0E94E2
:1013F00074290E94AE3F182F0E94512D612F6295D3
:10140000607F8770682B89EB402F0E941E0F82EB54
:101410006FE0402F0E941E0F0093600A76C0812F5C
:101420000E94492D0E94E4280E94502B812F805F4A
:1014300061E00E94A02A0E94AE3F082F0E94512D19
:10144000182F402F4295407F8770482B81EB63E037
:101450000E941E0F82EB6CE1412F0E941E0F82EB57
:1014600069E1409134020E941E0F4FC02091470253
:10147000277030E02130310581F12230310524F42C
:1014800021153105F9F041C02230310521F023301A
:101490003105D9F537C000911602010F82EB6FE0DC
:1014A000402F0E941E0F0093600A0E94502B802F35
:1014B000869586958695885E61E00E94A02A802F99
:1014C00087701BC0812F0E94A8380E94DD38812FB1
:1014D0000E940B290E94D33518C00E94AB3F8A306E
:1014E000A1F40E94A309882381F482EB6BE0412FD1
:1014F0000E941E0F0E94502B812F805F61E00E948E
:10150000A02A03C0812F0E94F4281F910F910895F3
:101510001F930E94E4280E94AE3F182F0E94512D75
:10152000412F4295407F8770482B81EB63E00E94FA
:101530001E0F1F91089580E00E94A8388BE00E9442
:10154000F3380E94880A8091000161E00E94A02A7D
:1015500008951F93182F0E94A30981111C5F177013
:1015600080914702887F812B809347020E94502BF5
:101570008091470287700E94F32A8091470287700A
:1015800090E08230910541F1833091053CF4009761
:1015900051F18130910509F04AC00BC085309105A9
:1015A000E1F18730910561F18330910509F03FC089
:1015B00025C00E94AE290E94E4280E943B2B0E9475
:1015C000ED38809315028AE00E94F33880E00E9493
:1015D000A8380E94D3352BC00E94ED380E940B29F9
:1015E0000E949B0A24C00E94AE3F0E94F3380E94D2
:1015F000ED380E940B290E94DD3819C088E015C023
:101600000E94AB3F182F87E00E94F338173079F41F
:101610000E94ED380E94A8380AC00E94AE3F482FB1
:1016200082EB69E10E941E0F8CE00E94F3381F914B
:1016300008958091000160E00E94A02A80E06091FE
:1016400000010E945329089580913402809314026E
:101650000E94ED388093150280E00E94A8388BE04C
:101660000E94F3380E94880A8091000161E00E9484
:10167000A02A08958091000160E00E94A02A80E0E5
:10168000609100010E9453290E94E4288091140275
:101690000E94F338809115020E94A83808950F9394
:1016A0001F93DF93CF930F92CDB7DEB7182F062F7E
:1016B0008091000160E00E94A02A80E0609100011A
:1016C0000E945329E0911602F0E0202F30E043E021
:1016D000220F331F4A95E1F7E217F30721F40E9426
:1016E000ED380E94A838402F440F440F440F409318
:1016F0001602109300014093600A812F61E0498334
:101700000E94A02A82EB6FE049810E941E0F0E9476
:10171000880A0F90CF91DF911F910F9108950F9339
:101720001F93082F162F80E0602F0E945329110F5E
:10173000110F110F109316021093600A009300010D
:1017400082EB6FE0412F0E941E0F0E94AE3F082FD8
:101750000E94512D602F6295607F8770682B412F0A
:101760004695469546958EEB0E941E0F1F910F9150
:1017700008950F931F93082F883120F4803108F0CB
:1017800092C057C08F3121F0823209F0A3C008C047
:101790000E94A309882309F09DC00E94782C9AC05A
:1017A00080912F02813029F480E00E94F42C109265
:1017B0002F0280E064E00E945329809147028770E5
:1017C00019F40E943A0B28C080914702877081303B
:1017D00051F40E94502B0E94E4288AE00E94F338C2
:1017E0000E943B2B77C0809147028770853069F457
:1017F0000E94E4280E94512D682F605F81E00E94C2
:1018000053298CE00E94F33807C08091470287700B
:10181000823011F40E949B0A8091470287708130C8
:1018200029F00E94AE3F0E94342954C00E94CB0987
:1018300051C00E94A309882369F00E94740988237B
:1018400009F048C080914702877009F443C0809135
:10185000470240C0102F185E20914702277030E0E9
:101860002130310599F02230310521F02115310563
:1018700021F030C00E9474092DC00E947409882391
:1018800049F5812F602F0E948F0B24C0083010F57E
:10189000402F4F7082EB60E10E941E0F80E0612FAD
:1018A0000E94532917C080912F02823098F40E9421
:1018B0007409882379F48FEF809301010E94A309B2
:1018C000882341F080914702877021F4802F805156
:1018D0000E94D4091F910F910895EF92FF920F93E8
:1018E0001F93CF93DF93082F0E94C83F0F3138F426
:1018F000083108F090C0003108F42FC113C0013244
:1019000009F465C0023238F40F3109F46BC10032BA
:1019100009F0D8C138C0023209F481C1073208F099
:10192000D1C12CC080912F02823098F00E948C2C63
:10193000902F9051882339F0892F62E00E94872CE4
:101940000E94C82C78C0892F62E00E94822C802FD0
:1019500087C080914702877061F40E94A3098823A1
:1019600041F080911602880F880F880F8051800FF8
:1019700027C1802F80510E94D409A4C1802F835297
:101980000E94A90A9FC180914702869586958695F7
:10199000817066E00E945329809147028695869562
:1019A000869580958170880F880F880F90914702E7
:1019B000977F982B90934702409147024695469512
:1019C0004695417082EB61E00E941E0F7BC10E9430
:1019D000A309882321F08EE00E94F33873C180911F
:1019E000470282958F70809581708295807F90915B
:1019F00047029F7E982B90934702809147028295E1
:101A0000817065E00E9453294091470242954170E0
:101A100082EB6BE1D9CF80912F02823028F10E94B6
:101A20008C2C902F98518823A9F0892F63E00E9475
:101A3000872C0E94A62C0E94502B0E94AE3F182F8C
:101A40000E94512D412F4295407F8770482B81EB9A
:101A500063E0BACF892F63E00E94822C802F8051EF
:101A600061E00E94A02A2EC10E94A3099091470222
:101A70009770913011F4981B892F8823D9F0085161
:101A800020911A0230E0002E02C0359527950A9465
:101A9000E2F720FF07C0802F60E00E94A90982EBD7
:101AA0006AE006C0802F61E00E94A90982EB69E02C
:101AB000402F8ACF809147028770813059F5C0E06E
:101AC000D0E010E00751104051E0E52EF12C1EC08F
:101AD00080911A0290E00C2E02C0959587950A9489
:101AE000E2F780FF12C082EB6AE04C2F0E941E0FCB
:101AF000C7010C2E02C0880F991F0A94E2F7809547
:101B000090911A02982390931A022196C017D10738
:101B1000FCF2D6C00851802F0E94342980914702E0
:101B2000877019F4802F0E94F33882EB65E1402F13
:101B30000E941E0F802F0E94B13F82EB69E1402F6F
:101B40000E941E0F809147028770823009F0BAC050
:101B50000E94502B0E949B0AB5C0102F185E0E9455
:101B6000A309882399F080914702877021F4812F7F
:101B7000602F0E944F0B809147028770823009F0DE
:101B8000A1C0812F602F0E948F0B9CC02091470223
:101B9000277030E021303105B1F02230310521F0DD
:101BA0002115310549F08EC00E94502B812F602FE6
:101BB0000E944F0B80E154CF802F880F880F880F31
:101BC0000E9481097FC0083008F07CC0402F4F7010
:101BD000405F82EB60E10E941E0F81E0612F0E9456
:101BE000532970C00E94A309882369F080912F02B5
:101BF000813019F40E94302D65C081E080932F025E
:101C00000E94F42C5FC083E080932F028FE061E09C
:101C10000E94A02A0E94E4280E94E92853C081E083
:101C200064E00E94532980914702877019F40E9452
:101C3000240B46C0809147028770813029F0809143
:101C4000470287708530A9F58DE00E94F3380E9425
:101C5000E4280E94502B809147028770853021F440
:101C600081E061E00E94A02A8091960A8823D1F049
:101C7000809132020E94492D0E94AE290E94AE3FFF
:101C8000182F0E94512D412F4295407F8770482B7D
:101C900081EB63E00E941E0F40914C0282EB6CE1ED
:101CA0000E941E0F0E94512D805F61E00E94A02AB9
:101CB00007C0809147028770823011F40E94190B8F
:101CC0000E94CB09DF91CF911F910F91FF90EF9070
:101CD0000895809147028770089587B1887F87B9FA
:101CE00088B1876088B9309902C080E001C083E084
:101CF000319B02C091E0892780931D021092490216
:101D000082E084BD84E085BD8EE487BD80916E0055
:101D1000826080936E0010921E0281E080934802E0
:101D200008951F920F920FB60F9211242F933F9395
:101D30004F938F939F93309902C080E001C083E05E
:101D4000319B02C091E0892790911D02981B90FF62
:101D500009C080931D028091490281509270890FC1
:101D60008093490286B140911E0290E08470907089
:101D7000242F332727FD30958217930711F44093C2
:101D8000480286B1847080931E029F918F914F917B
:101D90003F912F910F900FBE0F901F901895F894C0
:101DA00080914902982F9370909349027894859579
:101DB000859508959091480281E0911180E0089501
:101DC00020E031E0DC01A9011D9241505040E1F7D3
:101DD000FC01E050FF4F10828F5F9E4FDC011C9290
:101DE0000895FC01EF5FFE4F20812F5FDC01A050C2
:101DF000BF4F3C91321741F03081830F911DDC01C0
:101E00006C93208381E0089580E00895FC01E05008
:101E1000FF4F3081DC01AF5FBE4F2C91321761F074
:101E20002081820F911DDC018C91DB018C938081DC
:101E30008F5F808381E0089580E00895EF92FF92A4
:101E40000F931F93182F062FE42EFFB6F894812FBF
:101E50000E949A288823D9F3802F0E949A288823E9
:101E6000D9F38E2D0E949A288823D9F3FFBE1F91A3
:101E70000F91FF90EF900895CF93DF93682FC0915B
:101E80002302D09124029E0120583F4F2F3F31055D
:101E900030F4F901EE0FFF1FEE55F74F8083AE01CE
:101EA000475250404630510500F5AE014752C42F0D
:101EB000D0E0F901EE0FFF1FEE55F74FDE01AA0F3C
:101EC000BB1FAC51B64F6C91615080810E945C2D5C
:101ED000682F661F6627661FCF73D070CC0FDD1F7B
:101EE0006C2B482F4F7787EB21C0AE0145515040F6
:101EF00046305105F0F4F901EE0FFF1FEE55F74F94
:101F00008081803408F08FE3AE014551642F0E9438
:101F10005C2D682F661F6627661F909123029551DE
:101F20009F73990F692B482F4F7788EB0E941E0FE4
:101F30000BC09E01285E33402730310528F49E01F6
:101F4000285E822F0E94A909DF91CF9108951F93E7
:101F500010914B021150153029F480914C020E94CF
:101F60003C0F21C0113649F480914C0290E0209141
:101F7000230230912402207810C01236A1F48091FF
:101F80004C0290E09695982F8827979587952091F9
:101F90002302309124022F773070822B932B909361
:101FA00024028093230280914C02E12FF0E0EE0F97
:101FB000FF1FEE55F74F80830E9407301F91089551
:101FC000EF92FF921F93CF93DF9387FF05C010928C
:101FD000220280934A022EC290914A02903F09F059
:101FE00098C090911F02913009F04AC0909122024E
:101FF000973028F4E92FF0E0E35BFD4F68C020E064
:1020000030E0A1E0B0E090E067E070E0F901E35B70
:10201000FD4F1081AD01022E02C0440F551F0A94DE
:10202000E2F748235923EB01C21BD30B0C2E02C04D
:10203000440F551F0A94E2F7142B10832F5F3F4F74
:102040002730310519F780914D0280935402809119
:102050004E028093550280914F02809356028091E8
:1020600050028093570280915102809358028091D0
:102070005202809359028091530280935A0215C0F4
:102080009530C9F4E0912202EE2319F480934D02B9
:1020900046C0F0E0E35BFD4F808390914D0280915C
:1020A0004E02909354028093550281E08093200267
:1020B00010922202BFC1933009F0BCC1909122025C
:1020C000292F30E0923040F4235B3D4FF9018083AB
:1020D0009F5F90932202AEC1235B3D4FF901808345
:1020E00040914D0280914E0250914F0290E09695A2
:1020F000982F882797958795352F3295330F330F73
:10210000307C20E0822B932B242F30E0822B932BEA
:10211000C8CF90912202992331F480934B0281E041
:102120008093220287C180934C02109222028091F8
:102130004A02803B19F40E94A70F7CC180914A0299
:10214000843BF9F480914C0286FF02C01092210278
:102150002091210290914B0280914C02E22FF0E0FD
:10216000E855F14F8795882787959F77892B80833E
:10217000822F8F5F877080932102882309F05AC1D4
:102180000EC080914A028A3B69F480914B02909183
:102190004C02879588278795892B80936E0A0E9429
:1021A000D33548C180914A028B3B59F480914B0250
:1021B00090914C02879588278795892B8093700A88
:1021C000EECF80914A028C3B59F480914B02909162
:1021D0004C02879588278795892B8093720ADFCFD9
:1021E00080914A028D3B59F480914B0290914C02B0
:1021F000879588278795892B8093740AD0CF809103
:102200004A02823B09F092C080914B02873179F1FA
:10221000883170F48231A9F1833120F48B3009F0D8
:1022200009C13EC08331B9F1843109F003C12EC028
:102230008D3161F08E3120F4883109F0FBC01CC073
:102240008E3149F0863209F0F5C00CC080914C0205
:102250008093780A04C080914C0280937A0A0E948D
:102260000730E8C080914C0280937C0AF8CF8091BF
:102270004C028093680AF3CF80914C0280936A0AE3
:10228000EECF80914C028093620A89CF80914C02FC
:102290008093640A84CF80914C028093660A7FCF3A
:1022A00080914C02883008F0C5C080914C02805F5C
:1022B00060E00E94A02A8091960A882319F18091FB
:1022C00034028D30D9F080914C020E94492D0E9439
:1022D000AE290E94AE3F182F0E94512D412F4295EA
:1022E000407F8770482B81EB63E00E941E0F409176
:1022F0004C0282EB6CE10E941E0F04C080914C02E4
:102300008093320280914C02809336020E94690EC3
:10231000813029F00E94690E853009F08BC00E943F
:10232000E4280E94502B0E943B2B84C080914A02DB
:10233000803C51F480914B02823009F07BC0809147
:102340004C020E94043076C080914A02813B09F021
:1023500064C080914B02823009F44CC0833020F479
:10236000813009F067C006C0843009F1853009F07A
:1023700061C026C080914C0287FD5CC00E94512D37
:1023800090913602891781F480913402873038F0B9
:102390008A3029F08B3019F08C3009F04BC08091D5
:1023A0004C020E94792B46C00E94742B43C080913E
:1023B0004C02882311F081E001C080E066E02AC071
:1023C0000E94A309882321F40E94690E823091F5AE
:1023D00060914C026F7740911602641758F1842F78
:1023E00090E00796262F30E0821793071CF1641BBC
:1023F000605F0FC0809134028A30E1F060914C023E
:1024000070E06F777070E3E075956795EA95E1F796
:10241000685E81E00E9453290DC080914A02803994
:1024200049F480914B02873028F480914B02885FF9
:102430000E94B929DF91CF911F91FF90EF900895ED
:102440001F93182F812F0E949A288823D9F31F9158
:102450000895439A85E88A95F1F700004398089516
:1024600095B1907F95B995B182958F70892B85B97B
:102470000E94291208951F93182F449A0E94301227
:10248000812F8295807F0E94301285EE90E0019727
:10249000F1F700C000001F9108951F93182F449872
:1024A0000E943012812F8295807F0E94301281ED30
:1024B00090E00197F1F700C000001F91089581E0BE
:1024C0000E944D128FE097E20197F1F700C00000E3
:1024D000089584B18F6084B987B1886187B985B167
:1024E000807F85B988B1877E88B98FE59AEEA0E0B4
:1024F00081509040A040E1F700C0000080E30E94BE
:102500003012A7EAB1E61197F1F700C000000E946F
:10251000291287E893E10197F1F700C000000E94BB
:102520002912A7E8B3E11197F1F700C0000080E29B
:102530000E94301287EA91E60197F1F700C000008F
:102540008AE20E944D128CE00E944D1286E00E94A9
:102550004D120E945F12089582E00E944D128FE09A
:1025600097E20197F1F700C000000895623061F032
:10257000633018F4613079F405C0633039F06430A9
:1025800051F406C0805805C0805403C0805701C074
:1025900080530E944D120895EF92FF92CF93DF93E4
:1025A000E82EE7017E01F92EE70102C00E943B12EE
:1025B00089918823D9F7DF91CF91FF90EF9008950B
:1025C000CF93DF93EC0105C02196FC0184910E941A
:1025D0003B12CE01FE0124912223B1F7DF91CF916E
:1025E00008950F931F93882309F04BC08091030136
:1025F0008160809303010E947B260AE00E9454259B
:10260000182F882331F10150C9F70E94AC120E94A3
:102610005F1282EA90E00E94E01280E062E00E9495
:10262000B612113019F484E990E007C0123019F4A1
:1026300089E890E002C08BE790E00E94E0128FEF03
:1026400091E1AAE781509040A040E1F700C000006E
:1026500015C00E94AC1280E790E00E94E01281E574
:102660008CBD81E08DBDA7EAB1E61197F1F700C0FE
:102670000000809103018E7F80930301809103010C
:1026800001C081E01F910F910895882319F4809172
:102690000301089581E00895AF92BF92CF92DF9237
:1026A000EF92FF920F931F93CF93DF935B0169012A
:1026B0007A018823A9F4002399F08091030180FD19
:1026C00011C0C0E0D0E010E006C0C701B601A5010E
:1026D0000E94D9252196C017D107BCF380E003C022
:1026E00084E001C083E0DF91CF911F910F91FF90B3
:1026F000EF90DF90CF90BF90AF900895AF92BF92D0
:10270000CF92DF92EF92FF920F931F93CF93DF93BD
:102710005B0169017A018823A9F4002399F0809173
:10272000030180FD11C0C0E0D0E010E006C0C70189
:10273000B601A5010E941C262196C017D107BCF343
:1027400080E003C084E001C083E0DF91CF911F915E
:102750000F91FF90EF90DF90CF90BF90AF900895D2
:10276000882399F48091030180FD11C0623058F0F4
:10277000633079F481E090E0A0E0B0E0FA0180837A
:102780009183A283B38380E0089584E0089583E079
:10279000089584E0089560E070E0CB010895282F4B
:1027A000392FD901862F972FFC0104C081918D9379
:1027B0004150504041155105C9F70895FC0100975B
:1027C00079F08081882361F0868197818617970749
:1027D00039F481810E94451380FF04C083E008958D
:1027E00089E0089580E008956F927F928F929F9282
:1027F000AF92BF92CF92DF92EF92FF920F931F930F
:10280000CF93DF93EC014A015B01CAA4DBA4ECA4E3
:10281000FDA4C416D506E606F70609F44CC08C8163
:102820008823A1F18EE2682E712C6C0E7D1E8981A9
:10283000B301A701960101E00E947E138823E9F508
:102840001C828A8D9B8DAC8DBD8D2E8D3F8D48A1B8
:1028500059A1820F931FA41FB51FC816D906EA06F7
:10286000FB06A0F41B8110C08A8D9B8DAC8DBD8DA5
:10287000C80ED91EEA1EFB1E8981B301A70196016D
:1028800001E00E947E131150123070F78114910400
:10289000A104B10481F0BE01625D7F4F8981A50171
:1028A000940101E00E944C13882339F48AA69BA668
:1028B000ACA6BDA603C080E001C081E0DF91CF914E
:1028C0001F910F91FF90EF90DF90CF90BF90AF904E
:1028D0009F908F907F906F9008950F93CF93DF9389
:1028E000EC019A01AB01BC01625D7F4F898101E07F
:1028F0000E944C13882309F082C0FE01E35DFD4F66
:10290000308120E0FE01E45DFD4F808190E0822B6C
:10291000932B2AEA8535920709F073C0FE01E95925
:10292000FF4F808190E0A0E0B0E0B82FAA27992760
:102930008827FE01EA59FF4F208130E040E050E057
:10294000A90133272227822B932BA42BB52BFE0121
:10295000EC59FF4F208130E040E050E0822B932B78
:10296000A42BB52BFE01EB59FF4F308120E040E056
:1029700050E0822B932BA42BB52BB070863421E42E
:10298000920724E5A20720E0B207E9F1FE01ED5726
:10299000FF4F208130E040E050E0522F44273327A2
:1029A0002227FE01EE57FF4F808190E0A0E0B0E0CB
:1029B000DC0199278827282B392B4A2B5B2BFE011A
:1029C000E058FF4F808190E0A0E0B0E0282B392B49
:1029D0004A2B5B2BCF57DF4F988180E0A0E0B0E01F
:1029E000282B392B4A2B5B2B507081E0263491E445
:1029F000390794E5490790E0590731F404C083E0B2
:102A000003C082E001C080E0DF91CF910F91089573
:102A10003F924F925F926F927F928F929F92AF926E
:102A2000BF92CF92DF92EF92FF920F931F93DF93AB
:102A3000CF93CDB7DEB72E970FB6F894DEBF0FBE9B
:102A4000CDBFFC01E42EA081B1818C9190E0C097B4
:102A50008A30910558F411962C9111972A3331F44C
:102A60001296B183A083009709F0ADC3209125028F
:102A7000309126023E872D87DB0111963C932E93E1
:102A80002115310509F4A1C3F9018081882359F08A
:102A900081810E94451380FD06C0EE2009F497C392
:102AA00082FF95C398C3AD85BE851C9211961C927A
:102AB00080E00E94F11280FD8CC3EE2011F082FDB7
:102AC0008AC38D859E8540E050E0BA010E946D1456
:102AD000813009F046C0ED85FE85E051FE4F8081D2
:102AE000882309F47CC3ED85FE85E950FE4F808183
:102AF00090E0A0E0B0E0582F442733272227ED854F
:102B0000FE85EA50FE4F808190E0A0E0B0E0DC015D
:102B100099278827282B392B4A2B5B2BED85FE859F
:102B2000EC50FE4F808190E0A0E0B0E0282B392BE4
:102B30004A2B5B2BED85FE85EB50FE4F908180E0AC
:102B4000A0E0B0E0282B392B4A2B5B2B29833A835A
:102B50004B835C838D859E85BA01A9010E946D140B
:102B600004C019821A821B821C82833009F435C387
:102B7000882309F034C3AD85BE85DA963C91DA9797
:102B800020E0D9968C91D99790E0822B932BB2E0DC
:102B900080309B0709F023C3ED85FE85EB5BFF4F7B
:102BA000908180E0ED85FE85EC5BFF4F60807724AF
:102BB000682A792A88249924611471048104910473
:102BC00099F5ED85FE85EB5AFF4F608077248824C8
:102BD0009924962C882477246624ED85FE85EC5A6A
:102BE000FF4F808190E0A0E0B0E0DC0199278827CA
:102BF000682A792A8A2A9B2AED85FE85EE5AFF4F9C
:102C0000808190E0A0E0B0E0682A792A8A2A9B2A95
:102C1000ED85FE85ED5AFF4F908180E0A0E0B0E0A9
:102C2000682A792A8A2A9B2AED85FE85628E738E10
:102C3000848E958E26AD2383822F8150823008F0BA
:102C4000CEC233AC3282332009F4C9C2432D50E0E6
:102C5000CA01019784239523009709F0C0C2ED852E
:102C6000FE85E05CFF4F908180E0AD85BE85DF96FC
:102C70004C90DF975524482A592A19965C924E9217
:102C80001897C2018F709070009709F0A8C2FD01DB
:102C9000EE5BFF4F908180E0FD01EF5BFF4FE08036
:102CA000FF24E82AF92A00E010E0E114F10401050C
:102CB000110589F5FD01EF5AFF4FE080FF2400E088
:102CC00010E01E2D0027FF24EE24FD01E05BFF4FE6
:102CD000808190E0A0E0B0E0DC0199278827E82A15
:102CE000F92A0A2B1B2BED85FE85E25BFF4F8081C5
:102CF00090E0A0E0B0E0E82AF92A0A2B1B2BED8532
:102D0000FE85E15BFF4F908180E0A0E0B0E0E82A23
:102D1000F92A0A2B1B2BED85FE8595AD80E0A4AC2E
:102D2000BB24A82AB92AA114B10409F458C230E07E
:102D300040E050E0C401B3010E94FC486D837E83F3
:102D40008F839887950140E050E029873A874B8729
:102D50005C875201B4E0B694A794BA95E1F7CC240D
:102D6000DD24A20EB31EC41ED51EA60EB71EC81E9D
:102D7000D91EEA14FB040C051D0508F430C2C80175
:102D8000B7016A197B098C099D09232D30E040E0C9
:102D900050E00E943449211531054105510509F4DF
:102DA0001EC2263F8FE0380780E0480780E05807C2
:102DB00058F0263F9FEF390790E0490790E0590708
:102DC00030F4A2E03A2E05C03324339402C0F3E07D
:102DD0003F2EE2E0EE2EF12C012D112DE20EF31E1E
:102DE000041F151FAD85BE855696ED92FD920D937D
:102DF0001C93599729813A814B815C81A20EB31EA5
:102E0000C41ED51E9696AD92BD92CD92DC92999736
:102E100059016A0129853A854B855C85A20EB31E4E
:102E2000C41ED51E5E96AD92BD92CD92DC92919756
:102E3000B32DB33009F047C04114510409F0CFC19C
:102E4000ED85FE85E35AFF4F808190E0A0E0B0E081
:102E5000B82FAA2799278827ED85FE85E45AFF4FCA
:102E6000208130E040E050E0A90133272227822B67
:102E7000932BA42BB52BED85FE85E65AFF4F2081C1
:102E800030E040E050E0822B932BA42BB52BED8556
:102E9000FE85E55AFF4F308120E040E050E0822B74
:102EA000932BA42BB52BED85FE8582A393A3A4A31E
:102EB000B5A3D801C70152E0880F991FAA1FBB1FF5
:102EC0005A95D1F72DC04114510409F488C18D8160
:102ED0009E81AF81B8858A0D9B1DAC1DBD1DED8502
:102EE000FE8582A393A3A4A3B5A3D801C701880F2D
:102EF000991FAA1FBB1FF32DF23091F08E0D9F1D5D
:102F0000A01FB11FB695A79597958795A801970122
:102F10002170307040705070820F931FA41FB51F36
:102F200081509E4FAF4FBF4F29E0B695A79597951B
:102F300087952A95D1F7681679068A069B0608F4C4
:102F40004EC18FEF9FEFDC01ED85FE858687978769
:102F5000A08BB18B1286138614861586B32DB330E1
:102F600009F019C11582ED85FE85E15AFF4F908168
:102F700080E0ED85FE85E25AFF4F208130E0282B6E
:102F8000392B40E050E089819A81AB81BC81280FC8
:102F9000391F4A1F5B1FAD85BE8552962D933D9309
:102FA0004D935C935597BD01625D7F4F11968C9157
:102FB00001E00E944C13882309F0EDC0ED85FE85E9
:102FC000E35DFD4F308120E0ED85FE85E45DFD4F42
:102FD000808190E0822B932BBAEA85359B0709F01C
:102FE000DAC0ED85FE8581A990E0A0E0B0E0B82FC1
:102FF000AA279927882720A930E040E050E0A901BE
:1030000033272227822B932BA42BB52B26A530E028
:1030100040E050E0822B932BA42BB52B37A520E06A
:1030200040E050E0822B932BA42BB52B8235F2E5A8
:103030009F07F1E6AF07F1E4BF0709F0ACC0ED85EB
:10304000FE85EB5EFD4F808190E0A0E0B0E0B82F00
:10305000AA2799278827ED85FE85EC5EFD4F208104
:1030600030E040E050E0A90133272227822B932B48
:10307000A42BB52BED85FE85EE5EFD4F208130E063
:1030800040E050E0822B932BA42BB52BED85FE85E1
:10309000ED5EFD4F308120E040E050E0822B932B2D
:1030A000A42BB52B823722E7920721E4A20721E661
:1030B000B20709F070C0ED85FE85E35EFD4F8081AB
:1030C00090E0A0E0B0E0B82FAA2799278827ED85E7
:1030D000FE85E45EFD4F208130E040E050E0A90134
:1030E00033272227822B932BA42BB52BED85FE852E
:1030F000E65EFD4F208130E040E050E0822B932BD4
:10310000A42BB52BED85FE85E55EFD4F308120E0DB
:1031100040E050E0822B932BA42BB52BED85FE8550
:1031200082879387A487B587E75EFD4F808190E013
:10313000A0E0B0E0B82FAA2799278827ED85FE8563
:10314000E85EFD4F208130E040E050E0A9013327E8
:103150002227822B932BA42BB52BED85FE85EA5ECF
:10316000FD4F208130E040E050E0822B932BA42BD8
:10317000B52BED85FE85E95EFD4F308120E040E016
:1031800050E0822B932BA42BB52BED85FE858687F3
:103190009787A08BB18BAD85BE853C92809127022D
:1031A0009091280201969093280280932702179607
:1031B0009C938E931697ED85FE8512A613A614A6F2
:1031C00015A6148204C08BE00BC08CE009C080E01F
:1031D00007C083E005C08AE003C081E001C08DE044
:1031E0002E960FB6F894DEBF0FBECDBFCF91DF9104
:1031F0001F910F91FF90EF90DF90CF90BF90AF9015
:103200009F908F907F906F905F904F903F90089528
:10321000CF93DF93EC01CB01BA0162507040804044
:1032200090402E893F89488D598D22503040404032
:103230005040621773078407950788F42A8130E0AD
:1032400040E050E00E94FC489B01AC018EA19FA190
:10325000A8A5B9A5280F391F4A1F5B1F03C020E08E
:1032600030E0A901B901CA01DF91CF910895BF9261
:10327000CF92DF92EF92FF920F931F93CF93DF9342
:10328000EC016A017B01423051056105710508F4CA
:10329000CAC08E899F89A88DB98D481759076A07BA
:1032A0007B0708F0C0C08881823009F455C08330A4
:1032B00009F474C0813009F0BBC08A0116950795E6
:1032C000040F151FA801452F5527469560E070E0B3
:1032D0008E8D9F8DA8A1B9A1480F591F6A1F7B1F12
:1032E000CE010E94F413882309F0A2C0F801F17006
:1032F000EC0FFD1FB6A40F5F1F4FA801452F5527E8
:10330000469560E070E08E8D9F8DA8A1B9A1480F11
:10331000591F6A1F7B1FCE010E94F413882309F0F6
:1033200087C02B2D30E011700C0F1D1FF80196A5E2
:1033300080E0282B392BE601C170D070209731F046
:1033400044E0369527954A95E1F725C040E050E0E6
:103350003F70407050706FC0452F562F672F7727F2
:103360008E8D9F8DA8A1B9A1480F591F6A1F7B1F81
:10337000CE010E94F413882309F05AC0B601660FEB
:10338000771F7170FE01E60FF71F26A530E097A5A5
:1033900080E0282B392B40E050E04DC097E0769537
:1033A0006795579547959A95D1F78E8D9F8DA8A1D2
:1033B000B9A1480F591F6A1F7B1FCE010E94F41349
:1033C0008823B1F5B601660F771F660F771F7170FE
:1033D000FB01BE96EC0FFD1F228130E040E050E083
:1033E000A90133272227838190E0A0E0B0E0B82F25
:1033F000AA2799278827282B392B4A2B5B2B9181C9
:1034000080E0A0E0B0E0282B392B4A2B5B2BC60FC5
:10341000D71F8EA590E0A0E0B0E0282B392B4A2BD7
:103420005B2B5F7008C021E030E040E050E003C05B
:103430002FEF3FEFA901B901CA01DF91CF911F9191
:103440000F91FF90EF90DF90CF90BF9008950F9372
:103450001F93CF93DF93EC011D821C824E815F810D
:1034600068857985413051056105710509F467C0AA
:1034700008811981F80186899789A08DB18D481737
:1034800059076A077B0708F05AC0411551056105C5
:103490007105F9F48081833049F442A153A164A1FC
:1034A00075A1411551056105710599F41A861B86B0
:1034B0001C861D86F80180859185009709F43FC020
:1034C00082A193A1A4A1B5A18E879F87A88BB98B58
:1034D0002EC0F80182818823F9F4888199810E94A5
:1034E0003719AB01BC014F3FFFEF5F07FFEF6F07DD
:1034F000FFEF7F0711F14230510561057105F8F0CA
:10350000E881F98186899789A08DB18D481759077F
:103510006A077B0710F313C04A875B876C877D8738
:10352000C8010E9408196E877F87888B998B025D7E
:103530001F4F1B8B0A8B80E003C081E001C082E03B
:10354000DF91CF911F910F9108958F929F92AF922B
:10355000BF92CF92DF92EF92FF920F931F93CF9380
:10356000DF93EC016A017B014801590142305105AA
:103570006105710508F4D0C08E899F89A88DB98D29
:10358000481759076A077B0708F0C6C08881823050
:1035900009F46AC0833009F483C0813009F0B8C0EF
:1035A0008A01169507950C0D1D1DA801452F55275D
:1035B000469560E070E08E8D9F8DA8A1B9A1480F5F
:1035C000591F6A1F7B1FCE010E94F413882309F044
:1035D000A0C0C8019170A1E0CA22DD24C114D104A9
:1035E00051F0FE01E80FF91F36A53F70282D2295F6
:1035F000207F232B01C0282D8C0F9D1FFC0126A7A7
:103600000F5F1F4F81E08C83A801452F55274695FA
:1036100060E070E08E8D9F8DA8A1B9A1480F591F61
:103620006A1F7B1FCE010E94F413882309F071C02A
:103630001170C114D10449F094E0B694A794979402
:1036400087949A95D1F7982D08C0FE01E00FF11FDD
:1036500096A5907F292D2F70922B0C0F1D1FD8013E
:103660009E969C939E9755C0452F562F672F772780
:103670008E8D9F8DA8A1B9A1480F591F6A1F7B1F6E
:10368000CE010E94F413882309F043C09601220F53
:10369000331F3170FE01E20FF31F86A697A639C0D3
:1036A00017E076956795579547951A95D1F78E8DC2
:1036B0009F8DA8A1B9A1480F591F6A1F7B1FCE017A
:1036C0000E94F413882329F5B601660F771F660F51
:1036D000771F7170FB01BE96EC0FFD1F238130E058
:1036E00040E050E0522F4427332722276C0F7D1FE4
:1036F000207030704070507F282939294A295B2971
:10370000DB019E962C939E9731834283538301C0A5
:1037100082E091E09C8301C082E0DF91CF911F9114
:103720000F91FF90EF90DF90CF90BF90AF909F9060
:103730008F9008954F925F926F927F928F929F9297
:10374000AF92BF92CF92DF92EF92FF920F931F93AF
:10375000CF93DF93EC012A013B014115510561052F
:10376000710599F48A849B84AC84BD84811491048E
:10377000A104B10409F18E899F89A88DB98D88169D
:103780009906AA06BB06C0F41CC00E9437199B010B
:10379000AC01623071058105910508F493C08E89F2
:1037A0009F89A88DB98D281739074A075B0708F448
:1037B0008DC05301420105C061E0862E912CA12CE1
:1037C000B12C750164010894C11CD11CE11CF11CD1
:1037D0008E899F89A88DB98DC816D906EA06FB0681
:1037E00060F022E082169104A104B10408F463C0E1
:1037F00052E0C52ED12CE12CF12CCE01B701A6014F
:103800000E9437199B01AC01611571058105910575
:10381000A9F02F3F8FEF38078FEF48078FEF58073A
:1038200009F454C0213031054105510509F44EC059
:10383000C814D904EA04FB0431F63DC08C2CBD2C1D
:10384000AE2C9F2CCE01A601B7010FEF1FEF2FEF7B
:103850003FE00E94A51A882341F5411451046104F8
:10386000710449F0CE01B301A201860197010E94C3
:10387000A51A8823D1F48A86BB86AC869D868E8560
:103880009F85A889B9898F3F2FEF92072FEFA20755
:103890002FEFB207A1F00197A109B1098E879F8789
:1038A000A88BB98B81E08D830AC0813059F42FEF4A
:1038B0003FEFA9010BC020E030E0A90107C0A7013C
:1038C000960104C021E030E040E050E0B901CA01B7
:1038D000DF91CF911F910F91FF90EF90DF90CF90EC
:1038E000BF90AF909F908F907F906F905F904F9020
:1038F00008958F929F92AF92BF92CF92DF92EF92F4
:10390000FF920F931F93CF93DF93EC015B01CC8069
:10391000DD800894C11CD11CC114D10409F4EDC090
:103920008E859F85A889B9890097A105B10509F4FD
:10393000E4C01FE0812E912C8C209D2081149104E5
:1039400009F0CBC00196A11DB11D8E879F87A88B62
:10395000B98B4A855B856C857D8588819981411508
:1039600051056105710541F4FC0180859185C816FA
:10397000D90608F4B2C0C1C0FC01228130E0215058
:103980003040F601A4E0F695E795AA95E1F72E23DD
:103990003F232115310509F0A0C00E9437197B0192
:1039A0008C01623071058105910508F4AAC08FEF82
:1039B000E8168FEFF8068FEF08078FEF180709F466
:1039C000A2C088819981FC0126893789408D518D5B
:1039D000E216F3060407150708F471C0A114B10438
:1039E00009F48BC04A855B856C857D850E949A1B96
:1039F0007B018C01611571058105910509F47FC07A
:103A0000613071058105910509F47BC08FEFE816DF
:103A10008FEFF8068FEF08078FEF180709F473C0D0
:103A20008881998140E050E0BA010E94F413882314
:103A300009F069C088819981FC01BE96825D9D4F25
:103A400001C01192E817F907E1F7A880B980C50114
:103A5000B801A7010E940819F50162A773A784A7FE
:103A600095A7BB24AA24A39419C0A4828881998114
:103A700040E050E0BA010E94F413882309F043C0EB
:103A8000E881F98182A593A5A4A5B5A50196A11DFC
:103A9000B11D82A793A7A4A7B5A7B394E881F98124
:103AA0008281B81610F382A593A5A4A5B5A58B199C
:103AB0009109A109B10982A793A7A4A7B5A7EA868E
:103AC000FB860C871D8788819981B801A7010E9418
:103AD00008196E877F87888B998BDD82CC828881DD
:103AE00099818E9675E0880C991C7A95E1F7880D7E
:103AF000991D9B8B8A8B80E007C084E005C087E01E
:103B000003C082E001C081E0DF91CF911F910F914E
:103B1000FF90EF90DF90CF90BF90AF909F908F90ED
:103B200008952F923F924F925F926F927F928F9261
:103B30009F92AF92BF92CF92DF92EF92FF920F933C
:103B40001F93CF93DF93EC01DB018C918F3211F047
:103B50008C3511F46F5F7F4F1E821F821886198685
:103B6000FB018081803230F4CE010E94271A1B8A2B
:103B70001A8AECC090E2592E85E0482EFB018F0195
:103B8000808131968F32D9F38C35C9F3EC89FD8968
:103B9000DF018CE090E001C05D920197E9F7180128
:103BA00080E090E0EE24FF2428E030E09924D10169
:103BB0008D901D010894E11CF11CB82DB13208F460
:103BC00048C0BF3209F447C0BC3509F444C0BE3216
:103BD00019F08217930778F02830310509F0B3C047
:103BE000482D4E3209F0AFC0990C990C88E090E056
:103BF0002BE030E0DCCF87FE08C0A3E09A2A482DF6
:103C000050E04D565F4FDA018C90C82CDD2444E023
:103C100051E0DA016D91AD01662329F070E06C1579
:103C20007D05B9F790C0482D41544A3118F4B2E0EF
:103C30009B2A08C0482D41564A3120F441E0942A7D
:103C4000A0EE8A0EBF01680F791FDB018C920196EE
:103C5000AECF44E001C040E0009709F474C0808119
:103C6000853E09F440822830310511F4990C990CF5
:103C7000892D90E09C01237030702130310509F4CA
:103C800040618C7090708430910509F448604387DE
:103C9000CE010E94271A882329F54E855F85688901
:103CA0007989888199810E94F4138823D9F4EA895B
:103CB000FB8990819923A9F0938593FD0CC0AC8971
:103CC000BD899F01255F3F4FE217F30759F04191EE
:103CD0009D914917C9F3CE0160E070E00E94791C04
:103CE000DACF84E0EC89FD899385882329F084303C
:103CF00069F592FF2AC02AC092FD28C02A893B8913
:103D0000F901838584FF21C0B8016E0D7F1D758880
:103D10006624848990E086299729A0E0B0E0DC0140
:103D200099278827B38CAA24228D30E02A293B29A1
:103D300040E050E0822B932BA42BB52B8E839F83E6
:103D4000A887B9871BCF86E001C085E0DF91CF91BE
:103D50001F910F91FF90EF90DF90CF90BF90AF90A9
:103D60009F908F907F906F905F904F903F902F909B
:103D70000895882391F4E0912502F091260230976E
:103D800009F010826115710511F0FB01108270932A
:103D900026026093250280E008958BE008952F921B
:103DA0003F924F925F926F927F928F929F92AF92CB
:103DB000BF92CF92DF92EF92FF920F931F93DF9308
:103DC000CF93CDB7DEB7AD970FB6F894DEBF0FBE79
:103DD000CDBF6C017CA36BA3DC011D921C92B42FA0
:103DE000BF71BDA35DE0E52EF12CEC0EFD1E4E7102
:103DF000CE018396B7010E940815182FCE010196B7
:103E00009AA389A3112331F46BA17CA1C7010E945D
:103E1000911D182FEF8CF8A0112321F4E114F10467
:103E200009F416E0EDA18E2F90E09C012C7130700A
:103E30002115310509F402C1112309F44DC01430D4
:103E400009F041C04DE0E42EF12CEC0EFD1EC7013F
:103E50000E94271A182F8823B1F5AE2CEF2C4B8D1A
:103E60005C8D6D8D7E8D8D859E850E94F413182F3F
:103E7000882349F5EF8DF8A18081853E09F480C142
:103E8000882309F47DC18A2D9E2D61E070E00E9497
:103E9000791C182F882319F316C08F8D98A1282F0D
:103EA000392FF90121E230E001C011922150304058
:103EB000E1F769A17AA14BE050E00E94CF13ED85B4
:103EC000FE8581E08483EF8CF8A0112309F03EC1C8
:103ED000FDA1F860FDA309C0D7011B962C911B978B
:103EE000217109F075C1E2FD58C1BDA1B3FFB3C096
:103EF0000E94CB13F70166877787808B918B13869F
:103F0000148E158E168E178E958980E024883324A2
:103F1000282A392A44245524210133242224338D8C
:103F200020E0828D90E0822B932BA0E0B0E0282A45
:103F3000392A4A2A5B2A128E138E148A158AAD8476
:103F4000BE8481E0D50114968C931497211431041A
:103F50004104510409F47FC09A968D919D910D9072
:103F6000BC91A02D8AA79BA7ACA7BDA7B1E02B163B
:103F700031044104510409F45DC0F5018689978933
:103F8000A08DB18D281639064A065B0608F052C08E
:103F90004201310143C0C501B401A3010E94371998
:103FA0006EA37FA388A799A7611571058105910567
:103FB00009F4F5C06130710581059105D9F16F3FB4
:103FC000FFEF7F07FFEF8F07FFEF9F07A9F1C50105
:103FD000B401A30100E010E098010E94A51A182F77
:103FE000882309F0B3C0F50186859785A089B1893A
:103FF0008F3FFFEF9F07FFEFAF07FFEFBF0751F0C6
:104000000196A11DB11DF50186879787A08BB18B05
:1040100021E025836EA07FA088A499A4F50186895C
:104020009789A08DB18D681679068A069B0608F4DB
:10403000B2CFB5C012E08AC011E088C0112309F0E8
:1040400085C0D7011B962C911B9724FDBFC0E1FFB3
:1040500002C020FDBDC0BDA1B3FF02C0B062BDA3C0
:104060006D857E85FB0122A533A544A555A5D60106
:104070005A962D933D934D935C935D975F96FC927A
:10408000EE925E97EDA11496EC93D70155963C9174
:10409000559720E054968C9190E0822B932BA0E0D2
:1040A000B0E0DC0199278827F701538D40E0228D8D
:1040B00030E0242B352B40E050E0822B932BA42BB7
:1040C000B52BF60186879787A08BB18BD7015F96BA
:1040D0008C9190E0A0E0B0E0B82FAA27992788271C
:1040E000F701268D30E040E050E0A9013327222778
:1040F000822B932BA42BB52B248D30E040E050E095
:10410000822B932BA42BB52B358D20E040E050E083
:10411000822B932BA42BB52BF60182879387A48740
:10412000B587D60116961D921D921D921C92199765
:10413000168A178A108E118E71836083DB011696A2
:104140008D919C9117979383828310E0812FAD9678
:104150000FB6F894DEBF0FBECDBFCF91DF911F9198
:104160000F91FF90EF90DF90CF90BF90AF909F9016
:104170008F907F906F905F904F903F902F90089519
:104180004B8D5C8D6D8D7E8D8D859E850E94F4138B
:10419000182F882309F481CE96CE18E0D7CF8D85CD
:1041A0009E8508942108310841085108FC012286A7
:1041B0003386448655864AA55BA56CA57DA50E94DD
:1041C000F413182F882309F446CFC0CF14E0BECFD4
:1041D00017E0BCCF2F923F924F925F926F927F92E7
:1041E0008F929F92AF92BF92DF92EF92FF920F93C6
:1041F0001F93DF93CF9300D000D0CDB7DEB79C8361
:104200008B83062FA72E7A013A832983D9011D9229
:104210001C92FC0162817381808191810E94DE1376
:10422000D82E882309F045C1AB81BC8114968C91AE
:10423000149787FD39C180FF3AC11A968D919D91DF
:104240000D90BC91A02DEB81FC81268137814085AA
:104250005185821B930BA40BB50B970140E050E0F6
:1042600082179307A407B50708F47C01202E3A2C87
:1042700016C1AB81BC8116962D913D914D915C91FB
:104280001997DA01C9019170A070B0700097A1056B
:10429000B10509F0ACC0EB81FC81808191814901BD
:1042A0005A0119E0B694A794979487941A95D1F778
:1042B000DC0112960C9112970150082141F521154D
:1042C00031054105510529F46685778580899189F5
:1042D00008C0EB81FC8142895389648975890E94F9
:1042E0003719623071058105910508F16F3FBFEF05
:1042F0007B07BFEF8B07BFEF9B0709F48CC0AB8137
:10430000BC8152966D937D938D939C935597EB81D1
:10431000FC81808091804289538964897589C401B8
:104320000E940819611571058105910551F4AB8151
:10433000BC8114968C911497806814968C93149772
:10434000B3C02B013C01400E511C611C711C570174
:10435000AB2CBB24A694A114B10409F442C0F4010F
:10436000828110E09501200F311F90E082179307A2
:1043700018F45C01A01AB10AD40111968C91B10114
:10438000A30192010A2D0E944C13882309F043C017
:10439000AB81BC81ED91FC91119784818823E1F080
:1043A00082A593A5A4A5B5A584199509A609B70961
:1043B000950140E050E082179307A407B50760F429
:1043C000982F8827990FBF01625D7F4F820D931D43
:1043D00040E052E00E94CF138501102F0027110FFB
:1043E0003FC0EB81FC81468A578A608E718EAB811B
:1043F000BC8116968D909D90AD90BC901997569665
:104400004D915D916D917C9159978D919C910E94F8
:10441000F413882341F0EB81FC81848180688483DC
:10442000DD24D39446C0C401917020E032E0281B03
:10443000390B87012E153F0508F48901AB81BC813A
:104440006D917C911197625D7F4F16968D919C9135
:1044500017979170680F791FC101A8010E94CF13AF
:10446000200E311E980140E050E0EB81FC818681F6
:104470009781A085B185820F931FA41FB51F8683E6
:104480009783A087B187A981BA818D919C9111975B
:10449000800F911F11969C938E93E01AF10AE114FC
:1044A000F10409F0E6CE05C072E0D72E02C067E045
:1044B000D62E8D2D0F900F900F900F90CF91DF91F2
:1044C0001F910F91FF90EF90DF90BF90AF909F9062
:1044D0008F907F906F905F904F903F902F900895B6
:1044E0002F923F924F925F926F927F928F929F9204
:1044F000AF92BF92CF92DF92EF92FF920F931F93F2
:10450000CF93DF93EC01062FE72E5A011901F90131
:10451000118210826A817B81888199810E94DE13D9
:10452000182F882309F06AC18C8187FD64C181FF3F
:1045300064C12A853B854C855D85C501A0E0B0E05E
:10454000820F931FA41FB51F82179307A407B507F7
:1045500010F4AA24BB24402E5E2C34C12E813F814E
:1045600048855985DA01C9019170A070B070009733
:10457000A105B10509F0DDC08881998169017A0141
:1045800069E0F694E794D794C7946A95D1F7FC0153
:10459000028101500C21D1F521153105410551054C
:1045A000A9F42E853F854889598921153105410592
:1045B0005105D1F440E050E0BA010E949A1B9B01E2
:1045C000AC016E877F87888B998B08C04A895B898D
:1045D0006C897D890E949A1B9B01AC0121153105D4
:1045E0004105510509F4F2C021303105410551055D
:1045F00099F12F3FFFEF3F07FFEF4F07FFEF5F07F7
:1046000009F4A5C02A8B3B8B4C8B5D8BE881F9812B
:1046100062A573A584A595A52E893F89488D598DDE
:10462000621773078407950749F4CF0140E050E013
:10463000BA010E94F413882309F089C0C880D98088
:104640004A895B896C897D89C6010E9408196115B8
:1046500071058105910521F48C8180688C83CBC024
:104660003B014C01600E711C811C911C7501EF2CEB
:10467000FF24E694E114F104E9F1F6012281802F90
:1046800090E0A701480F591F30E02417350718F4B0
:104690007901E81AF90AF6018181B201A4019301B6
:1046A0000E2D0E947E13882309F051C0E881F98104
:1046B00062A573A584A595A5661977098809990946
:1046C000970140E050E0621773078407950770F484
:1046D000762F6627770F640D751DCF018E9640E00B
:1046E00052E00E94CF13E881F9811482FE2CEE245F
:1046F000FF0C4EC02E813F81488559858A859B8558
:10470000AC85BD85281739074A075B0770F0C601DD
:1047100040E050E0BA010E94F4138823C1F4E8811C
:10472000F98162A673A684A695A66E8A7F8A888E72
:10473000998ECE80DF80E884F9844E895F89688D08
:10474000798D888199810E94F413882329F08C81C6
:1047500080688C8311E052C0C601917020E032E085
:10476000281B390B75012A153B0508F479012881AE
:104770003981225D3F4F8E819F819170820F931FFF
:10478000B201A7010E94CF13E881F98131E034839F
:104790004E0C5F1C970140E050E08E819F81A88500
:1047A000B985820F931FA41FB51F8E839F83A8878F
:1047B000B987F101808191818E0D9F1D9183808346
:1047C000AE18BF08A114B10409F0C8CE8E819F8134
:1047D000A885B9852A853B854C855D8528173907CD
:1047E0004A075B0720F48A879B87AC87BD878C814B
:1047F00080628C8303C012E001C017E0812FDF913B
:10480000CF911F910F91FF90EF90DF90CF90BF90CD
:10481000AF909F908F907F906F905F904F903F9060
:104820002F9008950F931F93CF93DF93EC016A812C
:104830007B81888199810E94DE13982F882309F05B
:10484000B6C08C8185FFB3C04A8D5B8D6C8D7D8D2C
:10485000888199810E94F413982F882309F0A7C0BA
:104860000E8D1F8DF8018385806283878A85848FF2
:104870008B85858F8C85868F8D85878F8E85828FA2
:104880008F85838F8889848B8989858B0E94CB1340
:10489000F801668B778B808F918F8C818F7D8C83D5
:1048A000E881F98181E084830990D881C02DCE010F
:1048B00040E050E0BA010E94F413982F882309F0D9
:1048C00076C08881833009F068C08D81882309F41F
:1048D00064C01AA61BA61CA61DA6FE01BE96CE018C
:1048E000825D9D4F01C01192E817F907E1F7FE01C3
:1048F000E45DFD4F85E58083FE01E35DFD4F8AEABF
:10490000808382E58EA78FA781E688AB91E499AB7F
:10491000FE01EE5EFD4F22E72083FE01ED5EFD4FBE
:104920002083FE01EC5EFD4F9083FE01EB5EFD4FA8
:1049300080833E852F8598898989FE01EA5EFD4F37
:104940003083FE01E95EFD4F2083FE01E85EFD4FEE
:104950009083FE01E75EFD4F80833A852B859C8521
:104960008D85FE01E65EFD4F3083FE01E55EFD4F65
:104970002083FE01E45EFD4F9083FE01E35EFD4F68
:104980008083BE01625D7F4F2A893B894C895D89A6
:10499000898101E00E947E131D82898160E040E0F0
:1049A00050E00E94B01391E0882309F490E0892F31
:1049B000DF91CF911F910F910895CF93DF93EC0179
:1049C0000E941224882311F419821882DF91CF915A
:1049D0000895EF92FF920F931F93DF93CF930F925F
:1049E000CDB7DEB7982F7A018B0180915F048823C1
:1049F00099F4892F8151823040F0983131F099310A
:104A000021F0903211F0913239F489E0EE0CFF1C64
:104A1000001F111F8A95D1F72C98892F80649983E4
:104A20000E948426812F0E948426802F0E94842643
:104A30008F2D0E9484268E2D0E9484269981983085
:104A400011F487E802C085E999830E948426998140
:104A500000E002C00150E1F099830E948A26182FDD
:104A600099818F3FB9F3882399F49A3389F40E948E
:104A70008A2686FF04C081E080935F0402C0109202
:104A80005F040E948A260E948A260E948A2610E0DD
:104A90000E948A262C9A812F0F90CF91DF911F912F
:104AA0000F91FF90EF9008951F93CF93DF9352984B
:104AB0005A9A10E08FEF0E9484261F5F1A30D1F7B8
:104AC0002C98C0E0D0E080E040E050E0BA010E94C5
:104AD000E9242196C132D10509F452C0813099F7F9
:104AE0002C9A8FEF0E9484268FEF0E948426C0E0CC
:104AF000D0E088E04AEA51E060E070E00E94E924FA
:104B00002196CF3FD10529F481E08093640411E020
:104B100003C0813071F712E0C0E0D0E087E340E0ED
:104B200050E0BA010E94E92489E240E050E060E0F0
:104B300070E40E94E9242196CF3FD10519F1882322
:104B400069F710925F041230F9F4C0E0D0E08AE314
:104B500040E050E0BA010E94E9242196CF3FD10500
:104B600019F41092640402C0882389F780915F04CD
:104B7000813011F482E001C083E08093640404C0BA
:104B800081E003C082E001C080E0DF91CF911F91FE
:104B900008951F9389B1182F147082FF06C0809169
:104BA0002902882311F40E946D40109329021F915D
:104BB0000895DF92EF92FF920F931F93CF93DF93AD
:104BC0008B019C017A0181E1B901A8010E94E924CD
:104BD000D82E882341F52C980FEF1FEF09C001153F
:104BE000110521F42C9ADD24D3941DC001501040EE
:104BF0000E948A268E3F99F78F2DE7017E01F82EBD
:104C0000E70100E010E00E948A2689930F5F1F4FA2
:104C100032E000301307B9F70E948A260E948A26E4
:104C20000E948A262C9A8D2DDF91CF911F910F9192
:104C3000FF90EF90DF900895DF92EF92FF920F9335
:104C40001F93CF93DF938B019C017A0188E1B90117
:104C5000A8010E94E924D82E882309F043C02C988B
:104C60008EEF0E9484268F2DF82EE70100E010E0E1
:104C700089910E9484260F5F1F4F32E00030130796
:104C8000B9F78FEF0E9484268FEF0E9484260E943E
:104C90008A26982F9F71953019F400E010E009C022
:104CA0002C9AD82E1FC08FEF0F3F180781F00F5F8F
:104CB0001F4F0E948A268823B1F32C9A8FEF0E94FF
:104CC00084262C980AC09FEF0F3F190721F42C9AD5
:104CD000DD24D39407C00F5F1F4F0E948A268823CC
:104CE00091F32C9A8D2DDF91CF911F910F91FF9011
:104CF000EF90DF90089584B1806B84B985B185B958
:104D000082E58CBD1DBC08958EBD0DB407FEFDCFA0
:104D10008EB508958FEF8EBD0DB407FEFDCF8EB515
:104D200008951F920F920FB60F9211248F939F93A5
:104D300080912A0290912B02019690932B028093EE
:104D40002A0280913E0290913F02019690933F0289
:104D500080933E029F918F910F900FBE0F901F90F6
:104D6000189587E08093B100E0E7F0E080818160F2
:104D70008083089588E0E5E6F4E0DF01982F1D9236
:104D80009A95E9F7EDE6F4E0DF011D928A95E9F7DF
:104D900080E480937C0086E080937A0080917A00A2
:104DA000806880937A0080917A00806480937A0092
:104DB00080917A0086FDFCCF8091780090917900F7
:104DC000089590917C008F71907E892B80937C0058
:104DD00080917A00806480937A0080917A0086FDC9
:104DE000FCCF2091780030917900C9010895BF92DD
:104DF000CF92DF92EF92FF920F931F93D82EB62E91
:104E0000CC24EE24FF2487010BC08D2D0E94E126C7
:104E1000AC0160E070E0E40EF51E061F171FC3949E
:104E2000CB1498F32B2D30E040E050E0C801B701DF
:104E30000E943449C9011F910F91FF90EF90DF90BC
:104E4000CF90BF900895FF920F931F93CF93DF935E
:104E500005E614E0C0E0D0E0FC2E8C2F64E00E9458
:104E6000F726BC01F80120813181C901039686171C
:104E7000970730F0AB014D5F5F4F4217530760F467
:104E8000F8017183608376956795769567958F2D88
:104E90000E94BA3E0E94D33521960E5F1F4FC43048
:104EA000D105D1F6DF91CF911F910F91FF90089519
:104EB0004698469A08954598459A08953F9887B12F
:104EC000806687B9479888B1806688B985E0E5E74C
:104ED000F4E0DF011D928A95E9F70E945B270895AF
:104EE000EF92FF920F931F93CF93DF9300E010E0B8
:104EF000C1E0D0E080919301873228F010929301B5
:104F00000E945B2705C08F5F809393010E94582702
:104F100080919301E82EE694E694E69497E0F92ECA
:104F2000F8222E2D30E0379B33C02B583B4FF90130
:104F3000208130E0AE010F2C02C0440F551F0A94AF
:104F4000E2F72423352321153105A1F10E946D0CD0
:104F500031C00E94B90B81E0EE2DF0E0EB58FB4F21
:104F6000282F0F2C01C0220F0A94EAF7CE0102C0AD
:104F7000880F991FFA94E2F7809590818923282B56
:104F800020830F5F1F4F0A30110509F0B3CF14C003
:104F9000AE010F2C02C0440F551F0A94E2F72B58A4
:104FA0003B4FF901208130E02423352324173507B6
:104FB00081F6D1CF80E0D0CFDF91CF911F910F91BB
:104FC000FF90EF9008958AB180678AB98BB18F788E
:104FD0008BB985E0EAE7F4E0DF011D928A95E9F7F5
:104FE00008955D9A5D9808955C9A5C980895CF93B2
:104FF000DF93C0E0D0E05E98FE0183E0F595E79591
:105000008A95E1F7E658FB4F808190E09E0127707A
:10501000307002C0959587952A95E2F780FD5E9ADB
:105020000E94F1272196C832D10529F70E94F42762
:10503000DF91CF9108951F920F920FB60F92112416
:105040002F933F934F935F936F937F938F939F9390
:10505000AF93BF93EF93FF936091C60081E895E013
:105060000E94F10EFF91EF91BF91AF919F918F91AF
:105070007F916F915F914F913F912F910F900FBE54
:105080000F901F9018951F920F920FB60F92112438
:105090002F933F934F935F936F937F938F939F9340
:1050A000AF93BF93EF93FF93DF93CF930F92CDB75F
:1050B000DEB78FE794E0BE016F5F7F4F0E94060F5F
:1050C000882321F089818093C60005C08091C100AA
:1050D0008F7D8093C1000F90CF91DF91FF91EF9171
:1050E000BF91AF919F918F917F916F915F914F9100
:1050F0003F912F910F900FBE0F901F9018958FE743
:1051000094E00E94E00E81E895E00E94E00E10928B
:10511000C50084E08093C400E0ECF0E08081826010
:105120008083E1ECF0E080818869808386E0809371
:10513000C2000895682F8FE794E00E94F10EE1EC21
:10514000F0E09081906290830895BC0181E895E041
:105150000E94060F91E0882309F490E0892F0895BA
:105160000F931F93DF93CF930F92CDB7DEB78E01CE
:105170000F5F1F4FC8010E94A5288823D9F389819A
:105180000F90CF91DF911F910F910895DF93CF93EF
:105190000F92CDB7DEB7CE0101960E94A5288823D5
:1051A00019F089810E94E00F0F90CF91DF9108954F
:1051B0001092830620EA36E0C90160E070E045E025
:1051C00050E00E949549089510927C041092A20626
:1051D000089580917B04807880937B048091A10660
:1051E00080788093A1060895805F482F4695469564
:1051F000469550E0877021E030E002C0220F331F57
:105200008A95E2F7FA01E658FB4F20834056594F42
:10521000FA0120830895805F482F4695469546956C
:1052200050E0877021E030E002C0220F331F8A95E2
:10523000E2F7FA01E658FB4F20834056594FFA0136
:105240002083089590917B0490782091A106207886
:105250002093A1068F77982B90937B049091A106C1
:10526000982B9093A1060895885FE82FE695E69520
:10527000E695F0E0DF01A658BB4F9C919078E05690
:10528000F94F208120782083877021E030E001C031
:10529000220F8A95EAF7922B9C938081822B808340
:1052A000109233020895E62FE695E695E695F0E034
:1052B000677021E030E001C0220F6A95EAF7422FC3
:1052C0004095DF01A658BB4F9C9194239C93E056D8
:1052D000F94F308134233083882329F0922B9C931B
:1052E0008081822B80830895E82FE695E695E695E8
:1052F000F0E0DF01A658BB4F4C91877021E030E011
:1053000001C0220F8A95EAF7322F3095932F94230C
:105310009C93E056F94F808183238083422329F4B4
:10532000922B9C938081822B80830895E82FE695B1
:10533000E695E695F0E0E658FB4F9081877021E016
:1053400030E001C0220F8A95EAF7822F80958923E9
:105350008083922311F4282B208308951F9318E152
:1053600080E0612F0E9453291F5F1832C9F71F91F7
:1053700008951F93CF93DF93182FC0E0D0E0809162
:10538000830690E00C2E02C0959587950A94E2F76B
:1053900080FD2BC0FE01EC57F94F1083209183064E
:1053A00081E090E00C2E02C0880F991F0A94E2F76A
:1053B000282B2093830660912A0270912B0280E0B3
:1053C00090E00E94E3472FEF3FE443E450E40E9463
:1053D0004E470E94B747CC0FDD1FC057D94F798386
:1053E0006883812F0E94962904C02196C830D10578
:1053F00031F6DF91CF911F910895E82FE695E6955C
:10540000E695F0E0DF01A056B94F9C91877021E04E
:1054100030E001C0220F8A95EAF79223E658FB4F4D
:10542000992321F08081822B8083089520958081AB
:105430002823208308950F931F93CF93DF93C0E019
:10544000D0E001E010E08091830690E00C2E02C0D5
:10545000959587950A94E2F780FF21C020912A0252
:1054600030912B02FE01EE0FFF1FE057F94F8081B4
:1054700091818217930798F420918306C8010C2E1E
:1054800002C0880F991F0A94E2F7809582238093C7
:105490008306FE01EC57F94F80810E94FD29219679
:1054A000C830D10581F680912A0290912B0260913B
:1054B0002D0270912E026817790790F080912A02D0
:1054C00090912B02681B790B80E090E00E94E347EB
:1054D0002FEF33E244EF51E40E94714818165CF557
:1054E00060912A0270912B0280E090E00E94E347D5
:1054F0002FEF33E244E751E40E944E470E94B74742
:1055000070932E0260932D02C0E0D0E08091A5063A
:1055100090E00C2E02C0959587950A94E2F780FFE3
:1055200006C0FE01E457F94F80810E94962921961A
:10553000C430D10559F7DF91CF911F910F91089594
:10554000FF920F931F93CF93DF93F82E662339F1C9
:1055500020E030E04091A50650E0022E02C05595B3
:1055600047950A94E2F740FD14C0F901E457F94F5A
:10557000F0828091A50641E050E002C0440F551F23
:105580002A95E2F7842B8093A5068F2D0E949629F9
:1055900024C02F5F3F4F24303105E1F61EC0C0E02C
:1055A000D0E001E010E0FE01E457F94F80818F1553
:1055B00081F48091A50698010C2E02C0220F331FA2
:1055C0000A94E2F7209528232093A5068F2D0E94A8
:1055D000FD292196C430D10531F7DF91CF911F917C
:1055E0000F91FF9008951F93182F80E060E00E94B4
:1055F000532980E061E00E94532980E062E00E942C
:10560000532980E063E00E94532980E060E00E941B
:10561000A02A81E060E00E94A02A82E060E00E946F
:10562000A02A83E060E00E94A02A1330B9F0143071
:1056300028F4113069F0123070F407C0153099F079
:10564000153060F01730A9F410C081E060E008C0A8
:1056500081E061E005C081E062E002C081E063E0DA
:105660000E94532906C081E001C083E061E00E94EE
:10567000A02A1F9108951F9360913602605F81E018
:105680000E945329109136020E94512D181731F0B3
:105690000E94512D805F61E00E94A02A1F91089511
:1056A0000F931F93CF93DF93C0E0D0E001E010E0B1
:1056B000FE01E457F94F80810E94FD292091A50643
:1056C000C8010C2E02C0880F991F0A94E2F780953A
:1056D00082238093A5062196C430D10549F7DF9136
:1056E000CF911F910F91089580912C020E94FD2966
:1056F00008951F93182F169516951695185E80918C
:105700002C02811749F080912C020E94FD291093F0
:105710002C02812F0E9496291F9108951F920F92AB
:105720000FB60F9211240F900FBE0F901F90189577
:105730001F938FE79AE1A6E081509040A040E1F7E7
:1057400000C0000014B8209828980E9469120E9496
:105750007F280E94AC1286EB90E00E94E01280E06D
:1057600062E00E94B6128AEA90E00E94E01284E9A8
:1057700091E00E94CC120E94BA260E946D0E0E94F7
:105780005E270E94E3270E94D8280E94B12680E06D
:105790000E9474298FEF91E1AAE781509040A040C8
:1057A000E1F700C000000E945F1278940E94543913
:1057B0000E946D400E9423270E94A74080E060E085
:1057C0000E94B6450E94652C80EC62E040E00E9499
:1057D0001E0F0E9470270E94F7270E94C6280E9471
:1057E000CF0E182F0E94DA0E682F812F0E94B63B31
:1057F0000E94C6280E94C6280E94C6280E94C62869
:105800000E9423270E941B2A0E9453400E948E0957
:105810000E94C925DECF0F931F93CF93DF9380E0C3
:1058200090E036C0FE01E20FF31FA491EA2FE15091
:10583000EC3D80F4AF3708F4AF5FB0E0FB01E20F5E
:10584000F31FE491AA0FBB1FAA55B94F1196EC9311
:1058500011978C932F5F3F4F2830310519F74F5F19
:105860005F4F4830510581F020E030E0BA01600F11
:10587000711FE4E0660F771FEA95E1F7EB01C4536F
:10588000DF4F6C537F4FCECF01968630910549F0A4
:1058900040E050E08C0123E0000F111F2A95E1F752
:1058A000E3CFDF91CF911F910F9108951F93182F90
:1058B0000E94AE3F482F4295407F1F70412B82EBE4
:1058C00068E20E941E0F1F910895DF93CF930F92FD
:1058D000CDB7DEB70E94512D89830E94AE2982EB9D
:1058E00067E249810E941E0F0F90CF91DF910895CA
:1058F00010922F020E94502B8FEF8093C40180934F
:10590000C30108958093C30160932F02089580938B
:10591000C40160932F02089581E09091C3019F3FDD
:1059200009F480E00895DF93CF930F92CDB7DEB7EF
:105930000E94AE3F89830E94AE2982EB6FE14981CC
:105940000E941E0F0F90CF91DF910895DF93CF93A8
:105950000F92CDB7DEB780912F028330A9F440912A
:10596000C3014295407F8091C4018F70482B4983C9
:105970000E94AE2982EB60E249810E941E0F8FEFE8
:105980008093C4018093C3010F90CF91DF9108955C
:10599000DF93CF930F92CDB7DEB780912F02823085
:1059A000A9F44091C3014295407F8091C4018F705A
:1059B000482B49830E94AE2982EB61E249810E9413
:1059C0001E0F8FEF8093C4018093C3010F90CF917E
:1059D000DF91089581E090912F02913009F080E0ED
:1059E0000895809130020895882351F10E945F123A
:1059F00080E061E00E94B6128AE991E00E94CC1238
:105A000080913002823051F0833059F0813019F0AA
:105A100082EA91E008C088EA91E005C080EB91E05D
:105A200002C088EB91E00E94CC1280EC91E00E94D1
:105A3000CC120E94502B81E06FE00E945329089500
:105A400080E06FE00E9453290E94D335089580932F
:105A5000300280912F02813011F40E94F42C0895BD
:105A600080913002823051F0833051F0813019F052
:105A70000E94932C08C00E94652C05C080E001C0E4
:105A800081E00E94562C80E00E94F42C10922F029C
:105A90000895482F8093320282EB6AE10E941E0F24
:105AA00008958091320208958091F50184FF03C02A
:105AB0008F608093F5010895282F269526952695C9
:105AC00030E0663008F065E0E62FF0E043E0EE0FEE
:105AD000FF1F4A95E1F7E20FF31F94E0EE0FFF1F5F
