:100000000C9428080C9445080C9445080C94450859
:100010000C9445080C9445080C9445080C9445082C
:100020000C9445080C9445080C9445080C94AF2496
:100030000C9445080C9445080C9445080C9445080C
:100040000C94040D0C9445080C9445080C94450838
:100050000C9418260C9440260C9445080C944508E2
:100060000C9445080C9445080C9445080C944508DC
:1000700073642063617264206F6B00756E6B6E6FCA
:10008000776E2053442063617264206572726F72D0
:10009000004361726420496E697469616C697A61B8
:1000A00074696F6E206661696C65642E2E0053441E
:1000B0002063617264206E6F74206465746563747C
:1000C00065642E2E0073706920696E6974004A2E73
:1000D000205363686D69647420323031320020200F
:1000E0002052502D31205600010221000000000056
:1000F000080901000000000003041E0000000000C9
:1001000031323E0000000000051E0638393A00007A
:10011000464E4A958F8900000708213500000000EF
:100120005253148600000000222324000000000027
:10013000CBC5D100000000000F10113700000000F7
:10014000252BBF8000000000161A17181B1C1D1954
:1001500073B3799BADB9A1A70A0B3209312D000009
:10016000585E6C66D7F70000010221000000000015
:100170000A0B02000000000003041E000000000043
:1001800033343F0000000000051E0638393A0000F5
:10019000474F4B96908A0000070821350000000069
:1001A00054551587000000002223240000000000A1
:1001B000CCC6D200000000000F1011370000000074
:1001C000262CC08100000000161A17181B1C1D19D0
:1001D00074B47A9CAEBAA2A80A0B3209312D000081
:1001E000595F6D67D8F70000010221000000000090
:1001F0000C0D03000000000003041E0000000000BE
:100200003536400000000000051E0638393A00006F
:1002100048504C97918B00000708213500000000E2
:10022000565716880000000022232400000000001A
:10023000CDC7D300000000000F10113700000000F0
:10024000272DC18200000000161A17181B1C1D194B
:1002500075B57B9DAFBBA3A90A0B3209312D0000F8
:100260005A606E68D9F7000001020C0D21000000F1
:100270000E0F1B1C0400000003040E1E00000000F3
:100280003738444100000000051E0638393A0000A6
:1002900049514D98928C00000000000000000000C1
:1002A00000000000000000002223240000000000E5
:1002B000CEC8D400000000000F101137000000006D
:1002C000282EC28300000000161A17181B1C1D19C7
:1002D00076B67C9EB0BCA4AA0A0B3209312D000070
:1002E0005B636F69DAF70000010221000000000083
:1002F000101106000000000003040E1E00000000A4
:10030000393A45420000000038393A000000000048
:1003100099938D0000000000121314152121000094
:100320001D1E1F20171800002223240000000000BB
:10033000CFC9D500000000000F10113700000000E9
:10034000292FC38400000000161A17181B1C1D1942
:1003500077B77D9FB1BDA5AB0A0B3209312D0000E7
:100360005C64706ADBF700000102210000000000FD
:100370001213070000000000031F201E00000000F1
:100380003B3C3D430000000038393A0000000000CB
:100390009A948E0000000000121314152121000011
:1003A00021222324191A0000222324000000000027
:1003B000D0CAD600000000000F1011370000000066
:1003C0002A30C48500000000161A17181B1C1D19BE
:1003D00078B87EA0B2BEA6AC0A0B3209312D00005F
:1003E0005D65716BDCF70000010221000000000078
:1003F0001213070000000000031F201E0000000071
:100400003B3C3D430000000038393A00000000004A
:100410009A948E0000000000121314152121000090
:1004200021222324191A00002223240000000000A6
:10043000D0CAD600000000000F10113700000000E5
:100440002A30C48500000000161A17181B1C1D193D
:1004500078B87EA0B2BEA6AC0A0B3209312D0000DE
:100460005D65716BDCF700002F3B3C3D0000000038
:10047000EDF4F5F6000000000000000000000000B0
:10048000000000000000000000000000000000006C
:10049000000000000000000000000000000000005C
:1004A000000000000000000000000000000000004C
:1004B000000000000000000000000000000000003C
:1004C000000000000000000000000000000000002C
:1004D000000000000000000000000000000000001C
:1004E000000000000000000000000000000000000C
:1004F00000000000000000000000000000000000FC
:1005000000000000000000000000000000000000EB
:1005100000000000000000000000000000000000DB
:1005200000000000000000000000000000000000CB
:1005300000000000000000000000000000000000BB
:1005400000000000000000000000000000000000AB
:10055000000000000000000000000000000000009B
:10056000000000000000000000000000000000008B
:10057000000000000000000000000000000000007B
:10058000000000000000000000000000000000006B
:10059000000000000000000000000000000000005B
:1005A000000000000000000000000000000000004B
:1005B000000000000000000000000000000000003B
:1005C000000000000000000000000000000000002B
:1005D000000000000000000000000000000000001B
:1005E0000000000000000000272832410000000049
:1005F000DDDE72EA000000000000000000000000E4
:1006000000000000000000000000000000000000EA
:1006100000000000000000000000000000000000DA
:1006200000000000000000000000000000000000CA
:1006300000000000000000000000000000000000BA
:1006400000000000000000000000000000000000AA
:10065000000000000000000000000000000000009A
:100660000000000000000000292A2B3F403F40000E
:10067000E0E2E1E6E8E7E900000000000000000039
:10068000000000000000000000000000000000006A
:10069000000000000000000000000000000000005A
:1006A000000000000000000000000000000000004A
:1006B000000000000000000000000000000000003A
:1006C000000000000000000000000000000000002A
:1006D000000000000000000000000000000000001A
:1006E00000000000000000002D2E28270000000060
:1006F000E3E4DEDD00000000000000000000000078
:1007000000000000000000000000000000000000E9
:1007100000000000000000000000000000000000D9
:1007200000000000000000000000000000000000C9
:1007300000000000000000000000000000000000B9
:1007400000000000000000000000000000000000A9
:100750000000000000000000000000000000000099
:100760000000000000000000333400000000000022
:10077000EBEC0000000000000000000000000000A2
:100780000000000000000000000000000000000069
:100790000000000000000000000000000000000059
:1007A0000000000000000000000000000000000049
:1007B0000000000000000000000000000000000039
:1007C0000000000000000000000000000000000029
:1007D0000000000000000000000000000000000019
:1007E00000000000000000003E3D0000000000008E
:1007F000E5F600000000000000000000000000001E
:1008000000000000000000000000000000000000E8
:1008100000000000000000000000000000000000D8
:1008200000000000000000000000000000000000C8
:1008300000000000000000000000000000000000B8
:1008400000000000000000000000000000000000A8
:100850000000000000000000000000000000000098
:100860000000000000000000050000006F66660048
:10087000380000003136000033320000363400000A
:100880000F00000070310000703200007033000073
:1008900070340000703500007036000070370000C2
:1008A00070380000723200007233000072340000B1
:1008B0007235000072360000723700007238000096
:1008C000070000006F666600763100007632000097
:1008D000763300007634000076350000763600006E
:1008E0000800000073696E0074726900737570000F
:1008F00073646E0073717200726E640078757000BC
:1009000078646E000E0000004F6E6500312F3100DC
:10091000312F3200312F3300312F3400312F360088
:10092000312F3800313200003136000032340000FF
:1009300033320000343800003634000031323800E1
:100940000C0000006F666600342F3100322F31003A
:10095000312F3100312F3200312F3300312F34004D
:10096000312F3600312F380031320000313600008F
:10097000333200000600000053696E0054726900B3
:1009800053617700526563004E6F690043796D00D3
:100990000600000000000053743100000000537492
:1009A00032000000004C3100000000005231000015
:1009B0000000004C32000000000052320000000035
:1009C00000060000000000004C500000000000483D
:1009D000500000000000425000000000005542504E
:1009E000000000004E6F740000000050656B0000B6
:1009F000000000000000636F610066696E006174B2
:100A0000740064656300656732006D6F6400616D3A
:100A100074006672710064727600766F6C007061AB
:100A20006E006E6F6900727074006D697800726597
:100A3000730074797000663100006632000067311F
:100A40000000673200007761760064737400736E93
:100A50006300727467006F666600766F6900736C7E
:100A600070006431000064320000657167006571D8
:100A70006600726F6C006D7270006E74650070724B
:100A80006200737470006C656E0062706D00636864
:100A900020006F757400737200006E7874006D6FC3
:100AA000640076656C0066657400666C7700716E34
:100AB000740074726B0076616C00736875000000DE
:100AC00000000000000000000000000000004F7364
:100AD00063696C6C61746F72000000000000566501
:100AE0006C6F6369747920454700000000004D6F0A
:100AF000642045470000000000000000000050692D
:100B0000746368204D6F642E000000000000464DA5
:100B10000000000000000000000000000000566F10
:100B200069636500000000000000000000004E6FD7
:100B300069736500000000000000000000004E6FB7
:100B40006973652F4F736300000000000000466961
:100B50006C746572000000000000000000004D6F22
:100B6000642E204F736300000000000000004C461C
:100B70004F00000000000000000000000000547260
:100B8000616E7369656E74000000000000004551DD
:100B900000000000000000000000000000005061A4
:100BA000747465726E000000000000000000536F56
:100BB000756E640000000000000000000000537427
:100BC0006570000000000000000000000000457596
:100BD0006B6C696400000000000000000000476CBE
:100BE0006F62616C000000000000000000005665AC
:100BF0006C6F6369747900000000000000005061B0
:100C000072616D657465720000000000000053653C
:100C10007175656E636572000000000000000000E1
:100C20000000000000000000000000000000436F12
:100C3000617273650000000000000000000046695A
:100C40006E6500000000000000000000000041741C
:100C50007461636B00000000000000000000446548
:100C60006361790000000000000000000000416D99
:100C70006F756E74000000000000000000004672F6
:100C8000657175656E6379000000000000004F76A5
:100C90006572647269766500000000000000566F9E
:100CA0006C756D65000000000000000000005061E0
:100CB0006E6E696E670000000000000000004D6964
:100CC00078000000000000000000000000005265F5
:100CD0007065617420436F756E740000000052658A
:100CE000736F6E616E636500000000000000547950
:100CF0007065000000000000000000000000476177
:100D0000696E000000000000000000000000576154
:100D10007665666F726D000000000000000044659B
:100D200073742E20506172616D2E00000000436CC0
:100D30006F636B2053796E63000000000000526502
:100D400074726967676572000000000000004F66FA
:100D50006673657400000000000000000000446538
:100D600073742E20566F6963650000000000536C99
:100D70006F70650000000000000000000000446586
:100D800063617920436C6F73656400000000446503
:100D9000636179204F70656E000000000000526FA3
:100DA0006C6C2052617465000000000000004D6F03
:100DB00072706800000000000000000000004E6F2C
:100DC0007465000000000000000000000000507288
:100DD0006F626162696C69747900000000004E7591
:100DE0006D626572000000000000000000004C65AC
:100DF0006E6774680000000000000000000053747B
:100E000065707300000000000000000000005465E1
:100E10006D706F00000000000000000000004175D0
:100E200064696F204F7574000000000000004D4998
:100E30004449204368616E6E656C00000000536198
:100E40006D706C65205261746500000000004E6595
:100E50007874205061747465726E000000005068F0
:100E600061736500000000000000000000004D6F8D
:100E700064650000000000000000000000005665EE
:100E80006C6F63697479206D6F642E000000466595
:100E90007463680000000000000000000000466F5E
:100EA0006C6C6F77000000000000000000005175BE
:100EB000616E7469736174696F6E00000000417542
:100EC000746F6D2E20547261636B000000004175D9
:100ED000746F6D2E20446573742E00000000417500
:100EE000746F6D2E2056616C7565000000005368AC
:100EF0007566666C650000000000000000000000E0
:100F000000010101020102030203040204040304BC
:100F10000604050705050805060906070A06080B65
:100F200006090C07060E080A0D020B0809060F0930
:100F30000C10090D110A06120A06130A0E140A0EE5
:100F4000080B06060B05150B0F160B10170B1118C7
:100F50000B12190B131A0B141B02151C02161D027F
:100F60001715010F150C0F0A0C08080C061E0D0EA4
:100F70001F0D06200E18210F190A100822101A231F
:100F8000101B24101C250E1D24111E26121F2706BF
:100F9000212806202906220D0E0B2A0E232B0125BF
:100FA0000A01080909071613100713052C13262D2B
:100FB00014272E15282F152930152A16152B311513
:100FC0002C32152D656E64006F6B00536574746967
:100FD0006E6773004D6F727068536E6400536F7567
:100FE0006E642020005061747465726E004C6F61F5
:100FF00064006F6B0053657474696E6773004D6FA6
:10100000727068536E64005061747465726E200073
:10101000536F756E6420202000536176653A004C52
:101020006F6164696E67207061747465726E0053DD
:101030006176696E67207061747465726E00456DCB
:1010400070747920202000456D7074792020200074
:1010500011241FBECFEFD0E1DEBFCDBF12E0A0E074
:10106000B1E0E2E4FDE802C005900D92A032B107C4
:10107000D9F71DE0A0E2B2E001C01D92AB39B10783
:10108000E1F70E9422290C949F460C9400001F93C4
:10109000182F877010930201882331F4812F8695D1
:1010A00086958695885E01C0805F61E00E946D280C
:1010B0000E94B139482F40648FEB612F0E94900D40
:1010C0001F910895809102018F3F91F0982F9770A2
:1010D00039F487FD895F859585958595885E05C07E
:1010E00068E00E94DA42892F805F60E00E946D28EC
:1010F0008FEF809302018FEB60E040E00E94900D43
:1011000008950E946208809101018F3F29F08FEFBE
:101110008093010180E0089581E0089520913302D9
:10112000309134022A5D3F4F3093250220932402F0
:10113000809301010895209133023091340280910F
:101140002402909125028217930748F480910101AF
:101150008F3F29F00E9447088FEF80930101089587
:101160009091740481E092FD80E008950F931F93A5
:10117000182F0E94B008882309F45AC020914A020F
:10118000277030E02130310561F12230310524F43F
:101190002115310549F097C02230310529F025305D
:1011A000310509F090C01DC000912202010F812F6E
:1011B000805F0E9459270E94B139182F0E94BF2AD0
:1011C000612F6295607F8770682B89EB402F0E94AA
:1011D000900D82EB6FE0402F0E94900D0093590913
:1011E00072C0812F0E94B72A0E94CB260E94F52848
:1011F000812F805F61E00E946D280E94B139082F25
:101200000E94BF2A182F402F4295407F8770482B9D
:1012100081EB63E00E94900D82EB6CE1412F0E9414
:10122000900D82EB69E140913B020E94900D4BC012
:1012300020914A02277030E02130310561F12230DF
:10124000310524F421153105E9F03DC02230310586
:1012500021F023303105B9F533C000912202010F8E
:1012600082EB6FE0402F0E94900D009359090E947D
:10127000F52880912202885E61E00E946D28802F0F
:10128000877019C0812F0E9423340E944234812F1D
:101290000E94F22618C00E94AE398A30A1F40E9442
:1012A000B008882381F482EB6BE0412F0E94900DFF
:1012B0000E94F528812F805F61E00E946D2803C0A5
:1012C000812F0E94DB261F910F9108951F930E948A
:1012D000CB260E94B139182F0E94BF2A412F429578
:1012E000407F8770482B81EB63E00E94900D1F9137
:1012F000089580E00E9423348BE00E944E34809158
:1013000020020E9466098091000161E00E946D2820
:1013100008951F93182F0E94B00881111C5F177049
:1013200080914A02887F812B80934A020E94F5288F
:1013300080914A0287700E94AD2880914A0287708E
:1013400090E08230910559F1833091053CF400978B
:1013500089F18130910509F044C00AC085309105BA
:10136000B1F18730910589F183309105D1F52BC01A
:101370000E9493270E94CB260E94CB2660913D02BB
:10138000605F81E00E9438270E94483480932102E8
:101390008AE00E944E3480E00E94233422C00E94E2
:1013A000B1390E944E340E9448340E94F2260E94B5
:1013B000790917C00E94B1390E944E340E94483406
:1013C0000E94F2260EC088E00AC087E008C00E9492
:1013D000B139482F82EB69E10E94900D8CE00E94A8
:1013E0004E341F9108958091000160E00E946D28A5
:1013F00080E0609100010E943827089580913B02AF
:10140000809320020E9448348093210280E00E9451
:1014100023348BE00E944E34809120020E946609A2
:101420008091000161E00E946D2808958091000183
:1014300060E00E946D2880E0609100010E943827E2
:101440000E94CB26809121020E94233480912002A9
:101450000E944E3408950F931F93082F162F8091EA
:10146000000160E00E946D2880E0609100010E9410
:101470003827110F110F110F109322020093000152
:1014800010935909802F61E00E946D2880913C02E1
:101490000E94660982EB6FE0412F0E94900D1F9120
:1014A0000F9108950F931F93082F162F80E0602F40
:1014B0000E943827110F110F110F10932202109361
:1014C00059090093000182EB6FE0412F0E94900DBB
:1014D0000E94B139082F0E94BF2A602F6295607F59
:1014E0008770682B412F4695469546958EEB0E9456
:1014F000900D1F910F9108950F931F93082F88311E
:1015000020F4803108F099C056C08F3121F082322A
:1015100009F0A2C00CC00E94B008882309F09CC04A
:10152000109238028FE060E00E946D2895C0809193
:101530003802813029F480E00E94622A1092380239
:1015400080E064E00E94382780914A02877019F495
:101550000E94160A2BC080914A028770813061F484
:101560000E94F5280E94CB2660913D02605F81E0D9
:101570000E9438278AE010C080914A028770853027
:1015800071F40E94F5280E94CB2660913D02605FB5
:1015900081E00E9438278CE00E944E3407C0809181
:1015A0004A028770823011F40E9479090E94B13991
:1015B0000E941B2751C0182F185E0E94B008882374
:1015C00079F00E948108882309F046C080914A0280
:1015D0008770C1F080914A0287708230E9F51BC0A4
:1015E00020914A02277030E021303105C9F02230C5
:1015F000310521F02115310551F02EC00E948108DE
:10160000882351F5812F602F0E942B0A25C00E944C
:101610008108882309F5812F602F0E94520A1CC07F
:101620000830D0F4402F4F7082EB60E10E94900DA3
:1016300080E0612F0E9438270FC0809138028230ED
:1016400058F40E948108882339F48FEF80930101B8
:10165000802F80510E94B6081F910F9108950F931B
:101660001F93082F0E94CB390F3138F4083108F04E
:1016700090C0003108F411C113C0013209F465C0F3
:10168000023238F40F3109F44AC1003209F091C135
:1016900038C0023209F460C1073208F08AC12CC098
:1016A00080913802823098F00E94FA29902F905150
:1016B000882339F0892F62E00E94F5290E94362A9A
:1016C00078C0892F62E00E94F029802F87C0809126
:1016D0004A02877061F40E94B008882341F080912B
:1016E0002202880F880F880F8051800F06C1802F3B
:1016F00080510E94B6085DC1802F83520E948909E3
:1017000058C180914A02869586958695817066E0DB
:101710000E94382780914A02869586958695809505
:101720008170880F880F880F90914A02977F982BBD
:1017300090934A0240914A024695469546954170DB
:1017400082EB61E00E94900D34C10E94B0088823B2
:1017500021F08EE00E944E342CC180914A02829585
:101760008F70809581708295807F90914A029F7ED4
:10177000982B90934A0280914A028295817065E08D
:101780000E94382740914A024295417082EB6BE1FA
:10179000D9CF80913802823028F10E94FA29102F87
:1017A00018518823A9F0812F63E00E94F5290E9437
:1017B000142A0E94F5280E94B139182F0E94BF2ACE
:1017C000412F4295407F8770482B81EB63E0BACF71
:1017D000812F63E00E94F029802F805161E00E94F8
:1017E0006D28E7C00E94B00890914A02977091302E
:1017F00011F4981B892F102F1851882361F18091C3
:101800002302682F70E0012E02C0759567950A9437
:10181000E2F760FF0FC061E070E0012E02C0660FCA
:10182000771F0A94E2F7609568236093230282EBA6
:101830006AE00DC021E030E0012E02C0220F331F0C
:101840000A94E2F7282B2093230282EB69E0412FD0
:101850000E94900DA9C0812F0E941B2780914A02EF
:10186000877019F4812F0E944E3482EB65E1412F7D
:101870000E94900D812F0E94B43982EB69E1412FC3
:101880000E94900D80914A028770823009F091C0C9
:101890000E94F5280E9479098CC0102F185E0E94C2
:1018A000B008882399F080914A02877021F4812F33
:1018B000602F0E942B0A80914A028770823009F0C3
:1018C00078C0812F602F0E94520A73C020914A0273
:1018D000277030E02130310599F02230310521F0B8
:1018E0002115310531F065C0812F602F0E942B0A30
:1018F00060C0802F880F880F880F0E948E0859C003
:10190000083008F056C0402F4F70405F82EB60E116
:101910000E94900D81E0612F0E9438274AC00E94EA
:10192000B008882369F080913802813019F40E9450
:101930009E2A3FC081E0809338020E94622A39C00B
:1019400083E0809338028FE061E00E946D280E945E
:10195000CB260E94D0262DC081E064E00E9438276B
:1019600080914A02877019F40E94FE091DC080917F
:101970004A028770813029F080914A028770853051
:1019800061F48DE00E944E340E94CB260E94BF2A53
:10199000805F61E00E946D2807C080914A028770D5
:1019A000823011F40E94F3098091230280950E94F5
:1019B00009271F910F91089580914A028770089519
:1019C00087B1887F87B988B1876088B9309902C0AC
:1019D00080E001C083E0319B02C091E089278093C1
:1019E000260210924C0282E084BD84E085BD8EE424
:1019F00087BD80916E00826080936E0010922702F6
:101A000081E080934B0208951F920F920FB60F92C0
:101A100011242F933F934F938F939F93309902C03C
:101A200080E001C083E0319B02C091E08927909162
:101A30002602981B90FF09C08093260280914C02D9
:101A400081509270890F80934C0286B14091270299
:101A500090E084709070242F332727FD30958217F3
:101A6000930711F440934B0286B184708093270250
:101A70009F918F914F913F912F910F900FBE0F909B
:101A80001F901895F89480914C02982F9370909322
:101A90004C02789485958595089590914B0281E04C
:101AA000911180E0089520E8DC011D922A95E9F764
:101AB000FC01E058FF4F10828F579F4FFC011082AE
:101AC0000895FC01EF57FF4F20812F5F2F77DC0136
:101AD000A058BF4F3C91321741F03081830F911DC8
:101AE000DC016C93208381E0089580E00895FC017F
:101AF000E058FF4F3081DC01AF57BF4F2C913217B8
:101B000069F02081820F911DDC018C91DB018C93A7
:101B100080818F5F8F77808381E0089580E00895D2
:101B2000EF92FF920F931F93182F062FE42EFFB60C
:101B3000F894812F0E9497268823D9F3802F0E9442
:101B400097268823D9F38E2D0E9497268823D9F3D0
:101B5000FFBE1F910F91FF90EF900895CF93DF93F9
:101B6000C0912C02D0912D02FE01EE0FFF1FE55611
:101B7000F74F80839E012752304026303105D0F444
:101B80009E012752C22FD0E0FE01EE0FFF1FE3524D
:101B9000F74F608161500E94CA2A682F661F66272E
:101BA000661FCF73D070CC0FDD1F6C2B482F4F7783
:101BB00087EB20C09E012551304026303105E0F4EE
:101BC000803408F08FE39E012551622F0E94CA2ABB
:101BD000682F661F6627661F20912C0230912D0208
:101BE000255130402F733070220F331F622B482F46
:101BF0004F7788EB0E94900DDF91CF9108951F934E
:101C000010914E021150153029F480914F020E941C
:101C1000AE0D21C0113649F480914F0290E0209121
:101C20002C0230912D02207810C01236A1F4809140
:101C30004F0290E09695982F882797958795209149
:101C40002C0230912D022F773070822B932B9093A2
:101C50002D0280932C0280914F02E12FF0E0EE0FD5
:101C6000FF1FE556F84F80830E94282D1F9108958D
:101C7000EF92FF921F93CF93DF9387FF05C01092DF
:101C80002B0280934D02FBC190914D02903F09F0D1
:101C900098C090912802913009F04AC090912B028F
:101CA000973028F4E92FF0E0E05BFD4F68C020E0BA
:101CB00030E0A1E0B0E090E067E070E0F901E05BC7
:101CC000FD4F1081AD01022E02C0440F551F0A9432
:101CD000E2F748235923EB01C21BD30B0C2E02C0A1
:101CE000440F551F0A94E2F7142B10832F5F3F4FC8
:101CF0002730310519F78091500280935702809167
:101D0000510280935802809152028093590280912F
:101D1000530280935A028091540280935B02809117
:101D2000550280935C028091560280935D0215C03B
:101D30009530C9F4E0912B02EE2319F48093500200
:101D400046C0F0E0E05BFD4F8083909150028091AF
:101D50005102909357028093580281E080932902A8
:101D600010922B028CC1933009F089C190912B0203
:101D7000292F30E0923040F4205B3D4FF901808301
:101D80009F5F90932B027BC1205B3D4FF9018083C5
:101D900040915002809151025091520290E09695EC
:101DA000982F882797958795352F3295330F330FC6
:101DB000307C20E0822B932B242F30E0822B932B3E
:101DC000C8CF90912B02992331F480934E0281E089
:101DD00080932B0254C180934F0210922B0280916A
:101DE0004D02803B19F40E94FF0D49C180914D02C4
:101DF000843BF9F480914F0286FF02C010922A02C0
:101E000020912A0290914E0280914F02E22FF0E041
:101E1000ED56F24F8795882787959F77892B80838A
:101E2000822F8F5F877080932A02882309F027C151
:101E30000EC080914D028A3B69F480914E029091D0
:101E40004F02879588278795892B809367090E9481
:101E5000993215C180914D028B3B59F480914E020D
:101E600090914F02879588278795892B80936909E0
:101E7000EECF80914D028C3B59F480914E029091AF
:101E80004F02879588278795892B80936B09DFCF31
:101E900080914D028D3B59F480914E0290914F02FA
:101EA000879588278795892B80936D09D0CF80915E
:101EB0004D02823B09F081C080914E02873179F159
:101EC000883170F48231A9F1833120F48B3009F02C
:101ED000D6C03EC08331B9F1843109F0D0C02EC0E4
:101EE0008D3161F08E3120F4883109F0C8C01CC0FA
:101EF0008E3149F0863209F0C2C00CC080914F0289
:101F00008093710904C080914F02809373090E94ED
:101F1000282DB5C080914F0280938909F8CF809118
:101F20004F0280936109F3CF80914F028093630940
:101F3000EECF80914F0280935B0989CF80914F0251
:101F400080935D0984CF80914F0280935F097FCF9A
:101F500080914F02805F60E00E946D28809185092A
:101F6000882331F180914F020E94B72A0E94DC0C35
:101F7000813041F40E94CB2660914F02605F81E086
:101F80000E9438270E9493270E94B139182F0E947F
:101F9000BF2A412F4295407F8770482B81EB63E039
:101FA0000E94900D40914F0282EB6CE10E94900DD7
:101FB00080914F0280933D0262C080914D02813B2F
:101FC00009F058C080914E02823009F444C0833039
:101FD00020F4813009F053C006C08430D1F0853040
:101FE00009F04DC01FC00E94BF2A90913D02891781
:101FF00069F480913B02873020F08B3011F08C30F7
:10200000F1F580914F020E940D2939C00E940829E4
:1020100036C080914F02882311F081E001C080E03A
:1020200066E025C00E94B008882321F40E94DC0CE1
:10203000823029F560914F02409122026417F8F036
:10204000842F90E00796262F30E082179307BCF08C
:10205000605F641B0BC060914F0270E06F7770701F
:10206000E3E075956795EA95E1F7685E81E00E9487
:10207000382705C080914E02885F0E949E27DF911D
:10208000CF911F91FF90EF9008951F93182F812FEC
:102090000E9497268823D9F31F910895439A85E8D3
:1020A0008A95F1F700004398089595B1907F95B90E
:1020B00095B182958F70892B85B90E944E10089535
:1020C0001F93182F449A0E945510812F8295807F6C
:1020D0000E94551085EE90E00197F1F700C00000D6
:1020E0001F9108951F93182F44980E945510812F17
:1020F0008295807F0E94551081ED90E00197F1F765
:1021000000C000001F91089581E00E9472108FE0CE
:1021100097E20197F1F700C00000089584B18F6045
:1021200084B987B1886187B985B1807F85B988B165
:10213000877E88B98FE59AEEA0E081509040A0405C
:10214000E1F700C0000080E30E945510A7EAB1E665
:102150001197F1F700C000000E944E1087E893E14C
:102160000197F1F700C000000E944E10A7E8B3E10C
:102170001197F1F700C0000080E20E94551087EA35
:1021800091E60197F1F700C000008AE20E94721008
:102190008CE00E94721086E00E9472100E948410EF
:1021A000089582E00E9472108FE097E20197F1F7A4
:1021B00000C000000895623061F0633018F46130AF
:1021C00079F405C0633039F0643051F406C08058AA
:1021D00005C0805403C0805701C080530E94721014
:1021E0000895EF92FF92CF93DF93E82EE7017E01EF
:1021F000F92EE70102C00E94601089918823D9F767
:10220000DF91CF91FF90EF900895CF93DF93EC0192
:1022100005C02196FC0184910E946010CE01FE0150
:1022200024912223B1F7DF91CF9108951F93DF937B
:10223000CF930F92CDB7DEB7882309F03FC08091CE
:1022400003018160809303010E9499240E94D110B0
:1022500085EC90E00E9405111AE00E947323882308
:10226000A9F01150D1F789830E94D1108981813062
:1022700019F48EEA90E007C0823019F481E990E009
:1022800002C08BE790E00E94051115C00E94D1109A
:1022900080E790E00E94051181E58CBD81E08DBD55
:1022A00087E893E10197F1F700C0000080910301F6
:1022B0008E7F809303018091030101C081E00F9024
:1022C000CF91DF911F910895882319F48091030124
:1022D000089581E00895AF92BF92CF92DF92EF927E
:1022E000FF920F931F93CF93DF935B0169017A01F4
:1022F0008823A9F4002399F08091030180FD11C087
:10230000C0E0D0E010E006C0C701B601A5010E9400
:10231000F7232196C017D107BCF380E003C084E007
:1023200001C083E0DF91CF911F910F91FF90EF905B
:10233000DF90CF90BF90AF900895AF92BF92CF92B1
:10234000DF92EF92FF920F931F93CF93DF935B0186
:1023500069017A018823A9F4002399F0809103018F
:1023600080FD11C0C0E0D0E010E006C0C701B6019A
:10237000A5010E943A242196C017D107BCF380E042
:1023800003C084E001C083E0DF91CF911F910F91E2
:10239000FF90EF90DF90CF90BF90AF90089588238B
:1023A00099F48091030180FD11C0623058F06330D0
:1023B00079F481E090E0A0E0B0E0FA0180839183BD
:1023C000A283B38380E0089584E0089583E00895B4
:1023D00084E0089560E070E0CB010895282F392F44
:1023E000D901862F972FFC0104C081918D93415014
:1023F000504041155105C9F70895FC01009779F047
:102400008081882361F0868197818617970739F448
:1024100081810E94641180FF04C083E0089589E0F7
:10242000089580E008956F927F928F929F92AF926D
:10243000BF92CF92DF92EF92FF920F931F93CF93B1
:10244000DF93EC014A015B01CAA4DBA4ECA4FDA468
:10245000C416D506E606F70609F44CC08C8188231D
:10246000A1F18EE2682E712C6C0E7D1E8981B30164
:10247000A701960101E00E949D118823E9F51C82C5
:102480008A8D9B8DAC8DBD8D2E8D3F8D48A159A120
:10249000820F931FA41FB51FC816D906EA06FB06B4
:1024A000A0F41B8110C08A8D9B8DAC8DBD8DC80E94
:1024B000D91EEA1EFB1E8981B301A701960101E026
:1024C0000E949D111150123070F781149104A104E3
:1024D000B10481F0BE01625D7F4F8981A501940145
:1024E00001E00E946B11882339F48AA69BA6ACA652
:1024F000BDA603C080E001C081E0DF91CF911F91B4
:102500000F91FF90EF90DF90CF90BF90AF909F9092
:102510008F907F906F9008950F93CF93DF93EC018E
:102520009A01AB01BC01625D7F4F898101E00E948D
:102530006B11882309F082C0FE01E35DFD4F3081FD
:1025400020E0FE01E45DFD4F808190E0822B932B23
:102550002AEA8535920709F073C0FE01E959FF4F59
:10256000808190E0A0E0B0E0B82FAA2799278827C3
:10257000FE01EA59FF4F208130E040E050E0A90120
:1025800033272227822B932BA42BB52BFE01EC594A
:10259000FF4F208130E040E050E0822B932BA42BB2
:1025A000B52BFE01EB59FF4F308120E040E050E0B9
:1025B000822B932BA42BB52BB070863421E4920789
:1025C00024E5A20720E0B207E9F1FE01ED57FF4F35
:1025D000208130E040E050E0522F4427332722276B
:1025E000FE01EE57FF4F808190E0A0E0B0E0DC01FB
:1025F00099278827282B392B4A2B5B2BFE01E05883
:10260000FF4F808190E0A0E0B0E0282B392B4A2BCF
:102610005B2BCF57DF4F988180E0A0E0B0E0282B04
:10262000392B4A2B5B2B507081E0263491E439071B
:1026300094E5490790E0590731F404C083E003C0F2
:1026400082E001C080E0DF91CF910F9108953F9229
:102650004F925F926F927F928F929F92AF92BF92B2
:10266000CF92DF92EF92FF920F931F93DF93CF935E
:10267000CDB7DEB72E970FB6F894DEBF0FBECDBF35
:10268000FC01E42EA081B1818C9190E0C0978A304A
:10269000910558F411962C9111972A3331F4129622
:1026A000B183A083009709F0ADC320912E02309131
:1026B0002F023E872D87DB0111963C932E93211527
:1026C000310509F4A1C3F9018081882359F0818182
:1026D0000E94641180FD06C0EE2009F497C382FFBA
:1026E00095C398C3AD85BE851C9211961C9280E05F
:1026F0000E94161180FD8CC3EE2011F082FD8AC36A
:102700008D859E8540E050E0BA010E948C12813098
:1027100009F046C0ED85FE85E051FE4F808188239B
:1027200009F47CC3ED85FE85E950FE4F808190E081
:10273000A0E0B0E0582F442733272227ED85FE85FF
:10274000EA50FE4F808190E0A0E0B0E0DC019927E4
:102750008827282B392B4A2B5B2BED85FE85EC50E7
:10276000FE4F808190E0A0E0B0E0282B392B4A2B6F
:102770005B2BED85FE85EB50FE4F908180E0A0E065
:10278000B0E0282B392B4A2B5B2B29833A834B83D0
:102790005C838D859E85BA01A9010E948C1204C0BC
:1027A00019821A821B821C82833009F435C3882364
:1027B00009F034C3AD85BE85DA963C91DA9720E006
:1027C000D9968C91D99790E0822B932BB2E08030F0
:1027D0009B0709F023C3ED85FE85EB5BFF4F9081DE
:1027E00080E0ED85FE85EC5BFF4F60807724682AF2
:1027F000792A88249924611471048104910499F53B
:10280000ED85FE85EB5AFF4F60807724882499245C
:10281000962C882477246624ED85FE85EC5AFF4F9C
:10282000808190E0A0E0B0E0DC0199278827682A49
:10283000792A8A2A9B2AED85FE85EE5AFF4F8081F0
:1028400090E0A0E0B0E0682A792A8A2A9B2AED85E8
:10285000FE85ED5AFF4F908180E0A0E0B0E0682A4D
:10286000792A8A2A9B2AED85FE85628E738E848E54
:10287000958E26AD2383822F8150823008F0CEC200
:1028800033AC3282332009F4C9C2432D50E0CA016F
:10289000019784239523009709F0C0C2ED85FE853A
:1028A000E05CFF4F908180E0AD85BE85DF964C9067
:1028B000DF975524482A592A19965C924E92189708
:1028C000C2018F709070009709F0A8C2FD01EE5B05
:1028D000FF4F908180E0FD01EF5BFF4FE080FF2420
:1028E000E82AF92A00E010E0E114F10401051105DD
:1028F00089F5FD01EF5AFF4FE080FF2400E010E072
:102900001E2D0027FF24EE24FD01E05BFF4F808198
:1029100090E0A0E0B0E0DC0199278827E82AF92AB6
:102920000A2B1B2BED85FE85E25BFF4F808190E03B
:10293000A0E0B0E0E82AF92A0A2B1B2BED85FE85E2
:10294000E15BFF4F908180E0A0E0B0E0E82AF92A47
:102950000A2B1B2BED85FE8595AD80E0A4ACBB2436
:10296000A82AB92AA114B10409F458C230E040E001
:1029700050E0C401B3010E94BB426D837E838F830C
:102980009887950140E050E029873A874B875C871C
:102990005201B4E0B694A794BA95E1F7CC24DD24B3
:1029A000A20EB31EC41ED51EA60EB71EC81ED91E6B
:1029B000EA14FB040C051D0508F430C2C801B70178
:1029C0006A197B098C099D09232D30E040E050E015
:1029D0000E94FA42211531054105510509F41EC234
:1029E000263F8FE0380780E0480780E0580758F01E
:1029F000263F9FEF390790E0490790E0590730F4F0
:102A0000A2E03A2E05C03324339402C0F3E03F2EF7
:102A1000E2E0EE2EF12C012D112DE20EF31E041F2B
:102A2000151FAD85BE855696ED92FD920D931C93B4
:102A3000599729813A814B815C81A20EB31EC41E35
:102A4000D51E9696AD92BD92CD92DC929997590182
:102A50006A0129853A854B855C85A20EB31EC41E8A
:102A6000D51E5E96AD92BD92CD92DC929197B32D1C
:102A7000B33009F047C04114510409F0CFC1ED85CE
:102A8000FE85E35AFF4F808190E0A0E0B0E0B82FD0
:102A9000AA2799278827ED85FE85E45AFF4F2081D4
:102AA00030E040E050E0A90133272227822B932B0E
:102AB000A42BB52BED85FE85E65AFF4F208130E033
:102AC00040E050E0822B932BA42BB52BED85FE85A7
:102AD000E55AFF4F308120E040E050E0822B932BFD
:102AE000A42BB52BED85FE8582A393A3A4A3B5A348
:102AF000D801C70152E0880F991FAA1FBB1F5A9522
:102B0000D1F72DC04114510409F488C18D819E81F3
:102B1000AF81B8858A0D9B1DAC1DBD1DED85FE8561
:102B200082A393A3A4A3B5A3D801C701880F991FBB
:102B3000AA1FBB1FF32DF23091F08E0D9F1DA01F19
:102B4000B11FB695A79597958795A8019701217014
:102B5000307040705070820F931FA41FB51F8150BA
:102B60009E4FAF4FBF4F29E0B695A7959795879594
:102B70002A95D1F7681679068A069B0608F44EC195
:102B80008FEF9FEFDC01ED85FE8586879787A08B11
:102B9000B18B1286138614861586B32DB33009F0D7
:102BA00019C11582ED85FE85E15AFF4F908180E0C5
:102BB000ED85FE85E25AFF4F208130E0282B392B2E
:102BC00040E050E089819A81AB81BC81280F391F98
:102BD0004A1F5B1FAD85BE8552962D933D934D9345
:102BE0005C935597BD01625D7F4F11968C9101E01A
:102BF0000E946B11882309F0EDC0ED85FE85E35D31
:102C0000FD4F308120E0ED85FE85E45DFD4F808144
:102C100090E0822B932BBAEA85359B0709F0DAC046
:102C2000ED85FE8581A990E0A0E0B0E0B82FAA274D
:102C30009927882720A930E040E050E0A9013327F8
:102C40002227822B932BA42BB52B26A530E040E026
:102C500050E0822B932BA42BB52B37A520E040E02E
:102C600050E0822B932BA42BB52B8235F2E59F07E6
:102C7000F1E6AF07F1E4BF0709F0ACC0ED85FE85D2
:102C8000EB5EFD4F808190E0A0E0B0E0B82FAA2776
:102C900099278827ED85FE85EC5EFD4F208130E089
:102CA00040E050E0A90133272227822B932BA42B4D
:102CB000B52BED85FE85EE5EFD4F208130E040E0D6
:102CC00050E0822B932BA42BB52BED85FE85ED5E7A
:102CD000FD4F308120E040E050E0822B932BA42B6D
:102CE000B52B823722E7920721E4A20721E6B2073B
:102CF00009F070C0ED85FE85E35EFD4F808190E0B8
:102D0000A0E0B0E0B82FAA2799278827ED85FE8597
:102D1000E45EFD4F208130E040E050E0A901332720
:102D20002227822B932BA42BB52BED85FE85E65E07
:102D3000FD4F208130E040E050E0822B932BA42B0C
:102D4000B52BED85FE85E55EFD4F308120E040E04E
:102D500050E0822B932BA42BB52BED85FE8582872B
:102D60009387A487B587E75EFD4F808190E0A0E060
:102D7000B0E0B82FAA2799278827ED85FE85E85E61
:102D8000FD4F208130E040E050E0A90133272227A9
:102D9000822B932BA42BB52BED85FE85EA5EFD4F90
:102DA000208130E040E050E0822B932BA42BB52B08
:102DB000ED85FE85E95EFD4F308120E040E050E08A
:102DC000822B932BA42BB52BED85FE8586879787C9
:102DD000A08BB18BAD85BE853C92809130029091E5
:102DE00031020196909331028093300217969C93A2
:102DF0008E931697ED85FE8512A613A614A615A62A
:102E0000148204C08BE00BC08CE009C080E007C0D6
:102E100083E005C08AE003C081E001C08DE02E960A
:102E20000FB6F894DEBF0FBECDBFCF91DF911F91DB
:102E30000F91FF90EF90DF90CF90BF90AF909F9059
:102E40008F907F906F905F904F903F900895CF93B9
:102E5000DF93EC01CB01BA0162507040804090409A
:102E60002E893F89488D598D225030404040504036
:102E7000621773078407950788F42A8130E040E0E1
:102E800050E00E94BB429B01AC018EA19FA1A8A56E
:102E9000B9A5280F391F4A1F5B1F03C020E030E08F
:102EA000A901B901CA01DF91CF910895BF92CF92D4
:102EB000DF92EF92FF920F931F93CF93DF93EC017A
:102EC0006A017B01423051056105710508F4CAC0F1
:102ED0008E899F89A88DB98D481759076A077B0786
:102EE00008F0C0C08881823009F455C0833009F4ED
:102EF00074C0813009F0BBC08A0116950795040F94
:102F0000151FA801452F5527469560E070E08E8D6E
:102F10009F8DA8A1B9A1480F591F6A1F7B1FCE0121
:102F20000E941312882309F0A2C0F801F170EC0F7F
:102F3000FD1FB6A40F5F1F4FA801452F55274695CB
:102F400060E070E08E8D9F8DA8A1B9A1480F591F38
:102F50006A1F7B1FCE010E941312882309F087C0CD
:102F60002B2D30E011700C0F1D1FF80196A580E08D
:102F7000282B392BE601C170D070209731F044E046
:102F8000369527954A95E1F725C040E050E03F701F
:102F9000407050706FC0452F562F672F77278E8D4A
:102FA0009F8DA8A1B9A1480F591F6A1F7B1FCE0191
:102FB0000E941312882309F05AC0B601660F771FCA
:102FC0007170FE01E60FF71F26A530E097A580E09F
:102FD000282B392B40E050E04DC097E0769567955F
:102FE000579547959A95D1F78E8D9F8DA8A1B9A138
:102FF000480F591F6A1F7B1FCE010E94131288239E
:10300000B1F5B601660F771F660F771F7170FB0170
:10301000BE96EC0FFD1F228130E040E050E0A90198
:1030200033272227838190E0A0E0B0E0B82FAA27C1
:1030300099278827282B392B4A2B5B2B918180E0FD
:10304000A0E0B0E0282B392B4A2B5B2BC60FD71FF3
:103050008EA590E0A0E0B0E0282B392B4A2B5B2B0B
:103060005F7008C021E030E040E050E003C02FEF87
:103070003FEFA901B901CA01DF91CF911F910F91D3
:10308000FF90EF90DF90CF90BF9008950F931F9324
:10309000CF93DF93EC011D821C824E815F81688596
:1030A0007985413051056105710509F467C00881D2
:1030B0001981F80186899789A08DB18D4817590724
:1030C0006A077B0708F05AC0411551056105710573
:1030D000F9F48081833049F442A153A164A175A120
:1030E000411551056105710599F41A861B861C86E8
:1030F0001D86F80180859185009709F43FC082A163
:1031000093A1A4A1B5A18E879F87A88BB98B2EC050
:10311000F80182818823F9F4888199810E945617E9
:10312000AB01BC014F3FFFEF5F07FFEF6F07FFEF02
:103130007F0711F14230510561057105F8F0E88112
:10314000F98186899789A08DB18D481759076A073B
:103150007B0710F313C04A875B876C877D87C801A4
:103160000E9427176E877F87888B998B025D1F4F80
:103170001B8B0A8B80E003C081E001C082E0DF91FD
:10318000CF911F910F9108958F929F92AF92BF920E
:10319000CF92DF92EF92FF920F931F93CF93DF9323
:1031A000EC016A017B01480159014230510561057A
:1031B000710508F4D0C08E899F89A88DB98D4817F4
:1031C00059076A077B0708F0C6C08881823009F476
:1031D0006AC0833009F483C0813009F0B8C08A0125
:1031E000169507950C0D1D1DA801452F55274695D1
:1031F00060E070E08E8D9F8DA8A1B9A1480F591F86
:103200006A1F7B1FCE010E941312882309F0A0C001
:10321000C8019170A1E0CA22DD24C114D10451F08B
:10322000FE01E80FF91F36A53F70282D2295207F5B
:10323000232B01C0282D8C0F9D1FFC0126A70F5F9B
:103240001F4F81E08C83A801452F5527469560E0EC
:1032500070E08E8D9F8DA8A1B9A1480F591F6A1FDC
:103260007B1FCE010E941312882309F071C01170D8
:10327000C114D10449F094E0B694A794979487942C
:103280009A95D1F7982D08C0FE01E00FF11F96A581
:10329000907F292D2F70922B0C0F1D1FD8019E9609
:1032A0009C939E9755C0452F562F672F77278E8D5D
:1032B0009F8DA8A1B9A1480F591F6A1F7B1FCE017E
:1032C0000E941312882309F043C09601220F331F76
:1032D0003170FE01E20FF31F86A697A639C017E0F2
:1032E00076956795579547951A95D1F78E8D9F8D51
:1032F000A8A1B9A1480F591F6A1F7B1FCE010E94C8
:103300001312882329F5B601660F771F660F771F02
:103310007170FB01BE96EC0FFD1F238130E040E091
:1033200050E0522F4427332722276C0F7D1F207037
:1033300030704070507F282939294A295B29DB01E8
:103340009E962C939E9731834283538301C082E0E3
:1033500091E09C8301C082E0DF91CF911F910F919A
:10336000FF90EF90DF90CF90BF90AF909F908F90A5
:1033700008954F925F926F927F928F929F92AF9239
:10338000BF92CF92DF92EF92FF920F931F93CF9352
:10339000DF93EC012A013B014115510561057105DF
:1033A00099F48A849B84AC84BD8481149104A10423
:1033B000B10409F18E899F89A88DB98D8816990667
:1033C000AA06BB06C0F41CC00E9456179B01AC01A4
:1033D000623071058105910508F493C08E899F893B
:1033E000A88DB98D281739074A075B0708F48DC0E7
:1033F0005301420105C061E0862E912CA12CB12C15
:10340000750164010894C11CD11CE11CF11C8E895A
:103410009F89A88DB98DC816D906EA06FB0660F00B
:1034200022E082169104A104B10408F463C052E0C2
:10343000C52ED12CE12CF12CCE01B701A6010E94A2
:1034400056179B01AC016115710581059105A9F025
:103450002F3F8FEF38078FEF48078FEF580709F49A
:1034600054C0213031054105510509F44EC0C8143E
:10347000D904EA04FB0431F63DC08C2CBD2CAE2CE3
:103480009F2CCE01A601B7010FEF1FEF2FEF3FE0FA
:103490000E94C418882341F5411451046104710449
:1034A00049F0CE01B301A201860197010E94C41820
:1034B0008823D1F48A86BB86AC869D868E859F85BF
:1034C000A889B9898F3F2FEF92072FEFA2072FEF1F
:1034D000B207A1F00197A109B1098E879F87A88B38
:1034E000B98B81E08D830AC0813059F42FEF3FEF13
:1034F000A9010BC020E030E0A90107C0A701960197
:1035000004C021E030E040E050E0B901CA01DF91A1
:10351000CF911F910F91FF90EF90DF90CF90BF90D0
:10352000AF909F908F907F906F905F904F90089595
:103530008F929F92AF92BF92CF92DF92EF92FF92C3
:103540000F931F93CF93DF93EC015B01CC80DD8061
:103550000894C11CD11CC114D10409F4EDC08E859E
:103560009F85A889B9890097A105B10509F4E4C030
:103570001FE0812E912C8C209D208114910409F054
:10358000CBC00196A11DB11D8E879F87A88BB98BDB
:103590004A855B856C857D858881998141155105BA
:1035A0006105710541F4FC0180859185C816D90635
:1035B00008F4B2C0C1C0FC01228130E0215030408B
:1035C000F601A4E0F695E795AA95E1F72E233F23AF
:1035D0002115310509F0A0C00E9456177B018C010E
:1035E000623071058105910508F4AAC08FEFE816D5
:1035F0008FEFF8068FEF08078FEF180709F4A2C0C6
:1036000088819981FC0126893789408D518DE21688
:10361000F3060407150708F471C0A114B10409F4F6
:103620008BC04A855B856C857D850E94B9197B01BD
:103630008C01611571058105910509F47FC0613028
:1036400071058105910509F47BC08FEFE8168FEFB6
:10365000F8068FEF08078FEF180709F473C0888109
:10366000998140E050E0BA010E941312882309F0CA
:1036700069C088819981FC01BE96825D9D4F01C021
:103680001192E817F907E1F7A880B980C501B801E0
:10369000A7010E942717F50162A773A784A795A722
:1036A000BB24AA24A39419C0A4828881998140E0F4
:1036B00050E0BA010E941312882309F043C0E88148
:1036C000F98182A593A5A4A5B5A50196A11DB11D5B
:1036D00082A793A7A4A7B5A7B394E881F9818281B3
:1036E000B81610F382A593A5A4A5B5A58B199109C9
:1036F000A109B10982A793A7A4A7B5A7EA86FB866B
:103700000C871D8788819981B801A7010E9427171E
:103710006E877F87888B998BDD82CC8288819981A7
:103720008E9675E0880C991C7A95E1F7880D991DA5
:103730009B8B8A8B80E007C084E005C087E003C0D4
:1037400082E001C081E0DF91CF911F910F91FF9046
:10375000EF90DF90CF90BF90AF909F908F900895A3
:103760002F923F924F925F926F927F928F929F9291
:10377000AF92BF92CF92DF92EF92FF920F931F937F
:10378000CF93DF93EC01DB018C918F3211F08C35FC
:1037900011F46F5F7F4F1E821F8218861986FB010E
:1037A0008081803230F4CE010E9446181B8A1A8A2A
:1037B000ECC090E2592E85E0482EFB018F018081FC
:1037C00031968F32D9F38C35C9F3EC89FD89DF014D
:1037D0008CE090E001C05D920197E9F7180180E06C
:1037E00090E0EE24FF2428E030E09924D1018D9070
:1037F0001D010894E11CF11CB82DB13208F448C039
:10380000BF3209F447C0BC3509F444C0BE3219F0D8
:103810008217930778F02830310509F0B3C0482D9E
:103820004E3209F0AFC0990C990C88E090E02BE083
:1038300030E0DCCF87FE08C0A3E09A2A482D50E094
:103840004D565F4FDA018C90C82CDD2444E051E0E6
:10385000DA016D91AD01662329F070E06C157D05EC
:10386000B9F790C0482D41544A3118F4B2E09B2A70
:1038700008C0482D41564A3120F441E0942AA0EE78
:103880008A0EBF01680F791FDB018C920196AECFC3
:1038900044E001C040E0009709F474C08081853E97
:1038A00009F440822830310511F4990C990C892DC6
:1038B00090E09C01237030702130310509F44061A3
:1038C0008C7090708430910509F448604387CE0174
:1038D0000E944618882329F54E855F856889798975
:1038E000888199810E9413128823D9F4EA89FB897F
:1038F00090819923A9F0938593FD0CC0AC89BD8973
:103900009F01255F3F4FE217F30759F041919D91C9
:103910004917C9F3CE0160E070E00E94981ADACF2F
:1039200084E0EC89FD899385882329F0843069F54A
:1039300092FF2AC02AC092FD28C02A893B89F9013A
:10394000838584FF21C0B8016E0D7F1D75886624B4
:10395000848990E086299729A0E0B0E0DC019927CE
:103960008827B38CAA24228D30E02A293B2940E005
:1039700050E0822B932BA42BB52B8E839F83A8879B
:10398000B9871BCF86E001C085E0DF91CF911F9101
:103990000F91FF90EF90DF90CF90BF90AF909F90EE
:1039A0008F907F906F905F904F903F902F900895F1
:1039B000882391F4E0912E02F0912F02309709F0C4
:1039C00010826115710511F0FB01108270932F02B6
:1039D00060932E0280E008958BE008952F923F922D
:1039E0004F925F926F927F928F929F92AF92BF920F
:1039F000CF92DF92EF92FF920F931F93DF93CF93BB
:103A0000CDB7DEB7AD970FB6F894DEBF0FBECDBF12
:103A10006C017CA36BA3DC011D921C92B42FBF71BF
:103A2000BDA35DE0E52EF12CEC0EFD1E4E71CE0126
:103A30008396B7010E942713182FCE0101969AA3EF
:103A400089A3112331F46BA17CA1C7010E94B01B93
:103A5000182FEF8CF8A0112321F4E114F10409F4DC
:103A600016E0EDA18E2F90E09C012C713070211595
:103A7000310509F402C1112309F44DC0143009F0D5
:103A800041C04DE0E42EF12CEC0EFD1EC7010E945A
:103A90004618182F8823B1F5AE2CEF2C4B8D5C8D7A
:103AA0006D8D7E8D8D859E850E941312182F882323
:103AB00049F5EF8DF8A18081853E09F480C1882306
:103AC00009F47DC18A2D9E2D61E070E00E94981A54
:103AD000182F882319F316C08F8D98A1282F392FFE
:103AE000F90121E230E001C0119221503040E1F7AC
:103AF00069A17AA14BE050E00E94EE11ED85FE85B0
:103B000081E08483EF8CF8A0112309F03EC1FDA170
:103B1000F860FDA309C0D7011B962C911B9721715A
:103B200009F075C1E2FD58C1BDA1B3FFB3C00E9449
:103B3000EA11F70166877787808B918B1386148E45
:103B4000158E168E178E958980E024883324282AB6
:103B5000392A44245524210133242224338D20E0A2
:103B6000828D90E0822B932BA0E0B0E0282A392AA6
:103B70004A2A5B2A128E138E148A158AAD84BE845B
:103B800081E0D50114968C931497211431044104DB
:103B9000510409F47FC09A968D919D910D90BC912E
:103BA000A02D8AA79BA7ACA7BDA7B1E02B16310417
:103BB0004104510409F45DC0F50186899789A08DFF
:103BC000B18D281639064A065B0608F052C042013C
:103BD000310143C0C501B401A3010E9456176EA371
:103BE0007FA388A799A7611571058105910509F43F
:103BF000F5C06130710581059105D9F16F3FFFEF87
:103C00007F07FFEF8F07FFEF9F07A9F1C501B40101
:103C1000A30100E010E098010E94C418182F882327
:103C200009F0B3C0F50186859785A089B1898F3FDA
:103C3000FFEF9F07FFEFAF07FFEFBF0751F00196C0
:103C4000A11DB11DF50186879787A08BB18B21E05F
:103C500025836EA07FA088A499A4F5018689978901
:103C6000A08DB18D681679068A069B0608F4B2CF3E
:103C7000B5C012E08AC011E088C0112309F085C0E8
:103C8000D7011B962C911B9724FDBFC0E1FF02C0FA
:103C900020FDBDC0BDA1B3FF02C0B062BDA36D8554
:103CA0007E85FB0122A533A544A555A5D6015A96CC
:103CB0002D933D934D935C935D975F96FC92EE92AE
:103CC0005E97EDA11496EC93D70155963C915597CC
:103CD00020E054968C9190E0822B932BA0E0B0E0F2
:103CE000DC0199278827F701538D40E0228D30E0D1
:103CF000242B352B40E050E0822B932BA42BB52BAB
:103D0000F60186879787A08BB18BD7015F968C9140
:103D100090E0A0E0B0E0B82FAA2799278827F70104
:103D2000268D30E040E050E0A90133272227822B86
:103D3000932BA42BB52B248D30E040E050E0822B58
:103D4000932BA42BB52B358D20E040E050E0822B47
:103D5000932BA42BB52BF60182879387A487B58775
:103D6000D60116961D921D921D921C921997168AC5
:103D7000178A108E118E71836083DB0116968D91E8
:103D80009C9117979383828310E0812FAD960FB695
:103D9000F894DEBF0FBECDBFCF91DF911F910F9181
:103DA000FF90EF90DF90CF90BF90AF909F908F905B
:103DB0007F906F905F904F903F902F9008954B8D24
:103DC0005C8D6D8D7E8D8D859E850E941312182FC2
:103DD000882309F481CE96CE18E0D7CF8D859E85B5
:103DE00008942108310841085108FC0122863386D5
:103DF000448655864AA55BA56CA57DA50E94131235
:103E0000182F882309F446CFC0CF14E0BECF17E0A7
:103E1000BCCF2F923F924F925F926F927F928F9280
:103E20009F92AF92BF92DF92EF92FF920F931F93F8
:103E3000DF93CF9300D000D0CDB7DEB79C838B83C8
:103E4000062FA72E7A013A832983D9011D921C924D
:103E5000FC0162817381808191810E94FD11D82EC5
:103E6000882309F045C1AB81BC8114968C911497CD
:103E700087FD39C180FF3AC11A968D919D910D90B1
:103E8000BC91A02DEB81FC81268137814085518535
:103E9000821B930BA40BB50B970140E050E08217F7
:103EA0009307A407B50708F47C01202E3A2C16C10D
:103EB000AB81BC8116962D913D914D915C911997E6
:103EC000DA01C9019170A070B0700097A105B10529
:103ED00009F0ACC0EB81FC818081918149015A01DC
:103EE00019E0B694A794979487941A95D1F7DC01BA
:103EF00012960C9112970150082141F521153105B8
:103F00004105510529F4668577858089918908C026
:103F1000EB81FC8142895389648975890E94561717
:103F2000623071058105910508F16F3FBFEF7B0796
:103F3000BFEF8B07BFEF9B0709F48CC0AB81BC813F
:103F400052966D937D938D939C935597EB81FC8155
:103F5000808091804289538964897589C4010E9457
:103F60002717611571058105910551F4AB81BC815D
:103F700014968C911497806814968C931497B3C000
:103F80002B013C01400E511C611C711C5701AB2CD4
:103F9000BB24A694A114B10409F442C0F4018281A7
:103FA00010E09501200F311F90E08217930718F45D
:103FB0005C01A01AB10AD40111968C91B101A30140
:103FC00092010A2D0E946B11882309F043C0AB8136
:103FD000BC81ED91FC91119784818823E1F082A549
:103FE00093A5A4A5B5A584199509A609B7099501B6
:103FF00040E050E082179307A407B50760F4982FBC
:104000008827990FBF01625D7F4F820D931D40E0AD
:1040100052E00E94EE118501102F0027110F3FC0C2
:10402000EB81FC81468A578A608E718EAB81BC81A0
:1040300016968D909D90AD90BC90199756964D9187
:104040005D916D917C9159978D919C910E94131275
:10405000882341F0EB81FC81848180688483DD24A6
:10406000D39446C0C401917020E032E0281B390B84
:1040700087012E153F0508F48901AB81BC816D9144
:104080007C911197625D7F4F16968D919C91179749
:104090009170680F791FC101A8010E94EE11200ED6
:1040A000311E980140E050E0EB81FC8186819781D0
:1040B000A085B185820F931FA41FB51F86839783A8
:1040C000A087B187A981BA818D919C911197800FAA
:1040D000911F11969C938E93E01AF10AE114F1045A
:1040E00009F0E6CE05C072E0D72E02C067E0D62EFA
:1040F0008D2D0F900F900F900F90CF91DF911F910A
:104100000F91FF90EF90DF90BF90AF909F908F90B6
:104110007F906F905F904F903F902F9008952F92D7
:104120003F924F925F926F927F928F929F92AF9247
:10413000BF92CF92DF92EF92FF920F931F93CF9394
:10414000DF93EC01062FE72E5A011901F9011182C4
:1041500010826A817B81888199810E94FD11182FCC
:10416000882309F06AC18C8187FD64C181FF64C125
:104170002A853B854C855D85C501A0E0B0E0820FB6
:10418000931FA41FB51F82179307A407B50710F448
:10419000AA24BB24402E5E2C34C12E813F81488549
:1041A0005985DA01C9019170A070B0700097A1051E
:1041B000B10509F0DDC08881998169017A0169E062
:1041C000F694E794D794C7946A95D1F7FC010281DD
:1041D00001500C21D1F52115310541055105A9F4F6
:1041E0002E853F854889598921153105410551059D
:1041F000D1F440E050E0BA010E94B9199B01AC0132
:104200006E877F87888B998B08C04A895B896C8908
:104210007D890E94B9199B01AC0121153105410529
:10422000510509F4F2C0213031054105510599F1DC
:104230002F3FFFEF3F07FFEF4F07FFEF5F0709F447
:10424000A5C02A8B3B8B4C8B5D8BE881F98162A5E5
:1042500073A584A595A52E893F89488D598D621730
:1042600073078407950749F4CF0140E050E0BA0195
:104270000E941312882309F089C0C880D9804A8916
:104280005B896C897D89C6010E94271761157105BC
:104290008105910521F48C8180688C83CBC03B0122
:1042A0004C01600E711C811C911C7501EF2CFF24C8
:1042B000E694E114F104E9F1F6012281802F90E007
:1042C000A701480F591F30E02417350718F479016A
:1042D000E81AF90AF6018181B201A40193010E2DB9
:1042E0000E949D11882309F051C0E881F98162A5DF
:1042F00073A584A595A56619770988099909970179
:1043000040E050E0621773078407950770F4762F3A
:104310006627770F640D751DCF018E9640E052E041
:104320000E94EE11E881F9811482FE2CEE24FF0C2C
:104330004EC02E813F81488559858A859B85AC85F5
:10434000BD85281739074A075B0770F0C60140E0B2
:1043500050E0BA010E9413128823C1F4E881F98168
:1043600062A673A684A695A66E8A7F8A888E998E89
:10437000CE80DF80E884F9844E895F89688D798DED
:10438000888199810E941312882329F08C8180688A
:104390008C8311E052C0C601917020E032E0281BEE
:1043A000390B75012A153B0508F4790128813981FB
:1043B000225D3F4F8E819F819170820F931FB201CA
:1043C000A7010E94EE11E881F98131E034834E0C9F
:1043D0005F1C970140E050E08E819F81A885B985E0
:1043E000820F931FA41FB51F8E839F83A887B98751
:1043F000F101808191818E0D9F1D91838083AE1884
:10440000BF08A114B10409F0C8CE8E819F81A88590
:10441000B9852A853B854C855D85281739074A076C
:104420005B0720F48A879B87AC87BD878C8180627D
:104430008C8303C012E001C017E0812FDF91CF9180
:104440001F910F91FF90EF90DF90CF90BF90AF90B2
:104450009F908F907F906F905F904F903F902F90A4
:1044600008950F931F93CF93DF93EC016A817B81B3
:10447000888199810E94FD11982F882309F0B6C088
:104480008C8185FFB3C04A8D5B8D6C8D7D8D88815D
:1044900099810E941312982F882309F0A7C00E8DCE
:1044A0001F8DF8018385806283878A85848F8B8541
:1044B000858F8C85868F8D85878F8E85828F8F8562
:1044C000838F8889848B8989858B0E94EA11F80102
:1044D000668B778B808F918F8C818F7D8C83E88129
:1044E000F98181E084830990D881C02DCE0140E01C
:1044F00050E0BA010E941312982F882309F076C069
:104500008881833009F068C08D81882309F464C0F4
:104510001AA61BA61CA61DA6FE01BE96CE01825D94
:104520009D4F01C01192E817F907E1F7FE01E45D24
:10453000FD4F85E58083FE01E35DFD4F8AEA8083C0
:1045400082E58EA78FA781E688AB91E499ABFE0147
:10455000EE5EFD4F22E72083FE01ED5EFD4F2083DE
:10456000FE01EC5EFD4F9083FE01EB5EFD4F80830C
:104570003E852F8598898989FE01EA5EFD4F30834B
:10458000FE01E95EFD4F2083FE01E85EFD4F908352
:10459000FE01E75EFD4F80833A852B859C858D85E6
:1045A000FE01E65EFD4F3083FE01E55EFD4F208398
:1045B000FE01E45EFD4F9083FE01E35EFD4F8083CC
:1045C000BE01625D7F4F2A893B894C895D89898163
:1045D00001E00E949D111D82898160E040E050E071
:1045E0000E94CF1191E0882309F490E0892FDF9198
:1045F000CF911F910F910895CF93DF93EC010E940B
:104600003122882311F419821882DF91CF91089505
:10461000EF92FF920F931F93DF93CF930F92CDB73B
:10462000DEB7982F7A018B0180916204882399F478
:10463000892F8151823040F0983131F0993121F049
:10464000903211F0913239F489E0EE0CFF1C001F1A
:10465000111F8A95D1F72C98892F806499830E9425
:10466000A224812F0E94A224802F0E94A2248F2D99
:104670000E94A2248E2D0E94A2249981983011F4C8
:1046800087E802C085E999830E94A224998100E00D
:1046900002C00150E1F099830E94A824182F99814B
:1046A0008F3FB9F3882399F49A3389F40E94A824A0
:1046B00086FF04C081E08093620402C0109262040D
:1046C0000E94A8240E94A8240E94A82410E00E940E
:1046D000A8242C9A812F0F90CF91DF911F910F91D9
:1046E000FF90EF9008951F93CF93DF935A9A10E0B5
:1046F0008FEF0E94A2241F5F1A30D1F72C98C0E0E0
:10470000D0E080E040E050E0BA010E94082321960A
:10471000C132D10509F452C0813099F72C9A8FEF3C
:104720000E94A2248FEF0E94A224C0E0D0E088E083
:104730004AEA51E060E070E00E9408232196CF3FF2
:10474000D10529F481E08093670411E003C0813032
:1047500071F712E0C0E0D0E087E340E050E0BA013A
:104760000E94082389E240E050E060E070E40E948B
:1047700008232196CF3FD10519F1882369F71092BC
:1047800062041230F9F4C0E0D0E08AE340E050E087
:10479000BA010E9408232196CF3FD10519F4109247
:1047A000670402C0882389F780916204813011F484
:1047B00082E001C083E08093670404C081E003C00D
:1047C00082E001C080E0DF91CF911F9108951F9397
:1047D00089B1182F147082FF06C08091320288239D
:1047E00011F40E94873A109332021F910895DF92CC
:1047F000EF92FF920F931F93CF93DF938B019C0156
:104800007A0181E1B901A8010E940823D82E8823EA
:1048100041F52C980FEF1FEF09C00115110521F488
:104820002C9ADD24D3941DC0015010400E94A8246E
:104830008E3F99F78F2DE7017E01F82EE70100E00A
:1048400010E00E94A82489930F5F1F4F32E00030D0
:104850001307B9F70E94A8240E94A8240E94A82444
:104860002C9A8D2DDF91CF911F910F91FF90EF909A
:10487000DF900895DF92EF92FF920F931F93CF93F3
:10488000DF938B019C017A0188E1B901A8010E94A4
:104890000823D82E882309F043C02C988EEF0E945D
:1048A000A2248F2DF82EE70100E010E089910E94EC
:1048B000A2240F5F1F4F32E000301307B9F78FEFCC
:1048C0000E94A2248FEF0E94A2240E94A824982F65
:1048D0009F71953019F400E010E009C02C9AD82E91
:1048E0001FC08FEF0F3F180781F00F5F1F4F0E940F
:1048F000A8248823B1F32C9A8FEF0E94A2242C982D
:104900000AC09FEF0F3F190721F42C9ADD24D3949E
:1049100007C00F5F1F4F0E94A824882391F32C9A91
:104920008D2DDF91CF911F910F91FF90EF90DF9030
:10493000089584B1806B84B985B185B982E58CBD59
:104940001DBC08958EBD0DB407FEFDCF8EB5089534
:104950008FEF8EBD0DB407FEFDCF8EB508951F926B
:104960000F920FB60F9211248F939F938091330271
:1049700090913402019690933402809333029F9178
:104980008F910F900FBE0F901F90189587E0809326
:10499000B100E0E7F0E0808181608083089528E63F
:1049A00034E0C90160E070E048E050E00E946B43F1
:1049B00080E480937C0086E080937A0080917A0086
:1049C000806880937A0080917A00806480937A0076
:1049D00080917A0086FDFCCF8091780090917900DB
:1049E000089590917C008F71907E892B80937C003C
:1049F00080917A00806480937A0080917A0086FDAD
:104A0000FCCF2091780030917900C9010895BF92C0
:104A1000CF92DF92EF92FF920F931F93D82EB62E74
:104A2000CC24EE24FF2487010BC08D2D0E94F1249D
:104A3000AC0160E070E0E40EF51E061F171FC39482
:104A4000CB1498F32B2D30E040E050E0C801B701C3
:104A50000E94FA42C9011F910F91FF90EF90DF90E1
:104A6000CF90BF9008951F93CF93DF93C0E0D0E025
:104A70001C2F8C2F64E00E940725BC01FE01EE0F65
:104A8000FF1FE859FB4F208131812D5F3F4F2817D1
:104A9000390730F02081318103968217930770F433
:104AA000FE01EE0FFF1FE859FB4F7183608376957F
:104AB000679576956795812F0E94F4382196C430CA
:104AC000D105B1F6DF91CF911F9108954698469A8E
:104AD00008954598459A08953F9887B1806687B9AB
:104AE000479888B1806688B985E0E0E7F4E0DF01A7
:104AF0001D928A95E9F70E94692508950F931F93E7
:104B000080919301873228F0109293010E946925C9
:104B100005C08F5F809393010E9466258091930169
:104B2000082F069506950695182F1770402F50E010
:104B3000379B31C040595B4FFA01208130E041E0A2
:104B400050E0012E02C0440F551F0A94E2F72423BF
:104B500035232115310591F10E942F0B2FC00E94A2
:104B60007C0A81E0E02FF0E0E059FB4F282F012E76
:104B700001C0220F0A94EAF781E090E002C0880F9A
:104B8000991F1A95E2F7809590818923282B20831D
:104B90001F910F91089521E030E0012E02C0220FF5
:104BA000331F0A94E2F740595B4FFA01408150E00D
:104BB000422353234217530791F6D3CF80E0D2CF3D
:104BC0008AB180678AB98BB18F788BB985E0E5E7C8
:104BD000F4E0DF011D928A95E9F708955D9A5D98EA
:104BE00008955C9A5C980895CF93DF93C0E0D0E07D
:104BF0005E98FE0183E0F595E7958A95E1F7EB581D
:104C0000FB4F808190E09E012770307002C0959527
:104C100087952A95E2F780FD5E9A0E94EE252196FF
:104C2000C832D10529F70E94F125DF91CF9108956F
:104C30001F920F920FB60F9211242F933F934F9311
:104C40005F936F937F938F939F93AF93BF93EF93F4
:104C5000FF936091C6008CEF94E00E94610DFF917C
:104C6000EF91BF91AF919F918F917F916F915F91E4
:104C70004F913F912F910F900FBE0F901F9018955D
:104C80001F920F920FB60F9211242F933F934F93C1
:104C90005F936F937F938F939F93AF93BF93EF93A4
:104CA000FF93DF93CF930F92CDB7DEB78AE794E0FF
:104CB000BE016F5F7F4F0E94770D882321F08981AD
:104CC0008093C60005C08091C1008F7D8093C10094
:104CD0000F90CF91DF91FF91EF91BF91AF919F9195
:104CE0008F917F916F915F914F913F912F910F9095
:104CF0000FBE0F901F9018958AE794E00E94530D05
:104D00008CEF94E00E94530D1092C50084E08093D4
:104D1000C400E0ECF0E0808182608083E1ECF0E0B0
:104D200080818869808386E08093C2000895682F1F
:104D30008AE794E00E94610DE1ECF0E090819062DE
:104D400090830895BC018CEF94E00E94770D91E070
:104D5000882309F490E0892F0895DF93CF930F9271
:104D6000CDB7DEB7CE0101960E94A226882319F0A6
:104D700089810E94380E0F90CF91DF910895109293
:104D80007E0529E935E0C90160E070E045E050E0CA
:104D90000E946B4308951092770410929B0508952A
:104DA0008091760480788093760480919A0580784B
:104DB00080939A050895805F482F469546954695BD
:104DC00050E0877021E030E002C0220F331F8A9547
:104DD000E2F7FA01EB58FB4F208347565A4FFA018E
:104DE00020830895805F482F46954695469550E06C
:104DF000877021E030E002C0220F331F8A95E2F76E
:104E0000FA01EB58FB4F208347565A4FFA01208393
:104E1000089590917604907820919A0520782093B7
:104E20009A058F77982B9093760490919A05982BFA
:104E300090939A050895885FE82FE695E695E695A4
:104E4000F0E0DF01AB58BB4F9C919078E756FA4FEA
:104E5000208120782083877021E030E001C0220F7C
:104E60008A95EAF7922B9C938081822B8083089508
:104E7000E62FE695E695E695F0E0677021E030E0F4
:104E800001C0220F6A95EAF7422F4095DF01AB5827
:104E9000BB4F9C9194239C93E756FA4F3081342367
:104EA0003083882329F0922B9C938081822B8083EE
:104EB0000895E82FE695E695E695F0E0DF01AB581A
:104EC000BB4F4C91877021E030E001C0220F8A95E2
:104ED000EAF7322F3095932F94239C93E756FA4F9D
:104EE000808183238083422329F4922B9C938081A9
:104EF000822B80830895E82FE695E695E695F0E00D
:104F0000EB58FB4F9081877021E030E001C0220F09
:104F10008A95EAF7822F809589238083922311F462
:104F2000282B208308951F9318E180E0612F0E94B1
:104F300038271F5F1832C9F71F9108951F93CF9329
:104F4000DF93182FC0E0D0E080917E0590E00C2E1A
:104F500002C0959587950A94E2F780FD2BC0FE016B
:104F6000E158FA4F108320917E0581E090E00C2EED
:104F700002C0880F991F0A94E2F7282B20937E0520
:104F8000609133027091340280E090E00E94A2416F
:104F90002FEF3FE443E450E40E9412410E94764127
:104FA000CC0FDD1FC757DA4F79836883812F0E94AA
:104FB0007B2704C02196C830D10531F6DF91CF910F
:104FC0001F910895E82FE695E695E695F0E0DF015C
:104FD000A756BA4F9C91877021E030E001C0220FA4
:104FE0008A95EAF79223EB58FB4F992321F08081B1
:104FF000822B808308952095808128232083089523
:105000000F931F93CF93DF93C0E0D0E001E010E057
:1050100080917E0590E00C2E02C0959587950A94AC
:10502000E2F780FF21C02091330230913402FE016B
:10503000EE0FFF1FE757FA4F808191818217930788
:1050400098F420917E05C8010C2E02C0880F991F8C
:105050000A94E2F78095822380937E05FE01E15851
:10506000FA4F80810E94E2272196C830D10581F64F
:1050700020913302309134028091360290913702B0
:105080008217930728F5609133027091340280E013
:1050900090E00E94A2412FEF33E244EF50E40E94DF
:1050A00012410E94764170933702609336028091DC
:1050B0009E0580FF04C0809187050E947B27809118
:1050C0009E05869580FF04C0809188050E947B27FD
:1050D000DF91CF911F910F9108951F93182F662391
:1050E000C9F480918705811741F480919E058E7FD8
:1050F00080939E05812F0E94E22780918805811769
:1051000051F580919E058D7F80939E05812F0E9491
:10511000E22721C080919E0580FF08C080919E05F6
:10512000869580FD18C041E050E002C040E050E0AC
:10513000FA01E957FA4F108380919E0521E030E093
:1051400002C0220F331F4A95E2F7822B80939E05FF
:10515000812F0E947B271F9108951F93182F80E0B5
:1051600060E00E94382780E061E00E94382780E0FC
:1051700062E00E94382780E063E00E94382780E0E8
:1051800060E00E946D2881E060E00E946D2882E06E
:1051900060E00E946D2883E060E00E946D2813307B
:1051A000B9F0143028F4113069F0123070F407C0EF
:1051B000153099F0153060F01730A9F410C081E077
:1051C00060E008C081E061E005C081E062E002C00B
:1051D00081E063E00E94382706C081E001C083E0DF
:1051E00061E00E946D281F910895809187050E94BB
:1051F000E22780919E058E7F80939E058091880591
:105200000E94E22780919E058D7F80939E050895E0
:10521000809135020E94E22708951F93182F16955A
:1052200016951695185E80913502811749F0809188
:1052300035020E94E22710933502812F0E947B27BE
:105240001F9108951F93529A5A9814B8209828983D
:105250000E948E100E947C268EED90E00E94051127
:1052600084E991E00E94F11080E062E00E94DB108E
:105270008EEC90E00E9405110E94CF240E94E00C69
:105280000E946C250E94E0250E94BF260E94C62431
:1052900080E00E9459270E94983478940E94873AAF
:1052A0000E94293B8FEF91E1AAE781509040A040F6
:1052B000E1F700C000000E94841080E060E00E94DE
:1052C00041400E94E7230E947E250E94F4250E940F
:1052D000AD260E94420D182F0E944D0D682F812F80
:1052E0000E94A6360E94AD260E94AD260E94AD26E1
:1052F0000E94AD260E9433250E9400280E94713A28
:105300000E949B08DECF0F931F93CF93DF9380E023
:1053100090E036C0FE01E20FF31FA491EA2FE150A6
:10532000EC3D80F4AF3708F4AF5FB0E0FB01E20F73
:10533000F31FE491AA0FBB1FA156BA4F1196EC932D
:1053400011978C932F5F3F4F2830310519F74F5F2E
:105350005F4F4830510581F020E030E0BA01600F26
:10536000711FE4E0660F771FEA95E1F7EB01C0518A
:10537000DF4F68517F4FCECF01968630910549F0BF
:1053800040E050E08C0123E0000F111F2A95E1F767
:10539000E3CFDF91CF911F910F9108951F93182FA5
:1053A0000E94B139482F4295407F1F70412B82EBFC
:1053B00068E20E94900D1F910895DF93CF930F92A2
:1053C000CDB7DEB70E94BF2A89830E94932782EB64
:1053D00067E249810E94900D0F90CF91DF9108956F
:1053E0008093C1016093380208958093C201609355
:1053F0003802089581E09091C1019F3F09F480E057
:105400000895DF93CF930F92CDB7DEB70E94B139E5
:1054100089830E94932782EB6FE149810E94900D5E
:105420000F90CF91DF910895DF93CF930F92CDB777
:10543000DEB7809138028330A9F44091C1014295D2
:10544000407F8091C2018F70482B49830E9493272F
:1054500082EB60E249810E94900D8FEF8093C20140
:105460008093C1010F90CF91DF910895DF93CF9387
:105470000F92CDB7DEB7809138028230A9F4409107
:10548000C1014295407F8091C2018F70482B4983B2
:105490000E94932782EB61E249810E94900D8FEF79
:1054A0008093C2018093C1010F90CF91DF91089545
:1054B00081E090913802913009F080E00895809168
:1054C00039020895882351F10E94841080E061E040
:1054D0000E94DB1088E991E00E94F110809139026E
:1054E000823051F0833059F0813019F080EA91E038
:1054F00008C086EA91E005C08EEA91E002C086EB22
:1055000091E00E94F1108EEB91E00E94F1100E9458
:10551000F52881E06FE00E943827089580E06FE071
:105520000E9438270E949932089580933902809111
:105530003802813011F40E94622A08958091390264
:10554000823051F0833051F0813019F00E94012AED
:1055500008C00E94DD2905C080E001C081E00E94F2
:10556000CE2980E00E94622A109238020895482FC6
:1055700080933A0282EB6AE10E94900D0895809137
:105580003A0208958091EF0184FF03C08F608093F9
:10559000EF010895282F26952695269530E0663050
:1055A00008F065E0E62FF0E043E0EE0FFF1F4A95BC
:1055B000E1F7E20FF31F94E0EE0FFF1F9A95E1F77A
:1055C000E051FF4F8770E80FF11D84910895AF926D
:1055D000BF92CF92DF92EF92FF920F931F93CF93E0
:1055E000DF9300E010E070E2B72E22C08881F7015F
:1055F0009081981769F0882309F4B8828C2D6A2D60
:105600000E94DB1088810E9460108881F7018083EE
:105610000894C11CD11C0894E11CF11C2196F0E1F6
:10562000CF16D10419F70F5F1F4F02301105A9F0F3
:10563000E80164E0CC0FDD1F6A95E1F759E5E52E3E
:1056400057E0F52EEC0EFD1EC00FD11FC758D84FE6
:10565000CC24DD24A02EA394C9CFDF91CF911F913C
:105660000F91FF90EF90DF90CF90BF90AF90089593
:105670000F931F93DF93CF9300D000D0CDB7DEB749
:1056800080913B02893009F0FCC089E797E069E12D
:1056900070E10E94504380914102877090E0813018
:1056A000910521F1823091051CF4009749F050C01A
:1056B0008230910581F18330910509F049C030C0F5
:1056C0008FE797E060E170E10E94504380914102D2
:1056D000887709F03DC080913F028823B1F18BE5C6
:1056E00080937E078DE58093840732C08FE797E033
:1056F00067E070E10E94504380914102887741F554
:1057000080913F02882309F18BE580937E078DE528
:10571000809386071DC08FE797E06EEF7FE004C09F
:105720008FE797E065EF7FE00E9450438091410250
:10573000887771F480913F02882339F08BE580935C
:105740007E078DE58093870703C08EE380937E07F5
:10575000809141028770833009F48EC019821A82C9
:105760001B821C822091400200D000D000D0EDB7F7
:10577000FEB731968E010F5F1F4FADB7BEB71296C1
:105780001C930E93119783EC91E09383828324837F
:1057900015820E94AE43ABE8B7E0F80183E00190C8
:1057A0000D928150E1F78091410288772DB73EB785
:1057B0002A5F3F4F0FB6F8943EBF0FBE2DBF883013
:1057C00071F480913F02882339F08BE580938A073A
:1057D0008DE580938E0703C08EE380938A078091C6
:1057E00041028695869586958F7090E0823091056E
:1057F000D4F1809141028695869586958F7090E0D0
:105800008A30910584F5AFE8B7E0E3E9FDE088E090
:1058100001900D928150E1F780913F028823B9F009
:10582000E0914102E695E695E695EF70F0E0E758E5
:10583000F84F8BE5838BE0914102E695E695E6957E
:10584000EF70F0E0E758F84F8DE5858B15C0E091DB
:105850004102E695E695E695EF70F0E0E758F84FDF
:105860008EE3838B09C0AFE8B7E0E3E9FDE088E0B1
:1058700001900D928150E1F788E997E062EF7FE0B7
:10588000C1C089E797E06DEE7FE00E9450438091B0
:105890004102877090E08130910571F0823091056E
:1058A0001CF40097F9F050C08230910581F18330EB
:1058B000910509F049C030C08FE797E065EE7FE0C1
:1058C0000E94504380914102887709F03DC0809149
:1058D0003F028823B1F18BE580937E078DE58093AD
:1058E000860732C08FE797E06DED7FE00E9450435E
:1058F00080914102887741F580913F02882309F128
:105900008BE580937E078DE5809384071DC08FE72C
:1059100097E064ED7FE004C08FE797E06BEC7FE0F9
:105920000E94504380914102887771F480913F0238
:10593000882339F08BE580937E078DE58093870778
:1059400003C08EE380937E0780914102877083308D
:1059500009F44AC019821A821B821C8220914002DB
:1059600000D000D000D0EDB7FEB731968E010F5FAA
:105970001F4FADB7BEB712961C930E93119783ECD1
:1059800091E093838283248315820E94AE43ABE827
:10599000B7E0F80183E001900D928150E1F780912A
:1059A000410288772DB73EB72A5F3F4F0FB6F89474
:1059B0003EBF0FBE2DBF883071F480913F02882317
:1059C00039F08BE580938A078DE580938E0703C0BD
:1059D0008EE380938A07AFE8B7E0E3E9FDE088E073
:1059E00001900D928150E1F78091410287708130E2
:1059F00029F08091410287708330E9F488E997E0CB
:105A000068EC7FE042E050E00E943C43809141021C
:105A10008877803561F0809141028770833079F416
:105A2000809141028695869586958F7041F08EE330
:105A30008093970704C010929807109299070F90CF
:105A40000F900F900F90CF91DF911F910F910895BC
:105A50008F929F92AF92BF92CF92DF92EF92FF927E
:105A60000F931F93DF93CF93CDB7DEB761970FB638
:105A7000F894DEBF0FBECDBF80913B02982F9850A7
:105A8000923018F40E94382B3FC500913E020770F7
:105A9000C0903E02C694C694C69490913F0299234A
:105AA00009F4A8C290E010E053E0880F991F5A95BE
:105AB000E1F78C0D911D44E0880F991F4A95E1F79D
:105AC000FC01E851FF4FE00FF11F249180519F4FDF
:105AD000800F911FFC01C4900C2D10E0D801AA0F7B
