:100000000C9434080C9451080C9451080C94510829
:100010000C9451080C9451080C9451080C945108FC
:100020000C9451080C9451080C9451080C94B6246B
:100030000C9451080C9451080C9451080C945108DC
:100040000C94100D0C9451080C9451080C94510808
:100050000C941F260C9447260C9451080C945108BC
:100060000C9451080C9451080C9451080C945108AC
:1000700073642063617264206F6B00756E6B6E6FCA
:10008000776E2053442063617264206572726F72D0
:10009000004361726420496E697469616C697A61B8
:1000A00074696F6E206661696C65642E2E0053441E
:1000B0002063617264206E6F74206465746563747C
:1000C00065642E2E0073706920696E6974004A2E73
:1000D000205363686D69647420323031320020200F
:1000E0002052502D31205600010221000000000056
:1000F000080901000000000003041E0000000000C9
:1001000031323E0000000000051E0638393A00007A
:10011000464E4A958F8900000708213500000000EF
:100120005253148600000000222324000000000027
:10013000CBC5D100000000000F10113700000000F7
:10014000252BBF8000000000161A17181B1C1D1954
:1001500073B3799BADB9A1A70A0B3209312D000009
:10016000585E6C66D7ED000001022100000000001F
:100170000A0B02000000000003041E000000000043
:1001800033343F0000000000051E0638393A0000F5
:10019000474F4B96908A0000070821350000000069
:1001A00054551587000000002223240000000000A1
:1001B000CCC6D200000000000F1011370000000074
:1001C000262CC08100000000161A17181B1C1D19D0
:1001D00074B47A9CAEBAA2A80A0B3209312D000081
:1001E000595F6D67D8ED000001022100000000009A
:1001F0000C0D03000000000003041E0000000000BE
:100200003536400000000000051E0638393A00006F
:1002100048504C97918B00000708213500000000E2
:10022000565716880000000022232400000000001A
:10023000CDC7D300000000000F10113700000000F0
:10024000272DC18200000000161A17181B1C1D194B
:1002500075B57B9DAFBBA3A90A0B3209312D0000F8
:100260005A606E68D9ED000001020C0D21000000FB
:100270000E0F1B1C0400000003040E1E00000000F3
:100280003738444100000000051E0638393A0000A6
:1002900049514D98928C00000000000000000000C1
:1002A00000000000000000002223240000000000E5
:1002B000CEC8D400000000000F101137000000006D
:1002C000282EC28300000000161A17181B1C1D19C7
:1002D00076B67C9EB0BCA4AA0A0B3209312D000070
:1002E0005B636F69DAED000001022100000000008D
:1002F000101106000000000003040E1E00000000A4
:10030000393A45420000000038393A000000000048
:1003100099938D0000000000121314152121000094
:100320001D1E1F20171800002223240000000000BB
:10033000CFC9D500000000000F10113700000000E9
:10034000292FC38400000000161A17181B1C1D1942
:1003500077B77D9FB1BDA5AB0A0B3209312D0000E7
:100360005C64706ADBED0000010221000000000007
:100370001213070000000000031F201E00000000F1
:100380003B3C3D430000000038393A0000000000CB
:100390009A948E0000000000121314152121000011
:1003A00021222324191A0000222324000000000027
:1003B000D0CAD600000000000F1011370000000066
:1003C0002A30C48500000000161A17181B1C1D19BE
:1003D00078B87EA0B2BEA6AC0A0B3209312D00005F
:1003E0005D65716BDCED0000010221000000000082
:1003F0001213070000000000031F201E0000000071
:100400003B3C3D430000000038393A00000000004A
:100410009A948E0000000000121314152121000090
:1004200021222324191A00002223240000000000A6
:10043000D0CAD600000000000F10113700000000E5
:100440002A30C48500000000161A17181B1C1D193D
:1004500078B87EA0B2BEA6AC0A0B3209312D0000DE
:100460005D65716BDCED00002F3B3C3D4200000000
:10047000EEF5F6F7F80000000000000000000000B4
:10048000000000000000000000000000000000006C
:10049000000000000000000000000000000000005C
:1004A000000000000000000000000000000000004C
:1004B000000000000000000000000000000000003C
:1004C000000000000000000000000000000000002C
:1004D000000000000000000000000000000000001C
:1004E000000000000000000000000000000000000C
:1004F00000000000000000000000000000000000FC
:1005000000000000000000000000000000000000EB
:1005100000000000000000000000000000000000DB
:1005200000000000000000000000000000000000CB
:1005300000000000000000000000000000000000BB
:1005400000000000000000000000000000000000AB
:10055000000000000000000000000000000000009B
:10056000000000000000000000000000000000008B
:10057000000000000000000000000000000000007B
:10058000000000000000000000000000000000006B
:10059000000000000000000000000000000000005B
:1005A000000000000000000000000000000000004B
:1005B000000000000000000000000000000000003B
:1005C000000000000000000000000000000000002B
:1005D000000000000000000000000000000000001B
:1005E0000000000000000000272832410000000049
:1005F000DDDE72EA000000000000000000000000E4
:1006000000000000000000000000000000000000EA
:1006100000000000000000000000000000000000DA
:1006200000000000000000000000000000000000CA
:1006300000000000000000000000000000000000BA
:1006400000000000000000000000000000000000AA
:10065000000000000000000000000000000000009A
:100660000000000000000000292A2B3F403F40000E
:10067000E0E2E1E6E8E7E900000000000000000039
:10068000000000000000000000000000000000006A
:10069000000000000000000000000000000000005A
:1006A000000000000000000000000000000000004A
:1006B000000000000000000000000000000000003A
:1006C000000000000000000000000000000000002A
:1006D000000000000000000000000000000000001A
:1006E00000000000000000002D2E28270000000060
:1006F000E3E4DEDD00000000000000000000000078
:1007000000000000000000000000000000000000E9
:1007100000000000000000000000000000000000D9
:1007200000000000000000000000000000000000C9
:1007300000000000000000000000000000000000B9
:1007400000000000000000000000000000000000A9
:100750000000000000000000000000000000000099
:100760000000000000000000333400000000000022
:10077000EBEC0000000000000000000000000000A2
:100780000000000000000000000000000000000069
:100790000000000000000000000000000000000059
:1007A0000000000000000000000000000000000049
:1007B0000000000000000000000000000000000039
:1007C0000000000000000000000000000000000029
:1007D0000000000000000000000000000000000019
:1007E00000000000000000003E3D0000000000008E
:1007F000E5F700000000000000000000000000001D
:1008000000000000000000000000000000000000E8
:1008100000000000000000000000000000000000D8
:1008200000000000000000000000000000000000C8
:1008300000000000000000000000000000000000B8
:1008400000000000000000000000000000000000A8
:100850000000000000000000000000000000000098
:100860000000000000000000050000006F66660048
:10087000380000003136000033320000363400000A
:100880000F00000070310000703200007033000073
:1008900070340000703500007036000070370000C2
:1008A00070380000723200007233000072340000B1
:1008B0007235000072360000723700007238000096
:1008C000070000006F666600763100007632000097
:1008D000763300007634000076350000763600006E
:1008E0000800000073696E0074726900737570000F
:1008F00073646E0073717200726E640078757000BC
:1009000078646E000E0000004F6E6500312F3100DC
:10091000312F3200312F3300312F3400312F360088
:10092000312F3800313200003136000032340000FF
:1009300033320000343800003634000031323800E1
:100940000C0000006F666600342F3100322F31003A
:10095000312F3100312F3200312F3300312F34004D
:10096000312F3600312F380031320000313600008F
:10097000333200000600000053696E0054726900B3
:1009800053617700526563004E6F690043796D00D3
:100990000600000000000053743100000000537492
:1009A00032000000004C3100000000005231000015
:1009B0000000004C32000000000052320000000035
:1009C00000060000000000004C500000000000483D
:1009D000500000000000425000000000005542504E
:1009E000000000004E6F740000000050656B0000B6
:1009F000000000000000636F610066696E006174B2
:100A0000740064656300656732006D6F6400616D3A
:100A100074006672710064727600766F6C007061AB
:100A20006E006E6F6900727074006D697800726597
:100A3000730074797000663100006632000067311F
:100A40000000673200007761760064737400736E93
:100A50006300727467006F666600766F6900736C7E
:100A600070006431000064320000657167006571D8
:100A70006600726F6C006D7270006E74650070724B
:100A80006200737470006C656E0062706D00636864
:100A900020006F757400737200006E7874006D6FC3
:100AA000640076656C0066657400666C7700716E34
:100AB000740074726B0076616C00736875007373F8
:100AC0000000000000000000000000000000000026
:100AD00000004F7363696C6C61746F7200000000FA
:100AE000000056656C6F636974792045470000000B
:100AF00000004D6F6420454700000000000000002A
:100B000000005069746368204D6F642E000000007F
:100B10000000464D00000000000000000000000042
:100B20000000566F696365000000000000000000CF
:100B300000004E6F697365000000000000000000B7
:100B400000004E6F6973652F4F7363000000000053
:100B5000000046696C74657200000000000000002F
:100B600000004D6F642E204F7363000000000000F2
:100B700000004C464F000000000000000000000094
:100B800000005472616E7369656E740000000000AD
:100B900000004551000000000000000000000000BF
:100BA00000005061747465726E0000000000000067
:100BB0000000536F756E640000000000000000002C
:100BC0000000537465700000000000000000000089
:100BD000000045756B6C69640000000000000000B7
:100BE0000000476C6F62616C0000000000000000B4
:100BF000000056656C6F63697479000000000000A6
:100C00000000506172616D65746572000000000043
:100C1000000053657175656E636572000000000029
:100C200000000000000000000000000000000000C4
:100C30000000436F61727365000000000000000057
:100C4000000046696E650000000000000000000022
:100C5000000041747461636B00000000000000003C
:100C6000000044656361790000000000000000009E
:100C70000000416D6F756E74000000000000000000
:100C800000004672657175656E63790000000000B2
:100C900000004F766572647269766500000000009E
:100CA0000000566F6C756D650000000000000000CC
:100CB000000050616E6E696E670000000000000069
:100CC00000004D69780000000000000000000000F6
:100CD000000052657065617420436F756E7400008A
:100CE00000005265736F6E616E6365000000000066
:100CF0000000547970650000000000000000000052
:100D000000004761696E0000000000000000000064
:100D1000000057617665666F726D0000000000008C
:100D20000000446573742E20506172616D2E0000C6
:100D30000000436C6F636B2053796E63000000000A
:100D400000005265747269676765720000000000F8
:100D500000004F666673657400000000000000002C
:100D60000000446573742E20566F696365000000AF
:100D70000000536C6F706500000000000000000070
:100D80000000446563617920436C6F736564000003
:100D900000004465636179204F70656E00000000BB
:100DA0000000526F6C6C20526174650000000000FE
:100DB00000004D6F7270680000000000000000002D
:100DC00000004E6F7465000000000000000000008D
:100DD000000050726F626162696C69747900000092
:100DE00000004E756D62657200000000000000009A
:100DF00000004C656E677468000000000000000091
:100E000000005374657073000000000000000000D3
:100E1000000054656D706F000000000000000000CD
:100E20000000417564696F204F7574000000000078
:100E300000004D494449204368616E6E656C0000B6
:100E4000000053616D706C65205261746500000094
:100E500000004E657874205061747465726E0000F5
:100E60000000506861736500000000000000000091
:100E700000004D6F646500000000000000000000ED
:100E8000000056656C6F63697479206D6F642E0085
:100E90000000466574636800000000000000000068
:100EA0000000466F6C6C6F770000000000000000CF
:100EB00000005175616E7469736174696F6E000032
:100EC00000004175746F6D2E20547261636B0000D9
:100ED00000004175746F6D2E20446573742E000000
:100EE00000004175746F6D2E2056616C75650000B1
:100EF000000053687566666C650000000000000025
:100F0000000053637265656E736176657200000060
:100F100000000000000101010201020302030402BB
:100F20000404030406040507050508050609060769
:100F30000A06080B06090C07060E080A0D020B0824
:100F400009060F090C10090D110A06120A06130AE8
:100F50000E140A0E080B06060B05150B0F160B10C8
:100F6000170B11180B12190B131A0B141B02151C5B
:100F700002161D021715010F150C0F0A0C08080C9C
:100F8000061E0D0E1F0D06200E18210F190A10083F
:100F900022101A23101B24101C250E1D24111E269E
:100FA000121F2706212806202906220D0E0B2A0EC5
:100FB000232B01250A010809090716131007130539
:100FC0002C13262D14272E15282F152930152A16F7
:100FD000152B31152C32152D33122E656E64006FD2
:100FE0006B0053657474696E6773004D6F7270683F
:100FF000536E6400536F756E6420200050617474EA
:1010000065726E004C6F6164006F6B0053657474A1
:10101000696E6773004D6F727068536E6400506143
:10102000747465726E2000536F756E64202020000A
:10103000536176653A004C6F6164696E6720706138
:10104000747465726E00536176696E6720706174A6
:101050007465726E00456D70747920202000456DB6
:10106000707479202020000011241FBECFEFD0E142
:10107000DEBFCDBF12E0A0E0B1E0E6E6FDE802C0D1
:1010800005900D92A032B107D9F71DE0A0E2B2E0C1
:1010900001C01D92AE39B107E1F70E9429290C94D5
:1010A000B1460C9400001F93182F87701093020113
:1010B000882331F4812F869586958695885E01C0B8
:1010C000805F61E00E9474280E94B939482F406413
:1010D0008FEB612F0E949C0D1F910895809102015A
:1010E0008F3F91F0982F977039F487FD895F859530
:1010F00085958595885E05C068E00E94EC42892F41
:10110000805F60E00E9474288FEF809302018FEB74
:1011100060E040E00E949C0D08950E946E0880915E
:1011200001018F3F29F08FEF8093010180E0089546
:1011300081E0089520913302309134022A5D3F4FBF
:101140003093250220932402809301010895209179
:10115000330230913402809124029091250282174B
:10116000930748F4809101018F3F29F00E945308B2
:101170008FEF8093010108959091750481E092FDB5
:1011800080E008950F931F93182F0E94BC088823B6
:1011900009F45AC020914B02277030E0213031050C
:1011A00061F12230310524F42115310549F097C051
:1011B0002230310529F02530310509F090C01DC0DD
:1011C00000912202010F812F805F0E9460270E9400
:1011D000B939182F0E94C62A612F6295607F8770E7
:1011E000682B89EB402F0E949C0D82EB6FE0402F13
:1011F0000E949C0D00935A0972C0812F0E94BE2A42
:101200000E94D2260E94FC28812F805F61E00E940C
:1012100074280E94B939082F0E94C62A182F402F1F
:101220004295407F8770482B81EB63E00E949C0DC4
:1012300082EB6CE1412F0E949C0D82EB69E14091B1
:101240003B020E949C0D4BC020914B02277030E066
:101250002130310561F12230310524F421153105A9
:10126000E9F03DC02230310521F023303105B9F5D8
:1012700033C000912202010F82EB6FE0402F0E94E9
:101280009C0D00935A090E94FC2880912202885EDE
:1012900061E00E947428802F877019C0812F0E94FE
:1012A00029340E944834812F0E94F92618C00E94D8
:1012B000B6398A30A1F40E94BC08882381F482EBFD
:1012C0006BE0412F0E949C0D0E94FC28812F805FC3
:1012D00061E00E94742803C0812F0E94E2261F91C2
:1012E0000F9108951F930E94D2260E94B939182F9A
:1012F0000E94C62A412F4295407F8770482B81EB80
:1013000063E00E949C0D1F91089580E00E942934A3
:101310008BE00E945434809120020E9472098091D7
:10132000000161E00E94742808951F93182F0E9405
:10133000BC0881111C5F177080914B02887F812B44
:1013400080934B020E94FC2880914B0287700E9480
:10135000B42880914B02877090E08230910559F15A
:10136000833091053CF4009789F18130910509F0B3
:1013700044C00AC085309105B1F18730910589F1EB
:1013800083309105D1F52BC00E949A270E94D22666
:101390000E94D22660913D02605F81E00E943F275B
:1013A0000E944E34809321028AE00E94543480E0EF
:1013B0000E94293422C00E94B9390E9454340E94EC
:1013C0004E340E94F9260E94850917C00E94B9393F
:1013D0000E9454340E944E340E94F9260EC088E0C8
:1013E0000AC087E008C00E94B939482F82EB69E142
:1013F0000E949C0D8CE00E9454341F9108958091AE
:10140000000160E00E94742880E0609100010E9469
:101410003F27089580913B02809320020E944E3422
:101420008093210280E00E9429348BE00E94543492
:10143000809120020E9472098091000161E00E9467
:10144000742808958091000160E00E94742880E073
:10145000609100010E943F270E94D22680912102C4
:101460000E942934809120020E94543408950F93E1
:101470001F93082F162F8091000160E00E947428AE
:1014800080E0609100010E943F27110F110F110FA2
:10149000109322020093000110935A09802F61E0FB
:1014A0000E94742880913C020E94720982EB6FE0D6
:1014B000412F0E949C0D1F910F9108950F931F9330
:1014C000082F162F80E0602F0E943F27110F110F69
:1014D000110F1093220210935A090093000182EB1E
:1014E0006FE0412F0E949C0D0E94B939082F0E9485
:1014F000C62A602F6295607F8770682B412F4695C2
:10150000469546958EEB0E949C0D1F910F91089574
:101510000F931F93082F883120F4803108F099C071
:1015200056C08F3121F0823209F0A2C00CC00E9457
:10153000BC08882309F09CC0109238028FE060E05C
:101540000E94742895C080913802813029F480E08F
:101550000E94692A1092380280E064E00E943F27CE
:1015600080914B02877019F40E94220A2BC080914F
:101570004B028770813061F40E94FC280E94D226C1
:1015800060913D02605F81E00E943F278AE010C0C9
:1015900080914B028770853071F40E94FC280E9474
:1015A000D22660913D02605F81E00E943F278CE07F
:1015B0000E94543407C080914B028770823011F42E
:1015C0000E9485090E94B9390E94222751C0182F14
:1015D000185E0E94BC08882379F00E948D08882339
:1015E00009F046C080914B028770C1F080914B0298
:1015F00087708230E9F51BC020914B02277030E0E4
:1016000021303105C9F02230310521F02115310595
:1016100051F02EC00E948D08882351F5812F602F34
:101620000E94370A25C00E948D08882309F5812F62
:10163000602F0E945E0A1CC00830D0F4402F4F700B
:1016400082EB60E10E949C0D80E0612F0E943F27A9
:101650000FC080913802823058F40E948D08882390
:1016600039F48FEF80930101802F80510E94C208CE
:101670001F910F9108950F931F93082F0E94D33944
:101680000F3138F4083108F090C0003108F411C16E
:1016900013C0013209F465C0023238F40F3109F485
:1016A0004AC1003209F091C138C0023209F460C168
:1016B000073208F08AC12CC080913802823098F03D
:1016C0000E94012A902F9051882339F0892F62E0DF
:1016D0000E94FC290E943D2A78C0892F62E00E9466
:1016E000F729802F87C080914B02877061F40E9498
:1016F000BC08882341F080912202880F880F880F50
:101700008051800F06C1802F80510E94C2085DC1A8
:10171000802F83520E94950958C180914B02869573
:1017200086958695817066E00E943F2780914B02E6
:1017300086958695869580958170880F880F880F8D
:1017400090914B02977F982B90934B0240914B02C4
:10175000469546954695417082EB61E00E949C0D4E
:1017600034C10E94BC08882321F08EE00E945434CA
:101770002CC180914B0282958F70809581708295EB
:10178000807F90914B029F7E982B90934B0280918B
:101790004B028295817065E00E943F2740914B0289
:1017A0004295417082EB6BE1D9CF80913802823053
:1017B00028F10E94012A102F18518823A9F0812FA7
:1017C00063E00E94FC290E941B2A0E94FC280E94C0
:1017D000B939182F0E94C62A412F4295407F877041
:1017E000482B81EB63E0BACF812F63E00E94F72999
:1017F000802F805161E00E947428E7C00E94BC08DD
:1018000090914B029770913011F4981B892F102FF3
:101810001851882361F180912302682F70E0012E16
:1018200002C0759567950A94E2F760FF0FC061E00A
:1018300070E0012E02C0660F771F0A94E2F76095F0
:1018400068236093230282EB6AE00DC021E030E060
:10185000012E02C0220F331F0A94E2F7282B209397
:10186000230282EB69E0412F0E949C0DA9C0812FC9
:101870000E94222780914B02877019F4812F0E94C9
:10188000543482EB65E1412F0E949C0D812F0E9410
:10189000BC3982EB69E1412F0E949C0D80914B0283
:1018A0008770823009F091C00E94FC280E9485094F
:1018B0008CC0102F185E0E94BC08882399F080917C
:1018C0004B02877021F4812F602F0E94370A80918C
:1018D0004B028770823009F078C0812F602F0E9400
:1018E0005E0A73C020914B02277030E02130310531
:1018F00099F02230310521F02115310531F065C014
:10190000812F602F0E94370A60C0802F880F880FB8
:10191000880F0E949A0859C0083008F056C0402F1E
:101920004F70405F82EB60E10E949C0D81E0612F6F
:101930000E943F274AC00E94BC08882369F080911A
:101940003802813019F40E94A52A3FC081E08093BB
:1019500038020E94692A39C083E0809338028FE000
:1019600061E00E9474280E94D2260E94D7262DC0D2
:1019700081E064E00E943F2780914B02877019F458
:101980000E940A0A1DC080914B028770813029F0A5
:1019900080914B028770853061F48DE00E94543451
:1019A0000E94D2260E94C62A805F61E00E947428AD
:1019B00007C080914B028770823011F40E94FF09AA
:1019C0008091230280950E9410271F910F91089506
:1019D00080914B028770089587B1887F87B988B15D
:1019E000876088B9309902C080E001C083E0319BF4
:1019F00002C091E089278093260210924D0282E076
:101A000084BD84E085BD8EE487BD80916E008260D8
:101A100080936E001092270281E080934C0208951B
:101A20001F920F920FB60F9211242F933F934F9353
:101A30008F939F93309902C080E001C083E0319B77
:101A400002C091E0892790912602981B90FF09C05F
:101A50008093260280914D0281509270890F80936D
:101A60004D0286B14091270290E084709070242F3F
:101A7000332727FD30958217930711F440934C02CA
:101A800086B18470809327029F918F914F913F91EF
:101A90002F910F900FBE0F901F901895F894809182
:101AA0004D02982F937090934D027894859585956B
:101AB000089590914C0281E0911180E0089520E812
:101AC000DC011D922A95E9F7FC01E058FF4F1082D6
:101AD0008F579F4FFC0110820895FC01EF57FF4F75
:101AE00020812F5F2F77DC01A058BF4F3C91321728
:101AF00041F03081830F911DDC016C93208381E0E4
:101B0000089580E00895FC01E058FF4F3081DC012A
:101B1000AF57BF4F2C91321769F02081820F911D72
:101B2000DC018C91DB018C9380818F5F8F778083C8
:101B300081E0089580E00895EF92FF920F931F9344
:101B4000182F062FE42EFFB6F894812F0E949E26B0
:101B50008823D9F3802F0E949E268823D9F38E2DC7
:101B60000E949E268823D9F3FFBE1F910F91FF90FC
:101B7000EF900895CF93DF93C0912C02D0912D0266
:101B8000FE01EE0FFF1FE456F74F80839E012752A0
:101B9000304026303105D0F49E012752C22FD0E0CC
:101BA000FE01EE0FFF1FE252F74F608161500E946D
:101BB000D12A682F661F6627661FCF73D070CC0F9F
:101BC000DD1F6C2B482F4F7787EB1BC09E012551E3
:101BD000304026303105B8F4803408F08FE39E01A0
:101BE0002551622F0E94D12A682F661F6627661F23
:101BF00090912C0295519F73990F692B482F4F7725
:101C000088EB0E949C0DDF91CF9108951F93109156
:101C10004F021150153029F4809150020E94BA0DE4
:101C200021C0113649F48091500290E020912C029D
:101C300030912D02207810C01236A1F4809150020C
:101C400090E09695982F88279795879520912C025C
:101C500030912D022F773070822B932B90932D0291
:101C600080932C0280915002E12FF0E0EE0FFF1FD5
:101C7000E456F84F80830E942F2D1F910895EF9214
:101C8000FF921F93CF93DF9387FF05C010922B0223
:101C900080934E02FBC190914E02903F09F098C094
:101CA00090912802913009F04AC090912B02973010
:101CB00028F4E92FF0E0EF5AFD4F68C020E030E053
:101CC000A1E0B0E090E067E070E0F901EF5AFD4F6D
:101CD0001081AD01022E02C0440F551F0A94E2F795
:101CE00048235923EB01C21BD30B0C2E02C0440F17
:101CF000551F0A94E2F7142B10832F5F3F4F2730B4
:101D0000310519F780915102809358028091520257
:101D1000809359028091530280935A028091540219
:101D200080935B028091550280935C028091560201
:101D300080935D028091570280935E0215C09530BA
:101D4000C9F4E0912B02EE2319F48093510246C0AE
:101D5000F0E0EF5AFD4F8083909151028091520242
:101D6000909358028093590281E080932902109247
:101D70002B028CC1933009F089C190912B02292F3D
:101D800030E0923040F42F5A3D4FF90180839F5F3D
:101D900090932B027BC12F5A3D4FF90180834091D4
:101DA0005102809152025091530290E09695982FE3
:101DB000882797958795352F3295330F330F307CD1
:101DC00020E0822B932B242F30E0822B932BC8CF43
:101DD00090912B02992331F480934F0281E08093FC
:101DE0002B0254C18093500210922B0280914E021C
:101DF000803B19F40E94060E49C180914E02843B3B
:101E0000F9F48091500286FF02C010922A022091BC
:101E10002A0290914F0280915002E22FF0E0EA56A0
:101E2000F24F8795882787959F77892B8083822F0C
:101E30008F5F877080932A02882309F027C10EC024
:101E400080914E028A3B69F480914F02909150023A
:101E5000879588278795892B809368090E94A032EF
:101E600015C180914E028B3B59F480914F029091A5
:101E70005002879588278795892B80936A09EECF32
:101E800080914E028C3B59F480914F029091500208
:101E9000879588278795892B80936C09DFCF809160
:101EA0004E028D3B59F480914F02909150028795DC
:101EB00088278795892B80936E09D0CF80914E0219
:101EC000823B09F081C080914F02873179F18831DE
:101ED00070F48231A9F1833120F48B3009F0D6C03F
:101EE0003EC08331B9F1843109F0D0C02EC08D31AC
:101EF00061F08E3120F4883109F0C8C01CC08E31E9
:101F000049F0863209F0C2C00CC080915002809323
:101F1000720904C080915002809374090E942F2D91
:101F2000B5C08091500280937609F8CF809150021D
:101F300080936209F3CF8091500280936409EECFC1
:101F40008091500280935C0989CF809150028093E8
:101F50005E0984CF80915002809360097FCF809189
:101F60005002805F60E00E94742880918809882375
:101F700031F1809150020E94BE2A0E94E80C81300B
:101F800041F40E94D22660915002605F81E00E947D
:101F90003F270E949A270E94B939182F0E94C62A0B
:101FA000412F4295407F8770482B81EB63E00E9470
:101FB0009C0D4091500282EB6CE10E949C0D80913F
:101FC000500280933D0262C080914E02813B09F035
:101FD00058C080914F02823009F444C0833020F40D
:101FE000813009F053C006C08430D1F0853009F04B
:101FF0004DC01FC00E94C62A90913D02891769F406
:1020000080913B02873020F08B3011F08C30F1F55D
:10201000809150020E94142939C00E940F2936C0B5
:1020200080915002882311F081E001C080E066E0D9
:1020300025C00E94BC08882321F40E94E80C82304D
:1020400029F560915002409122026417F8F0842F24
:1020500090E00796262F30E082179307BCF0605F70
:10206000641B0BC06091500270E06F777070E3E00A
:1020700075956795EA95E1F7685E81E00E943F27D4
:1020800005C080914F02885F0E94A527DF91CF9104
:102090001F91FF90EF9008951F93182F812F0E949A
:1020A0009E268823D9F31F910895439A85E88A953F
:1020B000F1F700004398089595B1907F95B995B1D7
:1020C00082958F70892B85B90E94551008951F93B2
:1020D000182F449A0E945C10812F8295807F0E9465
:1020E0005C1085EE90E00197F1F700C000001F91B1
:1020F00008951F93182F44980E945C10812F829599
:10210000807F0E945C1081ED90E00197F1F700C0A4
:1021100000001F91089581E00E9479108FE097E2FE
:102120000197F1F700C00000089584B18F6084B971
:1021300087B1886187B985B1807F85B988B1877E8D
:1021400088B98FE59AEEA0E081509040A040E1F779
:1021500000C0000080E30E945C10A7EAB1E611977E
:10216000F1F700C000000E94551087E893E1019745
:10217000F1F700C000000E945510A7E8B3E11197E5
:10218000F1F700C0000080E20E945C1087EA91E64F
:102190000197F1F700C000008AE20E9479108CE0FC
:1021A0000E94791086E00E9479100E948B10089599
:1021B00082E00E9479108FE097E20197F1F700C06A
:1021C00000000895623061F0633018F4613079F4F2
:1021D00005C0633039F0643051F406C0805805C042
:1021E000805403C0805701C080530E947910089525
:1021F000EF92FF92CF93DF93E82EE7017E01F92E55
:10220000E70102C00E94671089918823D9F7DF9106
:10221000CF91FF90EF900895CF93DF93EC0105C02D
:102220002196FC0184910E946710CE01FE01249149
:102230002223B1F7DF91CF9108951F93DF93CF93BE
:102240000F92CDB7DEB7882309F03FC0809103011C
:102250008160809303010E94A0240E94D81085EC25
:1022600090E00E940C111AE00E947A238823A9F0C2
:102270001150D1F789830E94D8108981813019F4D7
:102280008EEA90E007C0823019F481E990E002C044
:102290008BE790E00E940C1115C00E94D81080E7D7
:1022A00090E00E940C1181E58CBD81E08DBD87E836
:1022B00093E10197F1F700C00000809103018E7F48
:1022C000809303018091030101C081E00F90CF91C1
:1022D000DF911F910895882319F4809103010895D7
:1022E00081E00895AF92BF92CF92DF92EF92FF927A
:1022F0000F931F93CF93DF935B0169017A018823CA
:10230000A9F4002399F08091030180FD11C0C0E081
:10231000D0E010E006C0C701B601A5010E94FE236F
:102320002196C017D107BCF380E003C084E001C050
:1023300083E0DF91CF911F910F91FF90EF90DF909D
:10234000CF90BF90AF900895AF92BF92CF92DF929F
:10235000EF92FF920F931F93CF93DF935B0169017D
:102360007A018823A9F4002399F08091030180FD6C
:1023700011C0C0E0D0E010E006C0C701B601A50161
:102380000E9441242196C017D107BCF380E003C00E
:1023900084E001C083E0DF91CF911F910F91FF9006
:1023A000EF90DF90CF90BF90AF900895882399F47D
:1023B0008091030180FD11C0623058F0633079F4E0
:1023C00081E090E0A0E0B0E0FA0180839183A283F5
:1023D000B38380E0089584E0089583E0089584E065
:1023E000089560E070E0CB010895282F392FD901BE
:1023F000862F972FFC0104C081918D93415050404E
:1024000041155105C9F70895FC01009779F08081C5
:10241000882361F0868197818617970739F4818137
:102420000E946B1180FF04C083E0089589E0089545
:1024300080E008956F927F928F929F92AF92BF92A9
:10244000CF92DF92EF92FF920F931F93CF93DF9380
:10245000EC014A015B01CAA4DBA4ECA4FDA4C416F0
:10246000D506E606F70609F44CC08C818823A1F155
:102470008EE2682E712C6C0E7D1E8981B301A7013E
:10248000960101E00E94A4118823E9F51C828A8D3F
:102490009B8DAC8DBD8D2E8D3F8D48A159A1820F96
:1024A000931FA41FB51FC816D906EA06FB06A0F4A1
:1024B0001B8110C08A8D9B8DAC8DBD8DC80ED91E21
:1024C000EA1EFB1E8981B301A701960101E00E946B
:1024D000A4111150123070F781149104A104B104B9
:1024E00081F0BE01625D7F4F8981A501940101E009
:1024F0000E947211882339F48AA69BA6ACA6BDA6B9
:1025000003C080E001C081E0DF91CF911F910F9166
:10251000FF90EF90DF90CF90BF90AF909F908F9003
:102520007F906F9008950F93CF93DF93EC019A0102
:10253000AB01BC01625D7F4F898101E00E94721195
:10254000882309F082C0FE01E35DFD4F308120E069
:10255000FE01E45DFD4F808190E0822B932B2AEAFF
:102560008535920709F073C0FE01E959FF4F80815C
:1025700090E0A0E0B0E0B82FAA2799278827FE01B5
:10258000EA59FF4F208130E040E050E0A9013327B5
:102590002227822B932BA42BB52BFE01EC59FF4F46
:1025A000208130E040E050E0822B932BA42BB52B10
:1025B000FE01EB59FF4F308120E040E050E0822BDC
:1025C000932BA42BB52BB070863421E4920724E51D
:1025D000A20720E0B207E9F1FE01ED57FF4F20818D
:1025E00030E040E050E0522F442733272227FE01FD
:1025F000EE57FF4F808190E0A0E0B0E0DC0199272A
:102600008827282B392B4A2B5B2BFE01E058FF4FE4
:10261000808190E0A0E0B0E0282B392B4A2B5B2B87
:10262000CF57DF4F988180E0A0E0B0E0282B392B16
:102630004A2B5B2B507081E0263491E4390794E5F6
:10264000490790E0590731F404C083E003C082E0F9
:1026500001C080E0DF91CF910F9108953F924F929A
:102660005F926F927F928F929F92AF92BF92CF9222
:10267000DF92EF92FF920F931F93DF93CF93CDB72B
:10268000DEB72E970FB6F894DEBF0FBECDBFFC01AC
:10269000E42EA081B1818C9190E0C0978A309105A1
:1026A00058F411962C9111972A3331F41296B18374
:1026B000A083009709F0ADC320912E0230912F0224
:1026C0003E872D87DB0111963C932E932115310512
:1026D00009F4A1C3F9018081882359F081810E9406
:1026E0006B1180FD06C0EE2009F497C382FF95C3ED
:1026F00098C3AD85BE851C9211961C9280E00E9405
:102700001D1180FD8CC3EE2011F082FD8AC38D85E2
:102710009E8540E050E0BA010E949312813009F09A
:1027200046C0ED85FE85E051FE4F8081882309F487
:102730007CC3ED85FE85E950FE4F808190E0A0E0EE
:10274000B0E0582F442733272227ED85FE85EA5035
:10275000FE4F808190E0A0E0B0E0DC01992788275F
:10276000282B392B4A2B5B2BED85FE85EC50FE4F39
:10277000808190E0A0E0B0E0282B392B4A2B5B2B26
:10278000ED85FE85EB50FE4F908180E0A0E0B0E04B
:10279000282B392B4A2B5B2B29833A834B835C8371
:1027A0008D859E85BA01A9010E94931204C01982E9
:1027B0001A821B821C82833009F435C3882309F0F6
:1027C00034C3AD85BE85DA963C91DA9720E0D99680
:1027D0008C91D99790E0822B932BB2E080309B07AD
:1027E00009F023C3ED85FE85EB5BFF4F908180E010
:1027F000ED85FE85EC5BFF4F60807724682A792A9F
:1028000088249924611471048104910499F5ED855B
:10281000FE85EB5AFF4F6080772488249924962CFC
:10282000882477246624ED85FE85EC5AFF4F80814D
:1028300090E0A0E0B0E0DC0199278827682A792A97
:102840008A2A9B2AED85FE85EE5AFF4F808190E013
:10285000A0E0B0E0682A792A8A2A9B2AED85FE85C5
:10286000ED5AFF4F908180E0A0E0B0E0682A792A1D
:102870008A2A9B2AED85FE85628E738E848E958EC4
:1028800026AD2383822F8150823008F0CEC233AC34
:102890003282332009F4C9C2432D50E0CA010197A6
:1028A00084239523009709F0C0C2ED85FE85E05C86
:1028B000FF4F908180E0AD85BE85DF964C90DF971D
:1028C0005524482A592A19965C924E921897C201AB
:1028D0008F709070009709F0A8C2FD01EE5BFF4F6A
:1028E000908180E0FD01EF5BFF4FE080FF24E82A4C
:1028F000F92A00E010E0E114F1040105110589F561
:10290000FD01EF5AFF4FE080FF2400E010E01E2D94
:102910000027FF24EE24FD01E05BFF4F808190E063
:10292000A0E0B0E0DC0199278827E82AF92A0A2BE1
:102930001B2BED85FE85E25BFF4F808190E0A0E0E0
:10294000B0E0E82AF92A0A2B1B2BED85FE85E15B16
:10295000FF4F908180E0A0E0B0E0E82AF92A0A2B3E
:102960001B2BED85FE8595AD80E0A4ACBB24A82A89
:10297000B92AA114B10409F458C230E040E050E093
:10298000C401B3010E94CD426D837E838F839887FB
:10299000950140E050E029873A874B875C875201D8
:1029A000B4E0B694A794BA95E1F7CC24DD24A20E46
:1029B000B31EC41ED51EA60EB71EC81ED91EEA140D
:1029C000FB040C051D0508F430C2C801B7016A19E3
:1029D0007B098C099D09232D30E040E050E00E94E6
:1029E0000C43211531054105510509F41EC2263F4E
:1029F0008FE0380780E0480780E0580758F0263F0E
:102A00009FEF390790E0490790E0590730F4A2E0C2
:102A10003A2E05C03324339402C0F3E03F2EE2E0A7
:102A2000EE2EF12C012D112DE20EF31E041F151FA9
:102A3000AD85BE855696ED92FD920D931C935997E8
:102A400029813A814B815C81A20EB31EC41ED51E22
:102A50009696AD92BD92CD92DC92999759016A01FA
:102A600029853A854B855C85A20EB31EC41ED51EF2
:102A70005E96AD92BD92CD92DC929197B32DB3301C
:102A800009F047C04114510409F0CFC1ED85FE851E
:102A9000E35AFF4F808190E0A0E0B0E0B82FAA2772
:102AA00099278827ED85FE85E45AFF4F208130E085
:102AB00040E050E0A90133272227822B932BA42B3F
:102AC000B52BED85FE85E65AFF4F208130E040E0D2
:102AD00050E0822B932BA42BB52BED85FE85E55A78
:102AE000FF4F308120E040E050E0822B932BA42B5D
:102AF000B52BED85FE8582A393A3A4A3B5A3D8012E
:102B0000C70152E0880F991FAA1FBB1F5A95D1F722
:102B10002DC04114510409F488C18D819E81AF817B
:102B2000B8858A0D9B1DAC1DBD1DED85FE8582A35C
:102B300093A3A4A3B5A3D801C701880F991FAA1F07
:102B4000BB1FF32DF23091F08E0D9F1DA01FB11F02
:102B5000B695A79597958795A80197012170307034
:102B600040705070820F931FA41FB51F81509E4F5D
:102B7000AF4FBF4F29E0B695A795979587952A95B2
:102B8000D1F7681679068A069B0608F44EC18FEFC6
:102B90009FEFDC01ED85FE8586879787A08BB18B43
:102BA0001286138614861586B32DB33009F019C129
:102BB0001582ED85FE85E15AFF4F908180E0ED851D
:102BC000FE85E25AFF4F208130E0282B392B40E070
:102BD00050E089819A81AB81BC81280F391F4A1F3F
:102BE0005B1FAD85BE8552962D933D934D935C93AF
:102BF0005597BD01625D7F4F11968C9101E00E9457
:102C00007211882309F0EDC0ED85FE85E35DFD4F6F
:102C1000308120E0ED85FE85E45DFD4F808190E010
:102C2000822B932BBAEA85359B0709F0DAC0ED8534
:102C3000FE8581A990E0A0E0B0E0B82FAA279927EF
:102C4000882720A930E040E050E0A901332722275F
:102C5000822B932BA42BB52B26A530E040E050E02F
:102C6000822B932BA42BB52B37A520E040E050E01E
:102C7000822B932BA42BB52B8235F2E59F07F1E62F
:102C8000AF07F1E4BF0709F0ACC0ED85FE85EB5E50
:102C9000FD4F808190E0A0E0B0E0B82FAA279927EF
:102CA0008827ED85FE85EC5EFD4F208130E040E019
:102CB00050E0A90133272227822B932BA42BB52B7D
:102CC000ED85FE85EE5EFD4F208130E040E050E076
:102CD000822B932BA42BB52BED85FE85ED5EFD4F4E
:102CE000308120E040E050E0822B932BA42BB52BC9
:102CF000823722E7920721E4A20721E6B20709F012
:102D000070C0ED85FE85E35EFD4F808190E0A0E020
:102D1000B0E0B82FAA2799278827ED85FE85E45EC5
:102D2000FD4F208130E040E050E0A9013327222709
:102D3000822B932BA42BB52BED85FE85E65EFD4FF4
:102D4000208130E040E050E0822B932BA42BB52B68
:102D5000ED85FE85E55EFD4F308120E040E050E0EE
:102D6000822B932BA42BB52BED85FE858287938731
:102D7000A487B587E75EFD4F808190E0A0E0B0E0DA
:102D8000B82FAA2799278827ED85FE85E85EFD4F95
:102D9000208130E040E050E0A90133272227822B38
:102DA000932BA42BB52BED85FE85EA5EFD4F20818C
:102DB00030E040E050E0822B932BA42BB52BED8527
:102DC000FE85E95EFD4F308120E040E050E0822B3F
:102DD000932BA42BB52BED85FE8586879787A08B3B
:102DE000B18BAD85BE853C928091300290913102CD
:102DF0000196909331028093300217969C938E93A4
:102E00001697ED85FE8512A613A614A615A61482A4
:102E100004C08BE00BC08CE009C080E007C083E0F9
:102E200005C08AE003C081E001C08DE02E960FB698
:102E3000F894DEBF0FBECDBFCF91DF911F910F91F0
:102E4000FF90EF90DF90CF90BF90AF909F908F90CA
:102E50007F906F905F904F903F900895CF93DF9356
:102E6000EC01CB01BA0162507040804090402E8945
:102E70003F89488D598D2250304040405040621764
:102E800073078407950788F42A8130E040E050E01A
:102E90000E94CD429B01AC018EA19FA1A8A5B9A51E
:102EA000280F391F4A1F5B1F03C020E030E0A90133
:102EB000B901CA01DF91CF910895BF92CF92DF92FD
:102EC000EF92FF920F931F93CF93DF93EC016A0170
:102ED0007B01423051056105710508F4CAC08E8935
:102EE0009F89A88DB98D481759076A077B0708F095
:102EF000C0C08881823009F455C0833009F474C0A1
:102F0000813009F0BBC08A0116950795040F151F83
:102F1000A801452F5527469560E070E08E8D9F8D66
:102F2000A8A1B9A1480F591F6A1F7B1FCE010E949B
:102F30001A12882309F0A2C0F801F170EC0FFD1FEE
:102F4000B6A40F5F1F4FA801452F5527469560E097
:102F500070E08E8D9F8DA8A1B9A1480F591F6A1FDF
:102F60007B1FCE010E941A12882309F087C02B2DE7
:102F700030E011700C0F1D1FF80196A580E0282B82
:102F8000392BE601C170D070209731F044E03695BE
:102F900027954A95E1F725C040E050E03F7040702A
:102FA00050706FC0452F562F672F77278E8D9F8DBE
:102FB000A8A1B9A1480F591F6A1F7B1FCE010E940B
:102FC0001A12882309F05AC0B601660F771F717074
:102FD000FE01E60FF71F26A530E097A580E0282B1D
:102FE000392B40E050E04DC097E0769567955795B6
:102FF00047959A95D1F78E8D9F8DA8A1B9A1480FBD
:10300000591F6A1F7B1FCE010E941A128823B1F537
:10301000B601660F771F660F771F7170FB01BE96B2
:10302000EC0FFD1F228130E040E050E0A901332782
:103030002227838190E0A0E0B0E0B82FAA2799274B
:103040008827282B392B4A2B5B2B918180E0A0E02D
:10305000B0E0282B392B4A2B5B2BC60FD71F8EA530
:1030600090E0A0E0B0E0282B392B4A2B5B2B5F705F
:1030700008C021E030E040E050E003C02FEF3FEF18
:10308000A901B901CA01DF91CF911F910F91FF9062
:10309000EF90DF90CF90BF9008950F931F93CF9341
:1030A000DF93EC011D821C824E815F8168857985EA
:1030B000413051056105710509F467C00881198126
:1030C000F80186899789A08DB18D481759076A073D
:1030D0007B0708F05AC04115510561057105F9F4E7
:1030E0008081833049F442A153A164A175A14115A7
:1030F00051056105710599F41A861B861C861D868B
:10310000F80180859185009709F43FC082A193A1C1
:10311000A4A1B5A18E879F87A88BB98B2EC0F8017B
:1031200082818823F9F4888199810E945D17AB011F
:10313000BC014F3FFFEF5F07FFEF6F07FFEF7F0718
:1031400011F14230510561057105F8F0E881F9810E
:1031500086899789A08DB18D481759076A077B0723
:1031600010F313C04A875B876C877D87C8010E9474
:103170002E176E877F87888B998B025D1F4F1B8B65
:103180000A8B80E003C081E001C082E0DF91CF9133
:103190001F910F9108958F929F92AF92BF92CF92FD
:1031A000DF92EF92FF920F931F93CF93DF93EC0187
:1031B0006A017B01480159014230510561057105E1
:1031C00008F4D0C08E899F89A88DB98D48175907FA
:1031D0006A077B0708F0C6C08881823009F46AC09C
:1031E000833009F483C0813009F0B8C08A01169594
:1031F00007950C0D1D1DA801452F5527469560E02C
:1032000070E08E8D9F8DA8A1B9A1480F591F6A1F2C
:103210007B1FCE010E941A12882309F0A0C0C801AA
:103220009170A1E0CA22DD24C114D10451F0FE0145
:10323000E80FF91F36A53F70282D2295207F232BFC
:1032400001C0282D8C0F9D1FFC0126A70F5F1F4F6B
:1032500081E08C83A801452F5527469560E070E0FA
:103260008E8D9F8DA8A1B9A1480F591F6A1F7B1F82
:10327000CE010E941A12882309F071C01170C11486
:10328000D10449F094E0B694A794979487949A95C2
:10329000D1F7982D08C0FE01E00FF11F96A5907F91
:1032A000292D2F70922B0C0F1D1FD8019E969C93D9
:1032B0009E9755C0452F562F672F77278E8D9F8D50
:1032C000A8A1B9A1480F591F6A1F7B1FCE010E94F8
:1032D0001A12882309F043C09601220F331F317060
:1032E000FE01E20FF31F86A697A639C017E0769578
:1032F0006795579547951A95D1F78E8D9F8DA8A103
:10330000B9A1480F591F6A1F7B1FCE010E941A12D4
:10331000882329F5B601660F771F660F771F717036
:10332000FB01BE96EC0FFD1F238130E040E050E032
:10333000522F4427332722276C0F7D1F20703070B7
:103340004070507F282939294A295B29DB019E9644
:103350002C939E9731834283538301C082E091E096
:103360009C8301C082E0DF91CF911F910F91FF906C
:10337000EF90DF90CF90BF90AF909F908F90089587
:103380004F925F926F927F928F929F92AF92BF9275
:10339000CF92DF92EF92FF920F931F93CF93DF9321
:1033A000EC012A013B01411551056105710599F4B4
:1033B0008A849B84AC84BD8481149104A104B104EB
:1033C00009F18E899F89A88DB98D88169906AA065C
:1033D000BB06C0F41CC00E945D179B01AC016230AB
:1033E00071058105910508F493C08E899F89A88D88
:1033F000B98D281739074A075B0708F48DC05301B8
:10340000420105C061E0862E912CA12CB12C7501E2
:1034100064010894C11CD11CE11CF11C8E899F8998
:10342000A88DB98DC816D906EA06FB0660F022E021
:1034300082169104A104B10408F463C052E0C52EC1
:10344000D12CE12CF12CCE01B701A6010E945D1711
:103450009B01AC016115710581059105A9F02F3F14
:103460008FEF38078FEF48078FEF580709F454C0E4
:10347000213031054105510509F44EC0C814D90465
:10348000EA04FB0431F63DC08C2CBD2CAE2C9F2CE5
:10349000CE01A601B7010FEF1FEF2FEF3FE00E9413
:1034A000CB18882341F5411451046104710449F09B
:1034B000CE01B301A201860197010E94CB18882397
:1034C000D1F48A86BB86AC869D868E859F85A88929
:1034D000B9898F3F2FEF92072FEFA2072FEFB20787
:1034E000A1F00197A109B1098E879F87A88BB98B9D
:1034F00081E08D830AC0813059F42FEF3FEFA9019D
:103500000BC020E030E0A90107C0A701960104C06C
:1035100021E030E040E050E0B901CA01DF91CF91F5
:103520001F910F91FF90EF90DF90CF90BF90AF90E1
:103530009F908F907F906F905F904F9008958F92A3
:103540009F92AF92BF92CF92DF92EF92FF920F9332
:103550001F93CF93DF93EC015B01CC80DD80089457
:10356000C11CD11CC114D10409F4EDC08E859F8506
:10357000A889B9890097A105B10509F4E4C01FE045
:10358000812E912C8C209D208114910409F0CBC0B8
:103590000196A11DB11D8E879F87A88BB98B4A8587
:1035A0005B856C857D858881998141155105610513
:1035B000710541F4FC0180859185C816D90608F48F
:1035C000B2C0C1C0FC01228130E021503040F60180
:1035D000A4E0F695E795AA95E1F72E233F23211560
:1035E000310509F0A0C00E945D177B018C0162309B
:1035F00071058105910508F4AAC08FEFE8168FEFD9
:10360000F8068FEF08078FEF180709F4A2C088812A
:103610009981FC0126893789408D518DE216F30688
:103620000407150708F471C0A114B10409F48BC094
:103630004A855B856C857D850E94C0197B018C0164
:10364000611571058105910509F47FC0613071052F
:103650008105910509F47BC08FEFE8168FEFF8061E
:103660008FEF08078FEF180709F473C088819981DD
:1036700040E050E0BA010E941A12882309F069C0A4
:1036800088819981FC01BE96825D9D4F01C0119297
:10369000E817F907E1F7A880B980C501B801A701CB
:1036A0000E942E17F50162A773A784A795A7BB24D4
:1036B000AA24A39419C0A4828881998140E050E093
:1036C000BA010E941A12882309F043C0E881F981E7
:1036D00082A593A5A4A5B5A50196A11DB11D82A79C
:1036E00093A7A4A7B5A7B394E881F9818281B816FE
:1036F00010F382A593A5A4A5B5A58B199109A109DD
:10370000B10982A793A7A4A7B5A7EA86FB860C8771
:103710001D8788819981B801A7010E942E176E87A5
:103720007F87888B998BDD82CC82888199818E9668
:1037300075E0880C991C7A95E1F7880D991D9B8B93
:103740008A8B80E007C084E005C087E003C082E088
:1037500001C081E0DF91CF911F910F91FF90EF9019
:10376000DF90CF90BF90AF909F908F9008952F9251
:103770003F924F925F926F927F928F929F92AF9201
:10378000BF92CF92DF92EF92FF920F931F93CF934E
:10379000DF93EC01DB018C918F3211F08C3511F449
:1037A0006F5F7F4F1E821F8218861986FB01808102
:1037B000803230F4CE010E944D181B8A1A8AECC068
:1037C00090E2592E85E0482EFB018F0180813196D1
:1037D0008F32D9F38C35C9F3EC89FD89DF018CE098
:1037E00090E001C05D920197E9F7180180E090E058
:1037F000EE24FF2428E030E09924D1018D901D01B2
:103800000894E11CF11CB82DB13208F448C0BF3255
:1038100009F447C0BC3509F444C0BE3219F0821720
:10382000930778F02830310509F0B3C0482D4E32A7
:1038300009F0AFC0990C990C88E090E02BE030E0E3
:10384000DCCF87FE08C0A3E09A2A482D50E04D56F1
:103850005F4FDA018C90C82CDD2444E051E0DA019E
:103860006D91AD01662329F070E06C157D05B9F707
:1038700090C0482D41544A3118F4B2E09B2A08C048
:10388000482D41564A3120F441E0942AA0EE8A0E98
:10389000BF01680F791FDB018C920196AECF44E027
:1038A00001C040E0009709F474C08081853E09F4AE
:1038B00040822830310511F4990C990C892D90E043
:1038C0009C01237030702130310509F440618C7007
:1038D00090708430910509F448604387CE010E94BE
:1038E0004D18882329F54E855F85688979898881F7
:1038F00099810E941A128823D9F4EA89FB89908160
:103900009923A9F0938593FD0CC0AC89BD899F01D3
:10391000255F3F4FE217F30759F041919D914917F9
:10392000C9F3CE0160E070E00E949F1ADACF84E014
:10393000EC89FD899385882329F0843069F592FF0D
:103940002AC02AC092FD28C02A893B89F9018385B3
:1039500084FF21C0B8016E0D7F1D7588662484899F
:1039600090E086299729A0E0B0E0DC01992788271C
:10397000B38CAA24228D30E02A293B2940E050E074
:10398000822B932BA42BB52B8E839F83A887B9877B
:103990001BCF86E001C085E0DF91CF911F910F9191
:1039A000FF90EF90DF90CF90BF90AF909F908F905F
:1039B0007F906F905F904F903F902F900895882355
:1039C00091F4E0912E02F0912F02309709F01082CD
:1039D0006115710511F0FB01108270932F02609345
:1039E0002E0280E008958BE008952F923F924F922F
:1039F0005F926F927F928F929F92AF92BF92CF927F
:103A0000DF92EF92FF920F931F93DF93CF93CDB787
:103A1000DEB7AD970FB6F894DEBF0FBECDBF6C0119
:103A20007CA36BA3DC011D921C92B42FBF71BDA3BC
:103A30005DE0E52EF12CEC0EFD1E4E71CE0183965D
:103A4000B7010E942E13182FCE0101969AA389A3C5
:103A5000112331F46BA17CA1C7010E94B71B182F61
:103A6000EF8CF8A0112321F4E114F10409F416E01D
:103A7000EDA18E2F90E09C012C7130702115310545
:103A800009F402C1112309F44DC0143009F041C0FA
:103A90004DE0E42EF12CEC0EFD1EC7010E944D18E6
:103AA000182F8823B1F5AE2CEF2C4B8D5C8D6D8DCE
:103AB0007E8D8D859E850E941A12182F882349F5C8
:103AC000EF8DF8A18081853E09F480C1882309F437
:103AD0007DC18A2D9E2D61E070E00E949F1A182FF3
:103AE000882319F316C08F8D98A1282F392FF9013B
:103AF00021E230E001C0119221503040E1F769A18C
:103B00007AA14BE050E00E94F511ED85FE8581E041
:103B10008483EF8CF8A0112309F03EC1FDA1F86069
:103B2000FDA309C0D7011B962C911B97217109F0A9
:103B300075C1E2FD58C1BDA1B3FFB3C00E94F11130
:103B4000F70166877787808B918B1386148E158E8D
:103B5000168E178E958980E024883324282A392AE6
:103B600044245524210133242224338D20E0828DE6
:103B700090E0822B932BA0E0B0E0282A392A4A2A31
:103B80005B2A128E138E148A158AAD84BE8481E05E
:103B9000D50114968C9314972114310441045104D7
:103BA00009F47FC09A968D919D910D90BC91A02DA6
:103BB0008AA79BA7ACA7BDA7B1E02B16310441048F
:103BC000510409F45DC0F50186899789A08DB18DF6
:103BD000281639064A065B0608F052C04201310138
:103BE00043C0C501B401A3010E945D176EA37FA36A
:103BF00088A799A7611571058105910509F4F5C09C
:103C00006130710581059105D9F16F3FFFEF7F07A5
:103C1000FFEF8F07FFEF9F07A9F1C501B401A301D3
:103C200000E010E098010E94CB18182F882309F0BB
:103C3000B3C0F50186859785A089B1898F3FFFEFD5
:103C40009F07FFEFAF07FFEFBF0751F00196A11DE0
:103C5000B11DF50186879787A08BB18B21E0258365
:103C60006EA07FA088A499A4F50186899789A08D6C
:103C7000B18D681679068A069B0608F4B2CFB5C0E6
:103C800012E08AC011E088C0112309F085C0D70175
:103C90001B962C911B9724FDBFC0E1FF02C020FDA5
:103CA000BDC0BDA1B3FF02C0B062BDA36D857E855E
:103CB000FB0122A533A544A555A5D6015A962D93FF
:103CC0003D934D935C935D975F96FC92EE925E9769
:103CD000EDA11496EC93D70155963C91559720E0B1
:103CE00054968C9190E0822B932BA0E0B0E0DC0105
:103CF00099278827F701538D40E0228D30E0242B4F
:103D0000352B40E050E0822B932BA42BB52BF601F2
:103D100086879787A08BB18BD7015F968C9190E0B7
:103D2000A0E0B0E0B82FAA2799278827F701268DB1
:103D300030E040E050E0A90133272227822B932B6B
:103D4000A42BB52B248D30E040E050E0822B932B48
:103D5000A42BB52B358D20E040E050E0822B932B37
:103D6000A42BB52BF60182879387A487B587D6014C
:103D700016961D921D921D921C921997168A178AEB
:103D8000108E118E71836083DB0116968D919C914C
:103D900017979383828310E0812FAD960FB6F89426
:103DA000DEBF0FBECDBFCF91DF911F910F91FF906E
:103DB000EF90DF90CF90BF90AF909F908F907F90CB
:103DC0006F905F904F903F902F9008954B8D5C8D3A
:103DD0006D8D7E8D8D859E850E941A12182F8823E9
:103DE00009F481CE96CE18E0D7CF8D859E850894B4
:103DF0002108310841085108FC0122863386448697
:103E000055864AA55BA56CA57DA50E941A12182FA0
:103E1000882309F446CFC0CF14E0BECF17E0BCCF53
:103E20002F923F924F925F926F927F928F929F92CA
:103E3000AF92BF92DF92EF92FF920F931F93DF93A7
:103E4000CF9300D000D0CDB7DEB79C838B83062FF5
:103E5000A72E7A013A832983D9011D921C92FC0175
:103E600062817381808191810E940412D82E8823FF
:103E700009F045C1AB81BC8114968C91149787FDE4
:103E800039C180FF3AC11A968D919D910D90BC91D8
:103E9000A02DEB81FC812681378140855185821BD5
:103EA000930BA40BB50B970140E050E082179307EA
:103EB000A407B50708F47C01202E3A2C16C1AB816B
:103EC000BC8116962D913D914D915C911997DA0127
:103ED000C9019170A070B0700097A105B10509F0FB
:103EE000ACC0EB81FC818081918149015A0119E0CC
:103EF000B694A794979487941A95D1F7DC011296FB
:103F00000C9112970150082141F521153105410509
:103F1000510529F4668577858089918908C0EB81F0
:103F2000FC8142895389648975890E945D176230DA
:103F300071058105910508F16F3FBFEF7B07BFEF6A
:103F40008B07BFEF9B0709F48CC0AB81BC815296F5
:103F50006D937D938D939C935597EB81FC8180802D
:103F600091804289538964897589C4010E942E1702
:103F7000611571058105910551F4AB81BC811496E1
:103F80008C911497806814968C931497B3C02B016E
:103F90003C01400E511C611C711C5701AB2CBB2411
:103FA000A694A114B10409F442C0F401828110E086
:103FB0009501200F311F90E08217930718F45C01E0
:103FC000A01AB10AD40111968C91B101A3019201FA
:103FD0000A2D0E947211882309F043C0AB81BC8175
:103FE000ED91FC91119784818823E1F082A593A53E
:103FF000A4A5B5A584199509A609B709950140E0BE
:1040000050E082179307A407B50760F4982F88271C
:10401000990FBF01625D7F4F820D931D40E052E01A
:104020000E94F5118501102F0027110F3FC0EB8171
:10403000FC81468A578A608E718EAB81BC81169650
:104040008D909D90AD90BC90199756964D915D9135
:104050006D917C9159978D919C910E941A128823A1
:1040600041F0EB81FC81848180688483DD24D394DA
:1040700046C0C401917020E032E0281B390B870153
:104080002E153F0508F48901AB81BC816D917C91AF
:104090001197625D7F4F16968D919C911797917045
:1040A000680F791FC101A8010E94F511200E311E71
:1040B000980140E050E0EB81FC8186819781A085EA
:1040C000B185820F931FA41FB51F86839783A08796
:1040D000B187A981BA818D919C911197800F911F11
:1040E00011969C938E93E01AF10AE114F10409F001
:1040F000E6CE05C072E0D72E02C067E0D62E8D2D29
:104100000F900F900F900F90CF91DF911F910F9113
:10411000FF90EF90DF90BF90AF909F908F907F9037
:104120006F905F904F903F902F9008952F923F9205
:104130004F925F926F927F928F929F92AF92BF92B7
:10414000CF92DF92EF92FF920F931F93CF93DF9363
:10415000EC01062FE72E5A011901F9011182108294
:104160006A817B81888199810E940412182F88239B
:1041700009F06AC18C8187FD64C181FF64C12A8511
:104180003B854C855D85C501A0E0B0E0820F931FA3
:10419000A41FB51F82179307A407B50710F4AA241C
:1041A000BB24402E5E2C34C12E813F814885598529
:1041B000DA01C9019170A070B0700097A105B10536
:1041C00009F0DDC08881998169017A0169E0F6947E
:1041D000E794D794C7946A95D1F7FC010281015006
:1041E0000C21D1F52115310541055105A9F42E8584
:1041F0003F85488959892115310541055105D1F47B
:1042000040E050E0BA010E94C0199B01AC016E87EA
:104210007F87888B998B08C04A895B896C897D89E7
:104220000E94C0199B01AC012115310541055105C2
:1042300009F4F2C0213031054105510599F12F3FB4
:10424000FFEF3F07FFEF4F07FFEF5F0709F4A5C040
:104250002A8B3B8B4C8B5D8BE881F98162A573A522
:1042600084A595A52E893F89488D598D62177307BE
:104270008407950749F4CF0140E050E0BA010E945D
:104280001A12882309F089C0C880D9804A895B89BD
:104290006C897D89C6010E942E1761157105810503
:1042A000910521F48C8180688C83CBC03B014C014B
:1042B000600E711C811C911C7501EF2CFF24E6948B
:1042C000E114F104E9F1F6012281802F90E0A701C9
:1042D000480F591F30E02417350718F47901E81A00
:1042E000F90AF6018181B201A40193010E2D0E9409
:1042F000A411882309F051C0E881F98162A573A552
:1043000084A595A56619770988099909970140E060
:1043100050E0621773078407950770F4762F6627BD
:10432000770F640D751DCF018E9640E052E00E941C
:10433000F511E881F9811482FE2CEE24FF0C4EC0A9
:104340002E813F81488559858A859B85AC85BD85B1
:10435000281739074A075B0770F0C60140E050E0B4
:10436000BA010E941A128823C1F4E881F98162A679
:1043700073A684A695A66E8A7F8A888E998ECE8033
:10438000DF80E884F9844E895F89688D798D888122
:1043900099810E941A12882329F08C8180688C836D
:1043A00011E052C0C601917020E032E0281B390BA9
:1043B00075012A153B0508F4790128813981225DB0
:1043C0003F4F8E819F819170820F931FB201A70191
:1043D0000E94F511E881F98131E034834E0C5F1CB5
:1043E000970140E050E08E819F81A885B985820FBA
:1043F000931FA41FB51F8E839F83A887B987F101E0
:10440000808191818E0D9F1D91838083AE18BF089E
:10441000A114B10409F0C8CE8E819F81A885B98509
:104420002A853B854C855D85281739074A075B0738
:1044300020F48A879B87AC87BD878C8180628C83C0
:1044400003C012E001C017E0812FDF91CF911F91CF
:104450000F91FF90EF90DF90CF90BF90AF909F9023
:104460008F907F906F905F904F903F902F90089526
:104470000F931F93CF93DF93EC016A817B81888137
:1044800099810E940412982F882309F0B6C08C816C
:1044900085FFB3C04A8D5B8D6C8D7D8D8881998140
:1044A0000E941A12982F882309F0A7C00E8D1F8D25
:1044B000F8018385806283878A85848F8B85858FC9
:1044C0008C85868F8D85878F8E85828F8F85838F54
:1044D0008889848B8989858B0E94F111F801668B0C
:1044E000778B808F918F8C818F7D8C83E881F98190
:1044F00081E084830990D881C02DCE0140E050E056
:10450000BA010E941A12982F882309F076C0888178
:10451000833009F068C08D81882309F464C01AA62D
:104520001BA61CA61DA6FE01BE96CE01825D9D4F58
:1045300001C01192E817F907E1F7FE01E45DFD4FB4
:1045400085E58083FE01E35DFD4F8AEA808382E595
:104550008EA78FA781E688AB91E499ABFE01EE5E52
:10456000FD4F22E72083FE01ED5EFD4F2083FE011B
:10457000EC5EFD4F9083FE01EB5EFD4F80833E8538
:104580002F8598898989FE01EA5EFD4F3083FE01FF
:10459000E95EFD4F2083FE01E85EFD4F9083FE0142
:1045A000E75EFD4F80833A852B859C858D85FE01D6
:1045B000E65EFD4F3083FE01E55EFD4F2083FE0188
:1045C000E45EFD4F9083FE01E35EFD4F8083BE01FC
:1045D000625D7F4F2A893B894C895D89898101E031
:1045E0000E94A4111D82898160E040E050E00E9499
:1045F000D61191E0882309F490E0892FDF91CF91C3
:104600001F910F910895CF93DF93EC010E94382200
:10461000882311F419821882DF91CF910895EF92C7
:10462000FF920F931F93DF93CF930F92CDB7DEB717
:10463000982F7A018B0180916304882399F4892F44
:104640008151823040F0983131F0993121F090322F
:1046500011F0913239F489E0EE0CFF1C001F111F9C
:104660008A95D1F72C98892F806499830E94A92478
:10467000812F0E94A924802F0E94A9248F2D0E949F
:10468000A9248E2D0E94A9249981983011F487E8DD
:1046900002C085E999830E94A924998100E002C0A3
:1046A0000150E1F099830E94AF24182F99818F3F28
:1046B000B9F3882399F49A3389F40E94AF2486FFD2
:1046C00004C081E08093630402C0109263040E94DE
:1046D000AF240E94AF240E94AF2410E00E94AF24B8
:1046E0002C9A812F0F90CF91DF911F910F91FF9006
:1046F000EF9008951F93CF93DF935A9A10E08FEFB6
:104700000E94A9241F5F1A30D1F72C98C0E0D0E096
:1047100080E040E050E0BA010E940F232196C132B0
:10472000D10509F452C0813099F72C9A8FEF0E947D
:10473000A9248FEF0E94A924C0E0D0E088E04AEAD3
:1047400051E060E070E00E940F232196CF3FD10539
:1047500029F481E08093680411E003C0813071F78F
:1047600012E0C0E0D0E087E340E050E0BA010E94F0
:104770000F2389E240E050E060E070E40E940F23E4
:104780002196CF3FD10519F1882369F71092630470
:104790001230F9F4C0E0D0E08AE340E050E0BA0122
:1047A0000E940F232196CF3FD10519F4109268047F
:1047B00002C0882389F780916304813011F482E07C
:1047C00001C083E08093680404C081E003C082E0FC
:1047D00001C080E0DF91CF911F9108951F9389B1AF
:1047E000182F147082FF06C080913202882311F4C2
:1047F0000E94993A109332021F910895DF92EF922E
:10480000FF920F931F93CF93DF938B019C017A014B
:1048100081E1B901A8010E940F23D82E882341F518
:104820002C980FEF1FEF09C00115110521F42C9AE8
:10483000DD24D3941DC0015010400E94AF248E3F50
:1048400099F78F2DE7017E01F82EE70100E010E0D7
:104850000E94AF2489930F5F1F4F32E0003013078F
:10486000B9F70E94AF240E94AF240E94AF242C9A73
:104870008D2DDF91CF911F910F91FF90EF90DF90E1
:104880000895DF92EF92FF920F931F93CF93DF93E0
:104890008B019C017A0188E1B901A8010E940F23D4
:1048A000D82E882309F043C02C988EEF0E94A924AB
:1048B0008F2DF82EE70100E010E089910E94A924D5
:1048C0000F5F1F4F32E000301307B9F78FEF0E94E0
:1048D000A9248FEF0E94A9240E94AF24982F9F71D2
:1048E000953019F400E010E009C02C9AD82E1FC0B2
:1048F0008FEF0F3F180781F00F5F1F4F0E94AF240B
:104900008823B1F32C9A8FEF0E94A9242C980AC017
:104910009FEF0F3F190721F42C9ADD24D39407C091
:104920000F5F1F4F0E94AF24882391F32C9A8D2D87
:10493000DF91CF911F910F91FF90EF90DF9008953D
:1049400084B1806B84B985B185B982E58CBD1DBC0D
:1049500008958EBD0DB407FEFDCF8EB508958FEF7F
:104960008EBD0DB407FEFDCF8EB508951F920F9238
:104970000FB60F9211248F939F93809133029091E1
:104980003402019690933402809333029F918F9169
:104990000F900FBE0F901F90189587E08093B10085
:1049A000E0E7F0E0808181608083089529E634E0CB
:1049B000C90160E070E048E050E00E947D4380E47F
:1049C00080937C0086E080937A0080917A008068F2
:1049D00080937A0080917A00806480937A0080913D
:1049E0007A0086FDFCCF809178009091790008953F
:1049F00090917C008F71907E892B80937C008091B8
:104A00007A00806480937A0080917A0086FDFCCFE2
:104A10002091780030917900C9010895BF92CF921A
:104A2000DF92EF92FF920F931F93D82EB62ECC24D5
:104A3000EE24FF2487010BC08D2D0E94F824AC01C9
:104A400060E070E0E40EF51E061F171FC394CB1440
:104A500098F32B2D30E040E050E0C801B7010E94F0
:104A60000C43C9011F910F91FF90EF90DF90CF9001
:104A7000BF9008951F93CF93DF93C0E0D0E01C2F29
:104A80008C2F64E00E940E25BC01FE01EE0FFF1F7B
:104A9000E759FB4F208131812D5F3F4F28173907A0
:104AA00030F02081318103968217930770F4FE0164
:104AB000EE0FFF1FE759FB4F718360837695679573
:104AC00076956795812F0E94FC382196C430D105D8
:104AD000B1F6DF91CF911F9108954698469A0895B7
:104AE0004598459A08953F9887B1806687B9479859
:104AF00088B1806688B985E0E1E7F4E0DF011D92C6
:104B00008A95E9F70E94702508950F931F9380916D
:104B10009301873228F0109293010E94702505C0FE
:104B20008F5F809393010E946D2580919301082FE0
:104B3000069506950695182F1770402F50E0379B65
:104B400031C04F585B4FFA01208130E041E050E026
:104B5000012E02C0440F551F0A94E2F72423352387
:104B60002115310591F10E943B0B2FC00E94880A4C
:104B700081E0E02FF0E0EF58FB4F282F012E01C01D
:104B8000220F0A94EAF781E090E002C0880F991F93
:104B90001A95E2F7809590818923282B20831F9115
:104BA0000F91089521E030E0012E02C0220F331F43
:104BB0000A94E2F74F585B4FFA01408150E04223DC
:104BC00053234217530791F6D3CF80E0D2CF8AB157
:104BD00080678AB98BB18F788BB985E0E6E7F4E01E
:104BE000DF011D928A95E9F708955D9A5D98089511
:104BF0005C9A5C980895CF93DF93C0E0D0E05E9814
:104C0000FE0183E0F595E7958A95E1F7EA58FB4FB9
:104C1000808190E09E012770307002C09595879545
:104C20002A95E2F780FD5E9A0E94F5252196C8320A
:104C3000D10529F70E94F825DF91CF9108951F92A1
:104C40000F920FB60F9211242F933F934F935F93C0
:104C50006F937F938F939F93AF93BF93EF93FF9344
:104C60006091C6008DEF94E00E946D0DFF91EF9171
:104C7000BF91AF919F918F917F916F915F914F9174
:104C80003F912F910F900FBE0F901F9018951F927C
:104C90000F920FB60F9211242F933F934F935F9370
:104CA0006F937F938F939F93AF93BF93EF93FF93F4
:104CB000DF93CF930F92CDB7DEB78BE794E0BE01C1
:104CC0006F5F7F4F0E94830D882321F0898180933D
:104CD000C60005C08091C1008F7D8093C1000F90F8
:104CE000CF91DF91FF91EF91BF91AF919F918F9104
:104CF0007F916F915F914F913F912F910F900FBED8
:104D00000F901F9018958BE794E00E945F0D8DEF38
:104D100094E00E945F0D1092C50084E08093C4006F
:104D2000E0ECF0E0808182608083E1ECF0E0808163
:104D30008869808386E08093C2000895682F8BE79E
:104D400094E00E946D0DE1ECF0E090819062908320
:104D50000895BC018DEF94E00E94830D91E08823BB
:104D600009F490E0892F0895DF93CF930F92CDB788
:104D7000DEB7CE0101960E94A926882319F0898109
:104D80000E943F0E0F90CF91DF91089510927F0502
:104D90002AE935E0C90160E070E045E050E00E949A
:104DA0007D4308951092780410929C050895809197
:104DB000770480788093770480919B058078809336
:104DC0009B050895805F482F46954695469550E08F
:104DD000877021E030E002C0220F331F8A95E2F78E
:104DE000FA01EA58FB4F208346565A4FFA012083B6
:104DF0000895805F482F46954695469550E0877008
:104E000021E030E002C0220F331F8A95E2F7FA0159
:104E1000EA58FB4F208346565A4FFA0120830895E3
:104E200090917704907820919B05207820939B05A2
:104E30008F77982B9093770490919B05982B909364
:104E40009B050895885FE82FE695E695E695F0E0E6
:104E5000DF01AA58BB4F9C919078E656FA4F20810B
:104E600020782083877021E030E001C0220F8A95EE
:104E7000EAF7922B9C938081822B80830895E62F02
:104E8000E695E695E695F0E0677021E030E001C038
:104E9000220F6A95EAF7422F4095DF01AA58BB4FCF
:104EA0009C9194239C93E656FA4F308134233083AF
:104EB000882329F0922B9C938081822B80830895F4
:104EC000E82FE695E695E695F0E0DF01AA58BB4F9E
:104ED0004C91877021E030E001C0220F8A95EAF7FB
:104EE000322F3095932F94239C93E656FA4F80816E
:104EF00083238083422329F4922B9C938081822BED
:104F000080830895E82FE695E695E695F0E0EA5867
:104F1000FB4F9081877021E030E001C0220F8A951D
:104F2000EAF7822F809589238083922311F4282B1E
:104F3000208308951F9318E180E0612F0E943F278E
:104F40001F5F1832C9F71F9108951F93CF93DF9306
:104F5000182FC0E0D0E080917F0590E00C2E02C0B9
:104F6000959587950A94E2F780FD2BC0FE01E058E5
:104F7000FA4F108320917F0581E090E00C2E02C053
:104F8000880F991F0A94E2F7282B20937F056091E0
:104F900033027091340280E090E00E94B4412FEF20
:104FA0003FE443E450E40E9424410E948841CC0F36
:104FB000DD1FC657DA4F79836883812F0E948227CD
:104FC00004C02196C830D10531F6DF91CF911F91F1
:104FD0000895E82FE695E695E695F0E0DF01A65600
:104FE000BA4F9C91877021E030E001C0220F8A9572
:104FF000EAF79223EA58FB4F992321F08081822B14
:1050000080830895209580812823208308950F931D
:105010001F93CF93DF93C0E0D0E001E010E08091D8
:105020007F0590E00C2E02C0959587950A94E2F7D3
:1050300080FF21C02091330230913402FE01EE0F37
:10504000FF1FE657FA4F808191818217930798F4EA
:1050500020917F05C8010C2E02C0880F991F0A9469
:10506000E2F78095822380937F05FE01E058FA4F96
:1050700080810E94E9272196C830D10581F62091D0
:1050800033023091340280913602909137028217B8
:10509000930728F5609133027091340280E090E02C
:1050A0000E94B4412FEF33E244EF50E40E942441C8
:1050B0000E948841709337026093360280919F0569
:1050C00080FF04C0809188050E94822780919F05FF
:1050D000869580FF04C0809189050E948227DF9118
:1050E000CF911F910F9108951F93182F6623C9F434
:1050F00080918805811741F480919F058E7F809370
:105100009F05812F0E94E92780918905811751F51C
:1051100080919F058D7F80939F05812F0E94E927B5
:1051200021C080919F0580FF08C080919F058695D2
:1051300080FD18C041E050E002C040E050E0FA01BC
:10514000E857FA4F108380919F0521E030E002C0BC
:10515000220F331F4A95E2F7822B80939F05812F00
:105160000E9482271F9108951F93182F80E060E00E
:105170000E943F2780E061E00E943F2780E062E0DC
:105180000E943F2780E063E00E943F2780E060E0CC
:105190000E94742881E060E00E94742882E060E050
:1051A0000E94742883E060E00E9474281330B9F0F4
:1051B000143028F4113069F0123070F407C0153043
:1051C00099F0153060F01730A9F410C081E060E06C
:1051D00008C081E061E005C081E062E002C081E0DA
:1051E00063E00E943F2706C081E001C083E061E0E8
:1051F0000E9474281F910895809188050E94E927D4
:1052000080919F058E7F80939F05809189050E94E4
:10521000E92780919F058D7F80939F050895809158
:1052200035020E94E92708951F93182F16951695A9
:105230001695185E80913502811749F080913502EC
:105240000E94E92710933502812F0E9482271F9127
:1052500008951F93529A5A9814B8209828980E943B
:1052600095100E9483268EED90E00E940C1184E937
:1052700091E00E94F81080E062E00E94E2108EEC63
:1052800090E00E940C110E94D6240E94EC0C0E9417
:1052900073250E94E7250E94C6260E94CD2480E047
:1052A0000E9460278FEF91E1AAE781509040A040D3
:1052B000E1F700C000000E948B100E949C3478949B
:1052C0000E94993A80E060E00E9453400E943B3B7C
:1052D0000E9485250E94FB250E94B4260E944E0D47
:1052E000182F0E94590D682F812F0E94AE360E9400
:1052F000B4260E94B4260E94B4260E94B4260E94BE
:105300003A250E9407280E947F3A0E94A7080E941F
:10531000EE23DECF0F931F93CF93DF9380E090E0D7
:1053200036C0FE01E20FF31FA491EA2FE150EC3DDD
:1053300080F4AF3708F4AF5FB0E0FB01E20FF31F7A
:10534000E491AA0FBB1FA056BA4F1196EC93119788
:105350008C932F5F3F4F2830310519F74F5F5F4F18
:105360004830510581F020E030E0BA01600F711F34
:10537000E4E0660F771FEA95E1F7EB01C051DF4FDC
:1053800068517F4FCECF01968630910549F040E0BD
:1053900050E08C0123E0000F111F2A95E1F7E3CFC5
:1053A000DF91CF911F910F9108951F93182F0E94A5
:1053B000B939482F4295407F1F70412B82EB68E23C
:1053C0000E949C0D1F910895DF93CF930F92CDB74C
:1053D000DEB70E94C62A89830E949A2782EB67E281
:1053E00049810E949C0D0F90CF91DF910895809389
:1053F000C1016093380208958093C201609338021E
:10540000089581E09091C1019F3F09F480E00895E3
:10541000DF93CF930F92CDB7DEB70E94B93989835E
:105420000E949A2782EB6FE149810E949C0D0F90A8
:10543000CF91DF910895DF93CF930F92CDB7DEB771
:10544000809138028330A9F44091C1014295407F98
:105450008091C2018F70482B49830E949A2782EB6A
:1054600060E249810E949C0D8FEF8093C20180937E
:10547000C1010F90CF91DF910895DF93CF930F92E9
:10548000CDB7DEB7809138028230A9F44091C101D6
:105490004295407F8091C2018F70482B49830E94C2
:1054A0009A2782EB61E249810E949C0D8FEF8093E5
:1054B000C2018093C1010F90CF91DF91089581E0E7
:1054C00090913802913009F080E00895809139027E
:1054D0000895882351F10E948B1080E061E00E94C2
:1054E000E21088E991E00E94F81080913902823040
:1054F00051F0833059F0813019F080EA91E008C012
:1055000086EA91E005C08EEA91E002C086EB91E068
:105510000E94F8108EEB91E00E94F8100E94FC2887
:1055200081E06FE00E943F27089580E06FE00E94D5
:105530003F270E94A032089580933902809138025B
:10554000813011F40E94692A0895809139028230D5
:1055500051F0833051F0813019F00E94082A08C0C0
:105560000E94E42905C080E001C081E00E94D529A5
:1055700080E00E94692A109238020895482F809393
:105580003A0282EB6AE10E949C0D089580913A02F2
:1055900008958091EF0184FF03C08F608093EF0135
:1055A0000895282F26952695269530E0663008F038
:1055B00065E0E62FF0E043E0EE0FFF1F4A95E1F7CC
:1055C000E20FF31F94E0EE0FFF1F9A95E1F7E05111
:1055D000FF4F8770E80FF11D84910895AF92BF923D
:1055E000CF92DF92EF92FF920F931F93CF93DF93AF
:1055F00000E010E070E2B72E22C08881F7019081B0
:10560000981769F0882309F4B8828C2D6A2D0E94BE
:10561000E21088810E9467108881F70180830894D6
:10562000C11CD11C0894E11CF11C2196F0E1CF169D
:10563000D10419F70F5F1F4F02301105A9F0E801DF
:1056400064E0CC0FDD1F6A95E1F75AE5E52E57E0DF
:10565000F52EEC0EFD1EC00FD11FC658D84FCC241E
:10566000DD24A02EA394C9CFDF91CF911F910F917C
:10567000FF90EF90DF90CF90BF90AF9008950F9381
:105680001F93DF93CF9300D000D0CDB7DEB78091CA
:105690003B02893009F0FCC08AE797E060E370E1E3
:1056A0000E94624380914102877090E081309105B1
:1056B00021F1823091051CF4009749F050C08230EE
:1056C000910581F18330910509F049C030C080E82F
:1056D00097E067E270E10E9462438091410288771F
:1056E00009F03DC080913F028823B1F18BE58093A2
:1056F0007F078DE58093850732C080E897E06EE1F3
:1057000070E10E94624380914102887741F5809167
:105710003F02882309F18BE580937F078DE5809315
:1057200087071DC080E897E065E170E104C080E86C
:1057300097E06CE070E10E946243809141028877BB
:1057400071F480913F02882339F08BE580937F07C5
:105750008DE58093880703C08EE380937F07809157
:1057600041028770833009F48EC019821A821B822D
:105770001C822091400200D000D000D0EDB7FEB7CF
:1057800031968E010F5F1F4FADB7BEB712961C93B7
:105790000E93119783EC91E0938382832483158287
:1057A0000E94C043ACE8B7E0F80183E001900D929D
:1057B0008150E1F78091410288772DB73EB72A5F8B
:1057C0003F4F0FB6F8943EBF0FBE2DBF883071F427
:1057D00080913F02882339F08BE580938B078DE51C
:1057E00080938F0703C08EE380938B0780914102E3
:1057F0008695869586958F7090E082309105D4F1DC
:10580000809141028695869586958F7090E08A30CA
:10581000910584F5A0E9B7E0E6E9FDE088E00190B4
:105820000D928150E1F780913F028823B9F0E09119
:105830004102E695E695E695EF70F0E0E658F84F00
:105840008BE5838BE0914102E695E695E695EF7056
:10585000F0E0E658F84F8DE5858B15C0E0914102E8
:10586000E695E695E695EF70F0E0E658F84F8EE3A2
:10587000838B09C0A0E9B7E0E6E9FDE088E001908C
:105880000D928150E1F789E997E069E070E1C1C0CC
:105890008AE797E064E070E10E94624380914102F0
:1058A000877090E08130910571F0823091051CF491
:1058B0000097F9F050C08230910581F18330910555
:1058C00009F049C030C080E897E06CEF7FE00E94AB
:1058D000624380914102887709F03DC080913F0288
:1058E0008823B1F18BE580937F078DE5809387074F
:1058F00032C080E897E064EF7FE00E9462438091CD
:105900004102887741F580913F02882309F18BE5B8
:1059100080937F078DE5809385071DC080E897E021
:105920006BEE7FE004C080E897E062EE7FE00E94CB
:10593000624380914102887771F480913F0288230D
:1059400039F08BE580937F078DE58093880703C04E
:105950008EE380937F07809141028770833009F442
:105960004AC019821A821B821C822091400200D0F8
:1059700000D000D0EDB7FEB731968E010F5F1F4FFC
:10598000ADB7BEB712961C930E93119783EC91E0BE
:1059900093838283248315820E94C043ACE8B7E0DE
:1059A000F80183E001900D928150E1F7809141026E
:1059B00088772DB73EB72A5F3F4F0FB6F8943EBFAA
:1059C0000FBE2DBF883071F480913F02882339F0DB
:1059D0008BE580938B078DE580938F0703C08EE363
:1059E00080938B07A0E9B7E0E6E9FDE088E001904D
:1059F0000D928150E1F7809141028770813029F04A
:105A00008091410287708330E9F489E997E06FED76
:105A10007FE042E050E00E944E438091410288774F
:105A2000803561F0809141028770833079F48091F4
:105A300041028695869586958F7041F08EE380931E
:105A4000980704C01092990710929A070F900F9030
:105A50000F900F90CF91DF911F910F9108958F922A
:105A60009F92AF92BF92CF92DF92EF92FF920F93ED
:105A70001F93DF93CF93CDB7DEB761970FB6F8943E
:105A8000DEBF0FBECDBF80913B02982F9850923061
:105A900018F40E943F2B3FC500913E020770C09052
:105AA0003E02C694C694C69490913F02992309F48D
:105AB000A8C290E010E053E0880F991F5A95E1F7D3
:105AC0008C0D911D44E0880F991F4A95E1F7FC0168
:105AD000E851FF4FE00FF11F249180519F4F800F3D
