:100000000C94CF080C94EC080C94EC080C94EC08BD
:100010000C94EC080C94EC080C94EC080C94EC0890
:100020000C94EC080C94EC080C94EC080C943C2612
:100030000C94EC080C94EC080C94EC080C94EC0870
:100040000C944A0E0C94EC080C94EC080C94EC08FC
:100050000C94C6270C94EE270C94EC080C94EC0836
:100060000C94EC080C94EC080C94EC080C94EC0840
:1000700053442063617264204F4B00756E6B6E6F4A
:10008000776E206572726F7200696E697420657296
:10009000726F72006E6F742064657465637465645A
:1000A000210053442063617264004C585220447212
:1000B000756D73205600536F6E696320506F7469BD
:1000C0006F6E7300010221000000000008090100AA
:1000D0000000000003041E000000000031323E005A
:1000E00000000000051E064338393A00464E4A001B
:1000F000958F8900070821350000000052531486AF
:10010000000000002223240000000000CBC5D10025
:10011000000000000F10113700000000252BBF80E9
:1001200000000000161A17181B1C1D1973B3799BC9
:10013000ADB9A1A70A0B3209312D3000585E6C66AB
:10014000D7EDF30001022100000000000A0B0200BD
:100150000000000003041E000000000033343F00D4
:1001600000000000051E064338393A00474F4B0097
:1001700096908A0007082135000000005455158725
:10018000000000002223240000000000CCC6D200A2
:10019000000000000F10113700000000262CC08165
:1001A00000000000161A17181B1C1D1974B47A9C45
:1001B000AEBAA2A80A0B3209312D3000595F6D6723
:1001C000D8EDF40001022100000000000C0D030036
:1001D0000000000003041E0000000000353640004F
:1001E00000000000051E064338393A0048504C0014
:1001F00097918B000708213500000000565716889C
:10020000000000002223240000000000CDC7D3001E
:10021000000000000F10113700000000272DC182E0
:1002200000000000161A17181B1C1D1975B57B9DC0
:10023000AFBBA3A90A0B3209312D30005A606E689A
:10024000D9EDF50001020C0D210000000E0F1B1C62
:100250000400000003040E1E000000003738444173
:1002600000000000051E064338393A0049514D0090
:1002700098928C00000000000000000000000000C8
:10028000000000002223240000000000CEC8D4009B
:10029000000000000F10113700000000282EC2835C
:1002A00000000000161A17181B1C1D1976B67C9E3C
:1002B000B0BCA4AA0A0B3209312D30005B636F6910
:1002C000DAEDF60001022100000000001011060026
:1002D0000000000003040E1E00000000393A4542F1
:1002E0000000000038393A000000000099938D00AA
:1002F0000000000012131415212100001D1E1F20F4
:10030000171800002223240000000000CFC9D500E8
:10031000000000000F10113700000000292FC384D7
:1003200000000000161A17181B1C1D1977B77D9FB7
:10033000B1BDA5AB0A0B3209312D30005C64706A87
:10034000DBEDF7000102210000000000121307009E
:1003500000000000031F201E000000003B3C3D4346
:100360000000000038393A00000000009A948E0026
:100370000000000012131415212100002122232463
:10038000191A00002223240000000000D0CAD60061
:10039000000000000F101137000000002A30C48553
:1003A00000000000161A17181B1C1D1978B87EA033
:1003B000B2BEA6AC0A0B3209312D30005D65716BFF
:1003C000DCEDF8000102210000000000121307001C
:1003D00000000000031F201E000000003B3C3D43C6
:1003E0000000000038393A00000000009A948E00A6
:1003F00000000000121314152121000021222324E3
:10040000191A00002223240000000000D0CAD600E0
:10041000000000000F101137000000002A30C485D2
:1004200000000000161A17181B1C1D1978B87EA0B2
:10043000B2BEA6AC0A0B3209312D30005D65716B7E
:10044000DCEDFE002F483B3C3D420000F2FDF9FA96
:10045000FBFC0000000000000000000000000000A5
:10046000000000000000000000000000000000008C
:10047000000000000000000000000000000000007C
:10048000000000000000000000000000000000006C
:10049000000000000000000000000000000000005C
:1004A000000000000000000000000000000000004C
:1004B000000000000000000000000000000000003C
:1004C000000000000000000000000000000000002C
:1004D000000000000000000000000000000000001C
:1004E000000000000000000000000000000000000C
:1004F00000000000000000000000000000000000FC
:1005000000000000000000000000000000000000EB
:1005100000000000000000000000000000000000DB
:1005200000000000000000000000000000000000CB
:1005300000000000000000000000000000000000BB
:1005400000000000000000000000000000000000AB
:10055000000000000000000000000000000000009B
:10056000000000000000000000000000000000008B
:10057000000000000000000000000000000000007B
:10058000000000000000000000000000000000006B
:10059000000000000000000000000000000000005B
:1005A000000000000000000000000000000000004B
:1005B000000000000000000000000000000000003B
:1005C000000000004127283200000000EADDDE7252
:1005D000000000000000000000000000000000001B
:1005E000000000000000000000000000000000000B
:1005F00000000000000000000000000000000000FB
:1006000000000000000000000000000000000000EA
:1006100000000000000000000000000000000000DA
:1006200000000000000000000000000000000000CA
:1006300000000000000000000000000000000000BA
:1006400000000000292A2B433F403F40E0E2E10048
:10065000E6E8E7E9000000000000000000000000FC
:10066000000000000000000000000000000000008A
:10067000000000000000000000000000000000007A
:10068000000000000000000000000000000000006A
:10069000000000000000000000000000000000005A
:1006A000000000000000000000000000000000004A
:1006B000000000000000000000000000000000003A
:1006C000000000002D2E282700000000E3E4DEDDFE
:1006D000000000000000000000000000000000001A
:1006E000000000000000000000000000000000000A
:1006F00000000000000000000000000000000000FA
:1007000000000000000000000000000000000000E9
:1007100000000000000000000000000000000000D9
:1007200000000000000000000000000000000000C9
:1007300000000000000000000000000000000000B9
:10074000000000003334000000000000EBEC00006B
:100750000000000000000000000000000000000099
:100760000000000000000000000000000000000089
:100770000000000000000000000000000000000079
:100780000000000000000000000000000000000069
:100790000000000000000000000000000000000059
:1007A0000000000000000000000000000000000049
:1007B0000000000000000000000000000000000039
:1007C000000000003E3D000000000000E5FB0000CE
:1007D0000000000000000000000000000000000019
:1007E0000000000000000000000000000000000009
:1007F00000000000000000000000000000000000F9
:1008000000000000000000000000000000000000E8
:1008100000000000000000000000000000000000D8
:1008200000000000000000000000000000000000C8
:1008300000000000000000000000000000000000B8
:10084000000000004445474600000000EEEFF1F0D4
:100850000000000000000000000000000000000098
:100860000000000000000000000000000000000088
:100870000000000000000000000000000000000078
:100880000000000000000000000000000000000068
:100890000000000000000000000000000000000058
:1008A0000000000000000000000000000000000048
:1008B0000000000000000000000000000000000038
:1008C0000000000002000000747267006E74650092
:1008D000050000006F666600380000003136000039
:1008E00033320000363400000E000000536E7000FA
:1008F0004F666600436C6B00436B320054696B00BB
:100900004B696B0052696D0044727000486174005D
:10091000436C70004B693200536E6100546F6D0080
:10092000537032000F000000703100007032000080
:100930007033000070340000703500007036000025
:10094000703700007038000072320000723300000F
:1009500072340000723500007236000072370000F9
:1009600072380000070000006F66660076310000F4
:1009700076320000763300007634000076350000D1
:10098000763600000800000073696E00747269001A
:100990007375700073646E0073717200726E640020
:1009A0007875700078646E000E0000004F6E650070
:1009B000312F3100312F3200312F3300312F3400ED
:1009C000312F3600312F380031320000313600002F
:1009D0003234000033320000343800003634000076
:1009E000313238000C0000006F666600342F310091
:1009F000322F3100312F3100312F3200312F3300AF
:100A0000312F3400312F3600312F380031320000C1
:100A100031360000333200000600000053696E00DA
:100A20005472690053617700526563004E6F69002C
:100A300043796D000600000000000053743100008F
:100A40000000537432000000004C31000000000030
:100A5000523100000000004C320000000000523211
:100A6000000000000007000000000000004C5000E3
:100A7000000000000048500000000000004250004C
:100A8000000000000055425000000000004E6F744E
:100A9000000000000050656B00000000004F66661B
:100AA000000000000000000000636F610066696ED6
:100AB000006174740064656300656732006D6F6483
:100AC00000616D74006672710064727600766F6CFE
:100AD0000070616E006E6F6900727074006D6978ED
:100AE0000072657300747970006631000066320030
:100AF000006731000067320000776176006473742C
:100B000000736E6300727467006F666600766F69CB
:100B100000736C700064310000643200006571671E
:100B20000065716600726F6C006D7270006E7465A6
:100B30000070726200737470006C656E0062706D9C
:100B400000636820006F757400737200006E787423
:100B5000006D6F640076656C0066657400666C7786
:100B600000716E740074726B0076616C007368754E
:100B700000737300007800000079000000666C7854
:100B8000006D69640000000000000000000000002B
:100B900000000000004F7363696C6C61746F720039
:100BA000000000000056656C6F636974792045474A
:100BB00000000000004D6F64204547000000000069
:100BC00000000000005069746368204D6F642E00BF
:100BD0000000000000464D00000000000000000082
:100BE0000000000000566F6963650000000000000F
:100BF00000000000004E6F697365000000000000F7
:100C000000000000004E6F6973652F4F7363000092
:100C1000000000000046696C74657200000000006E
:100C200000000000004D6F642E204F736300000031
:100C300000000000004C464F0000000000000000D3
:100C400000000000005472616E7369656E740000EC
:100C500000000000004551000000000000000000FE
:100C600000000000005061747465726E00000000A6
:100C70000000000000536F756E640000000000006B
:100C800000000000005374657000000000000000C8
:100C9000000000000045756B6C69640000000000F6
:100CA0000000000000476C6F62616C0000000000F3
:100CB000000000000056656C6F63697479000000E5
:100CC0000000000000506172616D65746572000083
:100CD000000000000053657175656E636572000069
:100CE000000000000047656E657261746F7200005D
:100CF00000000000004D49444900000000000000D1
:100D000000000000000000000000000000000000E3
:100D10000000000000436F61727365000000000076
:100D2000000000000046696E650000000000000041
:100D3000000000000041747461636B00000000005B
:100D400000000000004465636179000000000000BD
:100D50000000000000416D6F756E7400000000001F
:100D600000000000004672657175656E63790000D1
:100D700000000000004F76657264726976650000BD
:100D80000000000000566F6C756D650000000000EB
:100D9000000000000050616E6E696E670000000088
:100DA00000000000004D6978000000000000000015
:100DB000000000000052657065617420436F756E1D
:100DC00074000000005265736F6E616E6365000011
:100DD0000000000000547970650000000000000071
:100DE00000000000004761696E0000000000000084
:100DF000000000000057617665666F726D000000AC
:100E00000000000000446573742E20506172616D13
:100E10002E00000000436C6F636B2053796E6300FB
:100E20000000000000526574726967676572000017
:100E300000000000004F666673657400000000004B
:100E40000000000000446573742E20566F696365CE
:100E50000000000000536C6F70650000000000008F
:100E60000000000000446563617920436C6F736586
:100E700064000000004465636179204F70656E0076
:100E80000000000000526F6C6C205261746500001D
:100E900000000000004D6F7270680000000000004C
:100EA00000000000004E6F746500000000000000AC
:100EB000000000000050726F626162696C697479B1
:100EC00000000000004E756D6265720000000000B9
:100ED00000000000004C656E6774680000000000B0
:100EE00000000000005374657073000000000000F3
:100EF000000000000054656D706F000000000000ED
:100F00000000000000417564696F204F7574000097
:100F100000000000004D494449204368616E6E6541
:100F20006C0000000053616D706C65205261746547
:100F300000000000004E6578742050617474657282
:100F40006E00000000506861736500000000000042
:100F500000000000004D6F6465000000000000000C
:100F60000000000000566F6C756D65206D6F642E7B
:100F70000000000000466574636800000000000087
:100F80000000000000466F6C6C6F770000000000EE
:100F900000000000005175616E7469736174696FBF
:100FA0006E000000004175746F6D2E2054726163F5
:100FB0006B000000004175746F6D2E2044657374E2
:100FC0002E000000004175746F6D2E2056616C7507
:100FD000650000000053687566666C6500000000DF
:100FE000000000000053637265656E736176657280
:100FF00000000000005820506F736974696F6E0024
:1010000000000000005920506F736974696F6E0012
:101010000000000000466C75780000000000000031
:10102000000000000056656C6F6369747900000071
:1010300000000000000000000101010201020302A3
:101040000304020404030406040507050508050655
:101050000906070A06080B06090C07060E080A0D02
:10106000020B0809060F090C10090D110A06120AD5
:1010700006130A0E140A0E080B06060B05150B0FB5
:10108000160B10170B11180B12190B131A0B141B3C
:1010900002151C02161D021715010F150C0F0A0C64
:1010A00008080C061E0D0E1F0D06200E18210F1924
:1010B0002C103222101A23101B24101C250E1D2464
:1010C000111E26121F2706212806202906220D0E92
:1010D0000B2A0E232B01250A0108090907161310F4
:1010E0000713050A13262D14272E15282F1529302E
:1010F000152A16152B31152C32152D33122E000002
:101100000034162F351630361631081606371725D7
:10111000656E64006F6B0053657474696E6773006D
:101120004D6F7270684B6974004B697420202020E9
:10113000005061747465726E004C6F61643A006FA8
:101140006B0053657474696E6773004D6F727068DD
:101150004B6974005061747465726E20004B697441
:10116000202020202000536176653A004C6F616496
:10117000696E67207061747465726E005361766980
:101180006E67207061747465726E00456D7074795D
:1011900020202000456D707479202020000011244B
:1011A0001FBECFEFD0E1DEBFCDBF12E0A0E0B1E0C7
:1011B000E4E4F7E902C005900D92A632B107D9F731
:1011C0001EE0A6E2B2E001C01D92AE3BB107E1F71E
:1011D0000E942D2B0C94A04B0C94232B1F93182FA3
:1011E000877010930201882331F4812F86958695AC
:1011F0008695885E01C0805F61E00E94352A0E946A
:101200007B3E482F40648FEB612F0E94D70E1F91C9
:101210000895809102018F3FA1F0982F977039F4C3
:1012200087FD895F859585958595885E05C068E011
:101230000E94EA47892F805F60E00E94352A0E9461
:101240004B3E8FEF809302018FEB60E040E00E9405
:10125000D70E08958091020108950E940909809196
:1012600001018E3F29F08FEF8093010180E0089506
:1012700081E008952091390230913A022A5D3F4F72
:1012800030932B0220932A0280930101089520912C
:10129000390230913A0280912A0290912B028217F2
:1012A000930748F48091010187FD05C00E94EE0874
:1012B0008EEF8093010108959091870481E092FD63
:1012C00080E0089590912902662349F021E030E002
:1012D00002C0220F331F8A95E2F7292B09C021E0B3
:1012E00030E002C0220F331F8A95E2F720952923B0
:1012F0002093290280914102882329F080912902BC
:1013000080950E94B72808958091290280950E94B7
:10131000B72881E08093410208950F931F93182FFF
:101320000E945C09882309F45AC020915502277055
:1013300030E02130310561F12230310524F42115EE
:10134000310549F09BC02230310529F025303105A7
:1013500009F094C01DC000912802010F812F805F09
:101360000E9409290E947B3E182F0E94E12C612FC8
:101370006295607F8770682B89EB402F0E94D70EA3
:1013800082EB6FE0402F0E94D70E00936E0A76C06A
:10139000812F0E94D92C0E9479280E94E52A812F52
:1013A000805F61E00E94352A0E947B3E082F0E94E8
:1013B000E12C182F402F4295407F8770482B81EBFE
:1013C00063E00E94D70E82EB6CE1412F0E94D70EA2
:1013D00082EB69E1409142020E94D70E4FC02091FA
:1013E0005502277030E02130310581F1223031057E
:1013F00024F421153105F9F041C02230310521F0E6
:1014000023303105D9F537C000912802010F82EB56
:101410006FE0402F0E94D70E00936E0A0E94E52ACB
:10142000802F869586958695885E61E00E94352A94
:10143000802F87701BC0812F0E94B3370E94E8372E
:10144000812F0E94A0280E94193518C00E94783E62
:101450008A30A1F40E945C09882381F482EB6BE05E
:10146000412F0E94D70E0E94E52A812F805F61E004
:101470000E94352A03C0812F0E9489281F910F9155
:1014800008951F930E9479280E947B3E182F0E9486
:10149000E12C412F4295407F8770482B81EB63E020
:1014A0000E94D70E1F91089580E00E94B3378BE011
:1014B0000E94FE370E94410A8091000161E00E9473
:1014C000352A08951F93182F0E945C0981111C5F13
:1014D000177080915502887F812B809355020E945E
:1014E000E52A8091550287700E94882A80915502D2
:1014F000877090E08230910541F1833091053CF492
:10150000009751F18130910509F04AC00BC0853038
:101510009105E1F18730910561F18330910509F082
:101520003FC025C00E9443290E9479280E94D02AEA
:101530000E94F837809327028AE00E94FE3780E0FD
:101540000E94B3370E9419352BC00E94F8370E94C1
:10155000A0280E94540A24C00E947B3E0E94FE37AD
:101560000E94F8370E94A0280E94E83719C088E03E
:1015700015C00E94783E182F87E00E94FE37173072
:1015800079F40E94F8370E94B3370AC00E947B3E6C
:10159000482F82EB69E10E94D70E8CE00E94FE3753
:1015A0001F9108958091000160E00E94352A80E03B
:1015B000609100010E94E828089580914202809382
:1015C00026020E94F8378093270280E00E94B337FA
:1015D0008BE00E94FE370E94410A8091000161E089
:1015E0000E94352A08958091000160E00E94352A0A
:1015F00080E0609100010E94E8280E947928809193
:1016000026020E94FE37809127020E94B337089578
:101610000F931F93DF93CF930F92CDB7DEB7182FA1
:10162000062F8091000160E00E94352A80E06091E1
:1016300000010E94E828E0912802F0E0202F30E02D
:1016400083E0220F331F8A95E1F7E217F30721F4B5
:101650000E94F8370E94B337402F440F440F440FC5
:10166000409328021093000140936E0A812F61E09D
:1016700049830E94352A82EB6FE049810E94D70E90
:101680000E94410A0F90CF91DF911F910F91089511
:101690000F931F93082F162F80E0602F0E94E828D9
:1016A000110F110F110F1093280210936E0A00935F
:1016B000000182EB6FE0412F0E94D70E0E947B3E1B
:1016C000082F0E94E12C602F6295607F8770682B45
:1016D000412F4695469546958EEB0E94D70E1F9159
:1016E0000F9108950F931F93082F883120F48031B4
:1016F00008F092C057C08F3121F0823209F0A3C0A8
:1017000008C00E945C09882309F09DC00E94082C33
:101710009AC080913E02813029F480E00E94842C9E
:1017200010923E0280E064E00E94E8288091550219
:10173000877019F40E94F30A28C0809155028770BF
:10174000813051F40E94E52A0E9479288AE00E94A3
:10175000FE370E94D02A77C080915502877085306D
:1017600069F40E9479280E94E12C682F605F81E073
:101770000E94E8288CE00E94FE3707C08091550245
:101780008770823011F40E94540A8091550287704C
:10179000813029F00E947B3E0E94C92854C00E94DB
:1017A000840951C00E945C09882369F00E942D09B8
:1017B000882309F048C080915502877009F443C01E
:1017C0008091550240C0102F185E2091550227705D
:1017D00030E02130310599F02230310521F021151A
:1017E000310521F030C00E942D092DC00E942D0925
:1017F000882349F5812F602F0E94480B24C00830B0
:1018000010F5402F4F7082EB60E10E94D70E80E010
:10181000612F0E94E82817C080913E02823098F420
:101820000E942D09882379F48FEF809301010E9493
:101830005C09882341F080915502877021F4802F44
:1018400080510E948D091F910F910895EF92FF9290
:101850000F931F93CF93DF93082F0E94953E0F3174
:1018600038F4083108F090C0003108F42FC113C0DB
:10187000013209F465C0023238F40F3109F46BC14A
:10188000003209F0D8C138C0023209F481C10732F0
:1018900008F0D1C12CC080913E02823098F00E94A5
:1018A0001C2C902F9051882339F0892F62E00E94E0
:1018B000172C0E94582C78C0892F62E00E94122CAD
:1018C000802F87C080915502877061F40E945C0967
:1018D000882341F080912802880F880F880F80515B
:1018E000800F27C1802F80510E948D09A4C1802FB5
:1018F00083520E94620A9FC1809155028695869507
:101900008695817066E00E94E82880915502869550
:101910008695869580958170880F880F880F9091A5
:101920005502977F982B909355024091550246950A
:1019300046954695417082EB61E00E94D70E7BC1CF
:101940000E945C09882321F08EE00E94FE3773C15B
:101950008091550282958F70809581708295807FED
:10196000909155029F7E982B90935502809155023D
:101970008295817065E00E94E82840915502429569
:10198000417082EB6BE1D9CF80913E02823028F129
:101990000E941C2C902F98518823A9F0892F63E076
:1019A0000E94172C0E94362C0E94E52A0E947B3E42
:1019B000182F0E94E12C412F4295407F8770482BC1
:1019C00081EB63E0BACF892F63E00E94122C802F55
:1019D000805161E00E94352A2EC10E945C099091DD
:1019E00055029770913011F4981B892F8823D9F0F4
:1019F00008512091290230E0002E02C0359527952C
:101A00000A94E2F720FF07C0802F60E00E9462097D
:101A100082EB6AE006C0802F61E00E94620982EBDF
:101A200069E0402F8ACF809155028770813059F547
:101A3000C0E0D0E010E00751104091E0E92EF12C19
:101A40001EC08091290290E00C2E02C095958795CA
:101A50000A94E2F780FF12C082EB6AE04C2F0E94EA
:101A6000D70EC7010C2E02C0880F991F0A94E2F707
:101A70008095909129029823909329022196C0176E
:101A8000D107FCF2D6C00851802F0E94C92880914E
:101A90005502877019F4802F0E94FE3782EB65E1B2
:101AA000402F0E94D70E802F0E947E3E82EB69E17C
:101AB000402F0E94D70E809155028770823009F026
:101AC000BAC00E94E52A0E94540AB5C0102F185EC1
:101AD0000E945C09882399F080915502877021F457
:101AE000812F602F0E94080B8091550287708230F1
:101AF00009F0A1C0812F602F0E94480B9CC020914B
:101B00005502277030E021303105B1F02230310527
:101B100021F02115310549F08EC00E94E52A812F60
:101B2000602F0E94080B80E154CF802F880F880F10
:101B3000880F0E943A097FC0083008F07CC0402F0F
:101B40004F70405F82EB60E10E94D70E81E0612F11
:101B50000E94E82870C00E945C09882369F0809187
:101B60003E02813019F40E94C02C65C081E0809350
:101B70003E020E94842C5FC083E080933E028FE08F
:101B800061E00E94352A0E9479280E947E2853C075
:101B900081E064E00E94E82880915502877019F482
:101BA0000E94DD0A46C0809155028770813029F07D
:101BB0008091550287708530A9F58DE00E94FE372F
:101BC0000E9479280E94E52A80915502877085300D
:101BD00021F481E061E00E94352A8091A40A8823E3
:101BE000D1F0809140020E94D92C0E9443290E948A
:101BF0007B3E182F0E94E12C412F4295407F877039
:101C0000482B81EB63E00E94D70E40915A0282EB91
:101C10006CE10E94D70E0E94E12C805F61E00E947F
:101C2000352A07C0809155028770823011F40E94D6
:101C3000D20A0E948409DF91CF911F910F91FF90EA
:101C4000EF900895809155028770089587B1887F3D
:101C500087B988B1876088B9309902C080E001C037
:101C600083E0319B02C091E0892780932C0210927F
:101C7000570282E084BD84E085BD8EE487BD8091FB
:101C80006E00826080936E0010922D0281E080933E
:101C9000560208951F920F920FB60F9211242F93A0
:101CA0003F934F938F939F93309902C080E001C080
:101CB00083E0319B02C091E0892790912C02981B10
:101CC00090FF09C080932C0280915702815092703E
:101CD000890F8093570286B140912D0290E0847065
:101CE0009070242F332727FD30958217930711F426
:101CF0004093560286B1847080932D029F918F91FC
:101D00004F913F912F910F900FBE0F901F901895FC
:101D1000F89480915702982F93709093570278947B
:101D20008595859508959091560281E0911180E006
:101D3000089520E031E0DC01A9011D92415050409E
:101D4000E1F7FC01E050FF4F10828F5F9E4FDC01F6
:101D50001C920895FC01EF5FFE4F20812F5FDC0194
:101D6000A050BF4F3C91321741F03081830F911D3D
:101D7000DC016C93208381E0089580E00895FC01EC
:101D8000E050FF4F3081DC01AF5FBE4F2C91321726
:101D900061F02081820F911DDC018C91DB018C931D
:101DA00080818F5F808381E0089580E00895EF92C5
:101DB000FF920F931F93182F062FE42EFFB6F8946F
:101DC000812F0E9445288823D9F3802F0E9445281F
:101DD0008823D9F38E2D0E9445288823D9F3FFBE8E
:101DE0001F910F91FF90EF900895CF93DF93682F8D
:101DF000C0913202D09133029E0120583F4F2F3FB5
:101E0000310530F4F901EE0FFF1FE055F74F8083E5
:101E1000AE01475250404630510500F5AE014752E1
:101E2000C42FD0E0F901EE0FFF1FE055F74FDE01A0
:101E3000AA0FBB1FAE50B64F6C91615080810E94BB
:101E4000EC2C682F661F6627661FCF73D070CC0FEF
:101E5000DD1F6C2B482F4F7787EB21C0AE0145511A
:101E6000504046305105F0F4F901EE0FFF1FE055E8
:101E7000F74F8081803408F08FE3AE014551642F25
:101E80000E94EC2C682F661F6627661F9091320215
:101E900095519F73990F692B482F4F7788EB0E94BC
:101EA000D70E0BC09E01285E33402730310528F441
:101EB0009E01285E822F0E946209DF91CF910895D2
:101EC0001F93109159021150153029F480915A0234
:101ED0000E94F50E21C0113649F480915A0290E01B
:101EE0002091320230913302207810C01236A1F4D2
:101EF00080915A0290E09695982F8827979587951C
:101F000020913202309133022F773070822B932B45
:101F1000909333028093320280915A02E12FF0E0D5
:101F2000EE0FFF1FE055F74F80830E94832F1F9114
:101F30000895EF92FF921F93CF93DF9387FF05C021
:101F4000109231028093580220C290915802903F23
:101F500009F098C090912E02913009F04AC09091FA
:101F60003102973028F4E92FF0E0E55AFD4F68C0C0
:101F700020E030E0A1E0B0E090E067E070E0F9013F
:101F8000E55AFD4F1081AD01022E02C0440F551FCE
:101F90000A94E2F748235923EB01C21BD30B0C2E02
:101FA00002C0440F551F0A94E2F7142B10832F5FD1
:101FB0003F4F2730310519F780915B028093620211
:101FC00080915C028093630280915D028093640241
:101FD00080915E028093650280915F028093660229
:101FE0008091600280936702809161028093680211
:101FF00015C09530C9F4E0913102EE2319F48093B5
:102000005B0246C0F0E0E55AFD4F808390915B0291
:1020100080915C02909362028093630281E08093DE
:102020002F0210923102B1C1933009F0AEC19091EC
:102030003102292F30E0923040F4255A3D4FF9010A
:1020400080839F5F90933102A0C1255A3D4FF901D3
:10205000808340915B0280915C0250915D0290E030
:102060009695982F882797958795352F3295330F1A
:10207000330F307C20E0822B932B242F30E0822BF7
:10208000932BC8CF90913102992331F48093590258
:1020900081E08093310279C180935A02109231021B
:1020A00080915802803B19F40E94600F6EC18091AC
:1020B0005802843BF9F480915A0286FF02C01092C4
:1020C0003002209130029091590280915A02E22F01
:1020D000F0E0EA54F14F8795882787959F77892B01
:1020E0008083822F8F5F877080933002882309F06E
:1020F0004CC10EC0809158028A3B69F4809159020C
:1021000090915A02879588278795892B80937C0A1E
:102110000E9419353AC1809158028B3B59F4809145
:10212000590290915A02879588278795892B809329
:102130007E0AEECF809158028C3B59F4809159026F
:1021400090915A02879588278795892B8093800ADA
:10215000DFCF809158028D3B59F4809159029091C4
:102160005A02879588278795892B8093820AD0CF3A
:1021700080915802823B09F092C0809159028731C8
:1021800079F1883170F48231A9F1833120F48B30F8
:1021900009F0FBC03EC08331B9F1843109F0F5C0CC
:1021A0002EC08D3161F08E3120F4883109F0EDC000
:1021B0001CC08E3149F0863209F0E7C00CC0809116
:1021C0005A028093860A04C080915A028093880A3A
:1021D0000E94832FDAC080915A0280938A0AF8CF36
:1021E00080915A028093760AF3CF80915A028093AD
:1021F000780AEECF80915A028093700A89CF80913D
:102200005A028093720A84CF80915A028093740A92
:102210007FCF80915A02883008F0B7C080915A026F
:10222000805F60E00E94352A8091A40A882319F11A
:10223000809142028D30D9F080915A020E94D92CAF
:102240000E9443290E947B3E182F0E94E12C412FBF
:102250004295407F8770482B81EB63E00E94D70E48
:1022600040915A0282EB6CE10E94D70E04C080912B
:102270005A028093400280915A02809344020E9445
:10228000220E813029F00E94220E853009F07DC097
:102290000E9479280E94E52A0E94D02A76C0809167
:1022A0005802813B09F064C080915902823009F4E0
:1022B0004CC0833020F4813009F067C006C0843000
:1022C00009F1853009F061C026C080915A0287FD6E
:1022D0005CC00E94E12C90914402891781F48091A6
:1022E0004202873038F08A3029F08B3019F08C3078
:1022F00009F04BC080915A020E940E2B46C00E94EA
:10230000092B43C080915A02882311F081E001C05B
:1023100080E066E02AC00E945C09882321F40E94C4
:10232000220E823091F560915A026F774091280217
:10233000641758F1842F90E00796262F30E082171B
:1023400093071CF1641B605F0FC0809142028A30CA
:10235000E1F060915A0270E06F777070E3E075957C
:102360006795EA95E1F7685E81E00E94E8280DC074
:1023700080915802803949F480915902873028F4BD
:1023800080915902885F0E944E29DF91CF911F9161
:10239000FF90EF9008951F93182F812F0E944528DA
:1023A0008823D9F31F910895439A85E88A95F1F718
:1023B00000004398089595B1907F95B995B18295A5
:1023C0008F70892B85B90E94D41108951F93182FFF
:1023D000449A0E94DB11812F8295807F0E94DB113D
:1023E00085EE90E00197F1F700C000001F9108957D
:1023F0001F93182F44980E94DB11812F8295807FB4
:102400000E94DB1181ED90E00197F1F700C0000020
:102410001F91089581E00E94F8118FE097E20197E3
:10242000F1F700C00000089584B18F6084B987B1CE
:10243000886187B985B1807F85B988B1877E88B981
:102440008FE59AEEA0E081509040A040E1F700C0F7
:10245000000080E30E94DB11A7EAB1E61197F1F7D3
:1024600000C000000E94D41187E893E10197F1F7C2
:1024700000C000000E94D411A7E8B3E11197F1F762
:1024800000C0000080E20E94DB1187EA91E601971C
:10249000F1F700C000008AE20E94F8118CE00E946F
:1024A000F81186E00E94F8110E940A12089582E055
:1024B0000E94F8118FE097E20197F1F700C0000049
:1024C0000895623061F0633018F4613079F405C02A
:1024D000633039F0643051F406C0805805C0805430
:1024E00003C0805701C080530E94F8110895EF92F5
:1024F000FF92CF93DF93E82EE7017E01F92EE701EB
:1025000002C00E94E61189918823D9F7DF91CF910B
:10251000FF90EF900895CF93DF93EC0105C02196D3
:10252000FC0184910E94E611CE01FE012491222338
:10253000B1F7DF91CF9108950F931F93882309F08E
:102540004BC0809103018160809303010E94262685
:102550000AE00E94FF24182F882331F10150C9F7A7
:102560000E9457120E940A1282EA90E00E948B1287
:1025700080E062E00E946112113019F484E990E079
:1025800007C0123019F489E890E002C08BE790E0B0
:102590000E948B128FEF91E1AAE781509040A040FA
:1025A000E1F700C0000015C00E94571280E790E0DC
:1025B0000E948B1281E58CBD81E08DBDA7EAB1E65A
:1025C0001197F1F700C00000809103018E7F809386
:1025D00003018091030101C081E01F910F910895D3
:1025E000882319F480910301089581E00895AF9242
:1025F000BF92CF92DF92EF92FF920F931F93CF93F0
:10260000DF935B0169017A018823A9F4002399F023
:102610008091030180FD11C0C0E0D0E010E006C051
:10262000C701B601A5010E9484252196C017D107D4
:10263000BCF380E003C084E001C083E0DF91CF9170
:102640001F910F91FF90EF90DF90CF90BF90AF90D0
:102650000895AF92BF92CF92DF92EF92FF920F93C5
:102660001F93CF93DF935B0169017A018823A9F45B
:10267000002399F08091030180FD11C0C0E0D0E0FB
:1026800010E006C0C701B601A5010E94C72521962A
:10269000C017D107BCF380E003C084E001C083E031
:1026A000DF91CF911F910F91FF90EF90DF90CF902E
:1026B000BF90AF900895882399F48091030180FD25
:1026C00011C0623058F0633079F481E090E0A0E00E
:1026D000B0E0FA0180839183A283B38380E0089500
:1026E00084E0089583E0089584E0089560E070E058
:1026F000CB010895282F392FD901862F972FFC0160
:1027000004C081918D934150504041155105C9F746
:102710000895FC01009779F08081882361F086811B
:1027200097818617970739F481810E94F01280FF04
:1027300004C083E0089589E0089580E008956F92D1
:102740007F928F929F92AF92BF92CF92DF92EF9241
:10275000FF920F931F93CF93DF93EC014A015B012C
:10276000CAA4DBA4ECA4FDA4C416D506E606F706AD
:1027700009F44CC08C818823A1F18EE2682E712C63
:102780006C0E7D1E8981B301A701960101E00E94B4
:1027900029138823E9F51C828A8D9B8DAC8DBD8D14
:1027A0002E8D3F8D48A159A1820F931FA41FB51FE5
:1027B000C816D906EA06FB06A0F41B8110C08A8D54
:1027C0009B8DAC8DBD8DC80ED91EEA1EFB1E898166
:1027D000B301A701960101E00E94291311501230A4
:1027E00070F781149104A104B10481F0BE01625D0F
:1027F0007F4F8981A501940101E00E94F71288238F
:1028000039F48AA69BA6ACA6BDA603C080E001C091
:1028100081E0DF91CF911F910F91FF90EF90DF90BA
:10282000CF90BF90AF909F908F907F906F900895C2
:102830000F93CF93DF93EC019A01AB01BC01625D72
:102840007F4F898101E00E94F712882309F082C03E
:10285000FE01E35DFD4F308120E0FE01E45DFD4FB0
:10286000808190E0822B932B2AEA8535920709F02C
:1028700073C0FE01E959FF4F808190E0A0E0B0E015
:10288000B82FAA2799278827FE01EA59FF4F2081F0
:1028900030E040E050E0A90133272227822B932B20
:1028A000A42BB52BFE01EC59FF4F208130E040E016
:1028B00050E0822B932BA42BB52BFE01EB59FF4F3D
:1028C000308120E040E050E0822B932BA42BB52BED
:1028D000B070863421E4920724E5A20720E0B20715
:1028E000E9F1FE01ED57FF4F208130E040E050E07C
:1028F000522F442733272227FE01EE57FF4F8081B6
:1029000090E0A0E0B0E0DC0199278827282B392B44
:102910004A2B5B2BFE01E058FF4F808190E0A0E046
:10292000B0E0282B392B4A2B5B2BCF57DF4F9881F8
:1029300080E0A0E0B0E0282B392B4A2B5B2B5070B5
:1029400081E0263491E4390794E5490790E059077E
:1029500031F404C083E003C082E001C080E0DF9175
:10296000CF910F9108953F924F925F926F927F9215
:102970008F929F92AF92BF92CF92DF92EF92FF928F
:102980000F931F93DF93CF93CDB7DEB72E970FB67C
:10299000F894DEBF0FBECDBFFC01E42EA081B18153
:1029A0008C9190E0C0978A30910558F411962C9143
:1029B00011972A3331F41296B183A083009709F05E
:1029C000ADC320913402309135023E872D87DB0163
:1029D00011963C932E932115310509F4A1C3F901F9
:1029E0008081882359F081810E94F01280FD06C009
:1029F000EE2009F497C382FF95C398C3AD85BE85C9
:102A00001C9211961C9280E00E949C1280FD8CC347
:102A1000EE2011F082FD8AC38D859E8540E050E056
:102A2000BA010E941814813009F046C0ED85FE8578
:102A3000E051FE4F8081882309F47CC3ED85FE853B
:102A4000E950FE4F808190E0A0E0B0E0582F44278D
:102A500033272227ED85FE85EA50FE4F808190E0E6
:102A6000A0E0B0E0DC0199278827282B392B4A2BDE
:102A70005B2BED85FE85EC50FE4F808190E0A0E061
:102A8000B0E0282B392B4A2B5B2BED85FE85EB50D4
:102A9000FE4F908180E0A0E0B0E0282B392B4A2B3C
:102AA0005B2B29833A834B835C838D859E85BA019A
:102AB000A9010E94181404C019821A821B821C8268
:102AC000833009F435C3882309F034C3AD85BE854E
:102AD000DA963C91DA9720E0D9968C91D99790E0DC
:102AE000822B932BB2E080309B0709F023C3ED8546
:102AF000FE85EB5BFF4F908180E0ED85FE85EC5B12
:102B0000FF4F60807724682A792A882499246114E9
:102B100071048104910499F5ED85FE85EB5AFF4F10
:102B20006080772488249924962C8824772466242E
:102B3000ED85FE85EC5AFF4F808190E0A0E0B0E08B
:102B4000DC0199278827682A792A8A2A9B2AED8519
:102B5000FE85EE5AFF4F808190E0A0E0B0E0682A49
:102B6000792A8A2A9B2AED85FE85ED5AFF4F9081AE
:102B700080E0A0E0B0E0682A792A8A2A9B2AED85C5
:102B8000FE85628E738E848E958E26AD2383822F72
:102B90008150823008F0CEC233AC3282332009F447
:102BA000C9C2432D50E0CA010197842395230097A1
:102BB00009F0C0C2ED85FE85E05CFF4F908180E0AA
:102BC000AD85BE85DF964C90DF975524482A592A5B
:102BD00019965C924E921897C2018F709070009770
:102BE00009F0A8C2FD01EE5BFF4F908180E0FD017E
:102BF000EF5BFF4FE080FF24E82AF92A00E010E0B5
:102C0000E114F1040105110589F5FD01EF5AFF4FAB
:102C1000E080FF2400E010E01E2D0027FF24EE24BA
:102C2000FD01E05BFF4F808190E0A0E0B0E0DC01BF
:102C300099278827E82AF92A0A2B1B2BED85FE8580
:102C4000E25BFF4F808190E0A0E0B0E0E82AF92A43
:102C50000A2B1B2BED85FE85E15BFF4F908180E009
:102C6000A0E0B0E0E82AF92A0A2B1B2BED85FE85AF
:102C700095AD80E0A4ACBB24A82AB92AA114B10464
:102C800009F458C230E040E050E0C401B3010E94B2
:102C9000BF476D837E838F839887950140E050E026
:102CA00029873A874B875C875201B4E0B694A79492
:102CB000BA95E1F7CC24DD24A20EB31EC41ED51EA6
:102CC000A60EB71EC81ED91EEA14FB040C051D056E
:102CD00008F430C2C801B7016A197B098C099D0943
:102CE000232D30E040E050E00E94F74721153105E8
:102CF0004105510509F41EC2263F8FE0380780E0E8
:102D0000480780E0580758F0263F9FEF390790E0CA
:102D1000490790E0590730F4A2E03A2E05C0332469
:102D2000339402C0F3E03F2EE2E0EE2EF12C012DB1
:102D3000112DE20EF31E041F151FAD85BE8556969C
:102D4000ED92FD920D931C93599729813A814B8105
:102D50005C81A20EB31EC41ED51E9696AD92BD9286
:102D6000CD92DC92999759016A0129853A854B8564
:102D70005C85A20EB31EC41ED51E5E96AD92BD929A
:102D8000CD92DC929197B32DB33009F047C0411436
:102D9000510409F0CFC1ED85FE85E35AFF4F8081D4
:102DA00090E0A0E0B0E0B82FAA2799278827ED850A
:102DB000FE85E45AFF4F208130E040E050E0A90159
:102DC00033272227822B932BA42BB52BED85FE8551
:102DD000E65AFF4F208130E040E050E0822B932BF9
:102DE000A42BB52BED85FE85E55AFF4F308120E001
:102DF00040E050E0822B932BA42BB52BED85FE8574
:102E000082A393A3A4A3B5A3D801C70152E0880F5E
:102E1000991FAA1FBB1F5A95D1F72DC04114510409
:102E200009F488C18D819E81AF81B8858A0D9B1D73
:102E3000AC1DBD1DED85FE8582A393A3A4A3B5A300
:102E4000D801C701880F991FAA1FBB1FF32DF230AD
:102E500091F08E0D9F1DA01FB11FB695A795979558
:102E60008795A80197012170307040705070820FD3
:102E7000931FA41FB51F81509E4FAF4FBF4F29E036
:102E8000B695A795979587952A95D1F768167906EF
:102E90008A069B0608F44EC18FEF9FEFDC01ED859B
:102EA000FE8586879787A08BB18B12861386148642
:102EB0001586B32DB33009F019C11582ED85FE8555
:102EC000E15AFF4F908180E0ED85FE85E25AFF4F89
:102ED000208130E0282B392B40E050E089819A8115
:102EE000AB81BC81280F391F4A1F5B1FAD85BE8592
:102EF00052962D933D934D935C935597BD01625D22
:102F00007F4F11968C9101E00E94F712882309F0FF
:102F1000EDC0ED85FE85E35DFD4F308120E0ED8560
:102F2000FE85E45DFD4F808190E0822B932BBAEA11
:102F300085359B0709F0DAC0ED85FE8581A990E013
:102F4000A0E0B0E0B82FAA279927882720A930E071
:102F500040E050E0A90133272227822B932BA42B9A
:102F6000B52B26A530E040E050E0822B932BA42B1C
:102F7000B52B37A520E040E050E0822B932BA42B0B
:102F8000B52B8235F2E59F07F1E6AF07F1E4BF0705
:102F900009F0ACC0ED85FE85EB5EFD4F808190E0D1
:102FA000A0E0B0E0B82FAA2799278827ED85FE85F5
:102FB000EC5EFD4F208130E040E050E0A901332776
:102FC0002227822B932BA42BB52BED85FE85EE5E5D
:102FD000FD4F208130E040E050E0822B932BA42B6A
:102FE000B52BED85FE85ED5EFD4F308120E040E0A4
:102FF00050E0822B932BA42BB52B823722E792072C
:1030000021E4A20721E6B20709F070C0ED85FE8534
:10301000E35EFD4F808190E0A0E0B0E0B82FAA27EA
:1030200099278827ED85FE85E45EFD4F208130E0FD
:1030300040E050E0A90133272227822B932BA42BB9
:10304000B52BED85FE85E65EFD4F208130E040E04A
:1030500050E0822B932BA42BB52BED85FE85E55EEE
:10306000FD4F308120E040E050E0822B932BA42BD9
:10307000B52BED85FE8582879387A487B587E75EAC
:10308000FD4F808190E0A0E0B0E0B82FAA279927FB
:103090008827ED85FE85E85EFD4F208130E040E029
:1030A00050E0A90133272227822B932BA42BB52B89
:1030B000ED85FE85EA5EFD4F208130E040E050E086
:1030C000822B932BA42BB52BED85FE85E95EFD4F5E
:1030D000308120E040E050E0822B932BA42BB52BD5
:1030E000ED85FE8586879787A08BB18BAD85BE85E4
:1030F0003C9280913602909137020196909337026C
:103100008093360217969C938E931697ED85FE85D5
:1031100012A613A614A615A6148204C08BE00BC039
:103120008CE009C080E007C083E005C08AE003C0EE
:1031300081E001C08DE02E960FB6F894DEBF0FBE81
:10314000CDBFCF91DF911F910F91FF90EF90DF9056
:10315000CF90BF90AF909F908F907F906F905F9037
:103160004F903F900895CF93DF93EC01CB01BA01CC
:1031700062507040804090402E893F89488D598D23
:103180002250304040405040621773078407950733
:1031900088F42A8130E040E050E00E94BF479B0164
:1031A000AC018EA19FA1A8A5B9A5280F391F4A1F60
:1031B0005B1F03C020E030E0A901B901CA01DF9123
:1031C000CF910895BF92CF92DF92EF92FF920F932B
:1031D0001F93CF93DF93EC016A017B0142305105CD
:1031E0006105710508F4CAC08E899F89A88DB98DC3
:1031F000481759076A077B0708F0C0C088818230EA
:1032000009F455C0833009F474C0813009F0BBC0A3
:103210008A0116950795040F151FA801452F5527FC
:10322000469560E070E08E8D9F8DA8A1B9A1480FF2
:10323000591F6A1F7B1FCE010E949F13882309F02C
:10324000A2C0F801F170EC0FFD1FB6A40F5F1F4F75
:10325000A801452F5527469560E070E08E8D9F8D23
:10326000A8A1B9A1480F591F6A1F7B1FCE010E9458
:103270009F13882309F087C02B2D30E011700C0FAD
:103280001D1FF80196A580E0282B392BE601C1709F
:10329000D070209731F044E0369527954A95E1F7B4
:1032A00025C040E050E03F70407050706FC0452F27
:1032B000562F672F77278E8D9F8DA8A1B9A1480F14
:1032C000591F6A1F7B1FCE010E949F13882309F09C
:1032D0005AC0B601660F771F7170FE01E60FF71F27
:1032E00026A530E097A580E0282B392B40E050E060
:1032F0004DC097E076956795579547959A95D1F784
:103300008E8D9F8DA8A1B9A1480F591F6A1F7B1FE1
:10331000CE010E949F138823B1F5B601660F771F77
:10332000660F771F7170FB01BE96EC0FFD1F2281A7
:1033300030E040E050E0A90133272227838190E06C
:10334000A0E0B0E0B82FAA2799278827282B392B8F
:103350004A2B5B2B918180E0A0E0B0E0282B392B39
:103360004A2B5B2BC60FD71F8EA590E0A0E0B0E0E4
:10337000282B392B4A2B5B2B5F7008C021E030E0F3
:1033800040E050E003C02FEF3FEFA901B901CA01AF
:10339000DF91CF911F910F91FF90EF90DF90CF9031
:1033A000BF9008950F931F93CF93DF93EC011D827D
:1033B0001C824E815F8168857985413051056105A8
:1033C000710509F467C008811981F8018689978918
:1033D000A08DB18D481759076A077B0708F05AC0BE
:1033E0004115510561057105F9F48081833049F477
:1033F00042A153A164A175A1411551056105710553
:1034000099F41A861B861C861D86F8018085918595
:10341000009709F43FC082A193A1A4A1B5A18E8712
:103420009F87A88BB98B2EC0F80182818823F9F47D
:10343000888199810E94E218AB01BC014F3FFFEFE8
:103440005F07FFEF6F07FFEF7F0711F14230510574
:1034500061057105F8F0E881F98186899789A08D69
:10346000B18D481759076A077B0710F313C04A87C5
:103470005B876C877D87C8010E94B3186E877F8742
:10348000888B998B025D1F4F1B8B0A8B80E003C0DA
:1034900081E001C082E0DF91CF911F910F910895EB
:1034A0008F929F92AF92BF92CF92DF92EF92FF9254
:1034B0000F931F93CF93DF93EC016A017B014801C7
:1034C0005901423051056105710508F4D0C08E895B
:1034D0009F89A88DB98D481759076A077B0708F09F
:1034E000C6C08881823009F46AC0833009F483C081
:1034F000813009F0B8C08A01169507950C0D1D1D85
:10350000A801452F5527469560E070E08E8D9F8D70
:10351000A8A1B9A1480F591F6A1F7B1FCE010E94A5
:103520009F13882309F0A0C0C8019170A1E0CA22AE
:10353000DD24C114D10451F0FE01E80FF91F36A5B6
:103540003F70282D2295207F232B01C0282D8C0F22
:103550009D1FFC0126A70F5F1F4F81E08C83A801F0
:10356000452F5527469560E070E08E8D9F8DA8A170
:10357000B9A1480F591F6A1F7B1FCE010E949F13DC
:10358000882309F071C01170C114D10449F094E08E
:10359000B694A794979487949A95D1F7982D08C0DC
:1035A000FE01E00FF11F96A5907F292D2F70922B21
:1035B0000C0F1D1FD8019E969C939E9755C0452FBA
:1035C000562F672F77278E8D9F8DA8A1B9A1480F01
:1035D000591F6A1F7B1FCE010E949F13882309F089
:1035E00043C09601220F331F3170FE01E20FF31F1B
:1035F00086A697A639C017E07695679557954795A3
:103600001A95D1F78E8D9F8DA8A1B9A1480F591F8A
:103610006A1F7B1FCE010E949F13882329F5B601E4
:10362000660F771F660F771F7170FB01BE96EC0F58
:10363000FD1F238130E040E050E0522F4427332724
:1036400022276C0F7D1F207030704070507F28291A
:1036500039294A295B29DB019E962C939E97318359
:103660004283538301C082E091E09C8301C082E0E9
:10367000DF91CF911F910F91FF90EF90DF90CF904E
:10368000BF90AF909F908F9008954F925F926F92EE
:103690007F928F929F92AF92BF92CF92DF92EF92E2
:1036A000FF920F931F93CF93DF93EC012A013B010D
:1036B000411551056105710599F48A849B84AC8498
:1036C000BD8481149104A104B10409F18E899F89FC
:1036D000A88DB98D88169906AA06BB06C0F41CC031
:1036E0000E94E2189B01AC016230710581059105D1
:1036F00008F493C08E899F89A88DB98D2817390742
:103700004A075B0708F48DC05301420105C061E020
:10371000862E912CA12CB12C750164010894C11C3A
:10372000D11CE11CF11C8E899F89A88DB98DC8160A
:10373000D906EA06FB0660F022E082169104A10495
:10374000B10408F463C052E0C52ED12CE12CF12C59
:10375000CE01B701A6010E94E2189B01AC016115E0
:10376000710581059105A9F02F3F8FEF38078FEF85
:1037700048078FEF580709F454C02130310541053F
:10378000510509F44EC0C814D904EA04FB0431F60B
:103790003DC08C2CBD2CAE2C9F2CCE01A601B701B8
:1037A0000FEF1FEF2FEF3FE00E94501A882341F5E3
:1037B000411451046104710449F0CE01B301A20126
:1037C000860197010E94501A8823D1F48A86BB860D
:1037D000AC869D868E859F85A889B9898F3F2FEFFE
:1037E00092072FEFA2072FEFB207A1F00197A109CF
:1037F000B1098E879F87A88BB98B81E08D830AC022
:10380000813059F42FEF3FEFA9010BC020E030E0E9
:10381000A90107C0A701960104C021E030E040E003
:1038200050E0B901CA01DF91CF911F910F91FF9034
:10383000EF90DF90CF90BF90AF909F908F907F9050
:103840006F905F904F9008958F929F92AF92BF922A
:10385000CF92DF92EF92FF920F931F93CF93DF935C
:10386000EC015B01CC80DD800894C11CD11CC1142B
:10387000D10409F4EDC08E859F85A889B989009788
:10388000A105B10509F4E4C01FE0812E912C8C2024
:103890009D208114910409F0CBC00196A11DB11D9A
:1038A0008E879F87A88BB98B4A855B856C857D85C4
:1038B00088819981411551056105710541F4FC012B
:1038C00080859185C816D90608F4B2C0C1C0FC0134
:1038D000228130E021503040F601A4E0F695E795D2
:1038E000AA95E1F72E233F232115310509F0A0C049
:1038F0000E94E2187B018C016230710581059105FF
:1039000008F4AAC08FEFE8168FEFF8068FEF0807CC
:103910008FEF180709F4A2C088819981FC012689DC
:103920003789408D518DE216F3060407150708F418
:1039300071C0A114B10409F48BC04A855B856C8504
:103940007D850E94451B7B018C01611571058105F8
:10395000910509F47FC0613071058105910509F475
:103960007BC08FEFE8168FEFF8068FEF08078FEF19
:10397000180709F473C08881998140E050E0BA01CA
:103980000E949F13882309F069C088819981FC01F6
:10399000BE96825D9D4F01C01192E817F907E1F7CD
:1039A000A880B980C501B801A7010E94B318F5012C
:1039B00062A773A784A795A7BB24AA24A39419C0C0
:1039C000A4828881998140E050E0BA010E949F134F
:1039D000882309F043C0E881F98182A593A5A4A5B5
:1039E000B5A50196A11DB11D82A793A7A4A7B5A750
:1039F000B394E881F9818281B81610F382A593A56A
:103A0000A4A5B5A58B199109A109B10982A793A70E
:103A1000A4A7B5A7EA86FB860C871D8788819981B4
:103A2000B801A7010E94B3186E877F87888B998B96
:103A3000DD82CC82888199818E9675E0880C991CF4
:103A40007A95E1F7880D991D9B8B8A8B80E007C0E2
:103A500084E005C087E003C082E001C081E0DF911F
:103A6000CF911F910F91FF90EF90DF90CF90BF907B
:103A7000AF909F908F9008952F923F924F925F92B8
:103A80006F927F928F929F92AF92BF92CF92DF926E
:103A9000EF92FF920F931F93CF93DF93EC01DB0123
:103AA0008C918F3211F08C3511F46F5F7F4F1E8235
:103AB0001F8218861986FB018081803230F4CE0186
:103AC0000E94D2191B8A1A8AECC090E2592E85E016
:103AD000482EFB018F01808131968F32D9F38C35CE
:103AE000C9F3EC89FD89DF018CE090E001C05D92B3
:103AF0000197E9F7180180E090E0EE24FF2428E028
:103B000030E09924D1018D901D010894E11CF11C35
:103B1000B82DB13208F448C0BF3209F447C0BC35F3
:103B200009F444C0BE3219F08217930778F02830A8
:103B3000310509F0B3C0482D4E3209F0AFC0990CE1
:103B4000990C88E090E02BE030E0DCCF87FE08C0E5
:103B5000A3E09A2A482D50E04D565F4FDA018C9031
:103B6000C82CDD2444E051E0DA016D91AD016623FB
:103B700029F070E06C157D05B9F790C0482D4154CF
:103B80004A3118F4B2E09B2A08C0482D41564A3108
:103B900020F441E0942AA0EE8A0EBF01680F791F3D
:103BA000DB018C920196AECF44E001C040E000976B
:103BB00009F474C08081853E09F4408228303105C3
:103BC00011F4990C990C892D90E09C0123703070B0
:103BD0002130310509F440618C709070843091057A
:103BE00009F448604387CE010E94D219882329F541
:103BF0004E855F8568897989888199810E949F13A4
:103C00008823D9F4EA89FB8990819923A9F09385C7
:103C100093FD0CC0AC89BD899F01255F3F4FE21722
:103C2000F30759F041919D914917C9F3CE0160E026
:103C300070E00E94241CDACF84E0EC89FD89938532
:103C4000882329F0843069F592FF2AC02AC092FDAA
:103C500028C02A893B89F901838584FF21C0B801E6
:103C60006E0D7F1D75886624848990E086299729CA
:103C7000A0E0B0E0DC0199278827B38CAA24228D2C
:103C800030E02A293B2940E050E0822B932BA42BE3
:103C9000B52B8E839F83A887B9871BCF86E001C091
:103CA00085E0DF91CF911F910F91FF90EF90DF9012
:103CB000CF90BF90AF909F908F907F906F905F90CC
:103CC0004F903F902F900895882391F4E091340213
:103CD000F0913502309709F010826115710511F0ED
:103CE000FB011082709335026093340280E00895E6
:103CF0008BE008952F923F924F925F926F927F9246
:103D00008F929F92AF92BF92CF92DF92EF92FF92EB
:103D10000F931F93DF93CF93CDB7DEB7AD970FB659
:103D2000F894DEBF0FBECDBF6C017CA36BA3DC019A
:103D30001D921C92B42FBF71BDA35DE0E52EF12C46
:103D4000EC0EFD1E4E71CE018396B7010E94B31496
:103D5000182FCE0101969AA389A3112331F46BA1E8
:103D60007CA1C7010E943C1D182FEF8CF8A01123E5
:103D700021F4E114F10409F416E0EDA18E2F90E096
:103D80009C012C7130702115310509F402C11123F9
:103D900009F44DC0143009F041C04DE0E42EF12C7F
:103DA000EC0EFD1EC7010E94D219182F8823B1F511
:103DB000AE2CEF2C4B8D5C8D6D8D7E8D8D859E8513
:103DC0000E949F13182F882349F5EF8DF8A1808159
:103DD000853E09F480C1882309F47DC18A2D9E2D7A
:103DE00061E070E00E94241C182F882319F316C08C
:103DF0008F8D98A1282F392FF90121E230E001C0E1
:103E0000119221503040E1F769A17AA14BE050E0D6
:103E10000E947A13ED85FE8581E08483EF8CF8A003
:103E2000112309F03EC1FDA1F860FDA309C0D7012F
:103E30001B962C911B97217109F075C1E2FD58C1A9
:103E4000BDA1B3FFB3C00E947613F70166877787E1
:103E5000808B918B1386148E158E168E178E9589F6
:103E600080E024883324282A392A44245524210137
:103E700033242224338D20E0828D90E0822B932BFB
:103E8000A0E0B0E0282A392A4A2A5B2A128E138E33
:103E9000148A158AAD84BE8481E0D50114968C9372
:103EA0001497211431044104510409F47FC09A96F7
:103EB0008D919D910D90BC91A02D8AA79BA7ACA739
:103EC000BDA7B1E02B1631044104510409F45DC0D3
:103ED000F50186899789A08DB18D281639064A0685
:103EE0005B0608F052C04201310143C0C501B40174
:103EF000A3010E94E2186EA37FA388A799A761156A
:103F000071058105910509F4F5C0613071058105E0
:103F10009105D9F16F3FFFEF7F07FFEF8F07FFEFAD
:103F20009F07A9F1C501B401A30100E010E09801C9
:103F30000E94501A182F882309F0B3C0F501868516
:103F40009785A089B1898F3FFFEF9F07FFEFAF07EC
:103F5000FFEFBF0751F00196A11DB11DF501868746
:103F60009787A08BB18B21E025836EA07FA088A4CA
:103F700099A4F50186899789A08DB18D6816790677
:103F80008A069B0608F4B2CFB5C012E08AC011E0E1
:103F900088C0112309F085C0D7011B962C911B976F
:103FA00024FDBFC0E1FF02C020FDBDC0BDA1B3FF25
:103FB00002C0B062BDA36D857E85FB0122A533A53D
:103FC00044A555A5D6015A962D933D934D935C93E8
:103FD0005D975F96FC92EE925E97EDA11496EC933E
:103FE000D70155963C91559720E054968C9190E0DE
:103FF000822B932BA0E0B0E0DC0199278827F70102
:10400000538D40E0228D30E0242B352B40E050E0F2
:10401000822B932BA42BB52BF60186879787A08B39
:10402000B18BD7015F968C9190E0A0E0B0E0B82F03
:10403000AA2799278827F701268D30E040E050E035
:10404000A90133272227822B932BA42BB52B248D58
:1040500030E040E050E0822B932BA42BB52B358D24
:1040600020E040E050E0822B932BA42BB52BF601EF
:1040700082879387A487B587D60116961D921D92D5
:104080001D921C921997168A178A108E118E7183B1
:104090006083DB0116968D919C91179793838283A1
:1040A00010E0812FAD960FB6F894DEBF0FBECDBFE6
:1040B000CF91DF911F910F91FF90EF90DF90CF9004
:1040C000BF90AF909F908F907F906F905F904F9038
:1040D0003F902F9008954B8D5C8D6D8D7E8D8D85DD
:1040E0009E850E949F13182F882309F481CE96CEB7
:1040F00018E0D7CF8D859E850894210831084108A6
:104100005108FC0122863386448655864AA55BA564
:104110006CA57DA50E949F13182F882309F446CF14
:10412000C0CF14E0BECF17E0BCCF2F923F924F928A
:104130005F926F927F928F929F92AF92BF92DF9227
:10414000EF92FF920F931F93DF93CF9300D000D095
:10415000CDB7DEB79C838B83062FA72E7A013A83D7
:104160002983D9011D921C92FC0162817381808197
:1041700091810E948913D82E882309F045C1AB8113
:10418000BC8114968C91149787FD39C180FF3AC188
:104190001A968D919D910D90BC91A02DEB81FC8183
:1041A0002681378140855185821B930BA40BB50B6B
:1041B000970140E050E082179307A407B50708F481
:1041C0007C01202E3A2C16C1AB81BC8116962D9114
:1041D0003D914D915C911997DA01C9019170A070E0
:1041E000B0700097A105B10509F0ACC0EB81FC816E
:1041F0008081918149015A0119E0B694A79497945E
:1042000087941A95D1F7DC0112960C911297015000
:10421000082141F5211531054105510529F466852F
:1042200077858089918908C0EB81FC814289538917
:10423000648975890E94E2186230710581059105D3
:1042400008F16F3FBFEF7B07BFEF8B07BFEF9B0707
:1042500009F48CC0AB81BC8152966D937D938D9394
:104260009C935597EB81FC81808091804289538992
:1042700064897589C4010E94B318611571058105AF
:10428000910551F4AB81BC8114968C911497806890
:1042900014968C931497B3C02B013C01400E511C13
:1042A000611C711C5701AB2CBB24A694A114B10452
:1042B00009F442C0F401828110E09501200F311F02
:1042C00090E08217930718F45C01A01AB10AD40198
:1042D00011968C91B101A30192010A2D0E94F7124F
:1042E000882309F043C0AB81BC81ED91FC9111970B
:1042F00084818823E1F082A593A5A4A5B5A584199E
:104300009509A609B709950140E050E08217930787
:10431000A407B50760F4982F8827990FBF01625D45
:104320007F4F820D931D40E052E00E947A13850179
:10433000102F0027110F3FC0EB81FC81468A578A5E
:10434000608E718EAB81BC8116968D909D90AD90E4
:10435000BC90199756964D915D916D917C915997AE
:104360008D919C910E949F13882341F0EB81FC81E9
:10437000848180688483DD24D39446C0C401917015
:1043800020E032E0281B390B87012E153F0508F489
:104390008901AB81BC816D917C911197625D7F4FEA
:1043A00016968D919C9117979170680F791FC10196
:1043B000A8010E947A13200E311E980140E050E0BF
:1043C000EB81FC8186819781A085B185820F931F47
:1043D000A41FB51F86839783A087B187A981BA815F
:1043E0008D919C911197800F911F11969C938E93A4
:1043F000E01AF10AE114F10409F0E6CE05C072E01A
:10440000D72E02C067E0D62E8D2D0F900F900F9003
:104410000F90CF91DF911F910F91FF90EF90DF9060
:10442000BF90AF909F908F907F906F905F904F90D4
:104430003F902F9008952F923F924F925F926F92EC
:104440007F928F929F92AF92BF92CF92DF92EF9224
:10445000FF920F931F93CF93DF93EC01062FE72E6C
:104460005A011901F901118210826A817B818881C8
:1044700099810E948913182F882309F06AC18C81C1
:1044800087FD64C181FF64C12A853B854C855D85BC
:10449000C501A0E0B0E0820F931FA41FB51F8217D3
:1044A0009307A407B50710F4AA24BB24402E5E2C62
:1044B00034C12E813F8148855985DA01C901917047
:1044C000A070B0700097A105B10509F0DDC088812A
:1044D000998169017A0169E0F694E794D794C794C9
:1044E0006A95D1F7FC01028101500C21D1F521150B
:1044F000310541055105A9F42E853F854889598923
:104500002115310541055105D1F440E050E0BA01D3
:104510000E94451B9B01AC016E877F87888B998B1E
:1045200008C04A895B896C897D890E94451B9B0173
:10453000AC01211531054105510509F4F2C02130C6
:1045400031054105510599F12F3FFFEF3F07FFEF7F
:104550004F07FFEF5F0709F4A5C02A8B3B8B4C8BFD
:104560005D8BE881F98162A573A584A595A52E8947
:104570003F89488D598D621773078407950749F461
:10458000CF0140E050E0BA010E949F13882309F058
:1045900089C0C880D9804A895B896C897D89C601B8
:1045A0000E94B318611571058105910521F48C8174
:1045B00080688C83CBC03B014C01600E711C811C58
:1045C000911C7501EF2CFF24E694E114F104E9F14C
:1045D000F6012281802F90E0A701480F591F30E09B
:1045E0002417350718F47901E81AF90AF6018181D0
:1045F000B201A40193010E2D0E942913882309F012
:1046000051C0E881F98162A573A584A595A56619B5
:10461000770988099909970140E050E0621773070C
:104620008407950770F4762F6627770F640D751D44
:10463000CF018E9640E052E00E947A13E881F98122
:104640001482FE2CEE24FF0C4EC02E813F81488543
:1046500059858A859B85AC85BD85281739074A070A
:104660005B0770F0C60140E050E0BA010E949F1362
:104670008823C1F4E881F98162A673A684A695A671
:104680006E8A7F8A888E998ECE80DF80E884F98456
:104690004E895F89688D798D888199810E949F13E9
:1046A000882329F08C8180688C8311E052C0C60178
:1046B000917020E032E0281B390B75012A153B056B
:1046C00008F4790128813981225D3F4F8E819F81D5
:1046D0009170820F931FB201A7010E947A13E881A3
:1046E000F98131E034834E0C5F1C970140E050E0CB
:1046F0008E819F81A885B985820F931FA41FB51F46
:104700008E839F83A887B987F101808191818E0D67
:104710009F1D91838083AE18BF08A114B10409F0D6
:10472000C8CE8E819F81A885B9852A853B854C8519
:104730005D85281739074A075B0720F48A879B871E
:10474000AC87BD878C8180628C8303C012E001C07E
:1047500017E0812FDF91CF911F910F91FF90EF9084
:10476000DF90CF90BF90AF909F908F907F906F9091
:104770005F904F903F902F9008950F931F93CF938A
:10478000DF93EC016A817B81888199810E94891382
:10479000982F882309F0B6C08C8185FFB3C04A8D5D
:1047A0005B8D6C8D7D8D888199810E949F13982FE0
:1047B000882309F0A7C00E8D1F8DF80183858062C4
:1047C00083878A85848F8B85858F8C85868F8D8561
:1047D000878F8E85828F8F85838F8889848B898947
:1047E000858B0E947613F801668B778B808F918F73
:1047F0008C818F7D8C83E881F98181E084830990AD
:10480000D881C02DCE0140E050E0BA010E949F1334
:10481000982F882309F076C08881833009F068C01A
:104820008D81882309F464C01AA61BA61CA61DA6A8
:10483000FE01BE96CE01825D9D4F01C01192E81728
:10484000F907E1F7FE01E45DFD4F85E58083FE0198
:10485000E35DFD4F8AEA808382E58EA78FA781E61C
:1048600088AB91E499ABFE01EE5EFD4F22E7208319
:10487000FE01ED5EFD4F2083FE01EC5EFD4F908357
:10488000FE01EB5EFD4F80833E852F8598898989E7
:10489000FE01EA5EFD4F3083FE01E95EFD4F20839D
:1048A000FE01E85EFD4F9083FE01E75EFD4F8083D1
:1048B0003A852B859C858D85FE01E65EFD4F308314
:1048C000FE01E55EFD4F2083FE01E45EFD4F908317
:1048D000FE01E35EFD4F8083BE01625D7F4F2A894A
:1048E0003B894C895D89898101E00E9429131D82E1
:1048F000898160E040E050E00E945B1391E08823F2
:1049000009F490E0892FDF91CF911F910F910895C5
:10491000CF93DF93EC010E94BD23882311F4198209
:104920001882DF91CF910895EF92FF920F931F931A
:10493000DF93CF930F92CDB7DEB7982F7A018B011B
:1049400080916D04882399F4892F8151823040F041
:10495000983131F0993121F0903211F0913239F4DF
:1049600089E0EE0CFF1C001F111F8A95D1F72C98CF
:10497000892F806499830E942F26812F0E942F26E1
:10498000802F0E942F268F2D0E942F268E2D0E9471
:104990002F269981983011F487E802C085E9998320
:1049A0000E942F26998100E002C00150E1F0998316
:1049B0000E943526182F99818F3FB9F3882399F4E7
:1049C0009A3389F40E94352686FF04C081E08093E3
:1049D0006D0402C010926D040E9435260E94352697
:1049E0000E94352610E00E9435262C9A812F0F90C8
:1049F000CF91DF911F910F91FF90EF9008951F933A
:104A0000CF93DF9352985A9A10E08FEF0E942F268F
:104A10001F5F1A30D1F72C98C0E0D0E080E040E072
:104A200050E0BA010E9494242196C132D10509F4C4
:104A300052C0813099F72C9A8FEF0E942F268FEF6A
:104A40000E942F26C0E0D0E088E04AEA51E060E012
:104A500070E00E9494242196CF3FD10529F481E093
:104A60008093720411E003C0813071F712E0C0E05E
:104A7000D0E087E340E050E0BA010E94942489E24C
:104A800040E050E060E070E40E9494242196CF3F23
:104A9000D10519F1882369F710926D041230F9F4E9
:104AA000C0E0D0E08AE340E050E0BA010E949424E4
:104AB0002196CF3FD10519F41092720402C08823C9
:104AC00089F780916D04813011F482E001C083E0A8
:104AD0008093720404C081E003C082E001C080E0E2
:104AE000DF91CF911F9108951F9389B1182F1470F2
:104AF00082FF06C080913802882311F40E943A3F59
:104B0000109338021F910895DF92EF92FF920F9356
:104B10001F93CF93DF938B019C017A0181E1B9014F
:104B2000A8010E949424D82E882341F52C980FEFD9
:104B30001FEF09C00115110521F42C9ADD24D3942F
:104B40001DC0015010400E9435268E3F99F78F2DD1
:104B5000E7017E01F82EE70100E010E00E94352613
:104B600089930F5F1F4F32E000301307B9F70E949F
:104B700035260E9435260E9435262C9A8D2DDF91F0
:104B8000CF911F910F91FF90EF90DF900895DF92EA
:104B9000EF92FF920F931F93CF93DF938B019C01B2
:104BA0007A0188E1B901A8010E949424D82E8823B3
:104BB00009F043C02C988EEF0E942F268F2DF82EDF
:104BC000E70100E010E089910E942F260F5F1F4F40
:104BD00032E000301307B9F78FEF0E942F268FEFD6
:104BE0000E942F260E943526982F9F71953019F428
:104BF00000E010E009C02C9AD82E1FC08FEF0F3FA5
:104C0000180781F00F5F1F4F0E9435268823B1F3EC
:104C10002C9A8FEF0E942F262C980AC09FEF0F3FEF
:104C2000190721F42C9ADD24D39407C00F5F1F4F7E
:104C30000E943526882391F32C9A8D2DDF91CF91F8
:104C40001F910F91FF90EF90DF90089584B1806BDA
:104C500084B985B185B982E58CBD1DBC08958EBD32
:104C60000DB407FEFDCF8EB508958FEF8EBD0DB448
:104C700007FEFDCF8EB508951F920F920FB60F92CB
:104C800011248F939F938091390290913A0201965B
:104C900090933A028093390280914C0290914D0298
:104CA000019690934D0280934C029F918F910F90AB
:104CB0000FBE0F901F90189587E08093B100E0E73A
:104CC000F0E0808181608083089588E0E3E7F4E08C
:104CD000DF01982F1D929A95E9F7EBE7F4E0DF01E9
:104CE0001D928A95E9F780E480937C0086E08093AA
:104CF0007A0080917A00806880937A0080917A00AF
:104D0000806480937A0080917A0086FDFCCF809148
:104D1000780090917900089590917C008F71907E39
:104D2000892B80937C0080917A00806480937A0044
:104D300080917A0086FDFCCF209178003091790037
:104D4000C9010895BF92CF92DF92EF92FF920F9325
:104D50001F93D82EB62ECC24EE24FF2487010BC03F
:104D60008D2D0E948C26AC0160E070E0E40EF51EF3
:104D7000061F171FC394CB1498F32B2D30E040E08F
:104D800050E0C801B7010E94F747C9011F910F9178
:104D9000FF90EF90DF90CF90BF900895FF920F9318
:104DA0001F93CF93DF9303E714E0C0E0D0E0FC2E25
:104DB0008C2F64E00E94A226BC01F8012081318181
:104DC000C90103968617970730F0AB014D5F5F4F1F
:104DD0004217530760F4F8017183608376956795F5
:104DE000769567958F2D0E94643D0E941935219616
:104DF0000E5F1F4FC430D105D1F6DF91CF911F91C7
:104E00000F91FF9008954698469A08954598459ABF
:104E100008953F9887B1806687B9479888B18066C2
:104E200088B985E0E3E8F4E0DF011D928A95E9F7AF
:104E30000E9406270895EF92FF920F931F93CF933E
:104E4000DF9300E010E0C1E0D0E080919301873271
:104E500028F0109293010E94062705C08F5F80936F
:104E600093010E94032780919301E82EE694E69433
:104E7000E69497E0F92EF8222E2D30E0379B33C0D0
:104E80002D573B4FF901208130E0AE010F2C02C0BD
:104E9000440F551F0A94E2F72423352321153105C9
:104EA000A1F10E94260C31C00E94720B81E0EE2D10
:104EB000F0E0ED57FB4F282F0F2C01C0220F0A9472
:104EC000EAF7CE0102C0880F991FFA94E2F78095A5
:104ED00090818923282B20830F5F1F4F0A301105F3
:104EE00009F0B3CF14C0AE010F2C02C0440F551F00
:104EF0000A94E2F72D573B4FF901208130E024233B
:104F000035232417350781F6D1CF80E0D0CFDF914C
:104F1000CF911F910F91FF90EF9008958AB1806714
:104F20008AB98BB18F788BB985E0E8E8F4E0DF01CE
:104F30001D928A95E9F708955D9A5D9808955C9AA7
:104F40005C980895CF93DF93C0E0D0E05E98FE01B7
:104F500083E0F595E7958A95E1F7E857FB4F808167
:104F600090E09E012770307002C0959587952A9534
:104F7000E2F780FD5E9A0E949C272196C832D105F7
:104F800029F70E949F27DF91CF9108951F920F92DA
:104F90000FB60F9211242F933F934F935F936F930C
:104FA0007F938F939F93AF93BF93EF93FF93609102
:104FB000C6008FE895E00E94AA0EFF91EF91BF9185
:104FC000AF919F918F917F916F915F914F913F91A1
:104FD0002F910F900FBE0F901F9018951F920F9258
:104FE0000FB60F9211242F933F934F935F936F93BC
:104FF0007F938F939F93AF93BF93EF93FF93DF9331
:10500000CF930F92CDB7DEB78DE894E0BE016F5F0E
:105010007F4F0E94BF0E882321F089818093C600B4
:1050200005C08091C1008F7D8093C1000F90CF910A
:10503000DF91FF91EF91BF91AF919F918F917F9100
:105040006F915F914F913F912F910F900FBE0F90F5
:105050001F9018958DE894E00E94990E8FE895E0D6
:105060000E94990E1092C50084E08093C400E0EC89
:10507000F0E0808182608083E1ECF0E080818869EB
:10508000808386E08093C2000895682F8DE894E0C5
:105090000E94AA0EE1ECF0E0908190629083089566
:1050A000BC018FE895E00E94BF0E91E0882309F4CF
:1050B00090E0892F0895DF93CF930F92CDB7DEB79D
:1050C000CE0101960E945028882319F089810E9400
:1050D000990F0F90CF91DF910895109291062EEACB
:1050E00036E0C90160E070E045E050E00E945848B9
:1050F000089510928A041092B00608958091890450
:105100008078809389048091AF0680788093AF0681
:105110000895805F482F46954695469550E08770E4
:1051200021E030E002C0220F331F8A95E2F7FA0136
:10513000E857FB4F20834255594FFA0120830895C9
:10514000805F482F46954695469550E0877021E050
:1051500030E002C0220F331F8A95E2F7FA01E857C8
:10516000FB4F20834255594FFA01208308959091B7
:10517000890490782091AF0620782093AF068F772E
:10518000982B909389049091AF06982B9093AF063B
:105190000895885FE82FE695E695E695F0E0DF0153
:1051A000A857BB4F9C919078E255F94F2081207809
:1051B0002083877021E030E001C0220F8A95EAF752
:1051C000922B9C938081822B8083109241020895C0
:1051D000E62FE695E695E695F0E0677021E030E091
:1051E00001C0220F6A95EAF7422F4095DF01A857C8
:1051F000BB4F9C9194239C93E255F94F308134230B
:105200003083882329F0922B9C938081822B80838A
:105210000895E82FE695E695E695F0E0DF01A857BA
:10522000BB4F4C91877021E030E001C0220F8A957E
:10523000EAF7322F3095932F94239C93E255F94F40
:10524000808183238083422329F4922B9C93808145
:10525000822B80830895E82FE695E695E695F0E0A9
:10526000E857FB4F9081877021E030E001C0220FAA
:105270008A95EAF7822F809589238083922311F4FF
:10528000282B208308951F9318E180E0612F0E944E
:10529000E8281F5F1832C9F71F9108951F93CF9315
:1052A000DF93182FC0E0D0E08091910690E00C2EA3
:1052B00002C0959587950A94E2F780FD2BC0FE0108
:1052C000EE56F94F10832091910681E090E00C2E6C
:1052D00002C0880F991F0A94E2F7282B20939106A9
:1052E0006091390270913A0280E090E00E94A646F7
:1052F0002FEF3FE443E450E40E9411460E947A46B7
:10530000CC0FDD1FC256D94F79836883812F0E944D
:105310002B2904C02196C830D10531F6DF91CF91F9
:105320001F910895E82FE695E695E695F0E0DF01F8
:10533000A255B94F9C91877021E030E001C0220F47
:105340008A95EAF79223E857FB4F992321F0808151
:10535000822B8083089520958081282320830895BF
:105360000F931F93CF93DF93C0E0D0E001E010E0F4
:105370008091910690E00C2E02C0959587950A9435
:10538000E2F780FF21C02091390230913A02FE01FC
:10539000EE0FFF1FE256F94F80819181821793072C
:1053A00098F420919106C8010C2E02C0880F991F15
:1053B0000A94E2F78095822380939106FE01EE56CF
:1053C000F94F80810E9492292196C830D10581F63B
:1053D0008091390290913A0260913C0270913D02B5
:1053E0006817790790F08091390290913A02681B12
:1053F000790B80E090E00E94A6462FEF33E244EF65
:1054000051E40E94344718165CF56091390270919E
:105410003A0280E090E00E94A6462FEF33E244E794
:1054200051E40E9411460E947A4670933D026093B7
:105430003C02C0E0D0E08091B30690E00C2E02C0A8
:10544000959587950A94E2F780FF06C0FE01E6561F
:10545000F94F80810E942B292196C430D10559F73C
:10546000DF91CF911F910F910895FF920F931F939A
:10547000CF93DF93F82E662339F120E030E040919E
:10548000B30650E0022E02C0559547950A94E2F704
:1054900040FD14C0F901E656F94FF0828091B30641
:1054A00041E050E002C0440F551F2A95E2F7842BDB
:1054B0008093B3068F2D0E942B2924C02F5F3F4F6E
:1054C00024303105E1F61EC0C0E0D0E001E010E07C
:1054D000FE01E656F94F80818F1581F48091B30665
:1054E00098010C2E02C0220F331F0A94E2F7209578
:1054F00028232093B3068F2D0E9492292196C43031
:10550000D10531F7DF91CF911F910F91FF90089551
:105510001F93182F80E060E00E94E82880E061E09F
:105520000E94E82880E062E00E94E82880E063E0D2
:105530000E94E82880E060E00E94352A81E060E077
:105540000E94352A82E060E00E94352A83E060E014
:105550000E94352A1330B9F0143028F4113069F064
:10556000123070F407C0153099F0153060F0173024
:10557000A9F410C081E060E008C081E061E005C0EE
:1055800081E062E002C081E063E00E94E82806C09A
:1055900081E001C083E061E00E94352A1F910895F7
:1055A0001F9360914402605F81E00E94E82810919F
:1055B00044020E94E12C181731F00E94E12C805F18
:1055C00061E00E94352A1F9108950F931F93CF9396
:1055D000DF93C0E0D0E001E010E0FE01E656F94FB5
:1055E00080810E9492292091B306C8010C2E02C02E
:1055F000880F991F0A94E2F7809582238093B3065F
:105600002196C430D10549F7DF91CF911F910F91B9
:10561000089580913B020E94922908951F93182FAC
:10562000169516951695185E80913B02811749F0E4
:1056300080913B020E94922910933B02812F0E948D
:105640002B291F9108951F920F920FB60F921124CC
:105650000F900FBE0F901F9018951F938FE79AE140
:10566000A6E081509040A040E1F700C0000014B8CF
:10567000209828980E9414120E942A280E945712EB
:1056800086EB90E00E948B1280E062E00E94611243
:105690008AEA90E00E948B1284E991E00E947712DE
:1056A0000E9465260E94260E0E9409270E948E27CE
:1056B0000E946D280E945C2680E00E9409298FEFDD
:1056C00091E1AAE781509040A040E1F700C00000BE
:1056D0000E940A1278940E945F380E943A3F0E940A
:1056E000CE260E94743F80E060E00E9483440E94C6
:1056F000F52B0E941B270E94A2270E945B280E9474
:10570000880E182F0E94930E682F812F0E94C13A95
:105710000E945B280E945B280E945B280E945B28F5
:105720000E94CE260E94B0290E94203F0E94470975
:105730000E947425DECF0F931F93CF93DF9380E0F9
:1057400090E036C0FE01E20FF31FA491EA2FE15072
:10575000EC3D80F4AF3708F4AF5FB0E0FB01E20F3F
:10576000F31FE491AA0FBB1FAC54B94F1196EC93F1
:1057700011978C932F5F3F4F2830310519F74F5FFA
:105780005F4F4830510581F020E030E0BA01600FF2
:10579000711FE4E0660F771FEA95E1F7EB01C45350
:1057A000DF4F6C537F4FCECF01968630910549F085
:1057B00040E050E08C0123E0000F111F2A95E1F733
:1057C000E3CFDF91CF911F910F9108951F93182F71
:1057D0000E947B3E482F4295407F1F70412B82EBF9
:1057E00068E20E94D70E1F910895DF93CF930F9226
:1057F000CDB7DEB70E94E12C89830E94432982EB5A
:1058000067E249810E94D70E0F90CF91DF910895F2
:1058100010923E020E94E52A8FEF8093C30180938D
:10582000C20108958093C20160933E02089580935F
:10583000C30160933E02089581E09091C2019F3FB1
:1058400009F480E00895DF93CF930F92CDB7DEB7D0
:105850000E947B3E89830E94432982EB6FE149814C
:105860000E94D70E0F90CF91DF910895DF93CF93D1
:105870000F92CDB7DEB780913E028330A9F44091FC
:10588000C2014295407F8091C3018F70482B4983AC
:105890000E94432982EB60E249810E94D70E8FEF7C
:1058A0008093C3018093C2010F90CF91DF9108953F
:1058B000DF93CF930F92CDB7DEB780913E02823057
:1058C000A9F44091C2014295407F8091C3018F703D
:1058D000482B49830E94432982EB61E249810E945F
:1058E000D70E8FEF8093C3018093C2010F90CF91A9
:1058F000DF91089581E090913E02913009F080E0BF
:10590000089580913F020895882351F10E940A1260
:1059100080E061E00E94611289E991E00E947712C3
:1059200080913F02823051F0833059F0813019F07C
:1059300081EA91E008C087EA91E005C08FEA91E032
:1059400002C087EB91E00E9477128FEB91E00E94FA
:1059500077120E94E52A81E06FE00E94E82808950E
:1059600080E06FE00E94E8280E9419350895809336
:105970003F0280913E02813011F40E94842C0895F0
:1059800080913F02823051F0833051F0813019F024
:105990000E94232C08C00E94F52B05C080E001C0A6
:1059A00081E00E94E62B80E00E94842C10923E024F
:1059B0000895482F8093400282EB6AE10E94D70E3F
:1059C00008958091400208958091F00184FF03C002
:1059D0008F608093F0010895282F269526952695AF
:1059E00030E0663008F065E0E62FF0E043E0EE0FCF
:1059F000FF1F4A95E1F7E20FF31F94E0EE0FFF1F40
:105A00009A95E1F7E453FF4F8770E80FF11D8491F9
:105A10000895AF92BF92CF92DF92EF92FF920F93D1
:105A20001F93CF93DF9300E010E070E2B72E22C007
:105A30008881F7019081981769F0882309F4B8826A
:105A40008C2D6A2D0E94611288810E94E611888146
:105A5000F70180830894C11CD11C0894E11CF11C3F
:105A60002196F0E1CF16D10419F70F5F1F4F0230D6
:105A70001105A9F0E80164E0CC0FDD1F6A95E1F79C
:105A80005EE6E52E58E0F52EEC0EFD1EC00FD11F90
:105A9000C257D74FCC24DD24A02EA394C9CFDF91C9
:105AA000CF911F910F91FF90EF90DF90CF90BF901B
:105AB000AF9008950F931F93DF93CF9300D000D042
:105AC000CDB7DEB780914202893009F002C18EE87D
:105AD00098E066E671E10E943D4880914702877038
