:100000000C942A000C9447000C9447000C94470071
:100010000C9447000C9447000C9447000C94470044
:100020000C9447000C9447000C94CE000C944700AD
:100030000C9447000C9447000C9447000C94470024
:100040000C9447000C9447000C9447000C94470014
:100050000C94470011241FBECFE5D8E0DEBFCDBF12
:1000600012E0A0E6B0E0E6E9F3E102C005900D92EF
:10007000A23AB107D9F713E0A2EAB2E001C01D929B
:10008000A432B107E1F70E94F1010C94C9090C9464
:100090000000A79884B3806684BBAF9885B3806660
:1000A00085BB1092E9020895AE98AE9A0895AD9876
:1000B000AD9A0895809160008830F0F01092600051
:1000C000AE9A83EC99E00197F1F700C00000AD987B
:1000D00083EC99E00197F1F700C00000AD9A83EC42
:1000E00099E00197F1F700C00000AE9883EC99E029
:1000F0000197F1F700C000002091600081E090E0DE
:10010000022E02C0880F991F0A94E2F78095909101
:10011000E902382F39233093E90281E090E09F997A
:1001200002C080E090E0022E02C0880F991F0A945E
:10013000E2F7832B8093E9022F5F20936000AE9A51
:1001400083EC99E00197F1F700C00000AE9883ECD2
:1001500099E00197F1F700C00000089584B3887F0B
:1001600084BB85B3876085BB989902C080E001C0DD
:1001700083E0999B02C091E089278093A2021092AC
:10018000EB028BE083BF8CE78CBF89B7826089BFAD
:100190001092A30281E08093EA0208951F920F92C9
:1001A0000FB60F9211242F933F934F938F939F93EA
:1001B000989902C080E001C083E0999B02C091E061
:1001C00089279091A202981B90FF09C08093A202F8
:1001D0008091EB0281509270980F9093EB0223B3C1
:1001E0004091A30230E024703070842F992787FD5E
:1001F00090952817390711F44093EA0283B384706D
:100200008093A3029F918F914F913F912F910F90D7
:100210000FBE0F901F901895F8948091EB021092EA
:10022000EB0278940895F8948091EB02982F9170E6
:100230009093EB02789485950895F8948091EB0261
:10024000982F93709093EB027894859585950895F7
:100250009091EA0281E0911180E00895DB9A85E3B4
:100260008A95F1F70000DB9808959BB39F709BBBC4
:100270009BB3807F982B9BBB0E942E0108951F93F8
:10028000182FDA9A0E943501812F8295807F0E9473
:1002900035018AE78A95F1F700C01F9108951F93F1
:1002A000182FDA980E943501812F8295807F0E9455
:1002B000350180E78A95F1F71F91089581E00E944A
:1002C0004F018FE99FE00197F1F700C0000008950A
:1002D0008AB38C6F8ABB8BB383708BBB8FE295E73D
:1002E0000197F1F700C0000080E30E9435018FE024
:1002F00097E20197F1F700C000000E942E018FECF9
:1003000097E00197F1F700C000000E942E018FECEA
:1003100097E00197F1F700C0000080E20E943501EC
:100320008FE097E20197F1F700C0000088E20E9499
:100330004F018CE00E944F0186E00E944F010E9415
:100340005E01089582E00E944F018FE99FE00197CE
:10035000F1F700C000000895623061F0633018F4D6
:10036000613079F405C0633039F0643051F406C06F
:10037000805805C0805403C0805701C080530E943C
:100380004F010895CF93DF93EC018881882331F0EA
:1003900021960E943F0189918823D9F7DF91CF915F
:1003A0000895EF92FF920F931F93CF93DF93062F41
:1003B000172F880F880F880F80640E944F01E02E4E
:1003C000E7017E01F12EE70118E089910E943F01CB
:1003D0001150D9F7DF91CF911F910F91FF90EF90BE
:1003E00008952F923F924F925F926F927F928F92D9
:1003F0009F92AF92BF92CF92DF92EF92FF920F93B4
:100400001F93DF93CF93CDB7DEB760970FB6F89405
:10041000DEBF0FBECDBF0E94680181E690E00E9462
:10042000C2018DE690E00E94C20180E062E00E947D
:10043000AC0181E790E00E94C2018FEF93EDA0E351
:1004400081509040A040E1F700C000000E945E0192
:100450000E94AE000E945E0678940E945E010F2EFC
:10046000F1E8CF2EF0E0DF2EF02D8E010F5F1F4F51
:100470000F2EF3E8EF2EF0E0FF2EF02D0F2EFAE80E
:10048000AF2EF0E0BF2EF02D0F2EFCE88F2EF0E007
:100490009F2EF02D0F2EFEE86F2EF0E07F2EF02D18
:1004A0000F2EF0E94F2EF0E05F2EF02D0F2EF2E927
:1004B0002F2EF0E03F2EF02D0E945700C6010E9423
:1004C000C20183B300D000D000D0EDB7FEB73196A3
:1004D000ADB7BEB712961C930E931197F382E282CA
:1004E0008078848315820E94E8068DB79EB70696B1
:1004F0000FB6F8949EBF0FBE8DBFC8010E94C20107
:100500000E94A2018FEF99E6A8E181509040A0409F
:10051000E1F700C000000E945400C5010E94C20122
:1005200083B300D000D000D0EDB7FEB73196ADB7A1
:10053000BEB712961C930E931197F382E2828078D5
:10054000848315820E94E8068DB79EB706960FB683
:10055000F8949EBF0FBE8DBFC8010E94C2010E94C9
:10056000A2018FEF99E6A8E181509040A040E1F709
:1005700000C000000E945400C4010E94C20183B365
:1005800000D000D000D0EDB7FEB73196ADB7BEB702
:1005900012961C930E931197F382E28280788483E3
:1005A00015820E94E8068DB79EB706960FB6F8949E
:1005B0009EBF0FBE8DBFC8010E94C2010E94A20152
:1005C0008FEF99E6A8E181509040A040E1F700C08C
:1005D00000000E945400C3010E94C20183B300D0F6
:1005E00000D000D0EDB7FEB73196ADB7BEB71296CA
:1005F0001C930E931197F382E28280788483158294
:100600000E94E8068DB79EB706960FB6F8949EBF77
:100610000FBE8DBFC8010E94C2010E94A2018FEFD0
:1006200099E6A8E181509040A040E1F700C00000A9
:100630000E945400C2010E94C20183B300D000D0C6
:1006400000D0EDB7FEB73196ADB7BEB712961C938A
:100650000E931197F382E2828078848315820E9440
:10066000E8068DB79EB706960FB6F8949EBF0FBEEC
:100670008DBFC8010E94C2010E94A2018FEF99E6BE
:10068000A8E181509040A040E1F700C000000E9426
:100690005400C1010E94C20183B300D000D000D039
:1006A000EDB7FEB73196ADB7BEB712961C930E9359
:1006B0001197F382E2828078848315820E94E80693
:1006C0008DB79EB706960FB6F8949EBF0FBE8DBF2E
:1006D000C8010E94C2010E94A2018FEF99E6A8E121
:1006E00081509040A040E1F700C000000E945400FB
:1006F00084E990E00E94C20183B300D000D000D012
:10070000EDB7FEB73196ADB7BEB712961C930E93F8
:100710001197F382E2828078848315820E94E80632
:100720008DB79EB706960FB6F8949EBF0FBE8DBFCD
:10073000C8010E94C2010E94A2018FEF99E6A8E1C0
:1007400081509040A040E1F700C000000E9454009A
:1007500086E990E00E94C20183B300D000D000D0AF
:10076000EDB7FEB73196ADB7BEB712961C930E9398
:100770001197F382E2828078848315820E94E806D2
:100780008DB79EB706960FB6F8949EBF0FBE8DBF6D
:10079000C8010E94C2010E94A2018FEF99E6A8E160
:1007A00081509040A040E1F700C0000085CE4F92FC
:1007B0005F926F927F928F929F92AF92BF92CF92F1
:1007C000DF92EF92FF920F931F93CF93DF936624F4
:1007D0007724442455248824689485F827C05E0132
:1007E0006801F80180819881981779F0882309F4CD
:1007F00080828E2D692D0E94AC01F60180810E94BD
:100800003F01F6018081F50180830894E11CF11C11
:1008100021960F5F1F4FF0E1EF16F10401F70894E6
:10082000611C711C82E06816710491F083010295CD
:100830001295107F1027007F1027E801C753DD4F66
:10084000060D171D0A551D4F7201962C9394C7CFA4
:10085000DF91CF911F910F91FF90EF90DF90CF909C
:10086000BF90AF909F908F907F906F905F904F90D0
:100870000895AF92BF92CF92DF92EF92FF920F93C3
:100880001F93DF93CF9300D00F92CDB7DEB7809147
:10089000C802282F2370869586959091A5029923EA
:1008A00009F461C0A82EBB24C22EDD2406EA12E0A2
:1008B000AA0CBB1CAA0CBB1CAA0CBB1CF601EA0DA3
:1008C000FB1DEE51FE4FE080FF24C701880F991FEA
:1008D000E80EF91E8EEB91E0E80EF91ED701119695
:1008E0006C9170E062957295707F7627607F7627B5
:1008F00064537F4FC8010E94E106F70162818DE0D9
:10090000689FB0011124645C7E4FC80141960E942B
:10091000E10600D000D000D0EDB7FEB73196025E00
:100920001F4FADB7BEB712961C930E93119788E96F
:1009300090E093838283D601AA0DBB1DAA51BE4FBE
:100940008C91ACEEB2E0A80FB11D8C91848315821E
:100950000E94E806EDB7FEB736960FB6F894FEBFD4
:100960000FBEEDBF9BC1E82EFF24F701EE0FFF1F66
:10097000EE0FFF1FEE0FFF1FEE51FE4F808190E044
:10098000FC01EE0FFF1F8E0F9F1FFC01E254FE4F74
:10099000E081F0E0EE0FFF1FEE0FFF1FA6EAB2E0CE
:1009A000E456FF4F83E001900D928150E1F7F7018B
:1009B000EE0FFF1FEE0FFF1FEE0FFF1FEE51FE4F5A
:1009C000818190E0FC01EE0FFF1F8E0F9F1FFC0145
:1009D000E254FE4FE081F0E0EE0FFF1FEE0FFF1F2D
:1009E000AAEAB2E0E456FF4F83E001900D928150F5
:1009F000E1F7F701EE0FFF1FEE0FFF1FEE0FFF1FD6
:100A0000EE51FE4F828190E0FC01EE0FFF1F8E0F32
:100A10009F1FFC01E254FE4FE081F0E0EE0FFF1F4C
:100A2000EE0FFF1FAEEAB2E0E456FF4F83E0019005
:100A30000D928150E1F7F701EE0FFF1FEE0FFF1F40
:100A4000EE0FFF1FEE51FE4F838190E0FC01EE0F91
:100A5000FF1F8E0F9F1FFC01E254FE4FE081F0E06C
:100A6000EE0FFF1FEE0FFF1FA2EBB2E0E456FF4FA9
:100A700083E001900D928150E1F730E0F901EE0F33
:100A8000FF1FEE0FFF1FEA55FD4F808180528083CC
:100A9000F701EE0FFF1FEE0FFF1FEE0FFF1FEE51CE
:100AA000FE4F2481222349F480E290E2A0E2B0E0EC
:100AB00089839A83AB83BC8323C000D000D000D04D
:100AC000EDB7FEB73196CE010196ADB7BEB712961F
:100AD0009C938E93119788E990E093838283ACEE88
:100AE000B2E0A20FB11D8C91848315820E94E806AA
:100AF000EDB7FEB736960FB6F894FEBF0FBEEDBF4A
:100B000006EA12E0D8015196FE01319683E0019089
:100B10000D928150E1F7F701EE0FFF1FEE0FFF1F5F
:100B2000EE0FFF1FEE51FE4F2581222349F480E294
:100B300090E2A0E2B0E089839A83AB83BC8323C0B8
:100B400000D000D000D0EDB7FEB73196CE010196AF
:100B5000ADB7BEB712969C938E93119788E990E03B
:100B600093838283ACEEB2E0A20FB11D8C9184839B
:100B700015820E94E806EDB7FEB736960FB6F894D8
:100B8000FEBF0FBEEDBFD8015596FE01319683E042
:100B900001900D928150E1F7F701EE0FFF1FEE0F6C
:100BA000FF1FEE0FFF1FEE51FE4F2681222349F457
:100BB00080E290E2A0E2B0E089839A83AB83BC83B9
:100BC00023C000D000D000D0EDB7FEB73196CE01E3
:100BD0000196ADB7BEB712969C938E93119788E994
:100BE00090E093838283ACEEB2E0A20FB11D8C91B2
:100BF000848315820E94E806EDB7FEB736960FB6DD
:100C0000F894FEBF0FBEEDBFD8015996FE01319694
:100C100083E001900D928150E1F7F701EE0FFF1F85
:100C2000EE0FFF1FEE0FFF1FEE51FE4F2781222315
:100C300049F480E290E2A0E2B0E089839A83AB833A
:100C4000BC8323C000D000D000D0EDB7FEB73196F2
:100C5000CE010196ADB7BEB712969C938E931197B5
:100C600088E990E093838283ACEEB2E0A20FB11DDD
:100C70008C91848315820E94E806EDB7FEB7369604
:100C80000FB6F894FEBF0FBEEDBFD8015D96FE0112
:100C9000319683E001900D928150E1F70E94D703D5
:100CA0000F900F900F90CF91DF911F910F91FF90B8
:100CB000EF90DF90CF90BF90AF90089589EC92E0D5
:100CC00060E270E040E250E00E94DA0686EA92E0DC
:100CD00060E270E042E250E00E94DA0688E3ECEE67
:100CE000F2E0DF011D928A95E9F70E943904089528
:100CF0000F931F93082F162F613091F48091A40257
:100D0000813071F09091A50281E0891B8093A5024A
:100D100086EA92E060E270E042E250E00E94DA0689
:100D20008091A5028823D9F08091C802E82FE6952A
:100D3000E695F0E0EE0FFF1FEE0FFF1FEE0FFF1F17
:100D400034968370E80FF11DEE51FE4F8081ECEE7A
:100D5000F2E0E80FF11D8081080F008324C020918C
:100D6000C802302F320F1016D4F4802F992787FD38
:100D70009095820F911DFC01EC7FF070EE0FFF1F2C
:100D8000232F2370E20FF11DEE51FE4F208122230D
:100D900051F08F3F910539F03093C80204C02223EF
:100DA00011F03093C8021093A4020E9439041F91DD
:100DB0000F910895DC0101C06D9341505040E0F760
:100DC0000895FB01DC0101900D920020E1F70895E8
:100DD000AEE0B0E0EEEEF6E00C94A0090D891E89BD
:100DE00086E08C831A8309838FEF9FE79E838D8330
:100DF0009E01275E3F4FCE0101966F89788DA90134
:100E00000E940B07EF81F885E00FF11F10822E96EC
:100E1000E4E00C94BC09ACE0B0E0E1E1F7E00C9454
:100E200092096C011B018A01FC01178216828381E1
:100E300081FFD1C12E010894411C511CF601938100
:100E4000F10193FD859193FF81911F01882309F49E
:100E5000BEC1853239F493FD859193FF81911F01C5
:100E6000853229F490E0B6010E940809E7CFEE240C
:100E7000FF2420E02032B0F48B3269F08C3228F469
:100E8000803251F0833271F40BC08D3239F08033EF
:100E900049F421602CC02260246029C0286027C04A
:100EA000206125C027FD2CC0382F30533A3098F4EC
:100EB00026FF08C08E2D880FE82EEE0CEE0CE80EF3
:100EC000E30E15C08F2D880FF82EFF0CFF0CF80EC7
:100ED000F30E20620CC08E3221F426FD78C120640E
:100EE00006C08C3611F4206802C0883649F4F1013E
:100EF00093FD859193FF81911F01882309F0BACF5B
:100F0000982F9554933018F09052933028F40C5F3A
:100F10001F4FFFE3F9830DC0833631F0833771F043
:100F2000833509F060C022C0F801808189830E5F9B
:100F30001F4F420171E0A72EB12C16C062E0662E51
:100F4000712C600E711EF8018080918026FF03C015
:100F50006E2D70E002C06FEF7FEFC4012C870E94FE
:100F6000FD085C0183012C852F7717C052E0652EA8
:100F7000712C600E711EF8018080918026FF03C0E5
:100F80006E2D70E002C06FEF7FEFC4012C870E94CE
:100F9000F2085C012C852068830123FD20C008C075
:100FA00080E290E0B6012C870E940809FA942C8513
:100FB0008F2D90E0A816B90698F311C0F40127FD13
:100FC000859127FF81914F0190E0B6012C870E9407
:100FD00008092C85F110FA940894A108B108A1140D
:100FE000B10461F7F1C0843611F0893649F527FF65
:100FF00008C0F80160817181828193810C5F1F4F6D
:1010000009C0F80160817181882777FD8095982F4C
:101010000E5F1F4F4FE6B42EB22297FF09C0909586
:101020008095709561957F4F8F4F9F4FF0E8BF2A55
:10103000A2012AE030E00E943409782E741845C0DD
:10104000853731F43FEEB32EB2222AE030E025C0DE
:1010500099EFB92EB2228F36C1F0803720F488354F
:1010600009F0B5C00DC0803721F0883709F0AFC056
:1010700002C020E1B22AB4FE0BC084E0B82A08C046
:10108000B4FE09C0E6E0BE2A06C028E030E005C094
:1010900020E130E002C020E132E0B7FE08C0F801F4
:1010A00060817181828193810C5F1F4F07C0F801BD
:1010B0006081718180E090E00E5F1F4FA2010E946D
:1010C0003409782E7418FFE7BF22B6FE0BC02EEF4E
:1010D000B2227E1438F4B4FE07C0B2FC05C08FEE15
:1010E000B82202C0A72C01C0AE2C8B2D90E0B4FE1C
:1010F0000DC0FE01E70DF11D2081203319F4E9EE4A
:10110000BE2209C0A394B2FE06C004C086789070C7
:10111000009709F0A3948B2C9924B3FC14C0B0FE63
:101120000FC0AF1428F4E72CEF0CEA18AF2C08C05E
:10113000E72C06C080E290E0B6010E940809A39463
:10114000AF14C0F304C0AF1410F4FA1801C0FF24A8
:1011500084FE0FC080E390E0B6010E94080982FE81
:101160001FC081FE03C088E590E010C088E790E0D2
:101170000DC0C40186789070009791F081FC02C088
:1011800080E201C08BE2B7FC8DE290E0B6010E94E4
:10119000080906C080E390E0B6010E940809EA94BD
:1011A0007E14C0F37A94F201E70DF11D808190E086
:1011B000B6010E9408097720A9F706C080E290E0F6
:1011C000B6010E940809FA94FF20C1F737CEF60154
:1011D0002681378102C02FEF3FEFC9012C96E2E153
:1011E0000C94AE09FC010590615070400110D8F7D5
:1011F000809590958E0F9F1F0895FC01615070405F
:1012000001900110D8F7809590958E0F9F1F08953B
:101210000F931F93CF93DF938C01EB018B8181FFA1
:101220001BC082FF0DC02E813F818C819D812817BC
:10123000390764F4E881F9810193F983E88306C0F2
:10124000E885F985802F0995009731F48E819F817B
:1012500001969F838E8302C00FEF1FEFC801DF91BD
:10126000CF911F910F910895FA01AA27283051F1CB
:10127000203181F1E8946F936E7F6E5F7F4F8F4FC7
:101280009F4FAF4FB1E03ED0B4E03CD0670F781F26
:10129000891F9A1FA11D680F791F8A1F911DA11D0B
:1012A0006A0F711D811D911DA11D20D009F4689444
:1012B0003F912AE0269F11243019305D3193DEF6EC
:1012C000CF010895462F4770405D4193B3E00FD0A2
:1012D000C9F7F6CF462F4F70405D4A3318F0495D8D
:1012E00031FD4052419302D0A9F7EACFB4E0A69570
:1012F0009795879577956795BA95C9F70097610592
:10130000710508959B01AC010A2E069457954795E7
:1013100037952795BA95C9F7620F731F841F951FDC
:10132000A01D08952F923F924F925F926F927F92ED
:101330008F929F92AF92BF92CF92DF92EF92FF92E5
:101340000F931F93CF93DF93CDB7DEB7CA1BDB0B91
:101350000FB6F894DEBF0FBECDBF09942A88398836
:1013600048885F846E847D848C849B84AA84B9843D
:10137000C884DF80EE80FD800C811B81AA81B98149
:10138000CE0FD11D0FB6F894DEBF0FBECDBFED015D
:061390000895F894FFCF60
:10139600084472756D53796E7468205600302E318C
:1013A600004A2E205363686D6964742032303132EE
:1013B600003100203D202533640032003300340024
:1013C6003500360037003800253364000000000081
:1013D600636F610066696E00617474006465630022
:1013E600706463006D6F6400666D61006672710003
:1013F60064727600766F6C0070616E00000000000B
:101406000000000000000000000000004F73636948
:101416006C6C61746F7200000000000056656C6FA2
:1014260063697479204547000000000050697463C1
:101436006820454700000000000000005069746302
:1014460068204D6F64756C6174696F6E464D00005F
:10145600000000000000000000000000566F6963F5
:101466006500000000000000000000000000000011
:10147600000000000000000000436F617273650009
:1014860000000000000046696E65000000000000D4
:1014960000000041747461636B00000000000000EE
:1014A60044656361790000000000000000416D6F33
:1014B600756E740000000000000046726571756567
:1014C6006E6379000000004F766572647269766516
:1014D60000000000566F6C756D650000000000008E
:1014E6000050616E6E696E6700000000000000002B
:1014F60000010101020102030203040204050304C0
:101506000604050705050805060906070A06080B69
:1015160006090102030401071011050607081C212C
:101526002629090A0B000D2C3200000000000000DD
:1015360000000102030402081213050607081D2213
:10154600272A090A0B000E2D3300000000000000B8
:101556000000000000000000000000000000000085
:101566000000000000000000000000000000000075
:101576000000000000000000000000000000000065
:101586000000000000000000000000000000000055
:101596000000000000000000000000000000000045
:1015A6000000000000000000000000000000000035
:1015B6000000000000000000000000000000000025
:1015C6000000000000000000000000000000000015
:0215D600000013
:00000001FF
