:020000040800F2
:1000000000C00120CDB400083134000835340008A8
:10001000393400083D340008413400080000000075
:10002000000000000000000000000000453400084F
:1000300049340008000000004D3400085134000825
:1000400025B5000825B5000825B5000825B5000828
:1000500025B5000825B5000825B5000825B5000818
:1000600025B5000825B5000825B5000825B5000808
:1000700025B5000825B5000825B5000825B50008F8
:1000800025B5000825B5000825B5000825B50008E8
:1000900025B5000825B5000825B5000825B50008D8
:1000A00025B5000825B5000825B5000825B50008C8
:1000B00025B5000825B5000825B5000825B50008B8
:1000C00025B5000825B5000825B5000825B50008A8
:1000D00025B5000825B50008310F000825B5000832
:1000E00025B5000825B5000825B5000825B5000888
:1000F00025B5000825B5000825B500080527000826
:1001000025B5000825B5000825B5000825B5000867
:1001100025B5000825B5000825B5000825B5000857
:1001200025B5000825B5000825B5000825B5000847
:1001300025B5000825B5000825B5000825B5000837
:1001400025B5000825B5000825B5000825B5000827
:1001500025B5000825B5000825B5000825B5000817
:1001600025B5000825B5000825B5000825B5000807
:1001700025B5000825B5000825B5000825B50008F7
:0801800025B5000825B50008B3
:1001880010B5054C237833B9044810B10448AFF3CF
:1001980000800121217010BD9004002000000000A3
:1001A80050D7000808B5064B1BB106480649AFF3FF
:1001B80000800648016811B1054B03B1984708BD96
:1001C8000000000050D70008940400208C04002090
:1001D80000000000134B002B08BF114B9D46A3F5F0
:1001E800803A00218B460F461148124A121A0AF02B
:1001F80033FF0D4B002B00D098470C4B002B00D041
:1002080098470020002104460D460B480AF0D4FE0A
:100218000AF0FEFE204629460BF000F90AF0D2FE4D
:1002280000000800000000000000000000000000BE
:1002380090040020541B0020EDAF00084EF6602CFF
:100248009CFBF0F100EE901A9FED080AB8EEE07AF8
:1002580040F2040340F2D04267EE007AC2F2000393
:10026800C2F20002C2ED007A188070470000003D1B
:1002780038B5544C544D2378591C01F07F0000EBDD
:100288004002207015F8123073BB94F800C00CEBD4
:100298004C0105EB410090F80023002A7ED1237819
:1002A80003EB430205EB420C9CF80006002863D1DF
:1002B800217801EB410205EB420C9CF8000900286B
:1002C80048D1237803EB430205EB420C9CF8000C61
:1002D80000282DD194F800C00CEB4C0205EB420528
:1002E80095F8000F80B938BD02F098F8237803EB31
:1002F800430105EB410CC2B29CF804008242C4D30E
:10030800002001F025F8C0E702F088F82D4A2E4BAE
:1003180092F800C00CEB4C0103EB4102C1B292F819
:10032800043F9942DFD30520BDE8384001F010B8FA
:1003380002F074F8234B244A197801EB410302EBCD
:10034800430CC1B29CF8040C8142C3D3042000F0D2
:10035800FFFFBFE702F062F81A491B4A0B7803EB6C
:10036800430102EB410CC0B29CF804399842A8D36F
:10037800032000F0EDFFA4E702F050F8114B124AF9
:10038800197801EB410302EB430CC1B29CF8040657
:1003980081428DD3022000F0DBFF89E702F03EF8AE
:1003A8000849094A0B7803EB430C02EB4C01C2B233
:1003B80091F804339A42FFF472AF012000F0C8FFAD
:1003C8006DE700BFAC040020D404002070B56A4B70
:1003D8006A4C1B6860686A4E1A1A07EE902A2DED5F
:1003E800028BB8EE678AD6ED007AB4EEE78AF1EEB2
:1003F80010FA02DABDEC028B70BD2178614D6360A2
:100408004A1C02F07F0000EB400C38EE678A15F8B2
:100418001C102070002940D194F800C00CEB4C024D
:1004280005EB420393F80003002840F0908094F80D
:1004380000C00CEB4C0205EB420191F800060028C5
:1004480072D1237803EB430205EB420C9CF80009B8
:10045800002857D1217801EB410205EB420C9CF8AA
:10046800000C00283CD194F800C00CEB4C0205EBC2
:10047800420595F8000F00BB434A11884EF66023E9
:1004880093FBF1F000EE900A9FED400AB8EEE07A97
:1004980017EE008A86ED008AACE701F0BFFF2178ED
:1004A80001EB410205EB420CC0B29CF804309842C3
:1004B800B2D3002000F04CFFAEE701F0AFFF2F4AA7
:1004C800304B92F800C00CEB4C0103EB4102C1B277
:1004D80092F8043F9942CFD3052000F039FFCBE7CB
:1004E80001F09CFF2549274A0B7803EB430102EBF7
:1004F800410CC0B29CF8043C9842B4D3042000F0EC
:1005080027FFB0E701F08AFF1C4B1E4A197801EB60
:10051800410302EB430CC1B29CF80409814299D310
:10052800032000F015FF95E701F078FF1349154AFD
:100538000B7803EB430C02EB4C01C0B291F8043684
:100548009842FFF47EAF022000F002FF79E701F045
:1005580065FF0A4B0B4A93F800C00CEB4C0102EB09
:100568004103C1B293F804038142FFF460AF012054
:1005780000F0EEFE5BE700BFCC040020AC040020D6
:10058800D0040020D4040020040000200000003D16
:1005980000EB400040F2D44301EB410C0002C2F2F0
:1005A800000300EB4C015A54704700BF00EB4000B9
:1005B80001EB410340F2D44C0002C2F2000C00EB04
:1005C80043010CEB0103D2431A71704702EE100A83
:1005D800DFED081AB8EEC21AF6EE000A81EE210A1B
:1005E800DFED057A30EE607AB7EE000A07EE270AEB
:1005F800704700BF0000FE42A08F733DC0F3072183
:1006080082B08B1E0190C0F30740342B57D8DFE827
:1006180013F026030103DC02350056005600B80229
:1006280092026C025600560056004D023A0227020A
:10063800170207025600F701E701DB01D301C701E2
:10064800B701A70186015600760166015A015101DA
:10065800450135012501150156000501F500E900A0
:100668005600E000D400C400B400A4009400840044
:10067800740064005800600241033103B04B1A7ED5
:1006880042EA0022D1B201EE101AF8EEC16A9FEDDB
:10069800B25A86EE854AAB491A8301EB8000F6EE22
:1006A800004A34EE643ADFEDA83AB7EE002A03EECA
:1006B800232AD0ED002A62EE821AC3ED001A02B096
:1006C800704706EE900A9FEDA47AF8EEE60A9F4876
:1006D80080EE870A02B001F09FBB00EE100ADFED42
:1006E8009E5AB8EEC06A994886EE255A65EE054AC4
:1006F80024EE850A02B001F0C7BB04EE100ADFED54
:10070800963AB8EEC43AB2EE082AC3EE232A8C4BC6
:1007180062EE821AC3ED1E1AD1E707EE900A9FED2A
:100728008E1AF8EEE76ADFED8D0A86EE817A844A42
:1007380047EE600AC2ED1A0AC1E700EE100A9FED03
:10074800866AF8EEC05ADFED854A85EE865A7C48FF
:1007580045EE644AC0ED204AB1E704EE100ADFED29
:100768007E3AB8EEC43A9FED7D2AC3EE232A744937
:1007780002EEC22A81ED1F2AA1E701EE900ADFED01
:10078800767AB8EEE11ADFED720AC1EE276A6C4B91
:1007980026EEA07A83ED077A91E702EE100ADFEDE4
:1007A8006E1AB8EEC21AF6EE007AC1EE216A02207D
:1007B80036EEE70A02B000F0E5BC00EE900A9FEDC5
:1007C800660AB8EEE07A634887EE006A80ED516AFF
:1007D80075E75C495F4A01EB8003D3F800C0C2F8B3
:1007E80024C16CE705EE900ADFED5B4AB8EEE55AE6
:1007F800584985EE244A81ED504A60E703EE900A95
:100808009FED553AF8EEE32AF2EE081A82EE832AB3
:10081800504822EE211A80ED591A50E706EE900A48
:10082800DFED4D7AF8EEE60A9FED4C0A80EEA77AE6
:10083800484B07EE400A83ED550A40E706EE100ADA
:10084800DFED455AB8EEC65A9FED444AC5EE254A33
:10085800404A04EEC44A82ED5B4A30E703EE900A50
:100868009FED3D3AF8EEE32ADFED3C1A82EE832A4B
:10087800384942EE611AC1ED5A1A20E701EE100A12
:10088800DFED356AF8EEC10AF6EE007A80EEA60AC8
:10089800012030EE670A02B000F074BC07EE100ABF
:1008A800DFED2D5AB8EEC76A2A4886EE255A80ED44
:1008B800305A04E7234B274A03EB800CDCF800107E
:1008C800C2F8A010FBE604EE900ADFED233AB8EE7A
:1008D800E44A204884EE233A80ED2F3AEFE602EE10
:1008E800900A9FED1D2AF8EEE21AF2EE086A81EEF0
:1008F800821A184B61EE260AC3ED380ADFE607EEC6
:10090800900A9FED150AB8EEE77ADFED145A87EEE4
:10091800006A104A46EE655AC2ED345ACFE605EE33
:10092800100ADFED0D4AB8EEC54A9FED0C3AC4EE49
:10093800243A084903EEC33A81ED3A3ABFE600BFCC
:10094800A41800203CB50008A08F733DF4180020BF
:1009580000409C46DC1600200000FE420000003DDE
:1009680002EE900A1FED042AF8EEE21A5FED056A1E
:1009780081EE821ACD4841EE666AC0ED396A9EE67C
:1009880000EE900ADFEDCA7AB8EEE00AB6EE007A19
:1009980080EE276A002036EE470A02B000F0F2BB6C
:1009A80005EE900ADFEDC24AB8EEE55ABF4B85EE78
:1009B800244A83ED0F4A82E6BE4ABC4902EB800C0A
:1009C800DCF80000C8617AE603EE900ADFEDB82A89
:1009D800B8EEE33AB54B83EE222A83ED0E2A6EE693
:1009E80001EE900A9FEDB21AF8EEE16AB2EE080A3B
:1009F800C6EE810AAD4A60EE807AC2ED177A5EE6ED
:100A080007EE100A9FEDAA6AF8EEC75ADFEDAA4A68
:100A180085EE865AA54945EE644AC1ED134A4EE66D
:100A280004EE100ADFEDA23AB8EEC43A9FEDA22A0E
:100A3800C3EE232A9D4802EEC22A80ED192A3EE61B
:100A480001EE900A9FED9A1AF8EEE16A9FED9A0A74
:100A5800C6EE810A954B00EEC00A83ED180A2EE611
:100A680040F2094200FB00F1C8F2021282FB012C9D
:100A78000CEB0100831107EE903A8C49B8EEE77A47
:100A880081ED617A1BE640F2094200FB00FCC8F2E6
:100A9800021282FB0C2000EB0C03991106EE101ACF
:100AA8008248F8EEC65AC0ED405A08E640F20942BC
:100AB80000FB00FCC8F2021282FB0C2303EB0C01C2
:100AC800881105EE100A794BF8EEC54AC3ED1F4AA6
:100AD800F5E502EE100ADFED767AF8EEC21A7749EC
:100AE80081EEA71A81ED111AE9E504EE100ADFED8F
:100AF800703AB8EEC43A6D4B83EE232AB3F820213E
:100B080002F47F4C4CEA00006A4AA3F82001010A6B
:100B180002EB8101F6EE002A32EE621ADFED681A66
:100B2800F7EE000A41EE210AD1ED006A26EEA00A8E
:100B380083ED420AC3E507EE900A9FED5D7AB8EEB1
:100B4800E76A5A4B86EE075AB3F89C2002F47F4CAA
:100B58004CEA0000574AA3F89C00010A02EB810105
:100B6800F6EE005A35EE654ADFED554AB7EE003A23
:100B780004EE243AD1ED003A63EE832AC3ED212A2C
:100B88009DE502EE100ADFED4A1AB8EEC21A474B8D
:100B9800C1EE210A1A8B02F47F4C4CEA0000454A48
:100BA8001883010A02EB810CF6EE006A70EEE67A11
:100BB8009FED430AB7EE006A07EE806A9CED007A63
:100BC80067EE065AC3ED005A79E5384B394A93F86F
:100BD80020C14CEA002C5FFA8CF106EE901ADFED8A
:100BE800340AB8EEE60AF6EE007A80EE207A02EBD6
:100BF8008000A3F820C19FED326A77EE675AF7EEBE
:100C0800004A45EE864A90ED005A25EE244A83EDC7
:100C1800424A54E5254B93F89C1041EA002C5FFAB0
:100C28008CF203EE902A9FED223AF8EEE32AB6EE14
:100C3800002AC2EE831A1F49A3F89CC001EB80006A
:100C48009FED1F1A71EEC26AB7EE000A06EE810A1E
:100C5800D0ED000A60EE807AC3ED217A2FE5134BC0
:100C68001A7E42EA00225FFA82FC07EE10CAF8EE0A
:100C7800C76A0CE500EE100A9FED0D6AF8EEC05A3F
:100C8800B6EE005AC5EE864A002034EEC50A02B018
:100C980001F026B904EE100A9FED053AF8EEC43AC1
:100CA800064AC3EE832AC2ED0E2A08E5DC160020A8
:100CB8000000FE423CB500080000003DA4180020DA
:100CC800A08F733D30B4164BC2B21C7882B002F0CC
:100CD8000F050146A5420191C1F30720C1F3074161
:100CE80002D002B030BC7047B02A10D006D9C02A52
:100CF800F7D0E02AF5D004205870F2E7802A02D015
:100D0800902AF8D139B902B030BC00F095B90198F1
:100D180002B030BC72E402B030BC00F07BB900BF56
:100D2800B4040020704700BF134B1A7800F00F017D
:100D3800914202D004225A707047B02806D00DD8CC
:100D4800902803D0A02801D08028F3D10B4A012194
:100D580059700B4B1070022018707047D028F5D0CE
:100D6800E028F3D0C028E5D1044908700120587064
:100D7800034B1870704700BFB4040020D816002039
:100D8800D7160020F0B5214B5A78012A83B00146C6
:100D980000D005D21E48022241705A7003B0F0BD3F
:100DA800022AFBD11A4A1D78907016681478ADF89B
:100DB8000460300C04F00F060027AE428DF80600E0
:100DC8005F705078EAD1B02C16D006D9C02CE5D087
:100DD800E02CE3D004215970E0E7802C07D0902C58
:100DE800F8D121B103B0BDE8F04000F013B903B069
:100DF800BDE8F04000F020B98DF806108DF80440E9
:100E08008DF805000198FFF7F9FBC7E7B404002047
:100E1800D8160020F0B5030683B001460AD4364B35
:100E28005A78012A00D012D23448022241705A70EE
:100E380003B0F0BD00F0F003F02BF9D02E4B1A7878
:100E480000F00F00904223D004215970F0E7022AE5
:100E5800EED12A4A1D78907016681478ADF80460AF
:100E6800300C04F00F060027AE428DF806005F70C4
:100E78005078DDD1B02C35D028D8802C2DD0902CAE
:100E8800E2D1002929D003B0BDE8F04000F0C2B893
:100E9800B02906D00DD8902903D0A02901D08029E7
:100EA800D2D1164A01205870154B117002211970C1
:100EB800BEE7D029F5D0E029F3D0C029C4D10F4826
:100EC8000170012159700E4B1970B1E7C02CAFD0D9
:100ED800E02CADD004215970AAE703B0BDE8F0407A
:100EE80000F0AAB88DF806108DF804408DF80500BA
:100EF8000198FFF783FB9BE7B4040020D816002075
:100F0800D716002008B54FF48840C4F2000020210D
:100F180009F0AAFB0028F6D04FF48840C4F200007C
:100F280009F0E0FAC0B208BD4FF4884008B5C4F231
:100F3800000040F2255109F0A1FB00B908BD4FF4AB
:100F48008840C4F2000009F0CDFAC0B2BDE80840FC
:100F5800FFF760BFF0B501208BB00146002706F00F
:100F68002DFCC4F2020701214FF4003006F050FCBA
:100F7800002508230126022405A9384605938DF883
:100F880018408DF819408DF81A508DF81B604FF4F1
:100F9800884405F0F5FA07220321384605F0E6FBF8
:100FA800C4F2000407A809F05FFA204607A909F06F
:100FB80043FA042347F61222204601A90192ADF80C
:100FC8000E30ADF80850ADF80A50ADF80C50ADF839
:100FD800105009F0A5F93146204609F04BFA0F23C5
:100FE800262209A88DF824208DF825308DF8263082
:100FF8008DF8276002F032FB20462A4640F227711E
:1010080009F014FB204640F22551324609F00EFB48
:101018000BB0F0BDA0F12403052B0BD8DFE803F0DB
:101028000707070303032738C0B201F037B8D8B25F
:1010380000F08EB9704700BF704700BF00214FF025
:101048007E53416003607047D0ED017A90ED007ADD
:1010580030EE670A40EE077AB0EE670AC0ED017A13
:10106800704700BF80ED000A704700BF80ED010A9D
:10107800704700BF03464CF6CD42C3F6CC524BF244
:10108800177C1A60C3F6D10C0021002200F1080079
:10109800C3F804C019611A75FFF7D0BF034693ED72
:1010A800000A012200F108001A75FFF7DBBF00BF34
:1010B80038B52DED028B037D012B044606D0022B9B
:1010C80020D09FED1B0ABDEC028B38BD00F108054E
:1010D80028469FED180AFFF7B7FFF7EE007AB4EE3F
:1010E800E70AF1EE10FA84ED040AECDB022394ED32
:1010F800010AC4ED047A23752846FFF7B3FF94ED7F
:10110800040AE0E79FED0A8A00F10800B0EE480AF9
:10111800FFF79AFFB4EEC80AF1EE10FA84ED040A5C
:10112800D1D8002084ED048A2075B0EE480ACAE7B9
:1011380000000000CDCC8C3F03464BF21771C3F67C
:10114800D101002204301960DA60FFF777BF00BFD1
:1011580010B5041D90ED000A2046FFF783FF2046D6
:10116800B7EE000ABDE81040FFF780BF10B59FED4D
:10117800040A04460430FFF767FF84ED030A10BD34
:101188000000000030B52DED028BB0EE408AB6EEBF
:10119800000A30EE480A83B0B1EEC07AB4EE477A5E
:1011A800F1EE10FA1AD1F6EE007A38EE278A4501E8
:1011B800F1EEC87A114C291804EB810383ED107AFB
:1011C800F4EE677AF1EE10FA0FD1281804EB8004D8
:1011D800C4ED117A03B0BDEC028B30BD01900AF06A
:1011E80045F80198B0EE407ADDE7B0EE480A019084
:1011F8000AF03CF80198F0EE407AE6E7DC160020A9
:101208002DE9F04F41F2DC64C2F2000483B040F2F1
:10121800F34A4FF000094CF6CD41C3F64C71C3F6C2
:10122800357AC4F2DC3900274FF07C554FF00108BD
:101238004FF48C464FF07E5B04F14C00E163019162
:10124800C4F840A0C4F844A0A563C4F81C9084F86E
:1012580020802763A686C4F82CB0C4F8009084F8D0
:10126800048067612683FFF767FF04F16000E56586
:10127800FFF700FFB0EE000A04F17C0000F096FFD3
:10128800019BC4F8C4A004F1D000C4F8C030C4F86D
:10129800C8A0C4F8BC50C4F8A09084F8A480C4F8CE
:1012A800B470A4F8B860C4F8B0B0C4F8849084F8F6
:1012B8008880C4F89870A4F89C60FFF73DFF04F19B
:1012C800E400C4F8E050FFF7D5FEB0EE000A04F5DC
:1012D800807000F06BFF019AC4F848A104F5AA7069
:1012E800C4F84421C4F84CA1C4F84051C4F824916E
:1012F80084F82881C4F83871A4F83C61C4F834B182
:10130800C4F8089184F80C81C4F81C71A4F8206111
:10131800FFF712FF04F5B470C4F86451FFF7AAFE92
:1013280004F5C270B0EE000A00F040FF41F26F21F0
:1013380046F266600023C3F60321C3F66670C4F262
:10134800DC236166E063236003B0BDE8F08F00BF73
:1013580038B500EB401041F2DC648500C2F20004AD
:101368006019034600224C309A605A62FFF7F0FE7B
:1013780060352819BDE83840FFF790BE704700BFB8
:1013880070B500EB401041F2DC658600C2F2000542
:10139800A8194C30FFF7EAFEAC19D4ED170AF7EE9E
:1013A800007A40EE207A94ED0E7A27EE000A603635
:1013B8007019C4ED047A84ED050AFFF779FE84ED0F
:1013C8001E0A70BDF8B500EB401141F2DC648E00D6
:1013D800C2F20004A7191C373519384600F092FBF1
:1013E8003946284600F0BCF801EE900A95ED1E7AC1
:1013F800B8EEE11AD5ED0F7A61EE070A034620EE42
:10140800A70A05F17C00A5F8483000F0D3FEBDEE30
:10141800C00A2C4610EE100A00B2F8BD41F6680C5E
:1014280041F68403C2F2000CC2F200030020C4F2A9
:10143800DC300222CCF8000018608CF8042000216F
:1014480003204FF40072CCF8081018719A607047A6
:101458009FED082ADFED081A20EE021A9FED077AA1
:10146800C1EE210A20EE870AFCEEC07A17EE900A38
:10147800704700BF00008045C2E22B47000080494A
:10148800D0ED002A9FED0A2ADFED0A1A22EE821A11
:101498009FED097AC1EE210A8268034620EE870A89
:1014A800FCEEC07A17EE900A80189860704700BF6B
:1014B80000008045C2E22B470000804990ED005AA9
:1014C800D0ED044A9FED234A65EE243A9FED223A77
:1014D80063EE842A9FED217A82EE832A816810B513
:1014E80004464BF23C7EC0F6000E2DED028B62EEF8
:1014F800071ABCEEE11A11EE10CA0CEB0100030D3D
:101508005A1C3EF913C03EF91210A060CCEB010240
:1015180000EE102A00EE90CA20F07F4020F47800F8
:10152800F8EEE08AB8EEC08A09F06EFA00224FF0B1
:101538007B5309F0DFFA09F0EFFC07EE900A48EE5A
:10154800278AFDEEE88A18EE903A18B2A381BDEC1E
:10155800028B10BD00008045C2E22B470000804985
:10156800D0ED047A90ED000ADFED2B5A20EE275AD1
:10157800DFED2A4A25EE254A38B584EE243A04469A
:10158800B1F90C00A3684BF23C7EC0F6000E03EEE6
:10159800900A9FED236AF8EEE36AD4ED052A23EE5C
:1015A800062A66EEA21ABCEEC27ABCEEE11A17EE63
:1015B80010CA11EE105A0CEB030101EB4540020D65
:1015C800551C3EF912C03EF91530CCEB030200EE73
:1015D800102A00EE90CA20F07F402DED028B20F4F7
:1015E8007800A160F8EEE08AB8EEC08A09F00CFA3B
:1015F80000224FF07B5309F07DFA09F08DFC07EECD
:10160800900A48EE278AFDEEE88A18EE903A18B25A
:10161800A381BDEC028B38BD00008045C2E22B4798
:101628000000804990ED005ADFED405A90ED046AC1
:1016380085EE254A70B5856804462A0DDFED3C3AEB
:1016480065EE064A9FED3B3A64EEA32A24EE232A70
:10165800C2EE830AF6EE006A62EE261ADFED367AEB
:10166800BCEEE11A20EEA70A11EE101ABCEEC07A01
:1016780088B280F30B039BB29A422DED028B17EED2
:10168800106A40D3D21AC3F5805C04EE902A04EEA7
:1016980010CAF8EE643AB8EEC43ADFED282AC3EE71
:1016A800836A46EEA22ABCEEE22A12EE103A591CD0
:1016B800234A32F913E032F911C0CEEB0C0105EEE2
:1016C80090EA06EE101A25F07F4020F47800F8EE34
:1016D800E58AB8EEC68A09F097F900224FF07B53E5
:1016E80009F008FA09F018FC05EE100A48EE058A18
:1016F8007519FDEEE88AA56018EE903A18B2A38134
:10170800BDEC028B70BD01EE103A01EE902AF8EEA6
:10171800410AF8EE617A9FED097A87EEA00A60EE39
:10172800078ABCEEE88A18EE103AC0E750434E46E6
:1017380000008045C2E22B470000804900000045B8
:101748003CB70008D0ED002A90ED043ADFED615A6D
:1017580022EE832ADFED601A22EE251A5F4AC1EED7
:10176800210A70B585682B0D044692ED007A9FED2D
:101778005C5ADFED5C7A27EE057A9FED5B6A04EE32
:10178800103A20EEA70A77EE066AF8EE447AFCEEE5
:10179800C04AF4EEE67AF1EE10FA2DED028B14EE63
:1017A800906A63DCDFED515A35EEC76AB4EEE76A3A
:1017B800F1EE10FA1ED49FED4E1A77EE016AF4EEA0
:1017C800E76AF1EE10FA73D435EE477AB4EEE77AA9
:1017D800F1EE10FA5DD4C7EE870ADFED467A20EE07
:1017E800A70AB6EE004A60EE044ABCEEE45A15EECB
:1017F800103A0DE077EEC60A76EEC67A9FED3E0AFD
:1018080080EEA74A44EE005AFCEEE54A14EE903A00
:101818003A4A591C32F913E032F91130CEEB030180
:1018280001EE90EA07EE101A25F07F4020F47800C8
:10183800F8EEE18AB8EEC78A09F0E6F800224FF020
:101848007B5309F057F909F067FB01EE100A48EEDF
:10185800018A7519FDEEE88AA56018EE90CA0FFA9C
:101868008CF0A4F80CC0BDEC028B70BD37EEE68A94
:1018780075EEE68ADFED1F6AC8EE285AF6EE003AE2
:1018880025EEA65A05EE236ABCEEC66A16EE103A95
:10189800BEE777EEC78A36EEC78ADFED175AC8EE7D
:1018A800886A06EEA55AFCEEC53A13EE903AAFE701
:1018B80037EEE63A36EE666ADFED111AC3EE062A0F
:1018C8009FED0C2A42EE821ABCEEE17A17EE103A2E
:1018D8009EE700BF00008045C2E22B47B804002005
:1018E80000C0CC4300008049005866450090194567
:1018F8000060CD4400C04C44009099443CB70008B7
:1019080000C0CC4463499FED642AD1ED007AD0ED44
:10191800004A27EE825AD0ED045A84EE854AF8B57B
:101928008568B1F804C0290D0CEB01073A05044697
:10193800120D9FED5A3A64EEA53A64EE031A63EE6F
:10194800832AF6EE006AC2EE820A21EEA61A9FEDFD
:10195800546ABCEEC17A20EE860A17EE106AFCEED5
:10196800C07AB0B280F30B039BB299422DED028B83
:1019780017EE906A64D201EE901A01EE103AB8EEB2
:10198800617AB8EE416ADFED470A87EE060A9A42A5
:1019980060EE208ABCEEE88A18EE100A67D3D21AE5
:1019A800C3F5805302EE903A03EE102AB8EEE22A0D
:1019B800F8EE436A9FED3B1AC6EE821A01EE811AD1
:1019C800BCEEC17A17EE103A37495F1C00F1010EE0
:1019D80031F9132031F9173031F91EC031F910707F
:1019E80052105B10C2EB670EC3EB6C0107EE90EA76
:1019F80005EE101A25F07F4020F47800B8EEE78A4B
:101A0800F8EEC58A09F000F800224FF07B5309F080
:101A180071F809F081FA05EE900AF0EE484A58EE9E
:101A2800A54A751978EE243AA560BDEEE38A18EE4A
:101A380010CA0FFA8CF0A4F80CC0BDEC028BF8BDEC
:101A4800C81AC3F5805E04EE900A04EE10EAF8EEB8
:101A5800643AB8EEC43A9FED132AC3EE832A9A4239
:101A680002EE822AFCEEC26A16EE900A97D200EEC7
:101A7800903A06EE102AF8EE608AB8EE460A9FED14
:101A8800098AC0EE287A27EE885AFCEEC55A15EE68
:101A9800903A99E708000020C2E22B4700008045F1
:101AA80000008049000000453CB70008D0ED003A2E
:101AB80090ED043ADFED102A23EE832ADFED0F1AAA
:101AC80022EE221A9FED0E7AC1EE210A826810B525
:101AD800044620EE870AFCEEC07A17EE900A8318B7
:101AE8009A42A36002D8A08900B210BD00F096FC0B
:101AF80080B2A08100B210BD00008045C2E22B4731
:101B08000000804970B504460079431E032B53D862
:101B1800DFE803F00E0A06022046BDE87040F1E651
:101B28002046BDE870407DE52046BDE8704009E6E6
:101B3800D4ED005A94ED045ADFED214A25EE854A8A
:101B4800DFED203A24EE243ADFED1F2A83EE232A24
:101B5800A3681E4E62EE221ABCEEE11A11EE10EADC
:101B68000EEB030525F07F41A56021F4780008F00D
:101B78004BFF00224FF07B5308F0BCFF09F0CCF973
:101B88002D0D6A1C06EE900A36F915C036F91200BA
:101B9800CCEB000300EE903A06EE10CAB8EEE07AFD
:101BA800B8EEC60A06EE870AFDEEC07A17EE902A4E
:101BB80090B2A28100B270BD002000B270BD00BF1B
:101BC80000008045C2E22B47000080493CB700086E
:101BD80060EE006ADFED060A9FED067A06EEA07A4F
:101BE800F7EE007A47EE267A27EE800A704700BFA4
:101BF800E02D503EEA95A23E90ED150A90ED143A7C
:101C0800B7EE001AD0ED131A30EE412A73EE012A0E
:101C180071EE430A70EE227A72EE026A31EE815A50
:101C280031EE617A30EE206AC6EEA75AC5EE273A41
:101C380087EE274AC6EE274A80ED045AC0ED056AAA
:101C480080ED067AC0ED077AC0ED086A80ED096A72
:101C5800C0ED0E3AC0ED0F5A80ED104AC0ED115A92
:101C6800C0ED124A704700BFD0ED010A90ED021A8C
:101C780080EE817A60EEA07A90ED030AB0EE676A92
:101C880007EE006AC0ED157A80ED147A80ED136ACC
:101C9800704700BF10B5044610EE100A08F0D6FED3
:101CA8001FA3D3E9002308F025FF1FA3D3E90023CE
:101CB80009F04AF809F030F906EE100AF6EE003A93
:101CC80026EE231A9FED143A21EE012ADFED132A9E
:101CD80042EE032AF7EE001A42EE221AD4ED020A67
:101CE80061EE217A94ED030A87EEA07A20602046FF
:101CF80067EEA76AC4ED017AB0EE665A07EE005A9D
:101D0800C4ED156A84ED147A84ED135ABDE81040C9
:101D180072E700BFAFF30080E02D503EEA95A23E87
:101D2800182D4454FB21194000000040587CE54020
:101D380000234FF07E518160C1608362C3620363F8
:101D4800436347F2854243F2BB7C49F239214EF6A0
:101D5800A953C3F69252C3F6126CC3F6A731C3F661
:101D68009C53C0F800C0426041650265C36443E704
:101D780090ED011A81EE007A61EE017AD0ED030A46
:101D8800B0EE676A07EE206A80ED020AC0ED157AA8
:101D980080ED147A80ED136A2EE700BFD0ED010ABA
:101DA80090ED021A80EE817A60EEA07A80ED030A47
:101DB800F0EE676A40EE076AC0ED157A80ED147A96
:101DC800C0ED136A18E700BFD0ED0A7AD0ED0F2AEC
:101DD80090ED0E2A27EEA27A00EE027AD0ED0B1AC9
:101DE80090ED101A01EE217AD0ED0C6AD0ED110AAF
:101DF80006EEE07A90ED0D6AD0ED125A05EEC67A3D
:101E080080ED0A0AC0ED0B7AC0ED0D6A80ED0C7A00
:101E1800B0EE470A704700BFF7EE000A70EEC07ACE
:101E280080ED050AC0ED017A704700BF4CF6CD433E
:101E380000214FF07E52C3F6CC538160C16001612E
:101E4800026042604361704710B5044610EE100A04
:101E580008F0FCFD08A3D3E9002308F04BFE024676
:101E68000B4608F095FC06A3D3E9002308F06CFFA5
:101E780009F052F8206010BD182D4454FB21194078
:101E880000000040587CE54080ED000A704700BF24
:101E9800704700BFD0ED047AD0ED036A90ED011AC7
:101EA800F0EE670A46EE810A90ED007A30EE606A3D
:101EB80046EE076A80ED026A47EE267AC0ED036AAD
:101EC800C0ED047A704700BF90ED030A704700BF69
:101ED80090ED040A704700BF90ED020A704700BFFA
:101EE80030B52DED028BB0EE408AB6EE000A30EE2A
:101EF800480A83B0B1EEC07AB4EE477AF1EE10FA30
:101F08001AD1F6EE007A38EE278A8500F1EEC87A03
:101F1800114C291804EB411383ED0F7AF4EE677A1C
:101F2800F1EE10FA0FD1281804EB4014C4ED107A22
:101F380003B0BDEC028B30BD019009F097F9019810
:101F4800B0EE407ADDE7B0EE480A019009F08EF96C
:101F58000198F0EE407AE6E7A41800202DE9F04F4A
:101F680041F6A404C2F2000483B040F2F3494FF0F2
:101F780000084CF6CD42C3F64C72C3F63579C4F26C
:101F8800DC38002601274FF48C454FF07E5B04F1C6
:101F98006800A26301924FF07C5AC4F83C90C4F8E0
:101FA8004090C4F81C8084F820702663A586C4F885
:101FB8002CB0C4F80080277166612583FFF7BCF850
:101FC80004F17C00C4F878A0FFF754F8B0EE000ADA
:101FD80004F1980000F0EAF804F15000FFF726FF3A
:101FE8000199C4F8DC9004F58470C4F8D810C4F8DA
:101FF800E090C4F8BC8084F8C070C4F8D060A4F83D
:10200800D450C4F8CCB0C4F8A08084F8A470C4F844
:10201800B460A4F8B850FFF78FF804F58E70C4F8D0
:1020280018A1FFF727F8B0EE000A04F59C7000F03D
:10203800BDF804F1F000FFF7F9FE019BC4F87C91AC
:1020480004F5D470C4F87831C4F88091C4F85C8180
:1020580084F86071C4F87061A4F87451C4F86CB164
:10206800C4F8408184F84471C4F85461A4F8585104
:10207800FFF762F804F5DE70C4F8B8A1FEF7FAFFBE
:1020880004F5EC70B0EE000A00F090F804F5C870A2
:1020980003B0BDE8F04FFFF7C9BE00BF38B500EB8D
:1020A800800141F6A4044D01C2F200046319002224
:1020B80005F1680000199A60FFF74AF8641904F1FD
:1020C8007C00BDE83840FEF7E9BF00BF00EB8001A7
:1020D80070B54E0141F6A404C2F2000406F168008E
:1020E8000019FFF743F8A51995ED1E7AF7EE007A67
:1020F80040EE077A05F17C00C5ED047AFEF7D8FFBB
:102108002C4685ED250A70BD70B500EB800441F6BC
:10211800A4056601C2F20005A81904461C30FFF7A1
:10212800C5FCB4F9282000EE902ADFED1F7AB8EE3E
:10213800E00A5036751920EE270A2846FFF7AAFE4E
:102148002846FFF7C9FEBDEEC05A204615EE101A04
:1021580001F30F03E364FFF7B1F994ED113A04EECC
:10216800900AB7EE004AD4ED135AB8EEE46A74EE5A
:10217800433AF8EEE52A26EE232A02EE832AD4ED26
:10218800256AFDEEC21A94ED0E7AB8EEE11AA4F8AB
:10219800480061EE260A20EE870AFDEEC07A17EEA7
:1021A800900A00B270BD00BF3333333F80ED000AA0
:1021B800704700BF90ED001ADFED097AB0EEC06AF3
:1021C800F7EE001A71EE216A41EE067A66EE800A91
:1021D8009FED047A80EEA70A20EE070A704700BF39
:1021E80000FEFF4600E8FF462DE9F04704460020C0
:1021F800FFF7C6F80020FFF769FF0120FFF7C0F8D6
:102208000120FFF763FF0220FFF7BAF80220FFF76B
:102218005DFFDFF8ECA1DFF8EC81784F4FF0100993
:102228000020FFF7CFF802EE900AD8ED111AB8EEA9
:10223800E21A98ED102A61EE216A61EE020A9AF814
:102248000050BDEEE06AFDEEE67A05F01F056E1C53
:1022580016EE100A17EE901A24F81500002024F83C
:102268001610FFF751FF34F9153007EE100A00EE8B
:10227800103AF8EEC73AD7ED0F5AB8EEC05A03EE47
:10228800A55A97ED103AFDEEC54A012014EE90CA02
:1022980024F815C034F9162004EE102AF8EEC42AE2
:1022A80043EE832ABDEEE22A12EE101A24F8161025
:1022B800FFF788F834F9153001EE900A01EE103A6C
:1022C800B8EEE17AD8ED310AB8EEC16A07EE206AB5
:1022D80098ED320AFDEEC66A012016EE90CA24F87F
:1022E80015C034F9162007EE902AF8EEE75A47EEA3
:1022F800005ABDEEE55A15EE101A24F81610FFF72D
:1023080003FF34F9153004EE900A04EE103AF8EEA3
:10231800E41AD7ED373AB8EEC43A01EEA33A97ED8E
:10232800381AFDEEC32A022012EE90CA24F815C00E
:1023380034F9162002EE102AF8EEC20A41EE810A9C
:10234800BDEEE06A16EE101A24F81610FFF73AF8F8
:1023580034F9153007EE100A06EE903A98ED520A55
:10236800F8EEC74AF8EEE67A44EE807A98ED534ADA
:10237800FDEEE75A022015EE90CA24F815C034F98C
:10238800162005EE102AF8EEC53A44EE843ABDEE62
:10239800E33A13EE101A24F81610FFF7B5FE34F9D5
:1023A800153002EE900A02EE103AD7ED5F1AB8EE39
:1023B800E27AB8EEC21A07EE211AD7ED606AFDEE8E
:1023C800C10A10EE90CA24F815C034F9162006EE9A
:1023D800102AB8EEC60A07EE260AFDEEC07A17EEF6
:1023E800901A24F816109AF80000831CB9F1010914
:1023F8008AF800307FF414AFBDE8F087A4180020F5
:10240800BE040020DC16002008B54020012105F09C
:10241800E3F90120BDE8084005F0F4BA05F000BB77
:102428004BF23C73C0F6000333F91000704700BF4D
:1024380080F4004007284BF23C73C0F6000394BFB9
:102448000020012033F91000704700BF10B541F695
:102458008824C2F2000447F6F473238000F05AFA85
:102468002046202100F056FF002010BDF8B5054693
:102478004FF4A8400E46C4F20000942100229D4C5F
:1024880004F020FE4FF4805323604FF4A8408221CB
:10249800C4F20000C0F2070104F016FF30B920684A
:1024A800421E22600028F0D10120F8BD4FF4A84058
:1024B8002946C4F2000004F09FFE4FF480512160C9
:1024C8004FF4A8408021C4F20000C0F2070104F0D4
:1024D800FBFE30B92368581E2060002BF0D1012084
:1024E800F8BD4FF4A840C4F20000314604F084FE61
:1024F8004FF49612226002E02368591E21604FF4BF
:10250800A8400421C4F20000C1F2000104F0F4FE66
:102518000028F1D04FF4A840C4F20000012104F0D3
:10252800C3FD4FF4961020604FF4A840C4F2000099
:102538004FF4003104F0E0FE48B121684A1E2260E1
:102548000029F1D10124301B18BF0120F8BD4FF438
:10255800A840C4F20000012104F098FD4FF4805314
:1025680023604FF4A8400121C4F20000C0F2030127
:1025780004F0AAFE28B92068411E21600028F0D185
:10258800E0E74FF4A8400022C4F20000942104F0D0
:1025980099FD4FF4805222604FF4A8408221C4F282
:1025A8000000C0F2070104F08FFE28B92368581E06
:1025B8002060002BF0D1C5E74FF4A8402946C4F2AB
:1025C800000004F019FE4FF4805121604FF4A84038
:1025D8000421C4F20000C1F2000104F08DFE28B904
:1025E80023685A1E2260002BF0D1ABE74FF4A840B5
:1025F800C4F20000012104F049FD4FF4805020602E
:102608004FF4A8400121C4F20000C0F2030104F015
:102618005BFE28B921684B1E23600029F0D191E7A1
:102628004FF4A840C4F20000942101224FF48055D1
:1026380004F048FD256004E02068421E226000285E
:1026480080D04FF4A845C4F2000502212846C1F203
:10265800000104F051FE0028EED02846002104F0C5
:102668003BFD012128462B8B04F01EFD4FF48051C1
:1026780021604FF4A8404021C4F20000C1F20001DB
:1026880004F03AFE28B92368581E2060002BF0D1C8
:1026980058E74FF4A840C4F2000004F0AFFD4FF42F
:1026A80080524FF4A841226040F6FF73C4F2000143
:1026B8000F885D1E17F4007F04D0AA1C16D01A4696
:1026C8002B46F5E7226004464FF4A8400121C4F2E6
:1026D800000004F001FD4FF4A8404FF48061C4F2FB
:1026E8000000C1F2000104F023FE2CE7236001245E
:1026F80029E700BF180000200120704746F2B80003
:1027080010B5C4F202004FF0205103F045F800283C
:1027180034D0454C2078431C237046F2B800C4F2EC
:10272800020003F031F80028F7D146F2B800C4F2ED
:1027380002004FF0205103F051F820783B493C4B00
:1027480000F0010C01EB8C129A6046F2B8002022CE
:1027580019461A61C4F2020002F074FF46F2B8008A
:102768000121C4F2020002F0CBFF94F800C0314905
:102778001CF0010F14BF002201220A7046F2B800B3
:10278800C4F202004FF0105103F006F8002837D1C8
:1027980046F2B800C4F202004FF0085102F0FCFF04
:1027A800D8B146F2B800C4F202004FF0085102F066
:1027B800F3FF40B946F2B800C4F202004FF00151ED
:1027C80002F0EAFF28B346F2B800C4F202004FF064
:1027D8000D51BDE8104003F001B846F2B800C4F24C
:1027E80002004FF0015102F0D7FF0028D9D146F27C
:1027F800B8004FF00451C4F2020002F0CDFFD0E758
:1028080046F2B800C4F202004FF0105102F0E6FFA1
:10281800BEE746F2B800C4F202004FF0045102F0DD
:10282800BBFF0028CFD110BDBF040020881A0020AC
:10283800081B0020BC04002030B546F2B80583B060
:10284800C4F2020501214FF4001004F0B7FF002183
:10285800284602F055FF284602F0F2FD41F6083CF2
:10286800C2F2000C43F60C42C4F20002CCF8042079
:1028780040234FF6FE72CCF80C30CCF810204FF401
:1028880080634FF4006200246146CCF81830CCF81D
:102898001C204FF4005328464FF40032CCF8203067
:1028A800CCF82820CCF80040CCF80840CCF81440EC
:1028B800CCF82440CCF82C40CCF83040CCF834404C
:1028C800CCF8384002F0BEFE28461021012202F062
:1028D800A7FF28460821012202F0A2FF8621012233
:1028E800284602F09DFF012501A82F238DF804300A
:1028F8008DF805408DF806408DF8075000F0AEFEC3
:102908004FF47050C4F2000002212A4606F07EFC03
:1029180003B030BDF0B508208BB0012104F04EFFA4
:102928004FF440600024022510260127C4F202005B
:1029380008A98DF826408DF8274008968DF8247050
:102948008DF8255003F01CFE0720394604F036FFA9
:102958004FF480604FF41073C4F2020008A9089382
:102968008DF827408DF824508DF825508DF8267065
:1029780003F006FE4FF4806006210422C4F2020030
:1029880003F0F4FE4FF4806004220921C4F202002F
:1029980003F0ECFE4FF400604FF4A052C4F20200C2
:1029A80008A908928DF826408DF827408DF8245004
:1029B8008DF8255003F0E4FD204604210622C4F2D8
:1029C800020003F0D3FE4FF4006006220A21C4F28D
:1029D800020003F0CBFE2046C4F2020008A90896C4
:1029E80003F0CEFD4FF4006006220C21C4F2020071
:1029F80003F0BCFE4FF400608023C4F2020008A973
:102A080008938DF826408DF827408DF824508DF8CE
:102A1800255003F0B5FD4FF4006007210622C4F2EB
:102A2800020003F0A3FE4FF440602246C4F2020005
:102A3800314603F08FFE44F6FE74023CFDD14FF49C
:102A480040600122C4F20200102103F083FE01213C
:102A58004FF4001004F0DCFE4FF4A840C4F200006C
:102A680004F042FA0DF1280C48F2A0634FF48046B6
:102A7800C0F201034FF4A8404BF6FF7266F31F4003
:102A880001214CF8283DADF8044033254FF480640B
:102A9800ADF80620ADF80A40ADF80850ADF80C6066
:102AA80004F0E6FA4FF4A84066F31F406946BE4CAE
:102AB80004F052FA4FF4961020604FF4A840C4F284
:102AC80000004FF4003104F017FC002800F0738276
:102AD8002168481E20600029EFD101254FF4961384
:102AE80023604FF4A840C4F200004FF4003104F012
:102AF80003FC002800F043822168481E206000295A
:102B0800EFD10123A94E03EB050EAF204FF4961128
:102B18005FFA8EF5707021604FF4A840C4F200008F
:102B28004FF4003104F0E8FB002800F00C82236821
:102B38005A1E2260002BEFD1012305EB030C4FF442
:102B480096135FFA8CF523604FF4A840C4F2000096
:102B58004FF4003104F0D0FB002800F0D881216840
:102B68004A1E22600029EFD10123ED184FF4961177
:102B7800EDB221604FF4A840C4F200004FF40031D8
:102B880004F0BAFB002800F0A6812068421E2260EB
:102B98000028EFD14FF4961020604FF4A840C4F2FB
:102BA80000004FF4003104F0A7FB002800F0778103
:102BB8002668721E2260002EEFD101227C4E3378E7
:102BC80005EB020E642B5FFA8EF500F21C8148F2C9
:102BD8001F5EC3EB0326C5F2EB1E8EFB0610F11732
:102BE800C1EB60135FFA83FC0CF11902BCF1E60F2C
:102BF800D6B240F209814FF4961222604FF4A840F1
:102C0800C4F200004FF4003104F076FB002800F015
:102C180003832368581E2060002BEFD14FF49610D1
:102C280020604FF4A840C4F200004FF4003104F0D3
:102C380063FB002800F0D68221684B1E2360002920
:102C4800EFD14FF4961323604FF4A840C4F200006C
:102C58004FF4003104F050FB002800F08C8220680B
:102C6800411E21600028EFD10123ED184FF4961181
:102C7800EDB221604FF4A840C4F200004FF40031D7
:102C880004F03AFB002800F05A8223685A1E22609A
:102C9800002BEFD1012305EB030C4FF496125FFADA
:102CA8008CF522604FF4A840C4F200004FF40031C4
:102CB80004F022FB002800F026822068411E2160D3
:102CC8000028EFD1012305EB030E4FF496115FFAAC
:102CD8008EF521604FF4A840C4F200004FF4003193
:102CE80004F00AFB002800F0F2812368581E2060D7
:102CF800002BEFD10123ED184FF49610EDB22060B0
:102D08004FF4A840C4F200004FF4003104F0F4FA84
:102D1800002800F0C08121684A1E22600029EFD1F6
:102D28004FF4961222604FF4A840C4F200004FF40A
:102D3800003104F0E1FA002800F091812368581E60
:102D48002060002BEFD1012305EB030C4FF4961004
:102D58005FFA8CF520604FF4A840C4F200004FF4ED
:102D6800003104F0C9FA002800F05D8121684B1E8B
:102D780023600029EFD1012305EB030E4FF49613CE
:102D88005FFA8EF523604FF4A840C4F200004FF4B8
:102D9800003104F0B1FA002800F029812068421EB1
:102DA80022600028EFD105E018000020BF040020B1
:102DB80014000020012301214FF40040ED18A488DD
:102DC80004F026FD4FF47050C4F2000006F06EF8CF
:102DD8004FF4705000224FF4007CC4F2000004A9A4
:102DE800EDB2ADF81220ADF81420ADF81C20ADF806
:102DF80010C0ADF816C0069406F0C0F8FFF71CFD29
:102E080028460BB0F0BD7D264FF4961323604FF48F
:102E1800A840C4F200004FF4003104F06DFA002815
:102E280000F0C4812068421E22600028EFD14FF4D0
:102E380096124FF4A8402260C4F200004FF400310B
:102E480004F05AFA78B121684B1E236000293FF438
:102E5800F8AE4FF4A840C4F200004FF4003104F07B
:102E68004BFA0028EFD14FF4A840C4F2000001212A
:102E780004F00CF94FF4805020604FF4A840012171
:102E8800C4F20000C0F2030104F01EFA002840F06A
:102E9800DE8121684A1E22600029EED1D1E64FF476
:102EA800A840C4F20000012104F0F0F84FF4805368
:102EB80023604FF4A8400121C4F20000C0F20301CE
:102EC80004F002FA002840F0CD812168481E2060F5
:102ED8000029EED171E64FF4A840C4F200000121A8
:102EE8004FF4805604F0D2F826604FF4A840012130
:102EF800C4F20000C0F2030104F0E6F9002840F033
:102F0800C9812368591E2160002BEED142E64FF497
:102F1800A840C4F20000012104F0B8F84FF4805032
:102F280020604FF4A8400121C4F20000C0F2030160
:102F380004F0CAF9002840F0A7812668731E2360B0
:102F4800002EEED110E64FF4A8400121C4F2000093
:102F580004F09CF84FF4805121604FF4A8400121FF
:102F6800C4F20000C0F2030104F0AEF9002840F0FA
:102F780085812068461E26600028EED1DCE54FF4E6
:102F8800A840C4F2000001214FF4805604F07EF8F6
:102F980026604FF4A8400121C4F20000C0F20301EA
:102FA80004F092F9002840F0638123685A1E2260D9
:102FB800002BEED1A5E54FF4A840C4F20000012192
:102FC8004FF4805604F062F826604FF4A8400121BF
:102FD800C4F20000C0F2030104F076F9002840F0C2
:102FE800878125686A1E2260002DEED175E54FF4B1
:102FF800A8400121C4F2000004F048F84FF48051C1
:1030080021604FF4A8400121C4F20000C0F203017E
:1030180004F05AF9002840F065812368581E2060A2
:10302800002BEED1C6E64FF4A840C4F200000121FF
:1030380004F02CF84FF4805222604FF4A84001218C
:10304800C4F20000C0F2030104F03EF9002840F089
:1030580043812068411E21600028EED18BE64FF4A1
:10306800A8400121C4F2000004F010F84FF4805188
:1030780021604FF4A8400121C4F20000C0F203010E
:1030880004F022F9002840F0218123685A1E2260AA
:10309800002BEED157E64FF4A840C4F200000121FE
:1030A80003F0F4FF4FF4805323604FF4A84001214C
:1030B800C4F20000C0F2030104F006F9002840F051
:1030C80000812068411E21600028EED128E64FF4D7
:1030D800A840C4F20000012103F0D8FF4FF4805249
:1030E80022604FF4A8400121C4F20000C0F203019D
:1030F80004F0EAF8002840F0DE8021684B1E2360C7
:103108000029EED1F6E54FF4A840C4F200000121F1
:1031180003F0BCFF4FF4805323604FF4A840012113
:10312800C4F20000C0F2030104F0CEF8002840F019
:10313800BC802068421E22600028EED1C2E54FF410
:10314800A840C4F20000012103F0A0FF4FF4805012
:1031580020604FF4A8400121C4F20000C0F203012E
:1031680004F0B2F8002840F09A8021684B1E2360D2
:103178000029EED18EE54FF4A840C4F200000121E9
:1031880003F084FF4FF4805222604FF4A8400121DD
:10319800C4F20000C0F2030104F096F800285BD1E5
:1031A8002368581E2060002BEFD15DE54FF4A8403E
:1031B8000121C4F2000003F069FF4FF4805121603F
:1031C8004FF4A8400121C4F20000C0F2030104F04A
:1031D8007BF8002840F093802368581E2060002B5D
:1031E800EED124E64FF4A840C4F20000012103F018
:1031F8004DFF4FF4805222604FF4A8400121C4F2E1
:103208000000C0F2030104F05FF800BB2068411E13
:1032180021600028F0D114E54FF4A8400121C4F240
:10322800000003F033FF4FF4805121604FF4A840B1
:103238000121C4F20000C0F2030104F045F800289F
:1032480062D123685A1E2260002BEFD1E6E42120C8
:103258003146FFF70BF9F4E402209E21FFF706F947
:10326800C3B202E506200421FFF700F9C2B2A5E4C3
:103278000420AF21FFF7FAF8C3B243E40520202168
:10328800FFF7F4F8C3B258E428200021FFF7EEF85E
:10329800C3B26AE428200021FFF7E8F87AE40A209C
:1032A8000021FFF7E3F8C3B2F5E40E200721FFF78A
:1032B800DDF8C3B207E527200021FFF7D7F8C3B22E
:1032C80019E51E203821FFF7D1F829E51F208F21A5
:1032D800FFF7CCF8C3B237E51A200A21FFF7C6F882
:1032E800C3B249E51B200A21FFF7C0F8C3B262E563
:1032F80002200121FFF7BAF8C5B2FFF7EFBB202083
:103308003146FFF7B3F892E520203146FFF7AEF8D3
:1033180084E400BF104B10B50A46044646F2B800D4
:1033280019469C601A61C4F2020002F08BF946F259
:10333800B800C4F20200012102F0E2F94FF4705023
:10334800C4F20000838B590500D510BD0121BDE8EA
:10335800104005F0B5BE00BF081B0020704700BF35
:10336800104B114A18681268111AB1F5FA7F18D370
:1033780093F804C01A60CCF101024FF4406CC4F217
:10338800020CD2B21A71DCF8140001050B0DCCF84E
:103398001430DCF81400C2EB021140EA0133CCF817
:1033A80014307047C4040020CC04002030B54FF41A
:1033B800406583B001210820C4F2020504F0FEF93B
:1033C800002401234FF470422846694600928DF884
:1033D80006408DF805308DF807408DF8043003F06D
:1033E800CFF82846214603F0BBF903B030BD00BF33
:1033F80010B540F2BC44C2F2000441F6882120789E
:10340800C2F2000101EB8010FEF7EEFEFF232370ED
:1034180010BD00BF8CD70008000000208C040020DD
:1034280090040020541B0020704700BFFEE700BF37
:10343800FEE700BFFEE700BFFEE700BF704700BF22
:10344800704700BF704700BF40F2CC43C2F2000390
:103458001868421C1A6070474FF46D42CEF20002A1
:103468004FF46053D2F88800C4F2020340F47001AC
:10347800C2F888101868002240F0010119609A60AB
:10348800186843F2100120F0847C2CF48030C2F2DA
:10349800004118605960186882B020F480211960D2
:1034A800DA6000920192186840F480321A601A4675
:1034B80003E00098B0F5A06F09D0116801F400335B
:1034C80001930098411C0091019B002BF1D04FF40F
:1034D800605CC4F2020CDCF8002012F4003323D044
:1034E800012301930199012922D04FF46052C4F2BB
:1034F800020245F6C0709168C2F2000021F4000390
:103508009360C2F88400116841F08063136010680A
:103518000301FCD54FF46D4CCEF2000C4FF0006265
:10352800CCF8082002B07047019301990129DCD139
:103538004FF46050C4F202004FF4E04C016CC4F246
:10354800000C41F080530364DCF8002042F4804111
:10355800CCF8001083688360816841F4004282607F
:10356800836845F2084243F4A051C0F2407281607A
:103578004260036843F080720260014608684FF4B5
:1035880060538201C4F20203F8D54FF4705CC4F2B0
:10359800020C40F20561CCF800109A6822F0030092
:1035A8009860996841F002029A609A6802F00C00EB
:1035B8000828FAD199E700BF4FF46053C4F2020318
:1035C8009A6802F00C02042A12D0082A15D04FF487
:1035D8001051C0F2F4014FF46050C4F20200194BCC
:1035E8008268C2F3031C13F80C00C14019617047CC
:1035F8004FF49051C0F27A01EDE758685A6859685B
:1036080010F4800F4FF4605C14BF4FF490534FF4E4
:103618001053C4F2020C14BFC0F27A03C0F2F403D0
:1036280002F03F02C1F38810B3FBF2F1DCF804307A
:10363800C3F3014201FB00F1501C4300B1FBF3F15D
:10364800C9E700BF300000204FF46D4340F0BE6171
:10365800CEF2000341F42020D8607047C37830B41C
:103668007BB900784FF4614C410900F01F02CEF29B
:10367800000C2031012313FA02F04CF8210030BC71
:1036880070474FF46D45CEF200054278EC688578B6
:103698000178E343C3F30223C3F1040C5FFA8CF40B
:1036A80012FA04F40F2252FA03F303EA050CE4B207
:1036B8004FF461434CEA0402CEF2000301EB030C21
:1036C8001201D1B28CF8001302784FF4614C510901
:1036D800CEF2000C02F01F03012010FA03F24CF89E
:1036E8002120CCE721F0604C4FF46D432CF07F0291
:1036F800CEF2000342EA0001996070474FF46D432F
:10370800CEF200031A6919B922EA0001196170475B
:1037180010431861704700BF4EF21003CEF2000349
:1037280004281A680CBF42F0040222F004021A604E
:10373800704700BF08B501214FF4807004F0BCF851
:103748004FF480700021BDE8084004F0B5B800BF10
:10375800D0F804C00B684A792CF0407CF0B42CF403
:10376800807C0D79CF680C698E684CEA030343EAC4
:103778000525456085684FF2FD7CCCF2FF0C3C4383
:1037880005EA0C03344344EA030C4CEA4203836021
:103798000A7DC16A531E21F47002D9B242EA01536C
:1037A800C362F0BC704700BF0021012301600171B2
:1037B80041718160C16001610375704770B44FF455
:1037C8000C5290E84200C4F2010285685468C0684F
:1037D80046EA010C43F2E003CFF6FC734CEA05011C
:1037E800014304EA030C41EA0C03536070BC7047C0
:1037F8000023036043608360C3607047836819B91E
:1038080023F001018160704743F001038360704732
:10381800436823F4400222F400731943416070475F
:1038280041628262704700BF426822F01F03194359
:10383800416070474FF40C53C4F201035A6818B939
:1038480022F400005860704742F400025A60704742
:103858004FF40C53C4F201035A6818B922F48000DB
:103868005860704742F480025A607047092970B462
:103878001FD901EB41041E3CC6680725A54026EA6E
:10388800050513FA04F445EA0403062AC3601ED9A1
:103898000C2A02EB820227D9C46A413A1F239340BB
:1038A80024EA030C11FA02F24CEA0201C16270BC6C
:1038B8007047066901EB41040725A54026EA05057E
:1038C80013FA04F445EA0403062A0361E0D8013A2E
:1038D80002EB8202446B1F23934024EA030C9140BD
:1038E8004CEA01024263E2E7046B233A1F23934048
:1038F80024EA030C11FA02F24CEA02010163D6E74A
:10390800816841F080438360704700BF8068C0F3DE
:1039180080507047836819B923F4806181607047CB
:1039280043F4806383607047836819B923F0020108
:103938008160704743F002038360704743684A1E02
:1039480023F4604343EA423141607047436819B940
:1039580023F400614160704743F40063436070479B
:10396800C06C80B2704700BF42F20833C4F2010352
:1039780018687047836819B923F4807181607047AB
:1039880043F4807383607047836819B923F4007126
:103998008160704743F40073836070474FF40C53A1
:1039A800C4F201035A6818B922F4005058607047ED
:1039B80042F400525A607047092970B420D8066949
:1039C80001EB41040725A54026EA050513FA04F48E
:1039D80045EA04030361836BC3F3015CCCEB020487
:1039E800A21C5FFA82FC0CEB8C021F24944023EA91
:1039F800040C11FA02F24CEA0201816370BC7047B0
:103A080001EB4104C6681E3C0725A54026EA0505CA
:103A180013FA04F445EA0403C360DCE7836B4A1E27
:103A280023F4401343EA02518163704782B00023B4
:103A380001930190019BC8180190019B1A6002B084
:103A4800704700BF826822F4702319438160704771
:103A5800826822F44013194381607047816841F4F9
:103A680080038360704700BF8068C0F38050704750
:103A7800436819B923F480614160704743F4806357
:103A880043607047436819B923F480514160704717
:103A980043F480534360704782B000230193019040
:103AA800019A283251180191019B186880B202B01E
:103AB800704700BF0123C9B213FA01F143681AB96C
:103AC80023EA01014160704741EA030242607047FE
:103AD800036819420CBF002001207047C9430160E8
:103AE800704700BF4368006810EA112007D0C8B2C9
:103AF800012212FA00F119420CBF00200120704780
:103B08006FEA11210160704708B54FF4C843C4F249
:103B1800000398420BD001214FF0806003F0BEFEF5
:103B28004FF080600021BDE8084003F0B7BE0121D6
:103B38004FF0007003F0B2FE4FF000700021BDE8B6
:103B4800084003F0ABBE00BF70B4036823F0020264
:103B58000260036843F0010202604368DB070DD48A
:103B68004FF6FF7307E04268D20707D44268D207CE
:103B780004D4033B02D04268D207F4D5436813F05B
:103B8800010364D08C79036891F807C00E7A012C80
:103B98000CBF43F0800323F08003036002684C7A73
:103BA800BCF1010F0CBF42F0400222F0400202605B
:103BB80005688A7A012E0CBF45F0200525F02005FE
:103BC80005600368CD7A012C0CBF43F0100323F085
:103BD800100303600668012A0CBF46F0080626F0A9
:103BE800080606600468012D0CBF44F0040424F0A4
:103BF800040404608B78CE780D794C7909889A078B
:103C080042EA066343EA054242EA045C4B1E4CEA78
:103C18000301C161036823F0010202604168CB0718
:103C28000DD54FF6FF7307E04268D20707D5416804
:103C3800C90704D5033B02D04168C907F4D44068DA
:103C480010F0010F14BF0020012070BC7047184607
:103C5800FBE700BFF0B44FF4C843C4F20003827A14
:103C6800D3F8004244F00101C3F800120124D3F84C
:103C78001C129440E2431140C3F81C12017BD9B9CD
:103C8800D3F80C62B0F806C04788858801881640CA
:103C9800C3F80C62867A483647EA0C4743F8367010
:103CA800867A46F2406CF600C4F2000C06EB0C0370
:103CB80041EA05415960017B012946D0C17A0029B2
:103CC80038D14FF4C843C4F20003D3F804121140AA
:103CD800C3F80412038903BB4FF4C84CC4F2000CA8
:103CE800DCF814120A40CCF81422407B012808D1D1
:103CF8004FF4C84CC4F2000CDCF81C221443CCF876
:103D08001C424FF4C843C4F20003D3F8000220F069
:103D18000101C3F80012F0BC7047012BE5D14FF444
:103D2800C843C4F20003D3F8141244EA0102C3F8EA
:103D38001422DAE74FF4C84CC4F2000CDCF8043261
:103D480044EA0301CCF80412C4E74FF4C843C4F2B0
:103D58000003B0F800C0D3F80C6247888588C18892
:103D68002643C3F80C62867A483647EA0C4743F87C
:103D78003670867A46F2406CF600C4F2000C06EB08
:103D88000C0341EA0541596098E700BF002383719D
:103D9800C371037243728372C3728370C370032248
:103DA8000221012302714171038070474FF4C84317
:103DB800C4F20003D3F8002242F00101C3F8001254
:103DC800D3F8002222F47C5C2CF00E01C3F8001218
:103DD800D3F8002242EA0021C3F80012D3F8000207
:103DE80020F00102C3F80022704700BF036819B928
:103DF80023F480310160704743F4803303607047D7
:103E08000368A9B923F080010160D0F8843123F454
:103E18008072C0F88421D0F8941121F48073C0F81E
:103E28009431D0F8A42122F48071C0F8A41170470D
:103E380043F080030360D0F8842142F48071C0F815
:103E48008411D0F8943143F48072C0F89421D0F8EA
:103E5800A41141F48073C0F8A43170472DE9F00132
:103E680082685201034653D48068000166D5012553
:103E780005F11804220128469F5807F001069E50B4
:103E88000E7A002E50D0D1F8048053F802C04F7A31
:103E980046EAC80646EA0C0637439F508E7A240144
:103EA80003EB040C06F00F078F72DCF8042022F0F5
:103EB8000F06CCF80460DCF804208F7A47EA020683
:103EC800CCF804604A7B91F80EC0CF7A0E7B1204BE
:103ED80042EA0C6203EB051542EA070C4CEA062796
:103EE800C5F888714A7C8F7CCE7B097C120442EA33
:103EF800076242EA060C4CEA0121C5F88C111A59EE
:103F080042F00101195105F5C475BDE8F00170478B
:103F18000025284605F1180422019F5807F00106DC
:103F28009E500E7A002EAED14E7AD1F800C09F581E
:103F380046EA4C5C4CEA07069E50AFE79A68D20006
:103F480002D502252846E5E70420DEE701292BD023
:103F58000BD3022922D000230320C0F20040834261
:103F68000DD00ED8C3B902207047826803230320FE
:103F7800C0F200431340C0F200408342F1D1012057
:103F880070474FF44071C0F600018B42F7D0002211
:103F9800C1F203029342F2D00020704782680023E6
:103FA800C1F203031340D7E781684FF44070C0F6AD
:103FB800000001EA0003CFE701290CD006D302294B
:103FC80003D1826842F4000181607047816841F042
:103FD800800383607047836843F4004282607047BF
:103FE80001F11B0330B41C01055905F00405EDB2BD
:103FF80015720459002D3AD1640D14601B0100EBB1
:10400800030CC45804F002035372DCF8044004F0B3
:104018000F039372DCF8044000EB0113240AD474F4
:10402800D3F8B841D472D3F8B841240A1473D3F83A
:10403800B841240C5473D3F8B841240E9473D3F8C0
:10404800BC41D473D3F8BC41240A1474D3F8BC41DE
:1040580003F5DC7C240C5474DCF804301B0E9374D8
:1040680041B1016941F02003036130BC7047E408A5
:104078005460C3E7C26842F02001C160F5E700BFA1
:1040880021B1036943F0200202617047C16841F021
:104098002003C360704700BF31B1012906BF006922
:1040A80000F0030000207047C06800F0030070476C
:1040B80039BB036823F0030C4CF00102026041682D
:1040C80001F00303012B13D04FF6FF730BE0426896
:1040D80002F0030101290BD0426802F00301012913
:1040E80006D0033B04D0426802F003010129EED157
:1040F800426802F00301A1F10103584240EB0300BA
:104108007047012903D002291DD00020704702689A
:1041180022F00301016043689B070DD04FF6FF733F
:1041280007E04268920707D04168890704D0033B3B
:1041380002D041688907F4D1406810F0030F14BF1A
:10414800002001207047036823F0030242F00201B7
:104158000160436803F0030CBCF1020F14D04FF662
:10416800FF730CE0426802F0030102290CD0426898
:1041780002F0030CBCF1020F06D0033B04D04268E6
:1041880002F003010229EDD1426802F00301A1F116
:104198000203584240EB0300704700BF036823F056
:1041A800030242F002010160436803F00302A2F136
:1041B8000201484240EB0100704700BF026822F04C
:1041C80002010160436899070DD54FF6FF7307E0B8
:1041D8004268910707D541688A0704D5033B02D096
:1041E80041688A07F4D4406810F0020F14BF002019
:1041F80001207047806900F0700070478069000EE8
:10420800704700BF8069C0F30740704743691AB917
:1042180023EA01024261704719434161704700BFB8
:1042280011F4700F09D0826922F07F4020F47003E6
:104238000B420CBF002001207047CB010AD5406813
:1042480020F07F4323F4700C1CEA010F0CBF002000
:10425800012070470A010BD48B0113D5C36823F0E2
:104268007F4222F4700008420CBF002001207047F2
:10427800836823F07F4C2CF470020A420CBF0020A4
:1042880001207047036923F07F4222F4700008423E
:104298000CBF0020012070477023C3F2F00399423D
:1042A8000ED021F07F4222F470038A0106D44A011D
:1042B80009D40A014CBF836043607047C3607047EC
:1042C8000021816170470361704700BF43690B405B
:1042D8000BD0402933D00AD804293BD025D801294E
:1042E8004ED0022942D00020704718467047B1F5D9
:1042F800006F28D00CD8B1F5007F4FD0B1F5806F92
:1043080030D0B1F5807FEED1816901F001007047AE
:10431800B1F5803F3ED0B1F5003F2DD0B1F5004F4B
:10432800E1D14168C1F38000704710293AD02029B3
:1043380014D00829D7D1C268C2F3001070470369A6
:10434800C3F300107047806910F0700F0CBF002095
:1043580001207047C368C3F3C00070470169C1F307
:10436800C00070478269C2F380007047C16811F0CD
:10437800030018BF012070474068C0F30010704761
:10438800826840F2011061F31F4002420CBF002016
:10439800012070474268C2F3C00070478369C3F3C5
:1043A80040007047006910F0030018BF01207047F3
:1043B800B1F5807F1ED011D9B1F5006F18D01CD986
:1043C800B1F5803F36D0B1F5003F30D0B1F5004FA0
:1043D80019D1002104238161436014E008291DD00C
:1043E80012D9202917D040290DD110210161704719
:1043F80000218161042242607047B1F5007FF9D045
:10440800B1F5806FF6D0704701290AD00429FAD196
:104418000821C16070470823036170471022C260F9
:10442800704740F2011361F31F4383607047102304
:104438004360704708224260704700BF4FF4405302
:10444800C4F2020301229A60704700BF4FF4405340
:10445800C4F2020318601868704700BF30B4E9B1AD
:104468004FF440540122C4F2020450F8045B4B1E7E
:104478008A42256003EA020310D02BB150F8043BAE
:1044880002228A42236009D00346023253F8045BB1
:1044980025604568181D8A422560F5D14FF44050C3
:1044A800C4F20200006830BC704700BF4FF44053AC
:1044B800C4F20203186870474FF44053C4F2020371
:1044C800187170474FF44053C4F2020318797047CB
:1044D80008B51020012103F0C5F910200021BDE81E
:1044E800084003F0BFB900BF10B40023C5F20603AB
:1044F80042881968848821F03801196019681143C5
:104508001960196821F0C00119601968202A44EA65
:104518000101196005D0282A03D0302A01D0382A91
:104528000CD10023C5F20603B0F806C01A6822F4BD
:10453800407119601A684CEA02021A600023C5F239
:104548000603B0F800C0186820F0040119601A6862
:104558004CEA0200186010BC704700BF00230380BB
:1045680043808380C380704700230168C5F2060337
:10457800196242685A6281689962C268DA6201699E
:10458800196342695A6381699963C269DA6370473A
:104598000023036043608360C360036143618361F8
:1045A800C361704700230168C5F2060319644268B5
:1045B8005A6481689964C268DA64704700230360AA
:1045C80043608360C36070470023C5F20603186820
:1045D80040F480421A6070470023C5F206031A6847
:1045E80018B922F400401860704742F400421A607B
:1045F800704700BF0023C5F206039860704700BFEC
:104608000023C5F20603D868704700BF2DE9F007FC
:10461800002383B0C5F20603002601961D6925F024
:1046280001041C611A6812F0080F0CBF152511252A
:104638004FF6FF765C68019A01320192019AB24204
:1046480005EA040401D0012CF4D10023C5F20603C5
:104658005A681540012D04D0002003B0BDE8F007CA
:1046680070471A6922F002041C611E6826F400478C
:104678001F60D3F800A0D1F80090D1F80480D1F8D9
:1046880008C0CF680E694C698A69C9690AF47F7ADB
:10469800C0F800A0D3F840A0C0F804A0D3F844A004
:1046A800C0F808A0D3F848A0C0F80CA0DB6CC0F88C
:1046B80014900361C0F81880C0F81CC007624662F5
:1046C8008462C26201632846C7E700BF002301680D
:1046D800C5F20603196042691A6281695962C269A2
:1046E8009A62016AD962426A1A63816A5963C26A24
:1046F8009A63016BD96342681A6481685964C26815
:104708009A640169D964186840F400421A607047D5
:104718000023C5F206031A6929B922EA000202F049
:10472800FF01196170471043186170470023C5F2F3
:1047380006035A6929B922EA000202F0FF01596109
:1047480070471043586170470021C5F20601CB69D4
:1047580018420CBF00200120704700BF0023C5F29B
:10476800060382064CBF9B695B6803420CBF0020AE
:10477800012070472DE9F0478CB000241546074604
:1047880001A80E469946DDF850800B94FFF700FF0C
:10479800C02D00F0B180B5F5807F00F09080802DAD
:1047A8007ED037BB09ACFFF70FFF3826042320461D
:1047B800ADF82430ADF82660ADF82870FFF794FE08
:1047C80001A8FFF7D1FE0120FFF706FF02E000284D
:1047D80000F0A9801020FFF7C1FF0B9E721C0B92FE
:1047E8000B99B1F5803FF2D1002800F09C8000269B
:1047F80007E001A80CACFFF7B7FE002324F80C3D36
:104808000126202280212046ADF82620ADF8281068
:10481800FFF76AFEFFF7D8FE0120FFF7DDFEB8F1CB
:10482800000F27D036B30025159F4C46AA4659F8E5
:104838000500FFF7DFFE6068FFF7DCFEA068FFF702
:10484800D9FEE068FFF7D6FE1034CDF82CA000E0C2
:10485800B8B11020FFF782FF0B994B1C0B930B9EEE
:10486800B6F5803FF4D160B100261035A84501D9CE
:10487800002EDCD10020FFF7AFFE30460CB0BDE8BB
:10488800F087FFF7BDFE3860FFF7BAFE7860FFF7E4
:10489800B7FEB860FFF7B4FE0126F8601037E4E70A
:1048A800ADF82A40316808BA059073681CBA0694B6
:1048B800B26811BA0791F06803BA089371E74FF428
:1048C800007CADF82AC0346822BA0192716808BA2F
:1048D8000290B3681CBA0394F26811BA0491306963
:1048E80003BA0593746922BA0692B16908BA0790A7
:1048F800F3691EBA089654E74FF48074ADF82A405D
:10490800326811BA0391706803BA0493B46822BA82
:104918000592F16808BA069033691CBA079472695F
:1049280016BA08963DE70420ADF82400012668E78A
:104938002DE9F04790B000241D46824601A80E4696
:104948001746DDF86090DDF864800F94FFF720FECD
:10495800C02D00F0C380B5F5807F00F0A280802DC7
:1049680000F09080326811BA0991706803BA0A930E
:10497800B46822BA0B92F1680EBA0C96BAF1000F1D
:1049880026D10DACFFF720FE382604232046ADF8CB
:104998003430ADF83660ADF838A0FFF7A5FD01A8B2
:1049A800FFF7E2FD0120FFF717FE02E0002800F004
:1049B800AC801020FFF7D2FE0F9E721C0F920F9949
:1049C800B1F5803FF2D1002800F09F80002607E073
:1049D80001A810ACFFF7C8FD002324F80C3D012600
:1049E800282280212046ADF83620ADF83810FFF790
:1049F8007BFD09A8FFF7D6FDFFF7E6FD0120FFF7CD
:104A0800EBFDB8F1000F27D036B300251A9F4C46AE
:104A1800AA4659F80500FFF7EDFD6068FFF7EAFDC3
:104A2800A068FFF7E7FDE068FFF7E4FD1034CDF874
:104A38003CA000E0B8B11020FFF790FE0F994B1C86
:104A48000F930F9EB6F5803FF4D160B10026103564
:104A5800A84501D9002EDCD10020FFF7BDFD304666
:104A680010B0BDE8F087FFF7CBFD3860FFF7C8FD51
:104A78007860FFF7C5FDB860FFF7C2FD0126F86052
:104A88001037E4E7ADF83A40396808BA05907B6812
:104A98001CBA0694BA6811BA0791F86803BA089361
:104AA80060E74FF40070ADF83A003B681CBA019417
:104AB8007A6811BA0291B86803BA0393FC6822BAFB
:104AC8000492396908BA05907B691CBA0694BA69D8
:104AD80011BA0791F86903BA089343E74FF4807C49
:104AE800ADF83AC03C6822BA0392796808BA0490D3
:104AF800BB681CBA0594FA6811BA0691386903BAFA
:104B080007937C6922BA08922CE70420ADF8340098
:104B1800012665E72DE9F04790B000241D4682463E
:104B280001A80E461746DDF86080DDF864900F9402
:104B3800FFF72EFDC02D00F09A80B5F5807F79D063
:104B4800802D68D033681ABA0992706801BA0A9140
:104B5800B3681ABA0B92F06801BA01A80C91BAF1BD
:104B6800000F0CBF4FF0040A4FF0000AFFF7FCFCDF
:104B7800802630230DA8ADF83630ADF834A0ADF856
:104B88003860FFF7B1FC09A8FFF70CFDFFF71CFD23
:104B98000120FFF721FDB9F1000F7FD000251A9FF2
:104BA8004446AA4658F80500FFF724FD6068FFF759
:104BB80021FDA068FFF71EFDE068FFF71BFD10341C
:104BC800CDF83CA000E0B8B11020FFF7C7FD0F9A60
:104BD800511C0F910F9EB6F5803FF4D160B10026AD
:104BE8001035A94501D9002EDCD10020FFF7F4FCCF
:104BF800304610B0BDE8F087FFF702FD3860FFF7D8
:104C0800FFFC7860FFF7FCFCB860FFF7F9FC0126B1
:104C1800F8601037E4E7ADF83A403A6811BA059100
:104C2800786803BA0693BA6811BA0791F86803BAA4
:104C3800089387E74FF4007EADF83AE03A6811BA76
:104C48000191786803BA0293BA6811BA0391F868B7
:104C580003BA04933A6911BA0591786903BA0693BD
:104C6800BA6911BA0791F86903BA08936AE74FF469
:104C7800807CADF83AC03A6811BA0391786803BAF3
:104C88000493BA6811BA0591F86803BA06933A69A9
:104C980011BA0791786903BA089353E70126A4E784
:104CA8002DE9F0478CB00E460024054601A81746AA
:104CB80099460B94012D14BF04252546FFF768FC7F
:104CC8001021802309A8ADF82450ADF82610ADF8BE
:104CD8002830FFF709FC326811BA0391706803BAEB
:104CE80001A80493FFF740FCFFF76EFC0120FFF7D3
:104CF80073FCB9F1000F32D0DDF850803D46A24672
:104D08003859FFF777FC6868FFF774FC0835CDF869
:104D18002CA000E0B8B11020FFF720FD0B9B5A1C17
:104D28000B920B9EB6F5803FF4D160B10026083493
:104D3800A14501D9002EE3D10020FFF74DFC3046F4
:104D48000CB0BDE8F087FFF75BFCC8F80000FFF780
:104D580057FC0126C8F8040008F10808E7E701260F
:104D6800EAE700BF2DE9F04790B00E46002405465B
:104D780001A817469846DDF860900F94012D14BFDE
:104D880004252546FFF704FC182380220DA8ADF85A
:104D98003450ADF83630ADF83820FFF7A5FB316850
:104DA80008BA039073681EBA01A80496FFF7DCFBE3
:104DB8003A6811BA0991786803BA09A80A93FFF703
:104DC800F1FBFFF701FC0120FFF706FCB9F1000F2A
:104DD8002FD0199F4546A24658F80400FFF70AFC51
:104DE8006868FFF707FC0835CDF83CA000E0B8B1CB
:104DF8001020FFF7B3FC0F9A511C0F910F9EB6F5C8
:104E0800803FF4D160B100260834A14501D9002EB5
:104E1800E2D10020FFF7E0FB304610B0BDE8F08794
:104E2800FFF7EEFB3860FFF7EBFB012678600837E9
:104E3800EAE70126EDE700BF2DE9F0478CB0002432
:104E48000E46054601A8174699460B94012D14BF36
:104E580004252546FFF79CFB802309A8ADF82450BC
:104E6800ADF82640ADF82830FFF73EFB326811BA9E
:104E78000391706803BA0493B26811BA0591F06897
:104E880003BA0693326911BA0791706903BA01A887
:104E98000893FFF769FBFFF797FB0120FFF79CFBDF
:104EA800B9F1000F32D0DDF850803D46A24638599E
:104EB800FFF7A0FB6868FFF79DFB0835CDF82CA02D
:104EC80000E0B8B11020FFF749FC0B9A511C0B9178
:104ED8000B9EB6F5803FF4D160B100260834A14599
:104EE80001D9002EE3D10020FFF776FB30460CB045
:104EF800BDE8F087FFF784FBC8F80000FFF780FBE8
:104F08000126C8F8040008F10808E7E70126EAE7DF
:104F18002DE9F04790B00E460024054601A8174633
:104F28009846DDF860900F94012D14BF042525469E
:104F3800FFF72EFB082380220DA8ADF83450ADF8FA
:104F48003630ADF83820FFF7CFFA316808BA039049
:104F580073681ABA0492B16808BA0590F3681ABA65
:104F68000692316908BA079073691EBA01A80896B3
:104F7800FFF7FAFA3A6811BA0991786803BA09A8EA
:104F88000A93FFF70FFBFFF71FFB0120FFF724FB36
:104F9800B9F1000F2FD0199F4546A24658F80400D2
:104FA800FFF728FB6868FFF725FB0835CDF83CA01C
:104FB80000E0B8B11020FFF7D1FB0F9A511C0F91F8
:104FC8000F9EB6F5803FF4D160B100260834A145A4
:104FD80001D9002EE2D10020FFF7FEFA304610B0CA
:104FE800BDE8F087FFF70CFB3860FFF709FB0126E7
:104FF80078600837EAE70126EDE700BF08B5012128
:105008004FF0005002F04AFC4FF000500021BDE87C
:10501800084002F043BC00BF70B491E860004FF450
:10502800E8438C68CA68C4F2000335432C431E6801
:1050380040F6FE7111FA00F5224326EA050512FA38
:1050480000F145EA0100186070BC70470023036056
:1050580043608360C36070474FF4E843C4F20003C1
:105068001A6831B9012111FA00F022EA00021A6027
:1050780070470121814041EA02001860704700BF73
:105088004FF4E843C4F2000300095A6831B901211A
:1050980011FA00F022EA00025A60704701218140AB
:1050A80041EA0200586070474FF4E843C4F2000335
:1050B8005A6818B922F003005860704742F003029A
:1050C8005A6070474FF4E843C4F20003814022B9A4
:1050D8001A6822EA0100186070471A6811431960BB
:1050E800704700BF82B04FF4E843C4F200030022C7
:1050F80001920193019A083210180190019B1960DE
:1051080002B0704782B04FF4E843C4F200030022B3
:1051180001920193019A143210180190019B1960B1
:1051280002B0704747F220430828C4F200030CBFBE
:1051380042EA012142EA0141C150704782B04FF46E
:10514800E8430021C4F2000301910193019A2C3233
:1051580002EB90010191019B186880B202B0704780
:105168004FF4E843C4F200031A6839B94FF4805188
:1051780011FA00F022EA00021A6070474FF48051D9
:10518800814041EA02001860704700BF4FF4E843CD
:10519800C4F20003814022B91A6822EA01001860AB
:1051A80070471A6811431960704700BF4FF4E8420E
:1051B800C4F2000211FA00F0536B18420CBF002031
:1051C800012070474FF4E843C4F2000311FA00F0DD
:1051D800586370474FF4E84CC4F2000C8140DCF887
:1051E8000020DCF8343011EA030003D011420CBF70
:1051F80000200120704700BF4FF4E843C4F20003C9
:1052080011FA00F0586370474FF40053CEF20403CC
:105218001868000C704700BF4FF40053CEF2040327
:1052280019680805000D70474FF40053CEF20403C7
:105238005A6819B922EA000159607047104358604A
:10524800704700BF4FF40053CEF204039A6819B9AF
:1052580022EA00019960704710439860704700BFC8
:105268004FF40053CEF20403DA6819B922EA0001B8
:10527800D96070471043D860704700BF0023C5F25B
:10528800050300221F211A60DA6059619A61DA6108
:105298001A625A62704700BFF0B40023C5F20503D2
:1052A800B0F802C01E6802888788C18805894489C9
:1052B80080894CEA020226F4804642EA070C26F06E
:1052C80001064CEA01021E60196842EA050C4CEA24
:1052D800040242EA000C21F47E6121F012011FFA57
:1052E8008CF040EA01021A60F0BC7047002303808A
:1052F80043808380C380038143818381704700BFDB
:10530800428830B4002305888488C088C5F2050324
:1053180042EA054140EA044219625A6230BC7047C9
:105328000023C5F205031A6818B922F004001860B2
:10533800704742F004021A60704700BF30B48278A8
:1053480045780478C178120442EA052C00234CEA17
:105358000400C5F2050340EA01629A6130BC704757
:105368000023C5F205031A6818B922F0080018606E
:10537800704742F008021A60704700BF0023C5F268
:1053880005031A6818B922F480401860704742F47F
:1053980080421A60704700BF0023C5F205031A68EF
:1053A80018B922F001001860704742F001021A6033
:1053B800704700BF0023C5F20503986A704700BF15
:1053C8000023C5F2050339B9DA68C0431FFA80FC27
:1053D8000CEA0201D9607047DA681043D860704758
:1053E800030B012B0CD0022B4FF00003C5F2050371
:1053F8000CBF5B681B6903420CBF0020012070478B
:105408000023C5F205039B6803420CBF002001205E
:10541800704700BF0023C5F205035861704700BFFD
:105428000021C5F205010B6918420CBF00200120BC
:10543800704700BF0023C5F205035861704700BFDD
:10544800016846F21002002321F00101C4F20202B1
:105458000160036043608360C3600361212390425D
:1054680043616AD046F22802C4F2020290426CD02C
:1054780046F24002C4F2020290426ED046F258014F
:10548800C4F20201884271D046F27001C4F20201EE
:10549800884273D046F28802C4F20202904277D062
:1054A80046F2A002C4F2020290423CD046F2B80191
:1054B800C4F2020188427DD046F21041C4F20201D2
:1054C80088427FD046F22842C4F20202904200F09D
:1054D800818046F24042C4F20202904200F082808B
:1054E80046F25841C4F20201884200F0848046F234
:1054F8007041C4F20201884200F0858046F2884279
:10550800C4F20202904200F0888046F2A042C4F23F
:105518000202904200F08B8046F2B841C4F20201C8
:1055280088423FD070474FF4C04CC4F2020C0020B0
:10553800C2F23D00CCF80C0070474FF4C04CC4F2E6
:10554800020C3D20CCF8080070474FF4C043C4F269
:1055580002034FF47461996070474FF4C04CC4F271
:10556800020C4FF47410CCF8080070474FF4C04395
:10557800C4F202034FF074629A6070474FF4C04C53
:10558800C4F2020C3D20C2F20000CCF80C007047B7
:105598004FF4C043C4F202034FF47461C2F2000135
:1055A800D96070474FF4C843C4F202034FF03D522C
:1055B800DA60B7E74FF4C043C4F202034FF03D523C
:1055C800DA6070474FF4C84CC4F2020C3D20CCF8A6
:1055D800080070474FF4C843C4F202034FF47461E3
:1055E800996070474FF4C84CC4F2020C4FF4741021
:1055F800CCF8080070474FF4C843C4F202034FF0D8
:1056080074629A6070474FF4C84CC4F2020C3D2093
:10561800C2F20000CCF80C0070474FF4C843C4F243
:1056280002034FF47461C2F20001D96070474FF46D
:10563800C84CC4F2020C0020C2F23D00CCF80C00A9
:10564800704700BF2DE9F00F0368D1F80090D1F83A
:105658000CA0D1F81480D1F818C0CF690E6A4D6A31
:105668008C6A4A6BD1F838B086B001930B6B0493FF
:10567800CB6A05930B6902934B68896803934AEADE
:10568800090343EA080343EA0C033B4343EA0609D8
:1056980049EA050545EA040C4CEA020348F23F08CA
:1056A800019ACFF21C0843EA0B0502EA080845EA0A
:1056B800080404604369049A059C23F0070542EA3C
:1056C800040C4CEA0502039B029D4261456083601D
:1056D800C16006B0BDE8F00F704700BF002303604B
:1056E80043608360C360036143618361C361036294
:1056F80043628362C362036343638363704700BF8B
:10570800036819B923F001010160704743F00103F0
:1057180003607047036819B923F4004101607047BA
:1057280043F4004303607047036819B923F020016C
:105738000160704743F02003036070474160704781
:10574800406880B2704700BF036822B923F4002282
:1057580002600161704743F40023036001617047F0
:10576800036819B923F480210160704743F480234A
:10577800036070470AB9C16070470161704700BF94
:105788000068C0F3C0407047006800F0010070472F
:10579800406900F03800704710B44FF4C84246F230
:1057A8000F444FF4C04CC4F20202C4F20204C4F223
:1057B800020CA04288BF94468A0040F67D704CBF18
:1057C800DCF80420DCF80020C0F67D7001EA000354
:1057D80013420CBF0020012010BC704730B44FF4B6
:1057E800C84246F20F444FF4C043C4F20204C4F264
:1057F8000202C4F20203A04288BF1346880007D4FD
:1058080040F67D75C0F67D750D409D6030BC7047D3
:1058180040F67D7CC0F67D7C01EA0C00D860F5E797
:105828000B0604D543697AB143F0800343618029AC
:1058380006D0036801F01E011AB923EA01020260CA
:10584800704719430160704723F080034361EEE716
:1058580040F63C7C30B44FF4C04246F20F454FF45A
:10586800C844C0F63C7CC4F20205C4F20204C4F287
:10587800020201EA0C03A84288BF2246A3B10368CA
:1058880003F01E0000EAD12488004CBF506810685D
:1058980040F67D72C0F67D721140084002D0201C8F
:1058A80018BF012030BC7047446904F08004EBE75E
:1058B80030B44FF4C84246F20F444FF4C043C4F228
:1058C8000202C4F20204C4F20203A04288BF1346D3
:1058D8008A0007D440F67D75C0F67D750D409D6041
:1058E80030BC704740F67D7CC0F67D7C01EA0C0038
:1058F800D860F5E74FF47053C4F201034FF6FF7117
:105908000022C0F27F011A605A609A60DA60596119
:10591800704700BF837970B443B34FF47053C4F237
:10592800010301681E6802794579CC4326401E6050
:105938005E6802F1804C0CF59E3234405C6014685D
:105948002143116002689868D14308409860D8687C
:10595800102D01EA0001D96016D005F1804505F542
:105968009E35286840EA02032B600BE00279016843
:1059780002F1804000F59E3CDCF8003023EA010289
:10598800CCF8002070BC7047996841EA0200986022
:10599800D96841EA0200D860F4E700BF00230C226E
:1059A8000360037142718371704700BF4FF47053F5
:1059B800C4F201031A691043186170474FF470511B
:1059C800C4F201014B6918420CBF00200120704746
:1059D8004FF47053C4F20103586170474FF470518B
:1059E800C4F201010A684B69034004D010420CBF9D
:1059F8000020012070471846704700BF4FF47053CD
:105A0800C4F20103586170474FF47053C4F20203A3
:105A1800C0B21870704700BF4FF47053C4F202034D
:105A28001A6818B922F480701860704742F48072BE
:105A38001A6070474FF47053C4F202031A6818B919
:105A480022F400701860704742F400721A607047C0
:105A58004FF47053C4F202031A6818B922F4806034
:105A68001860704742F480621A6070474FF47053B0
:105A7800C4F20203186840F400621A60704700BF5D
:105A88004FF47053C4F20203186840F480521A604D
:105A9800704700BF4FF47053C4F202031A69002A1A
:105AA80009DA40F2231148F6AB10C4F26751CCF67C
:105AB800EF505960586070474FF47053C4F20203B6
:105AC800186940F000421A61704700BF4FF47053E4
