:10E0000037C0000050C000004EC000004CC00000EF
:10E010004AC0000048C0000046C0000044C00000E4
:10E0200042C0000040C000003EC000003CC00000F4
:10E030003AC0000038C0000036C0000034C0000004
:10E0400032C0000030C000002EC000002CC0000014
:10E050002AC0000028C0000026C0000024C0000024
:10E0600022C0000020C000001EC000001CC0000034
:10E0700011241FBECFEFD0E1DEBFCDBF11E0A0E085
:10E08000B1E0EAE3FFEE02C005900D92AE38B107B1
:10E09000D9F713E0AEE8B1E001C01D92A53DB1078C
:10E0A000E1F736D548C7ACCF9C013627032E029442
:10E0B000802D8F708327632F6025660F607E8627F3
:10E0C000602D6327607F6695032E000C661F3695D2
:10E0D000369536953F7136273227282FC901089586
:10E0E000CF93DF93282FEB0180E090E0622FDCDFFD
:10E0F0006B81DADF6A81D8DF6981D6DF6881D4DF9E
:10E10000DF91CF9108950F931F93CF93DF93DA019F
:10E110001FB7F894F999FECF83E0FB018093570075
:10E12000E89507B600FCFDCFCB0180509F4FFB0167
:10E130004C9111963C91119720E0E901C40FD11D3B
:10E14000129601E00E0100935700E89511243296D3
:10E15000E817F90769F785E0FB0180935700E89518
:10E1600007B600FCFDCF81E180935700E8951FBF03
:10E17000DF91CF911F910F910895579A5F988FE784
:10E1800094E8AEE181509040A040E1F700C000006B
:10E1900057985F988FE39DE0A3E081509040A040A6
:10E1A000E1F700C000000895A0E0B0E0E9EDF0E77D
:10E1B00095C67B018C0180919401813039F08130CA
:10E1C00008F458C0823009F0B0C109C120918E0115
:10E1D00030918F01409190015091910180919F0168
:10E1E0009091A00180509E4FA0E0B0E02817390721
:10E1F0004A075B0708F0B0C06091920170919301EB
:10E2000080E090E045ED51E07EDF80918E019091BD
:10E210008F01A0919001B091910180509F4FAF4F1D
:10E22000BF4F80938E0190938F01A0939001B09384
:10E230009101809192019091930180509F4F909312
:10E2400093018093920120918E0130918F01409132
:10E2500090015091910180919F019091A001805077
:10E260009E4FA0E0B0E0281739074A075B0708F483
:10E270004CC072C0ABE9B1E0E5EDF1E08AE001909D
:10E280000D928150E1F780919B01833561F480917B
:10E290009C01803541F480919D01863421F4809168
:10E2A0009E01893431F0B0D1B8D180E091E0D3D172
:10E2B000FFCF80918E0190918F01A0919001B0913C
:10E2C000910180509E4FAF4FBF4F80938E0190932E
:10E2D0008F01A0939001B093910180918E01909154
:10E2E0008F01A0919001B09191018E159F05A0071B
:10E2F000B10738F080E062E099D187E091E0ABD1DE
:10E30000FFCF81E08093940111C1609192017091DF
:10E31000930180E090E045ED52E0F5DE80918E01C2
:10E3200090918F01A0919001B091910180509F4FE9
:10E33000AF4FBF4F80938E0190938F01A0939001B8
:10E34000B0939101809192019091930180509F4FE1
:10E35000909393018093920180918E0190918F010F
:10E36000A0919001B09191018E159F05A007B10772
:10E3700008F0D9C020918E0130918F014091900119
:10E380005091910180919F019091A00180509E4FEA
:10E39000A0E0B0E0281739074A075B0708F4C5C0BA
:10E3A0003CD18EE091E057D1E8DE81E02AD58FEFB5
:10E3B00098E0ADE381509040A040E1F700C000003C
:10E3C0008091C00087FFF1CF15D5843071F782E0CE
:10E3D0008093940122D18FE191E03DD1A6C0C0E0AD
:10E3E000D0E083E065E971E07BDED82EC92E83E0C2
:10E3F00008D58091950190919601A0919701B091D7
:10E4000098018B2FFED460919501709196018091B7
:10E41000970190919801F5D4209195013091960142
:10E420004091970150919801832FEBD42091950151
:10E43000309196014091970150919801822FE1D43B
:10E440008C2DDFD48D2DDDD4E3D4843081F6BE0154
:10E450006B527E4F82E044DED82EC92E82E0D1D4AA
:10E46000FE01E852FE4F8081CCD4FE01E952FE4FFE
:10E470008081C7D4FE01EA52FE4F8081C2D4FE01E2
:10E48000EB52FE4F8081BDD48C2DBBD48D2DB9D4E1
:10E49000BFD4843019F78091950190919601A09195
:10E4A0009701B09198010196A11DB11D809395012E
:10E4B00090939601A0939701B0939801249692E0CF
:10E4C000C030D90709F08DCF80918E0190918F01D6
:10E4D000A0919001B091910180509E4FAF4FBF4FDE
:10E4E00080938E0190938F01A0939001B09391013E
:10E4F00080918E0190918F01A0919001B091910136
:10E500008E159F05A007B10780F07ED086D080E3EE
:10E5100091E0A1D080E062E089D089E391E09BD0D6
:10E5200086E06FD4FFCF80E001C081E0CDB7DEB7D9
:10E53000E8E0F0C4439A85E88A95F1F70000439833
:10E54000089595B1907F95B995B182958F70892B7B
:10E5500085B9F0CF84B18F6084B987B1886187B9FC
:10E5600085B1807F85B988B1877E88B98FE59AEEBD
:10E57000A0E081509040A040E1F700C0000080E39F
:10E58000E0DFA7EAB1E61197F1F700C00000D2DFA3
:10E5900087E893E10197F1F700C00000CBDFA7E81F
:10E5A000B3E11197F1F700C0000080E2CADF87EA0B
:10E5B00091E60197F1F700C0000088E215D08CE0E9
:10E5C00013D086E011D020C01F93182F449AB9DFD2
:10E5D000812F8295807FB5DF85EE90E00197F1F77E
:10E5E00000C000001F9108951F93182F4498A9DFC1
:10E5F000812F8295807FA5DF81ED90E00197F1F773
:10E6000000C000001F91089581E0EEDF8FE097E2E7
:10E610000197F1F700C00000089582E0E5DF8FE088
:10E6200097E20197F1F700C000000895623061F0B1
:10E63000633018F4613071F405C0633039F0643030
:10E6400049F406C0805805C0805403C0805701C0FB
:10E650008053CACF0895EF92FF92CF93DF93E82EB5
:10E66000E7017E01F92EE70101C0AEDF8991882321
:10E67000E1F7DF91CF91FF90EF900895A0E0B0E037
:10E68000E3E4F3E72BC41092C7011092C801109283
:10E69000C9011092CA0160E070E0CB015BD38091A8
:10E6A000D501893E19F18B3E09F18091D3039091F8
:10E6B000D4032AEA8535920709F092C060919B0342
:10E6C00070919C0380919D0390919E036093C7017C
:10E6D0007093C8018093C9019093CA013BD3809184
:10E6E000D501893E19F08B3E09F07AC08091E00196
:10E6F0009091E1019093BC018093BB018091E20174
:10E7000090E09093C6018093C501C090E301D09042
:10E71000E401D092CC01C092CB0180910102909192
:10E720000202A0910302B09104028093C101909370
:10E73000C201A093C301B093C401C091CB01D09199
:10E74000CC016091E50170E080E090E02091F9015A
:10E750003091FA014091FB015091FC0174D38B017F
:10E760009C01CE01A0E0B0E04091F1015091F20196
:10E770006091F3017091F401840F951FA61FB71FDC
:10E78000800F911FA21FB31F8093B3019093B40118
:10E79000A093B501B093B6014091C5015091C60157
:10E7A000EE24FF246091F5017091F6018091F7014C
:10E7B0009091F8016C197D098E099F09601B710BFE
:10E7C000820B930B9A0140E050E05CD32093BD0193
:10E7D0003093BE014093BF015093C00180E001C05F
:10E7E00081E0CDB7DEB7E8E095C3EF92FF920F93DB
:10E7F0001F932091C5013091C601E090B301F090C4
:10E80000B4010091B5011091B60162507040804092
:10E81000904040E050E017D39B01AC012E0D3F1D0E
:10E82000401F511FB901CA011F910F91FF90EF9036
:10E830000895A0E0B0E0EEE1F4E74EC35B016C01A7
:10E84000E090CB01F090CC0192E0AA0CBB1CCC1C58
:10E85000DD1C9A95D1F72091BB013091BC0100E0FD
:10E8600010E08091C7019091C801A091C901B091B9
:10E87000CA01E80EF91E0A1F1B1F40E050E0C60146
:10E88000B50100D3E20EF31E041F151F2091BB013A
:10E890003091BC0140E050E0C601B501F3D2EB017C
:10E8A0008AE0A82EC801B70155D2882311F0AA9496
:10E8B000C9F7CB52DE4F288139814A815B815F7075
:10E8C000B901CA01CDB7DEB7EAE022C3A6E0B0E0E5
:10E8D000EBE6F4E7F9C289839A83E090C101F090F6
:10E8E000C2010091C3011091C401C801B7017DDFCD
:10E8F0006B837C838D839E83AA24BB24650171C0B6
:10E900006B807C808D809E806A0C7B1C8C1C9D1C87
:10E91000C401B3011FD280E090E056C0FC01EB526D
:10E92000FE4F2081222309F47BC0253E09F44BC011
:10E9300023852F3009F447C01F0139812A81632FB5
:10E94000722F20E0D1014D911D01DB013D91BD01F0
:10E950004317C9F52F5F2B30A9F76092D101709250
:10E96000D2018092D3019092D401A0E0B0E08093D4
:10E97000AF019093B001A093B101B093B20184892B
:10E980009589A0E0B0E0DC0199278827228D338D9E
:10E9900040E050E0822B932BA42BB52B8093CD012C
:10E9A0009093CE01A093CF01B093D001848D958D2B
:10E9B000A68DB78D8093B7019093B801A093B9014C
:10E9C000B093BA012FC080962091BB013091BC0159
:10E9D0008217930708F4A2CF0894A11CB11CC11C94
:10E9E000D11C8091C5019091C601A0E0B0E0A816AD
:10E9F000B906CA06DB0608F483CFC801B70119DFE0
:10EA00007B018C01673FBFEF7B07BFEF8B07BFE048
:10EA10009B0730F4611571058105910509F065CFFB
:10EA2000E0E0F0E0CF012696E2E16AC24F925F9209
:10EA30006F927F929F92AF92BF92CF92DF92EF92AE
:10EA4000FF920F931F9342DFFC01009729F4DCDD56
:10EA50008AE491E000DEFFCFE488F58800E010E072
:10EA60008701FF24EE24228D338D40E050E0E22A1E
:10EA7000F32A042B152B448C558C668C778CC8019B
:10EA8000B701B3DE5B016C0199240DC0C601B5016D
:10EA9000690D711D811D911D5DD1C301B20184DB22
:10EAA0008823A1F093948091C5019091C601292DEE
:10EAB00030E02817390750F3C801B701BADE7B01EF
:10EAC0008C016115710581059105C9F61F910F91A2
:10EAD000FF90EF90DF90CF90BF90AF909F907F908E
:10EAE0006F905F904F90089512B811B88FEE85B96E
:10EAF0008FEB84B918B817B81BB857985F9808956A
:10EB0000F894F2DF53D163D115BE10926E0022CD7E
:10EB10008FE79AE1A6E081509040A040E1F700C065
:10EB200000008AD18CD1882309F44AC0E9DF89E545
:10EB300091E091DD8FE794E8AEE181509040A040F4
:10EB4000E1F700C000001092AE01CAE0D0E041D071
:10EB5000882389F02197D9F757DD5FDD84E691E0BE
:10EB60007ADD8FE79AE1A6E081509040A040E1F77E
:10EB700000C00000F6CF80E58CBD8DB581608DBDF5
:10EB8000A7E8B3E11197F1F700C0000077DD882313
:10EB900071F03ADD8DE691E05EDD8FE794E8AEE15D
:10EBA00081509040A040E1F700C00000F6CF86E71A
:10EBB00091E03CDFF894E0919901F0919A01099578
:10EBC000F894E0919901F0919A01099580E090E024
:10EBD00008951F93CF93DF9310E08FEFEBD01F5F6B
:10EBE0001A30D9F72C98C0E0D0E080E040E050E047
:10EBF000BA015AD02196C132D10509F44CC08130F6
:10EC0000A1F72C9A8FEFD6D08FEFD4D0C0E0D0E010
:10EC100088E04AEA51E060E070E046D02196CF3FBC
:10EC2000D10529F481E08093AE0111E003C0813069
:10EC300079F712E0C0E0D0E087E340E050E0BA01AD
:10EC400033D089E240E050E060E070E42DD02196BE
:10EC5000CF3FD10511F1882379F71092A901123025
:10EC6000F1F4C0E0D0E08AE340E050E0BA011CD00B
:10EC70002196CF3FD10519F41092AE0102C088232E
:10EC800091F78091A901813011F482E001C083E005
:10EC90008093AE0104C081E003C082E001C080E047
:10ECA000DF91CF911F910895A1E0B0E0E9E5F6E78B
:10ECB00017C1982F7A018B018091A901882399F4BB
:10ECC000892F8151823040F0983131F0993121F013
:10ECD000903211F0913239F489E0EE0CFF1C001FE4
:10ECE000111F8A95D1F72C98892F8064998362D05F
:10ECF000812F60D0802F5ED08F2D5CD08E2D5AD08A
:10ED00009981983011F487E802C085E9998352D03F
:10ED1000998100E002C00150B9F0998351D0182FB9
:10ED200099818F3FC1F3882379F49A3369F448D0ED
:10ED300086FF04C081E08093A90102C01092A9015E
:10ED40003FD03ED03DD010E03BD02C9A812F219671
:10ED5000E6E0E2C01F93CF93DF93AB01BC0181E1FA
:10ED6000A3DF182F8823E9F42C98CFEFDFEF06C03C
:10ED7000209719F42C9A11E014C0219721D08E3FCE
:10ED8000B9F7C0E0D0E01CD0FE01EB52FE4F80830B
:10ED9000219682E0C030D807B1F712D011D010D040
:10EDA0002C9A812FDF91CF911F91089582E58CBD20
:10EDB0001DBC08958EBD0DB407FEFDCF8EB5089520
:10EDC0008FEF8EBD0DB407FEFDCF8EB50895109266
:10EDD000C50084E08093C400E0ECF0E080818260B4
:10EDE0008083E1ECF0E080818861808386E080931D
:10EDF000C20008958091C00087FFFCCF8091C600BB
:10EE000008959091C00095FFFCCF8093C6000895AF
:10EE1000F1DF843009F40895853039F480E062E050
:10EE200005DC82E891E017DCFFCF80E062E0FEDBEA
:10EE300087E891E010DCFFCF3A98429A089581E08C
:10EE4000329980E00895629FD001739FF001829F04
:10EE5000E00DF11D649FE00DF11D929FF00D839F69
:10EE6000F00D749FF00D659FF00D9927729FB00D06
:10EE7000E11DF91F639FB00DE11DF91FBD01CF0119
:10EE800011240895A1E21A2EAA1BBB1BFD010DC07F
:10EE9000AA1FBB1FEE1FFF1FA217B307E407F5074A
:10EEA00020F0A21BB30BE40BF50B661F771F881F26
:10EEB000991F1A9469F760957095809590959B01BC
:10EEC000AC01BD01CF0108952F923F924F925F9206
:10EED0006F927F928F929F92AF92BF92CF92DF926A
:10EEE000EF92FF920F931F93CF93DF93CDB7DEB7CF
:10EEF000CA1BDB0B0FB6F894DEBF0FBECDBF099463
:10EF00002A88398848885F846E847D848C849B84B9
:10EF1000AA84B984C884DF80EE80FD800C811B81C7
:10EF2000AA81B981CE0FD11D0FB6F894DEBF0FBEF6
:0AEF3000CDBFED010895F894FFCF66
:10EF3A0068642065727200656E642068640075708A
:10EF4A00646174696E672E2E2E28312F322900755E
:10EF5A0070646174696E672E2E2E28322F32290052
:10EF6A00737563636573732100706C6561736520E3
:10EF7A007265626F6F742E2E2E004669726D77610C
:10EF8A007265206572726F7200626F6F746C6F6166
:10EF9A00646572005344206572726F720046532092
:10EFAA006572726F72004649524D57415245424945
:0EEFBA004E006E61636B006E6F2061636B0032
:0400000500800199DD
:00000001FF
