:10E0000054C000006FC000006DC000006BC0000075
:10E0100069C0000067C0000065C0000063C0000068
:10E0200061C000005FC000005DC000005BC0000078
:10E0300059C0000057C0000055C0000053C0000088
:10E0400051C000004FC000004DC000004BC0000098
:10E0500049C0000047C0000045C0000043C00000A8
:10E0600041C000003FC000003DC000003BC00000B8
:10E0700053442063617264006E6F7420646574653C
:10E08000637465642100696E6974206572726F72D1
:10E0900000756E6B6E6F776E206572726F720053D3
:10E0A000442063617264204F4B0011241FBECFEFE8
:10E0B000D0E1DEBFCDBF12E0A0E0B1E0E2E5FDEFD0
:10E0C00002C005900D92A832B107D9F716E0A8E278
:10E0D000B2E001C01D92AE38B107E1F70E945F7C4B
:10E0E0000C94A77E8DCF8AB180678AB98BB18F7867
:10E0F0008BB985E0E9E3F2E0DF011D928A95E9F74B
:10E1000081E080933C020895CF93DF9330913D02EC
:10E1100020E080913C0290E0822B932B019611F439
:10E1200081E090E080933C0290933D02C0E0D0E01B
:10E130005E98FE0183E0F595E7958A95E1F7E75C47
:10E14000FD4F808190E09E012770307002C0959550
:10E1500087952A95E2F780FD5E9A08D02196C8320D
:10E16000D10531F706D0DF91CF9108955D9A5D9882
:10E1700008955C9A5C9808950F931F93882309F083
:10E180004BC0809100018160809300010E94E37D7B
:10E190000AE00E94E97C182F882331F10150C9F769
:10E1A0000E940A7C0E94017C80E790EE0E943B7CEA
:10E1B00080E062E00E94137C113019F488E790EE51
:10E1C00007C0123019F486E890EE02C081E990EEA3
:10E1D0000E943B7C8FEF91E1AAE781509040A040E4
:10E1E000E1F700C0000015C00E940A7C8FE990EEA4
:10E1F0000E943B7C81E58CBD81E08DBDA7EAB1E644
:10E200001197F1F700C00000809100018E7F80938C
:10E2100000018091000101C081E01F910F910895DC
:10E22000882319F480910001089581E00895AF9248
:10E23000BF92CF92DF92EF92FF920F93CF93DF9333
:10E240005B0169017A018823B1F40023A1F0809178
:10E25000000180FD12C0C0E0D0E006C0C701B601D9
:10E26000A5010E94AC7D2196802F90E0C817D907A8
:10E27000ACF380E003C084E001C083E0DF91CF9184
:10E280000F91FF90EF90DF90CF90BF90AF900895E7
:10E29000CF92DF92EF92FF920F93CF93DF93EC0137
:10E2A0006A017B018E8D9F8DA8A1B9A18417950766
:10E2B000A607B707A1F0411551056105710579F071
:10E2C000BE016E5D7F4F8981A701960101E0AFDF3E
:10E2D000882339F4CE8EDF8EE8A2F9A203C080E055
:10E2E00001C081E0DF91CF910F91FF90EF90DF901F
:10E2F000CF900895CF93DF93EC01CB01BA01625028
:10E300007040804090402A853B854C855D85225039
:10E31000304040405040621773078407950788F4E7
:10E320002A8130E040E050E00E942F7E9B01AC014A
:10E330008A8D9B8DAC8DBD8D280F391F4A1F5B1FA9
:10E3400003C020E030E0A901B901CA01DF91CF91FB
:10E350000895A0E0B0E0EFEAF1E70C94797EEC01DB
:10E360006A017B01423051056105710508F4C6C0A0
:10E370008A859B85AC85BD85481759076A077B0749
:10E3800008F0BCC08881823009F453C0833009F49E
:10E3900071C0813009F0B7C08A0116950795040F46
:10E3A000151FA801452F5527469560E070E08A8922
:10E3B0009B89AC89BD89480F591F6A1F7B1FCE01FD
:10E3C00067DF882309F09FC0F801F170EC0FFD1F93
:10E3D000B2A00F5F1F4FA801452F5527469560E05B
:10E3E00070E08A899B89AC89BD89480F591F6A1FD3
:10E3F0007B1FCE014DDF882309F085C02B2D30E037
:10E4000011700C0F1D1FF80192A180E0282B392BF1
:10E41000E601C170D070209731F054E03695279511
:10E420005A95E1F724C040E050E03F7040705070D2
:10E430006DC077276F2D5E2D4D2D8A899B89AC8904
:10E44000BD89480F591F6A1F7B1FCE0121DF88231A
:10E4500009F059C0B601660F771F7170FE01E60F13
:10E46000F71F22A130E093A180E0282B392B40E058
:10E4700050E04CC027E076956795579547952A95CB
:10E48000D1F78A899B89AC89BD89480F591F6A1FBA
:10E490007B1FCE01FDDE8823B1F5B601660F771F25
:10E4A000660F771F7170FB01B296EC0FFD1F228182
:10E4B00030E040E050E0A90133272227838190E03B
:10E4C000A0E0B0E0B82FAA2799278827282B392B5E
:10E4D0004A2B5B2B918180E0A0E0B0E0282B392B08
:10E4E0004A2B5B2BC60FD71F8AA190E0A0E0B0E0BB
:10E4F000282B392B4A2B5B2B5F7008C021E030E0C2
:10E5000040E050E003C02FEF3FEFA901B901CA017D
:10E51000CDB7DEB7E9E00C94957E0F93CF93DF93F0
:10E52000EC019A01AB01BC016E5D7F4F898101E076
:10E530007EDE882309F082C0FE01EF5DFD4F308151
:10E5400020E0FE01E05EFD4F808190E0822B932B66
:10E550002AEA8535920709F073C0FE01E55AFF4F9C
:10E56000808190E0A0E0B0E0B82FAA279927882703
:10E57000FE01E65AFF4F208130E040E050E0A90163
:10E5800033272227822B932BA42BB52BFE01E85A8D
:10E59000FF4F208130E040E050E0822B932BA42BF2
:10E5A000B52BFE01E75AFF4F308120E040E050E0FC
:10E5B000822B932BA42BB52BB070863421E49207C9
:10E5C00024E5A20720E0B207E9F1FE01E958FF4F78
:10E5D000208130E040E050E0522F442733272227AB
:10E5E000FE01EA58FF4F808190E0A0E0B0E0DC013E
:10E5F00099278827282B392B4A2B5B2BFE01EC58B7
:10E60000FF4F808190E0A0E0B0E0282B392B4A2B0F
:10E610005B2BCB58DF4F988180E0A0E0B0E0282B47
:10E62000392B4A2B5B2B507081E0263491E439075B
:10E6300094E5490790E0590731F404C083E003C032
:10E6400082E001C080E0DF91CF910F910895FC013D
:10E65000009771F08081882359F086819781861711
:10E66000970731F48181DCDD80FF04C083E00895E9
:10E6700089E0089580E00895882391F4E0912802CC
:10E68000F0912902309709F010826115710511F09F
:10E69000FB011082709329026093280280E00895A4
:10E6A0008BE00895A8E3B0E0E8E5F3E70C94707E12
:10E6B0009AA789A778A76FA348AFDC0111961C928F
:10E6C0001E92FB01808190E0C0978A30910548F44A
:10E6D00021812A3331F43296F8A7EFA3009709F08D
:10E6E00052C200912802109129021E870D87011540
:10E6F000110509F44AC2D8018C91882329F011969A
:10E700008C918EDD80FF43C2F8011082118280E07F
:10E7100033DD80FD3EC2C80140E050E0BA01FDDEBD
:10E720008130D9F5F801EC51FE4F8081882309F43E
:10E7300034C2F801E551FE4F408055246624772409
:10E74000742C662455244424F801E651FE4F808140
:10E7500090E0A0E0B0E0DC0199278827482A592AF8
:10E760006A2A7B2AF801E851FE4F808190E0A0E000
:10E77000B0E0482A592A6A2A7B2AF801E751FE4F5D
:10E78000908180E0A0E0B0E0482A592A6A2A7B2ADA
:10E79000C801B301A201C1DE03C0442455243201E3
:10E7A000833009F4F8C1882309F0F7C1D8019E9697
:10E7B0003C919E9720E09D968C919D9790E0822BB6
:10E7C000932BB2E080309B0709F0E7C1F80131AD2F
:10E7D00020E080AD90E0822B932B9C0140E050E044
:10E7E0002BA33CA34DA35EA3211531054105510583
:10E7F00091F5E75BFF4F808190E0A0E0B0E0582FFB
:10E80000442733272227F801E85BFF4F808190E0FF
:10E81000A0E0B0E0DC0199278827282B392B4A2B70
:10E820005B2BF801EA5BFF4F808190E0A0E0B0E055
:10E83000282B392B4A2B5B2BF801E95BFF4F90818A
:10E8400080E0A0E0B0E0282B392B4A2B5B2B2BA3D8
:10E850003CA34DA35EA38BA19CA1ADA1BEA1F801D9
:10E8600086879787A08BB18B42A94383842F8150E1
:10E87000823008F092C1F7A5FBA7D8011296FC934D
:10E880001297FF2309F489C12F2F30E0C9010197A6
:10E8900082239323009709F080C1D4969C91D4974A
:10E8A00080E0D3962C90D3973324282A392A1996BE
:10E8B0003C922E921897C1018F709070009709F0CA
:10E8C0006CC1D6969C91D69780E0D596CC90D59782
:10E8D000DD24C82AD92AEE24FF24C114D104E1047E
:10E8E000F10479F5F801EB5BFF4FC080DD24EE24E5
:10E8F000FF24FC2CEE24DD24CC24F801EC5BFF4F3C
:10E90000808190E0A0E0B0E0DC0199278827C82A48
:10E91000D92AEA2AFB2AF801EE5BFF4F808190E0BA
:10E92000A0E0B0E0C82AD92AEA2AFB2AF801ED5B68
:10E93000FF4F908180E0A0E0B0E0C82AD92AEA2AFF
:10E94000FB2AD801D1969C91D19780E0D0968C90EB
:10E95000D0979924882A992A8114910409F41DC119
:10E96000242F30E040E050E06BA17CA18DA19EA15E
:10E970000E942F7E6CA77DA78EA79FA7940140E0E1
:10E9800050E028AB39AB4AAB5BAB4101B4E09694A5
:10E990008794BA95E1F7AA24BB24820E931EA41E85
:10E9A000B51E860E971EA81EB91EC814D904EA0407
:10E9B000FB0408F4F2C0C701B601681979098A0995
:10E9C0009B09ABA52A2F30E040E050E00E944E7E2C
:10E9D000211531054105510509F4DFC0263FBFE08F
:10E9E0003B07B0E04B07B0E05B0750F0263FEFEF8E
:10E9F0003E07E0E04E07E0E05E0720F462E003C07F
:10EA000061E001C063E0A2E0CA2ED12CE12CF12C20
:10EA1000C20ED31EE41EF51ED8011A96CD92DD92C9
:10EA2000ED92FC921D97840C951CA61CB71CF80156
:10EA3000828E938EA48EB58E28A939A94AA95BA986
:10EA4000420E531E641E751E52964D925D926D923B
:10EA50007C925597633009F041C02114310409F0CC
:10EA60009CC0EF5AFF4F808190E0A0E0B0E0B82F4B
:10EA7000AA2799278827F801E05BFF4F208130E023
:10EA800040E050E0A90133272227822B932BA42BAF
:10EA9000B52BF801E25BFF4F208130E040E050E011
:10EAA000822B932BA42BB52BF801E15BFF4F308118
:10EAB00020E040E050E0822B932BA42BB52BF801F3
:10EAC000868B978BA08FB18FD701C60172E0880F1C
:10EAD000991FAA1FBB1F7A95D1F72BC021143104AF
:10EAE00009F45BC08CA59DA5AEA5BFA5840D951DA1
:10EAF000A61DB71DF801868B978BA08FB18FD7010C
:10EB0000C601880F991FAA1FBB1F623091F08C0DA0
:10EB10009D1DAE1DBF1DB695A79597958795A7011D
:10EB200096012170307040705070820F931FA41FA7
:10EB3000B51F81509E4FAF4FBF4F39E0B695A79597
:10EB4000979587953A95D1F72BA13CA14DA15EA150
:10EB5000281739074A075B0700F1D8016C938091A9
:10EB60002A0290912B02019690932B0280932A0205
:10EB700017969C938E931697F801168E178E10A2F7
:10EB800011A2148204C08BE009C08CE007C080E0B1
:10EB900005C083E003C081E001C08DE09E012F5FCE
:10EBA0003F4F3AA329A3882309F089C1AFA1B8A593
:10EBB0008C918F3211F08C3529F4EFA1F8A53196A4
:10EBC000F8A7EFA31B8A1C8A1D8A1E8AAFA1B8A5CD
:10EBD0008C91803230F4CE010D96E5D218A21F8EB2
:10EBE0006EC1CFA0D8A416016101F1018081089403
:10EBF000211C311C8F32C1F38C35B1F3E9A1FAA18C
:10EC0000DF018BE090E002C020E22D9301972FEF0F
:10EC10008F3F9207C9F7760180E090E022243324E9
:10EC200028E030E08824D7014D907D010894211C14
:10EC3000311CB42DB13208F448C0BF3209F447C0CA
:10EC4000BC3509F444C0BE3219F08217930778F03E
:10EC50002830310509F030C1242D2E3209F02CC1A5
:10EC6000880C880C88E090E02BE030E0DCCF47FE99
:10EC700008C043E0842A442D50E040575F4FDA013A
:10EC80004C90042D10E041E051E0DA016D91AD01AE
:10EC9000662329F070E060177107B9F70DC1442DA4
:10ECA00041544A3118F4B2E08B2A08C0442D415631
:10ECB0004A3120F441E0842A50EE450EBF01680F2E
:10ECC000791FDB014C920196AECF44E001C040E0D9
:10ECD000009709F4F1C08081853E11F485E08083BE
:10ECE0002830310511F4880C880C882D90E09C01A7
:10ECF000237030702130310509F440618C709070C0
:10ED00008430910509F448604387CE010D964BD2BB
:10ED1000882309F09CC04B8D5C8D6D8D7E8D8D851B
:10ED20009E85B6DA882309F092C0EF8DF8A1908114
:10ED3000992309F48BC0938593FD0DC0A9A1BAA1B5
:10ED40009F01255F3F4FE217F30709F480C041910F
:10ED50009D914917C1F309891A890F5F1F4F09F463
:10ED600075C08B8D9C8DAD8DBE8D0097A105B105B5
:10ED700009F46CC02FE0422E512C40225122411444
:10ED8000510409F050C00196A11DB11D8B8F9C8FBD
:10ED9000AD8FBE8F4F89588D698D7A8D8D859E85FB
:10EDA000411551056105710539F4FC018085918596
:10EDB00008171907C0F14AC0DC0112962C9112976E
:10EDC00030E021503040F801A4E0F695E795AA958F
:10EDD000E1F72E233F232115310529F5BADAAB01DE
:10EDE000BC01423051056105710560F14F3FBFEF35
:10EDF0005B07BFEF6B07BFEF7B0731F18D859E850A
:10EE0000FC0182849384A484B584481559056A055D
:10EE10007B05E0F44F8B588F698F7A8F6BDA6B8F9D
:10EE20007C8F8D8F9E8F1A8B098B8D859E85829608
:10EE300035E0440C551C3A95E1F7840D951D98A3D7
:10EE40008F8F69CF82E003C081E001C084E0E9A137
:10EE5000FAA19385882329F0843089F592FF2EC08A
:10EE60002EC092FD2CC0EF8DF8A1838584FF26C0B3
:10EE7000C20CD31C25892DAB1CAA848990E04CA917
:10EE80005DA9842B952BA0E0B0E0DC0199278827B1
:10EE9000538D5FAB1EAA228D30E0EEA9FFA92E2B69
:10EEA0003F2B40E050E0822B932BA42BB52B8B8B78
:10EEB0009C8BAD8BBE8B97CE86E001C085E0EF8D3D
:10EEC000F8A1882341F4309729F0938594FF06C078
:10EED00084E001C086E0E896E2E11EC798AD91703B
:10EEE000A9A5BAA514969C93558940E0248930E0E1
:10EEF000242B352B40E050E0A90133272227738DC6
:10EF000060E0C28CDD24C62AD72AEE24FF242C29F7
:10EF10003D294E295F29A9A5BAA51E962D933D939B
:10EF20004D935C935197278D30E040E050E0522F95
:10EF3000442733272227C68CDD24EE24FF247601C4
:10EF4000DD24CC242C293D294E295F29C48CDD24C5
:10EF5000EE24FF242C293D294E295F29758D60E080
:10EF60006B01EE24FF242C293D294E295F29FD0148
:10EF7000228733874487558716961D921D921D92CE
:10EF80001C921997168A178A108E118EED85FE85B0
:10EF90001196FC93EE932681378113963C932E9322
:10EFA000129799CFA0E0B0E0E7EDF7E79DC6EC013E
:10EFB000062FC72E7A013901F901118210826A8168
:10EFC0007B818881998143DB182F882309F0E6C073
:10EFD0008C8187FDE0C080FFE0C08A859B85AC8581
:10EFE000BD852E813F8148855985821B930BA40BDB
:10EFF000B50B970140E050E082179307A407B507CF
:10F0000008F47C01802E9C2CC1C02E813F81488554
:10F010005985DA01C9019170A070B0700097A105FF
:10F02000B10509F06CC08881998159016A0109E034
:10F03000D694C794B794A7940A95D1F7FC0102819E
:10F0400001500A2109F5211531054105510529F421
:10F050006E857F858889998905C04A895B896C8915
:10F060007D8977D96230710581059105E0F06F3FA8
:10F07000FFEF7F07FFEF8F07FFEF9F0709F44CC0FB
:10F080006A8B7B8B8C8B9D8BA880B9804A895B892E
:10F090006C897D89C5012ED99B01AC016115710573
:10F0A0008105910521F48C8180688C8374C0200FC8
:10F0B000311D411D511D6701CD2CDD24C694C114A5
:10F0C000D104C9F0F5016281802F90E0F601E80FCC
:10F0D000F91F70E06E177F0718F46B01C81AD90A80
:10F0E000F5018181B4010C2DA2D88823A9F4DC2C70
:10F0F000CC24DD0C31C02E8B3F8B488F598FAE80D6
:10F10000BF80C884D9844E895F89688D798D888154
:10F110009981BED8882329F08C8180688C8311E086
:10F120003DC09501317080E092E0821B930B670136
:10F130008E159F0508F46C01E881F981B2968E81E5
:10F140009F819170E80FF91FC601D40103C021917E
:10F150002D9301970097D9F78C0C9D1C960140E0E8
:10F1600050E08E819F81A885B985820F931FA41FCF
:10F17000B51F8E839F83A887B987F3018081918112
:10F180008C0D9D1D91838083EC18FD08E114F10422
:10F1900009F03BCF03C012E001C017E0812FCDB7CB
:10F1A000DEB7EEE0BDC50F931F93CF93DF93EC0165
:10F1B0001D821C824E815F816885798541305105B1
:10F1C0006105710509F465C008811981F80182851E
:10F1D0009385A485B585481759076A077B0708F00A
:10F1E00058C04115510561057105F9F480818330DE
:10F1F00049F446895789608D718D41155105610526
:10F20000710599F41A861B861C861D86F801808577
:10F210009185009709F43DC086899789A08DB18DAD
:10F220008E879F87A88BB98B2CC0F8018281882399
:10F23000F1F4888199818DD8AB01BC014F3FFFEF7C
:10F240005F07FFEF6F07FFEF7F0709F142305105BE
:10F2500061057105F0F0E881F98182859385A485C7
:10F26000B585481759076A077B0718F312C04A8704
:10F270005B876C877D87C8013DD86E877F87888BC9
:10F28000998B0E5D1F4F1B8B0A8B80E003C081E0C2
:10F2900001C082E0DF91CF911F910F9108959C01F1
:10F2A0003627032E0294802D8F708327632F6025CD
:10F2B000660F607E8627602D6327607F6695032E2C
:10F2C000000C661F3695369536953F7136273227E6
:10F2D000282FC9010895CF93DF93282FEB0180E0F9
:10F2E00090E0622FDCDF6B81DADF6A81D8DF698131
:10F2F000D6DF6881D4DFDF91CF9108950F931F93FC
:10F30000CF93DF93DA011FB7F894F999FECF83E02A
:10F31000FB0180935700E89507B600FCFDCFCB01B9
:10F3200080509F4FFB014C9111963C91119720E02A
:10F33000E901C40FD11D129601E00E0100935700A0
:10F34000E89511243296E817F90769F785E0FB0183
:10F3500080935700E89507B600FCFDCF81E18093CC
:10F360005700E8951FBFDF91CF911F910F9108952E
:10F37000579A5F988FE794E8AEE181509040A040A3
:10F38000E1F700C0000057985F988FE39DE0A3E08D
:10F3900081509040A040E1F700C000000895A0E037
:10F3A000B0E0E4EDF9E7A4C46B017C018091320286
:10F3B000813039F0813008F458C0823009F0B2C190
:10F3C00011C120912C0230912D0240912E025091BA
:10F3D0002F0280914C0290914D0280509E4FA0E0F0
:10F3E000B0E0281739074A075B0708F0B0C0609102
:10F3F00030027091310280E090E04EE854E07EDF10
:10F4000080912C0290912D02A0912E02B0912F029A
:10F4100080509F4FAF4FBF4F80932C0290932D028F
:10F42000A0932E02B0932F0280913002909131026E
:10F4300080509F4F909331028093300220912C0294
:10F4400030912D0240912E0250912F0280914C025A
:10F4500090914D0280509E4FA0E0B0E028173907F0
:10F460004A075B0708F44CC072C0A8E4B2E0EEE8BB
:10F47000F4E08AE001900D928150E1F7809148021A
:10F48000833561F480914902803541F480914A02CC
:10F49000863421F480914B02893431F0B2D1BAD153
:10F4A00080E991E0D5D1FFCF80912C0290912D027F
:10F4B000A0912E02B0912F0280509E4FAF4FBF4FB0
:10F4C00080932C0290932D02A0932E02B0932F02D2
:10F4D00080912C0290912D02A0912E02B0912F02CA
:10F4E0008C159D05AE05BF0538F080E062E09BD12C
:10F4F0008DE991E0ADD1FFCF81E08093320213C15D
:10F50000609130027091310280E090E04EE855E069
:10F51000F5DE80912C0290912D02A0912E02B091E7
:10F520002F0280509F4FAF4FBF4F80932C0290937C
:10F530002D02A0932E02B0932F0280913002909161
:10F54000310280509F4F909331028093300280911E
:10F550002C0290912D02A0912E02B0912F028C15B9
:10F560009D05AE05BF0508F0DBC020912C0230914F
:10F570002D0240912E0250912F0280914C029091C9
:10F580004D0280509E4FA0E0B0E0281739074A078F
:10F590005B0708F4C7C03ED187EA91E059D180E00B
:10F5A00062E041D182E01DD1E3DE81E03CD38FEF08
:10F5B00098E0ADE381509040A040E1F700C000002A
:10F5C0008091C00087FF03C027D3843019F00E94C8
:10F5D0008470EBCF82E0809332021CD188EB91E003
:10F5E00037D1A0C0CEE8D4E000E010E083E063E3D0
:10F5F00072E071DE5C0183E016D38091330290915A
:10F600003402A0913502B09136028B2F0CD3609159
:10F61000330270913402809135029091360203D307
:10F6200020913302309134024091350250913602DC
:10F63000832FF9D28091330290913402A091350248
:10F64000B0913602F0D28B2DEED28A2DECD2F2D2CE
:10F65000843089F6B80162577B4F82E03CDEB82ED9
:10F66000A92E82E0E0D28B81DED28A81DCD2898130
:10F67000DAD28881D8D28A2DD6D28B2DD4D2DAD2C2
:10F68000843079F78091330290913402A091350251
:10F69000B09136020196A11DB11D80933302909363
:10F6A0003402A0933502B09336020C5F1F4F2496AC
:10F6B00092E00030190709F099CF0E948470809180
:10F6C0002C0290912D02A0912E02B0912F02805019
:10F6D0009E4FAF4FBF4F80932C0290932D02A0936B
:10F6E0002E02B0932F0280912C0290912D02A091B6
:10F6F0002E02B0912F028C159D05AE05BF0590F02E
:10F7000080D088D089EC91E0A3D080E062E08BD0FB
:10F7100082ED91E09DD080E064D086E084D2FFCF7E
:10F7200080E001C081E0CDB7DEB7EAE0FDC2439AD8
:10F7300085E88A95F1F700004398089595B1907F88
:10F7400095B995B182958F70892B85B9F0CF84B129
:10F750008F6084B987B1886187B985B1807F85B9A9
:10F7600088B1877E88B98FE59AEEA0E081509040FD
:10F77000A040E1F700C0000080E3E0DFA7EAB1E6C7
:10F780001197F1F700C00000D2DF87E893E10197FD
:10F79000F1F700C00000CBDFA7E8B3E11197F1F764
:10F7A00000C0000080E2CADF87EA91E60197F1F726
:10F7B00000C0000088E215D08CE013D086E011D0A4
:10F7C00020C01F93182F449AB9DF812F8295807F24
:10F7D000B5DF85EE90E00197F1F700C000001F91C2
:10F7E00008951F93182F4498A9DF812F8295807F59
:10F7F000A5DF81ED90E00197F1F700C000001F91B7
:10F80000089581E0EEDF8FE097E20197F1F700C005
:10F810000000089582E0E5DF8FE097E20197F1F7BD
:10F8200000C000000895623061F0633018F4613068
:10F8300071F405C0633039F0643049F406C0805873
:10F8400005C0805403C0805701C08053CACF0895BB
:10F85000EF92FF92CF93DF93E82EE7017E01F92E1E
:10F86000E70101C0AEDF89918823E1F7DF91CF91F5
:10F87000FF90EF900895CF93DF93EC0104C02196A1
:10F88000FC0184919EDFCE01FE0124912223B9F771
:10F89000DF91CF91089512B811B88FEE85B98FEB33
:10F8A00084B918B817B81BB857985F980895F8949A
:10F8B000F2DF89D19ED115BE10926E0048CF00D0E4
:10F8C000CDB7DEB78FE79AE1A6E081509040A04027
:10F8D000E1F700C00000BCD10E947370BCD1882346
:10F8E00009F470C0E4DF83EE91E0B2DF8FE794E8C3
:10F8F000AEE181509040A040E1F700C000001092BE
:10F9000047020AE010E065D0882391F001501040D2
:10F91000D1F777DF7FDF83EF91E09ADF8FE79AE11E
:10F92000A6E081509040A040E1F700C00000F6CF73
:10F9300081E58CBD81E08DBDA7E8B3E11197F1F7BA
:10F9400000C0000080E062E572E00E943C73882302
:10F9500029F057DF8CEF91E07BDFFFCF84E794E065
:10F9600065E072E041E00E945273882329F049DF8C
:10F9700082E192E06DDFFFCFA0907E04B0907F0423
:10F98000C0908004D0908104EE24FF24870115C02C
:10F9900084E794E06EE874E040E052E09E012F5F5F
:10F9A0003F4F00DBC601B501FADC80E092E0A0E049
:10F9B000B0E0E80EF91E0A1F1B1FEA14FB040C0539
:10F9C0001D0530F3F894E0913702F0913802099563
:10F9D000FFCF1F93CF93DF9352985A9A10E08FEF87
:10F9E000FBD01F5F1A30D9F72C98C0E0D0E080E040
:10F9F00040E050E0BA015AD02196C132D10509F455
:10FA00004CC08130A1F72C9A8FEFE6D08FEFE4D075
:10FA1000C0E0D0E088E04AEA51E060E070E046D023
:10FA20002196CF3FD10529F481E08093470211E070
:10FA300003C0813079F712E0C0E0D0E087E340E016
:10FA400050E0BA0133D089E240E050E060E070E479
:10FA50002DD02196CF3FD10511F1882379F710924F
:10FA600042021230F1F4C0E0D0E08AE340E050E01E
:10FA7000BA011CD02196CF3FD10519F4109247024C
:10FA800002C0882391F780914202813011F482E014
:10FA900001C083E08093470204C081E003C082E09C
:10FAA00001C080E0DF91CF911F910895A1E0B0E007
:10FAB000EBE5FDE721C1982F7A018B01809142028D
:10FAC000882399F4892F8151823040F0983131F0A8
:10FAD000993121F0903211F0913239F489E0EE0C35
:10FAE000FF1C001F111F8A95D1F72C98892F806465
:10FAF000998372D0812F70D0802F6ED08F2D6CD0D3
:10FB00008E2D6AD09981983011F487E802C085E97A
:10FB1000998362D0998100E002C00150B9F09983C5
:10FB200061D0182F99818F3FC1F3882379F49A33DC
:10FB300069F458D086FF04C081E08093420202C07D
:10FB4000109242024FD04ED04DD010E04BD02C9AA4
:10FB5000812F2196E6E0ECC0A0E0B0E0E1EBFDE70C
:10FB6000CAC08B019C017A0181E1B901A8019EDF25
:10FB7000D82E882319F52C980FEF1FEF09C0011517
:10FB8000110521F42C9ADD24D39418C001501040A3
:10FB900029D08E3FA1F78F2DE7017E01F82EE701D6
:10FBA00000E010E01FD089930F5F1F4F32E000305C
:10FBB0001307C1F717D016D015D02C9A8D2DCDB7BD
:10FBC000DEB7E7E0B4C084B1806B84B985B185B994
:10FBD00082E58CBD1DBC08958EBD0DB407FEFDCF22
:10FBE0008EB508958FEF8EBD0DB407FEFDCF8EB597
:10FBF00008951092C50084E08093C400E0ECF0E02A
:10FC0000808182608083E1ECF0E080818861808384
:10FC100086E08093C20008958091C00087FFFCCFEA
:10FC20008091C60008959091C00095FFFCCF80930D
:10FC3000C6000895F1DF843009F40895853009F491
:10FC4000FFCF80E062E0EFDD81E292E001DEFFCFF6
:10FC50003A98429A089581E0329980E00895629F2F
:10FC6000D001739FF001829FE00DF11D649FE00DB4
:10FC7000F11D929FF00D839FF00D749FF00D659F15
:10FC8000F00D9927729FB00DE11DF91F639FB00D14
:10FC9000E11DF91FBD01CF0111240895A1E21A2E23
:10FCA000AA1BBB1BFD010DC0AA1FBB1FEE1FFF1F20
:10FCB000A217B307E407F50720F0A21BB30BE40B70
:10FCC000F50B661F771F881F991F1A9469F76095B7
:10FCD0007095809590959B01AC01BD01CF01089571
:10FCE0002F923F924F925F926F927F928F929F924C
:10FCF000AF92BF92CF92DF92EF92FF920F931F933A
:10FD0000CF93DF93CDB7DEB7CA1BDB0B0FB6F894EA
:10FD1000DEBF0FBECDBF09942A88398848885F842A
:10FD20006E847D848C849B84AA84B984C884DF809B
:10FD3000EE80FD800C811B81AA81B981CE0FD11D7F
:10FD40000FB6F894DEBF0FBECDBFED010895F89455
:02FD5000FFCFE3
:10FD520001222A2B2C3A3B3C3D3E3F5B5D7C7F00DF
:10FD6200808182838485868788898A8B8C8D8E8F19
:10FD7200909192939495969798998A9B8C8D8E8F59
:10FD8200A0A1A2A3A4A5A6A7A8A9AAABACADAEAFF9
:10FD9200B0B1B2A3B4B5B6B7B8A5AABBBCBDBCAF2F
:10FDA200C0C1C2C3C4C5C6C7C8C9CACBCCCDCECFD9
:10FDB200D0D1D2D3D4D5D6D7D8D9DADBDCDDDEDFC9
:10FDC200C0C1C2C3C4C5C6C7C8C9CACBCCCDCECFB9
:10FDD200D0D1D2D3D4D5D6F7D8D9DADBDCDDDEFF69
:10FDE200686561646572206572726F7200454F4684
:10FDF200206572726F72007570646174696E672E2D
:10FE02002E2E28312F3229007570646174696E6755
:10FE12002E2E2E28322F3229007375636365737379
:10FE22002100706C65617365207265626F6F742E5C
:10FE32002E2E00426F6F746C6F6164657220763192
:10FE42002E32005344206572726F72004653206551
:10FE520072726F72004649524D574152452E4249C5
:10FE62004E0046696C65206E6F7420666F756E6415
:08FE7200006E6F2061636B005C
:04000005008002373E
:00000001FF
